:1000000000400520FD690000756B0000796B000061
:100010007D6B0000816B0000856B00000D6C0000A3
:100020000D6C00000D6C00000D6C0000896B000071
:100030008D6B00000D6C0000916B0000175B0000E1
:10004000F3580000956B0000996B00009D6B000059
:10005000A16B0000A56B00009F47000073470000E4
:1000600025570000616400006D640000E167000036
:10007000EB670000A96B00001F510000F565000050
:100080000F660000AD6B0000454200007B5600008B
:100090007766000081660000B16B0000B56B000060
:1000A0001B660000256600004966000053660000DC
:1000B0001953000029530000B96B0000BD6B00000C
:1000C000C16B0000C56B0000C96B0000CD6B000068
:1000D000D16B0000D56B0000D96B0000DD6B000018
:1000E000F5670000AB460000036600006D460000A7
:1000F000E16B0000F3610000E56B00000D6C000097
:100100000D6C00000D6C00000D6C00000D6C00000B
:100110000D6C00000D6C00000D6C00000D6C0000FB
:10012000E96B0000ED6B0000F16B0000F56B000067
:10013000F96B0000FD6B0000016C0000056C000015
:100140000D6C00000D6C00002B51000039530000B5
:1001500049530000FF6700000D6C0000096C0000AF
:10018000FFFFFFFFFFFFFFFFFFFFFFFFFFFFFFFF7F
:1001900003329CA700000000FFFFFFFFFFFFFFFFEF
:100800002DE9F0439FB000BF66A6269CDFF8E48A7E
:1008100002918DF83B4000210B914FF0FF370446C9
:1008200091461D460AE019F8011B0298A0470028CE
:10083000029000F0A4800B98401C0B9099F80000E7
:1008400050B12528EFD10020002105900691079096
:10085000089109900A9103E00B98A7E041F001018B
:1008600019F8010F2028F9D023280CD02B2804D008
:100870002D2805D0302809D083E041F00201EFE7B0
:1008800041F00401ECE741F00801E9E741F0100113
:10089000E6E700200D900AE00D98404505DA00EBF0
:1008A000800302EB4302303A0D9209F1010999F8F5
:1008B0000020A2F130000A28EED399F800002E287B
:1008C00018BF0C9726D119F8010F2A2808D12868DB
:1008D000286009F1010950F8042B28600C9219E0F6
:1008E0002D280CBF19F8010B002000220C920BE000
:1008F00040B90C9A424505DA02EB820203EB42034F
:10090000303B0C9309F1010999F80030A3F1300252
:100910000A2AEDD3ADF83810304699F8001000F0EF
:1009200081FE08B119F8010B8DF83A009DF83A00E4
:10093000682804BF99F80010682903D162208DF857
:100940003A0008E06C2804BF99F800006C2804D134
:1009500071218DF83A1009F1010910A804902A4676
:1009600019F8013B6946204600F060F838B910AA32
:100970006946204600F08CF900287FF55FAF3846C5
:1009800014E02A2885D12A682A6052F8040B2A60CC
:1009900000280D9003D540420D9041F0040109F16B
:1009A00001098AE7686A6C747A4C00001FB0BDE8E0
:1009B000F083622820D0682811D06A2803D06C28E0
:1009C00027D0712825D10868C01D20F007000860D5
:1009D000D0E9002308300860194610467047002A05
:1009E0000A680A60106803D0121D0A6000B217E09E
:1009F000121D0A6080B217E0002A0A680A601068B7
:100A000003D0121D0A6040B20AE0121D0A60C0B293
:100A10000AE0002A0A680A60106803D0121D0A6002
:100A2000C1177047121D0A600021704770B51C463F
:100A30000D46B4F125002E69114600F017811C38CF
:100A40006AD0001F022867D9133843D0093863D011
:100A5000801E16D0401E1ED0401E02285CD9001FEA
:100A600019D0401F00F08380401E33D0401E00F09C
:100A7000CD80C01E00F0D880801E2BD0C01E29D093
:100A8000FAE06869421C6A610A680A6052F8043B2D
:100A90000A603354FAE095F83A000122FFF789FF23
:100AA000C5E900010023994204DA6869411C6961C3
:100AB0002D210DE0288F810704D56869411C6961EB
:100AC0002B2105E0C00722D56869411C69612021FE
:100AD00031541CE095F83A000022FFF76AFFC5E99F
:100AE000000195F83800010711D5D5E90023002051
:100AF000834208BF82420AD044F02000782806D101
:100B0000686930213154401C411C696134542146CC
:100B100068693044E86083E00868C01D20F0070081
:100B20000860D0E9002308300860C5E90023D5E952
:100B30000001C80F04D06869411C69612D210DE0D6
:100B4000288F810704D56869411C69612B2105E064
:100B5000C00704D56869411C696120213154686966
:100B60003044E8602146284600F0C4F98EE005F1E3
:100B70003A02507820B14FF0FF340FF648205EE083
:100B80001078622808D0682824D06A2812D06C28EF
:100B90002ED071280ED02BE00A680A6052F8040BA0
:100BA0000A6020B94FF0FF340FF6302047E0E96AC1
:100BB00001706BE00A680A6052F8040B0A6020B901
:100BC0004FF0FF340FF6142039E0EA6AD317C0E97A
:100BD00000235BE00A680A6052F8040B0A6020B93F
:100BE0004FF0FF340FF6F41029E0E96A01804DE080
:100BF0000A680A6052F8040B0A6020B94FF0FF340B
:100C00000FF6D8101BE0E96A01603FE00A680A604D
:100C100052F8040B0A600021C5E90001EE6078215A
:100C2000284600F0BBF831E00868086050F8044B33
:100C30000860EC603CB94FF0FF340FF6B81000F0DC
:100C4000FDFC201A70BD2E6B002E04D5204600F04E
:100C500015FD044608E032460021204600F02AFD3A
:100C6000002814BF041B3446AC610FE06869411CC6
:100C700069612521315409E06969481C68612522B0
:100C80007254210002D0411C69613454002070BDAF
:100C90002DE9FC410F460646796B7869BC6A091A52
:100CA000386A091AB869091A786A091AF869091AB2
:100CB00097F838000C1B410790460FD42021002CD8
:100CC0008DF800100ADD254601236A463946304674
:100CD00000F060FC00285DD16D1EF5D17B694246B5
:100CE0003946304600F056FC002853D130208DF8AC
:100CF00000003D6A002D09DD01236A463946304671
:100D000000F048FC002845D16D1EF5D1BB69FA689A
:100D10003946304600F03EFC00283BD130208DF8AB
:100D200000007D6A002D08DD01236A463946304601
:100D300000F030FC70BB6D1EF6D1F868B969FB6934
:100D400042183946304600F025FC18BB30208DF89B
:100D50000000BD6A002D08DD01236A463946304691
:100D600000F018FCB0B96D1EF6D197F838004107B5
:100D70000DD52021002C8DF8001008DD01236A46D6
:100D80003946304600F006FC20B9641EF6D100203A
:100D9000BDE8F6814FF0FF30BDE8F6812DE9FC4754
:100DA00007468A463E69BAF16F0F08BF082405D08E
:100DB0004AF02001782914BF0A2410243C25D7E9E1
:100DC0000023BAF1640F18BFBAF1690F9046994633
:100DD00006D100218B4203DAD8F1000869EB4909FA
:100DE0000020814508BF80451FD1386BE8B9082C29
:100DF0004CD197F83800010748D530203B2586F8BC
:100E00003B0043E000280ED597F8380000F01400AE
:100E1000102808D17A6B7869121A386A121A511A96
:100E20000029C8BF3962BDE8F3878DF800A04046AD
:100E300049462246E31700F069FC3032D0B26D1EFD
:100E40003A28019504DB9DF80000A0F151018A18B1
:100E50007255404649462246E31700F057FC80464B
:100E600089460020814508BF804503D0F868711984
:100E70008842DCD3082C09D197F83800010705D542
:100E8000715D302902D06D1E30207055C5F13C01D6
:100E9000B9617019F860386B8142B3DA411A39626E
:100EA0004FF6EF70398F01403987BDE8F3872DE9A0
:100EB000D04306460F4614464FF00008DFF838943A
:100EC00012E0E00707D542464B463046394600F06F
:100ED00035FD06460F464046494642464B4600F021
:100EE0002DFD641080468946002CEAD130463946F3
:100EF000BDE8D0832DE9F34F054641F020048DB0C5
:100F0000D5E90089612C02AE09D0286B002848BFC2
:100F1000062003D408BF672C01D101202863D5E93E
:100F2000002358004015401C0ED119030CD003209B
:100F3000A8619DF8380061381A2802D20FF2D061FA
:100F400011E00FF2D0610EE058004015401C0FD1A7
:100F500019030DD10320A8619DF8380061381A28C3
:100F600014D30FF2B861E868032200F0B9FDD3E1B1
:100F7000194621F00043B3F5801F10460DD200271B
:100F8000BB4208BFBA42019703D111E00FF288615A
:100F9000E9E701AA00F0F8FD0AE0DFF8607307EB6B
:100FA0001352DFF85C3301921940DFF858331943CC
:100FB000C5E90001612C0ED1E86830210170811C67
:100FC000E9609DF8381061290CBF782158214170E3
:100FD0006869801C6861D5E900AB2BF000430020F4
:100FE0002AF00002834204BF8242002300F05A81AB
:100FF000612C40F0A980286B00284CBF2120401CA8
:1010000000904046009F7F1C49460022002300F0CC
:10101000F3FDD94601988DF8082038BF89F00049C2
:10102000001F0190002FD0460DF1090040F34981C7
:1010300040F2FF71DFF8D0B20C91064640464946B7
:101040000022002300F0F0FD80F03A814800400DBE
:1010500000F11C0210D0002A0EDD0C98824205DB44
:1010600009F0004040EA0B01002013E0A4480840CA
:1010700040EA025140460DE029F00043002028F0EC
:101080000002834208BF82420FBF40461C224046F6
:1010900000F0E2FD8046894600F07CFEFF1F002F35
:1010A000044609DD00F094FE02460B4640464946E0
:1010B00000F0A0FE80468946F01D072104E004F000
:1010C0000F0200F8012D2411002C01DD491EF6D578
:1010D000491E5CBF002200F8012DF9D5ECE000208C
:1010E000194602AA0A4400E05B1E12F80149491E93
:1010F0008442F9D00F2804D10DF10900425C521C42
:101100004254002904D50198001D02AE5B1C0190D9
:10111000591E12D49DF838007218147804F1300862
:101120005FFA88F4392CC4BFA0F13A04A044491EE8
:1011300002F80189F1D58DF83800286B002840F1BC
:10114000B080591E2963ACE0404649460022002386
:1011500000F052FD019938BF89F0004947F29750DD
:1011600041436A4A91FBF2F20192D2F1070204DD97
:1011700040464946FFF79BFE0AE052420020644980
:10118000FFF795FE02460B464046494600F0A4FE96
:101190008046662C286BDFF87CB106BF019F0A37BA
:1011A00006273F18142FC8BF142730208DF80800D9
:1011B00089460DF1090000E03046002F34DD064677
:1011C0004046494600F0ACFF01460A4606F10803D6
:1011D00004200A26B2FBF6F606EB860EA2EB4E02C0
:1011E000303203F8012C0A22B6FBF2F202EB820E37
:1011F000A6EB4E063036401E03F8026DE9D1083FDB
:10120000002F03F10806D7DD084600F09DFF0246D7
:101210000B464046494600F0EDFD00225B4600F0DB
:101220008DFB80468946CBE70DF10901401A0DF18F
:10123000090604E00199491E401E0191761C31788F
:101240003029F7D0662C02D10199491C03E0652CA6
:101250000CBF012100212B6BCB189842B8BF431E55
:10126000002B1ED4834204DAF05C3528A8BF392055
:1012700000DA30201946721E02EB010800E05B1E06
:1012800018F80199491E8145F9D0392802D1705CBE
:10129000401C7054002904D50198401C16465B1C64
:1012A0000190019800B200901BB29DF838103246B0
:1012B000284600F035F82FE0C61D002F3FF7BEAEE0
:1012C00030460DF10901401A009903468842C8BF13
:1012D0000B46002B0DF109063FF52FAF8342BFF6F9
:1012E000FEAE0DF10900C05C07287FF7F8AE0F20B5
:1012F000F6E60000CBCCCC0C0000244002FCFFFF43
:10130000FFFF0F800000E03F0000F07FA08601009B
:101310000000F03F84D797410FB0BDE8F08F000088
:101320002DE9FC43054683B01F46D5F83080002FD9
:10133000164602DC5FF00107B9A68946BDF93040C8
:1013400049F02000662808BF641C17D0672840F0C9
:10135000888014F1040FC0F28A80444580F28780AF
:1013600095F83800641C010702D44745B8BFB84659
:1013700020B2B8EB000848BF4FF000080FFA84F91C
:10138000E868A969B9F1000F27DC4A1C30234354EF
:10139000B8F1000F03DC95F83800010703D5E868C1
:1013A0002E218154521C18EB090FB8BFC8F100045C
:1013B00024B260426862A044B845AA61B8BF4746FB
:1013C000E868AB693FB2EF613A463146184400F035
:1013D00087FBA8EB0700A862C5E022B29742084449
:1013E00019DA3A46314600F07BFBA8693818A9EBB8
:1013F0000707B8F1000FA8616F6203DC95F8381099
:101400000A0705D5E9682E220A54E869401CE861FC
:10141000C5F82880A7E0314600F062FBA8693F1BB1
:10142000B8F1000F484403DC95F838100A0703D5DB
:10143000E9682E220A54401CA86138B28045E86849
:10144000AB69B8BF47463AB206EB0901184400F051
:1014500047FBA8693FB23818A8EB0707A8616F627D
:1014600081E0B9F1610F16D14FF0700918E04745DE
:1014700004DA95F838100A0758BFB846B8F10108E1
:1014800048BF4FF00008B9F1670F14BF4FF045098E
:101490004FF0650904E0B9F1410F08BF4FF0500962
:1014A000A969EB68481CA861B8F1000F16F8012B78
:1014B0005A5403DC95F838100A0719D5EA68431C1A
:1014C000AB612E211154B8F1000F11DD7F1E38B22F
:1014D0008045E868B8BF47463AB23146184400F044
:1014E000FFFAA8693FB23818A861A8EB0700686244
:1014F000E868A9690844002C80F8009003D42B21E7
:101500004170811C03E02D2141706442811C002048
:101510006A460AE023460A2493FBF4F404EB8406AB
:10152000A3EB460302F8013B401C24B2002CF1DC83
:10153000012806DC49F02002652A04BF302201F8A8
:10154000012B48B9302001F8010B07E0401E1DF8BF
:101550000020303201F8012B0028F7DCE868AA6986
:101560001044091AE96195F8380000F014001028B9
:101570000DD16969A8694118686A4118E86941187C
:10158000A86A4118686B8142BCBF411A296205B044
:10159000BDE8F083F8B505460E4617461C46002008
:1015A00074B117F8011BB068A847B06030B1F06A99
:1015B000401CF0620020641EF3D1F2BD4FF0FF30FA
:1015C000F2BD00007072696E74665F733A20256E1A
:1015D00020646973616C6C6F776564007072696E0A
:1015E00074663A2062616420256E20617267756DB1
:1015F000656E74007072696E74665F733A20626122
:101600006420257320617267756D656E740000003B
:101610006E616E004E414E00696E6600494E460096
:1016200030001F400278C9B28A421AB11CBF10F8BC
:10163000012FF9E718BF00207047000080B500B9FE
:1016400006A005490B681BB122220021984701E042
:1016500000F087FD222002BDE80A0420636F6E734C
:10166000747261696E742068616E646C65723A2090
:10167000626164206D6573736167650000F1010349
:10168000810704D010F8011B89B18107FAD10268E3
:10169000B2F10131914311F0803F04BF50F8042FA3
:1016A000F6E710F8011B11B110F8011BFBE7C01A97
:1016B00070470000C9B2830706D0521E22D310F82B
:1016C000013B9942F7D11FE0083A13D302F104021B
:1016D00041EA012141EA014150F8043B121F21BFB8
:1016E0004B40A3F1013C2CEA030C1CF0803FF3D0EB
:1016F000C9B2001F083210F8013B521E28BF91EA00
:10170000030FF8D818BF0120401E7047B3BBD9B1F2
:10171000B2F5803F7DD2022A1ED98C46B1FBF2F190
:1017200002FB11C31B0443EA1043B3FBF2FC02FBB0
:101730001C3380B240EA0343B3FBF2F002FB1032E9
:1017400040EA0C4000237047022A05D98446B0FBCA
:10175000F2F002FB10C270474AB105D100F001025D
:1017600049085FEA3000704700220023704700F00C
:10177000FBBC0B000200002100207047904271EB7F
:10178000030CF6D3B3F5803F2FD2F0B5B3FA83F74D
:10179000B1FA81F4A7F10F0E3D1B5340CEF12006A4
:1017A00002FA0EF2F3415340B5F10F0746D80F3C51
:1017B0002C444140C4F12006A040F1414140B1FB1E
:1017C000F3F603FB1611A2FB0645001BA94102D24A
:1017D000761E8018594180EA010221FA0EF362FA5E
:1017E0000EF200215A403046F0BD30B4B1FBF3FC9C
:1017F00003FB1C11A2FB0C45001BA94103D2ACF159
:10180000010C8018594130BC02460B46604600214D
:101810007047B2F1807F65D3F0B5B2FA82F7B1FAC2
:1018200081F4C7F10F063D1B22FA06F307F1110EF2
:10183000F24120355A40B5F10F07B8D94140C4F103
:101840002006A040F1414140B1FBF3FC03FB1C1119
:10185000A2FB0C45001BA94103D2BCF1010C80186E
:1018600059410F2F12D30F3FC90341EA5041B1FB39
:10187000F3F603FB1611A2FB0645D4EBC030A941D9
:1018800002D2761E8018594146EACC3C07B341404B
:10189000C7F12006B840F1414140B1FBF3F603FB2C
:1018A0001611A2FB0645001BA94102D2761E801824
:1018B000594180EA010221FA0EF3C7F1200462FACD
:1018C0000EF20CFA07F05A402CFA04F13043F0BD46
:1018D00080EA010221FA0EF3002162FA0EF260465C
:1018E0005A40F0BD8C46B1FBF2F102FB11C31B0262
:1018F00043EA1063B3FBF2FC02FB1C331B024CEA0D
:10190000002043EA1063B3FBF2FC02FB1C331B0212
:101910004CEA002043EA1063B3FBF2FC02FB1C33E9
:101920001B024CEA002043EA1063B3FBF2FC02FB0B
:101930001C324CEA0020002370470000B0B581EA59
:10194000030C0CF0004C40F2FF7515EA11541DBF5A
:1019500015EA1357AC42AF4239E0E41923EA455384
:1019600043F48013C90241F0004141EA505EC702CE
:101970001100A7FB020200284FF00000EEFB01203F
:101980004FF00001E3FB072118BF42F001024018AD
:1019900000214941E3FB0E01A4F580640F0302D24C
:1019A00052004041494154F101046CDD470872F195
:1019B000004250F1000051EB0451A1F580115CBFD1
:1019C00041EA0C01B0BD4CEA05510020B0BD05EA6A
:1019D0001357AC4214BFAF4241E050EA410E1CBF66
:1019E00052EA430E02E061460020B0BD24423C446E
:1019F0001BD15FEA070EF6D0090302BF01460020A3
:101A0000AEF1140EB1FA81F7AEEB070401FA07FE4E
:101A10000C37C7F1200100FA07F7C8404EEA000E64
:101A200023EA455343F48013A2E733F00043B3FAAB
:101A300083F704BFB2FA82FE77440B3FE41BB7F191
:101A4000200E2FBF02FA0EF3BB40C7F1200E22FA80
:101A50000EFE38BF43EA0E03BA40641C82E750EA28
:101A6000410E14BF52EA430E6FF000014FF400170D
:101A700017EB430F8ABF194617EB410FB5E74CEA46
:101A800005510020B0BDD4F10104B4F120070FDAF4
:101A9000C4F12007520828BF42F0010210FA07F5EE
:101AA00001FA07F7E1BF2A43E0403843E1400FE085
:101AB000352C98DCC7F1200452EA400220FA07F2E4
:101AC00018BF42F0010231FA07F0A1400A43002199
:101AD00072F1004250F1000051EB0C01B0BD00006A
:101AE00062B38B0708D0521E11F8013B00F8013B8E
:101AF00000F024808B07F6D1830740F0208000BFE0
:101B0000103A07D330B4B1E83810103AA0E83810D2
:101B1000F9D230BC530724BFB1E80810A0E8081080
:101B200044BF51F8043B40F8043BD20724BF31F8CE
:101B3000022B20F8022B44BF0B7803707047121F52
:101B400017D35B0009D151F8043B20F8023B1B0C72
:101B5000121F20F8023BF6D20BE051F8043B00F8CC
:101B6000013B1B0A20F8023B1B0C121F00F8013B33
:101B7000F3D238BF121D521E24BF11F8013B00F8EA
:101B8000013BF8D87047000010B5144600F002F889
:101B9000226010BDC1F30A5343B14A0012F5001F81
:101BA00028D2A3F2FE32A1EB0251704750EA410C59
:101BB00020D001F0004C31EA0C01B1FA81F204BFEF
:101BC000B0FA80F3D2180B3AB2F120032CBF00FA1E
:101BD00003F1914041EA0C013EBFC2F1200C20FA12
:101BE0000CF319439040524240F2FD33D21A01EBFC
:101BF00003517047002270474FF4001C1CEB410F4B
:101C000094BF1CEB430F09E041EA030C50EA4C0C73
:101C100052EA0C0C03D2994208BF9042704714BF9D
:101C20008B428242704700004FF4001C1CEB410FB6
:101C300094BF1CEB430F09E041EA030C50EA4C0C43
:101C400052EA0C0C03D28B4208BF8242704714BF89
:101C50009942904270470000124254D440F2FF7CF7
:101C60001CEA11530FD0634531D09B1863453CBF2C
:101C700001EB0251704701F0004141EA0C51002094
:101C8000AFF30080704750EA410320D001F0004CD0
:101C900091EA0C011CD0B1FA81F30B3B9A420DD9A9
:101CA000D21A994051EA0C01C3F1200C20FA0CFC25
:101CB00061449840531C40F2FF7CD7E7914041EAD1
:101CC0000C01C2F1200C20FA0CF31943904070472C
:101CD000B0FA80F31533202BE0D3202AEED3203A3C
:101CE000203B9A4209D9D21A00FA03F141EA0C01C9
:101CF0000020531C40F2FF7CB8E700FA02F141EAF1
:101D00000C0100207047524240F2FF7C1CEA115344
:101D10000DD06345DBD0B2EB030C3CBFA1EB02510D
:101D200070470CF1010221EA035141F4801150EA9D
:101D3000410CCCD001F0004C352A27DC30B481EACC
:101D40000C01B2F1200309DAC2F12003044601FAC2
:101D500003F5D0402843D1409C400CE0C3F1200261
:101D6000450020FA03F418BF44F0010421FA03F0FF
:101D700091400C43002174F1004550F1000051EBFB
:101D80000C01244230BC7FF47BAF704761460020D9
:101D900076E70000C1F30A5340F2FE329B1A14DDCD
:101DA000D3F120034FEAE17208DDC90241EA505144
:101DB00041F00040D84080185040704703F2E130B5
:101DC00010B1D24382F000407047002070470000FD
:101DD000C11768B14840401AB0FA80F29040D21C56
:101DE000C907C2F5846241EA025202EBD0214005E4
:101DF0007047000070B44FF0004591EA030F40F1C6
:101E0000BD816B40841A71EB030603D2001BB14104
:101E1000121973414FF4001C1CEB410F34BF7CEBD3
:101E2000430442E00C0DA4EB1356352E4FDC45EA7B
:101E3000C323DB0A45EAC121C912B6F120050DDD35
:101E400063FA05F6EB4086EA0305124218BF45F037
:101E50000105C01851F100010CD213E062FA06F539
:101E6000F2405540F3415A40B340F3405A40801885
:101E7000594107D349085FEA30005FEA350528BFBA
:101E800045F0010501F58011420875F1004250F15D
:101E9000000041EB04514E0016F5001F70BC38BF26
:101EA00070470020090D090570471CEB410F10D247
:101EB00052EA43060BD0BCEB410F05D80C0DAB43E7
:101EC000661E342EB6DD02E0AB438018594170BC6B
:101ED000704770BC70470000F0B540F2FF7581EAB2
:101EE000030C0CF0004C15EA11541DBF15EA1357F2
:101EF000AC42AF42E5E0BC41C1F31301C3F31303AD
:101F0000801A994143F4801304D2641E4000494171
:101F100080185941C90241EA5051B1FBF3F603FB65
:101F20001611A2FB0675D7EBC020A94102D2761E7E
:101F300080185941C90241EA5051B1FBF3FE03FB3D
:101F40001E11A2FB0E75D7EBC020A94103D2AEF142
:101F5000010E80185941890241EA9051760546EAFE
:101F60008E2EB1FBF3F603FB1611A2FB0675D7EB21
:101F70008020A94102D2761E80185941C90241EA47
:101F800050514EEA060EB1FBF3F603FB1611A2FB0D
:101F90000675D7EBC020A94102D2761E80185941A0
:101FA000C90241EA5051B1FBF3F703FB1711A2FB41
:101FB0000735D3EBC020A94167F100070CBF0042F1
:101FC00047F0010766F3D5274FEA1E31B80814F52C
:101FD000806412DDBD0775F1004250EB0E5051EBED
:101FE000045111F5801F5CBF41EA0C01F0BD4CF0BB
:101FF0007F6141F0E0410020F0BDBD076D0840EA7F
:102000000E5041F48011D4F10104B4F120060ADA33
:10201000C4F120060200E04001FA06F3E140184353
:10202000B24015430EE0342C13DCC6F1200445EA1F
:1020300040056D0820FA06F2154321FA06F0A1408A
:102040000D43002175F1004250F1000051EB0C01ED
:10205000F0BD00205FEA0C01F0BDCFB992185B41E2
:10206000B3FA83F704BFB2FA82F6BF190B3FB7F198
:1020700020062FBF02FA06F3BB40C7F1200622FA62
:1020800006F638BF3343BA401CB1E419641E33E787
:102090007F4231F00041B1FA81F404BFB0FA80F61A
:1020A000A4190B3CB4F120062FBF00FA06F1A140A1
:1020B000C4F1200620FA06F638BF3143A0403C1B8D
:1020C0001AE7AC421ABF05EA1357AF4212E050EAD2
:1020D00041061CBF52EA4306BFE750EA41073046BB
:1020E00061461CBF41EA0551F0BD52EA430C08BFEE
:1020F000C143F0BD00204FF4001616EB410F98BF0E
:1021000016EB430F08BF16EB410F24BFC14305E098
:1021100016EB430F0CBF61464CEA0551F0BD0000C1
:10212000400D491840EA81200CD2490DA1F580618B
:10213000491C40F0004005DBD1F11F0154BFC840ED
:10214000C017704700207047014648B1B0FA80F1CF
:102150008840C91CC1F58461090501EBD021400507
:102160007047012000F0BEB87047000070B44FF017
:10217000004591EA030F7FF545AE6B40841A71EB81
:10218000030604D26E40001BB141121973414FF493
:10219000001C1CEB410F34BF7CEB430682E00C0DAE
:1021A000A4EB1356362E7BDC012E45EAC32341DC1B
:1021B00043EA525312BFD20292025B08240545EA59
:1021C000C12141EA5051D2EBC020994125D407D119
:1021D000B0FA80F610FA06F162D00020203608E04E
:1021E000B1FA81F6B140C6F1200220FA02F21143A1
:1021F000B0404FEAF474B4EB465434F001064FEAB1
:1022000074040AD8D6F50016760D04F00044F040A8
:1022100061FA06F25040F1404840C00A40EA41509D
:1022200021F0004128BF5FEA500550F1000044EB67
:10223000D12135E0DB0A45EAC121C90AB6F1200502
:102240000EDD42EA0242120CC5F1200603FA06F640
:10225000EB4042EA06056D42984161F100010DE054
:1022600062FA06F5F240554063FA06FC82EA0C0277
:10227000F3405A406D42904161EB030111F4801F1D
:1022800005D1641E620502D06D004041494121F430
:102290008011430875F1004350F1000041EB0451F7
:1022A00070BC70471CEB410F15D223F0004352EA7B
:1022B00043060BD04FEA4C0CBCEB410F04D80C0D7D
:1022C000661E342EB7DDEBE7801A994150EA4106CD
:1022D00008BF0021E4E708BF1CEB430F28BF6FF0E5
:1022E0000001DDE72021090326311820ABBEF9E704
:1022F000020052B2002A05D44901DFF8642940B235
:10230000115408E04901DFF85C2940B210F00F00D9
:10231000104400F8041C704780B5411EB1F1807F65
:1023200001D3012011E0401EDFF83C1908600721AD
:102330005FF0FF30FFF7DCFF0020DFF830190860A6
:102340000720DFF82C190860002002BD38B5040012
:10235000002C26D00021102000F0FEFC01215F207F
:1023600000F0FAFC48F2FF01002000F0F5FC00212B
:102370005F2000F0F1FC00252800C0B254F82000D6
:10238000000C2900C9B254F821106D1C0200D2B211
:10239000FF2A07D089B2C0B280B200F0DDFC00286D
:1023A000EAD031BDFDE77CB50400002C20D000262A
:1023B0002068000C25680EE0BDF80000ADB2A84210
:1023C00015D1761C3000C0B254F82000000C31004A
:1023D000C9B254F821500100C9B2FF2908D069469A
:1023E000C0B280B200F0D8FC0028E5D000E0FFE7E2
:1023F00073BD80B501F0F7F8DFF87808FFF7A6FFA6
:10240000DFF87008FFF7CFFF42F295614B2000F034
:10241000A3FC44F272214D2000F09EFC14211420F4
:1024200000F039FD0820DFF850180880DFF8480870
:102430000088DFF84818087001BDF8B584B00020A6
:10244000ADF8040000200024002000200DF106005B
:1024500001F052F801210DF1030001F09BF8022177
:102460000DF1020001F096F809E0BDF80000401CF3
:10247000ADF80000BDF800104B2000F06DFC46F2F6
:102480009050FFF749FF1421142000F004FD48F29A
:10249000FF01002000F060FC032000F096FC00200B
:1024A000DFF8DC17086001A9012000F068FEBDF824
:1024B00004000828F7D1002102A800F0DBF8641C12
:1024C000029D039E002000F080FCDFF8B40707683F
:1024D0003A002100C9B2DFF8AC0701F0F5F8DFF8E7
:1024E0009007006840084000DFF8841708606946DC
:1024F0004B2000F051FC40F2DE308742B5D340F271
:10250000F33087420AD3BDF80000401EADF800004A
:10251000BDF800104B2000F01FFCB0E7DFF86807A3
:102520000560DFF868070660DFF860070268DFF81B
:1025300058070168DFF8580701F0C6F8BDF8060033
:1025400000F0C9FF01219DF8030000F0E9FF02211E
:102550009DF8020000F0E4FF05B0F0BD80B5012059
:10256000DFF830170870FFF768FF00F005F800206B
:10257000DFF82017087001BD3EB50020142114209B
:1025800000F089FC48F2FF01002000F0E5FB032089
:1025900000F01BFC0DF106015F2000F0FDFB0121A6
:1025A0005F2000F0D9FB01215F2000F0D5FB01A9DD
:1025B000502000F0F1FB2021502000F0CDFB002046
:1025C00000E0401CB0F5FA6FFBD30DF102010A20C8
:1025D00000F0E2FBBDF80210DFF8BC0601F074F871
:1025E000BDF8020001F084F801F090F80022DFF855
:1025F000AC36FFF771FC02000B000020DFF8A016DC
:10260000FFF7F8FB0022DFF89C36FFF797F901F09F
:10261000A1F80400200001F079F802000B00DFF8B7
:10262000880601F051F869464D2000F0B5FBBDF871
:1026300000502000DFF8741601F0C0F801F03CF9FA
:102640004519ADF80050BDF80010DFF8640601F040
:102650003BF8BDF800104D2000F07EFB00215F200C
:1026600000F07AFB0021502000F076FB002000F003
:10267000ACFB37BD70B506000020DFF8FC05018813
:10268000DFF8300600F01CFE80B200282CD10020BC
:102690001BE0DFF82016095CDFF8182602445278A8
:1026A00052EA0122DFF80C160144897852EA0162ED
:1026B000DFF800160144C97852EA0142DFF8F81544
:1026C00003009B0841F82320001DDFF8B0150978AE
:1026D0008842DED3DFF8E4050188DFF89C05008836
:1026E000091ADFF8D8050180DFF8CC05006804007E
:1026F000DFF8C40540680500C6E9004570BD2DE956
:10270000FC4705005FF07E50DFF8B445DFF8B40504
:102710000020ADF804002800C0B2012804D101A9AE
:10272000392000F039FB03E001A93B2000F034FB25
:102730002900C9B2684600F0A6FEBDF8040080B2C8
:10274000C00A80B2042816D19DF80000002805D0E8
:10275000022809D005D3032809D00BE0DFF8604533
:102760001FE0DFF864451CE0DFF8604519E0DFF8A2
:10277000604516E015E09DF80000002805D002280D
:1027800009D005D3032809D00BE0DFF8484508E05D
:10279000DFF8444505E0DFF8444502E0DFF8404556
:1027A000FFE72900C9B20DF1010000F043FE0DF171
:1027B0000601252000F0F0FA2800C0B201281AD145
:1027C0000DF10201232000F0E7FABDF8060010F039
:1027D0001F00FFF7FDFADFF80C25DFF80C35FFF7D7
:1027E000ADF8DFF80825DFF80835FFF7BFFC00F08B
:1027F000B1FF06001AE00DF10201222000F0CCFA30
:10280000BDF8060080B2C00A80B2FFF79DFCDFF879
:10281000D424DFF8D434FFF791F8DFF8D024DFF8C0
:10282000D034FFF7A3FC00F095FF0600BDF80200CE
:1028300010F00F00FFF7CCFADFF8B824DFF8B83457
:10284000FFF77CF85FF06632DFF8B034FFF78EFCFC
:1028500000F080FFBDF80210890402D4DFF8A01454
:1028600001E05FF07E5101F03DF80100300001F021
:1028700039F80600EDB2012D31D1DFF88854DFF8C8
:102880008874DFF888A4DFF88804DFF88884DFF82C
:102890008894310001F026F80100504601F08EF8CE
:1028A00082464046310001F01DF80100300001F081
:1028B00019F80100504601F081F880464846310081
:1028C00001F010F80100300001F00CF801003000B8
:1028D00001F008F80100404601F070F805E0DFF86B
:1028E000E053DFF838745FF07E50390000F0FAFFF3
:1028F00007009DF8010000F0FBFE0100200000F041
:102900005DFF310000F05AFF290000F057FF390049
:1029100000F054FFBDE8F68730B400211FE013003B
:10292000DBB250F823300C00E4B250F82440A3424C
:102930000FD20B00DBB250F823301400E4B250F891
:1029400024400D00EDB240F825401400E4B240F8F8
:102950002430521C1300DBB2052BE0DB491C0A00BB
:10296000D2B2052A01DA4A1CF4E7806830BC70470D
:10297000F8B506000DF10201252000F00DFA6946B8
:10298000232000F009FABDF8020010F01F00FFF745
:102990001FFAD44AD44BFEF7D1FFD44AD44BFFF7E9
:1029A000E5FB00F0D7FE0700BDF8000010F00F00B7
:1029B000FFF70EFACF4AD04BFEF7C0FF5FF066324A
:1029C000CE4BFFF7D3FB00F0C5FEBDF80010890425
:1029D00001D4CB4901E05FF07E5100F083FF01009C
:1029E000380000F07FFF04006946222000F0D4F98F
:1029F000BDF8020080B2C00A80B2FFF7A5FBB94A59
:102A0000B94BFEF79BFFB94AB94BFFF7AFFB00F09C
:102A1000A1FE0700BDF8000010F00F00FFF7D8F985
:102A2000B44AB54BFEF78AFF5FF06632B34BFFF74F
:102A30009DFB00F08FFEBDF80010890401D4B04961
:102A400001E05FF07E5100F04DFF0100380000F022
:102A500049FF0500C6E90045F1BD2DE9F14F8AB0F7
:102A6000AF48B048B0485FF08640052104A800F0A8
:102A70007CFCBDF810008DF80000BDF8120000F0DD
:102A800037FE8046BDF8140000F032FE8146BDF8E6
:102A9000160000F02DFE8246BDF8180000F028FE5A
:102AA000834602A8FFF764FF9DF800001E2801D1AD
:102AB000012000E000209DF800101F2901D1012114
:102AC00000E00021C0B2C9B2084300285AD0944E99
:102AD000944F954801905FF086400090934940469E
:102AE00000F06CFF8E4900F0FDFE914900F066FF9A
:102AF0005FF0874100F062FE04008C49484600F018
:102B00005DFF884900F0EEFE8A4900F057FF5FF054
:102B1000874100F053FE05005FF04341504600F04E
:102B20004DFF5FF0824100F0DDFE80465FF04341E3
:102B3000584600F043FF804900F0D4FE81460299D8
:102B4000200000F0CFFE0100404600F037FF0400F7
:102B50000399280000F0C6FE0100484600F02EFF51
:102B600005000299300000F0BDFE019900F026FF3B
:102B700006000399380000F0B5FE009900F01EFF32
:102B800007005AE09DF80000212856D16B4E6C4F8B
:102B90006C4801906C4800906449404600F00EFF7C
:102BA000664900F09FFE694900F008FF5FF0874129
:102BB00000F004FE04005D49484600F0FFFE604955
:102BC00000F090FE624900F0F9FE5FF0874100F0EE
:102BD000F5FD05005F49504600F0F0FE5FF08241D0
:102BE00000F080FE80465B49584600F0E7FE5249FF
:102BF00000F078FE81460299200000F073FE01008B
:102C0000404600F0DBFE04000399280000F06AFE55
:102C10000100484600F0D2FE05000299300000F0A5
:102C200061FE019900F0CAFE06000399380000F029
:102C300059FE009900F0C2FE0700DDF82880200050
:102C4000310000F0BBFD07902800390000F0B6FD10
:102C50000890DDE90701C8E900010BB0BDE8F08F7D
:102C600000E400E018ED00E014E000E018E000E00F
:102C700010E000E0B4000420F20A0420020B04205B
:102C8000B80A04209C6A0000C40A0420C80A042070
:102C90002C6B0000FF0A04201C6B000000409F40CA
:102CA0000000F03F80847E41B46A000000E4D44715
:102CB000F86A0000900A0420140A0420F00A042094
:102CC00085EBD13E0000C84285EB513F85EBD13FFB
:102CD000AE475140E17A143F3333933F0AD7134054
:102CE0000AD79340BA490C022B87963FAE47E17A48
:102CF00014AEE73FCDCCCCCCCCCC3340662649409B
:102D0000CDCCCC3DB81E853E5C8FC23EE9607D3F98
:102D1000B695A8BB002EAA370BA6FEB2AE47613E01
:102D2000000088410000084200801B440000E0C20F
:102D300000008845000008460000A0400000A841AF
:102D40000000284200403C4400001C430000A8450D
:102D5000000028460000A0C238B504000D00200085
:102D60008DF80000280080B2000A8DF801002800CC
:102D70008DF802000321684600F0E3FE002802D02F
:102D80005FF0FF3007E0A4B2112C03D1280080B21D
:102D900000F080FC002032BD1CB50C008DF8000056
:102DA00002220DF10201684600F0A7FE002802D0C1
:102DB0005FF0FF3008E09DF8020000029DF803106C
:102DC00050FA81F02080002016BD1CB504000020C0
:102DD0000020DFF85006008840F21651884203DADE
:102DE00001215F20FFF7B8FF2000C0B2002803D107
:102DF00000F000FC040030E02000C0B2012805D142
:102E000001211020FFF7A8FF040026E0E4B2032C04
:102E100021D101211020FFF79FFF0400DFF80406F5
:102E2000008840F21651884204DA01215F20FFF742
:102E300093FF044369466020FFF7AEFF044348F266
:102E4000FF010020FFF788FF044302211020FFF755
:102E500083FF044301E05FF0FF34DFF8C80500881A
:102E600040F21651884205DA40F242215220FFF723
:102E700073FF0443002007E00021DFF8C4270300AC
:102E8000DBB242F82310401C0100C9B20529F3DB74
:102E9000200000B216BD3EB505000C0069461120A9
:102EA000FFF77AFF002802D05FF0FF3066E1DFF81D
:102EB00078050570DFF874050470BDF8000010F4A3
:102EC0004050ADF800002800C0B200283DD10020DD
:102ED000DFF85C1508700020DFF868170870002024
:102EE000DFF8641708702000C0B2002840F0B980F5
:102EF0000020DFF8581708700020DFF8541708701A
:102F00000020DFF88C170870DFF824050178DFF85F
:102F10003C0700784118DFF83C07017011208DF85C
:102F20000400BDF8000080B2000A8DF80500BDF86D
:102F300000008DF80600032101A800F002FE002821
:102F400000F01B815FF0FF3018E12800C0B20128BB
:102F500012D1BDF8000050F01100ADF800000820BB
:102F6000DFF8CC1408700420DFF8D81608700220AF
:102F7000DFF8D4160870B6E72800C0B2042812D1D2
:102F8000BDF8000050F01900ADF800001020DFF887
:102F9000A01408700420DFF8AC1608700420DFF8D5
:102FA000A81608709FE72800C0B2112812D1BDF8FA
:102FB000000050F00500ADF800000220DFF87014AA
:102FC00008700120DFF87C1608700220DFF8781600
:102FD000087088E72800C0B2142812D1BDF800009C
:102FE00050F00900ADF800000420DFF84414087028
:102FF0000120DFF8501608700420DFF84C16087026
:1030000071E72800C0B2412812D1BDF8000050F08D
:103010000500ADF800000220DFF81414087001204C
:10302000DFF8201608700220DFF81C1608705AE737
:10303000EDB2842D12D1BDF8000050F01100ADF8B2
:1030400000000820DFF8E81308700220DFF8F4150C
:1030500008700420DFF8F015087044E75FF0FF30D7
:103060008CE02000C0B2012812D1BDF8000050F45D
:103070009070ADF800000820DFF8D015087004202B
:10308000DFF8CC1508700220DFF8041608703BE763
:103090002000C0B2042812D1BDF8000050F4D07056
:1030A000ADF800001020DFF8A41508700420DFF848
:1030B000A01508700420DFF8D815087024E7200058
:1030C000C0B2112812D1BDF8000050F06000ADF878
:1030D00000000220DFF8741508700120DFF8701579
:1030E00008700220DFF8A81508700DE72000C0B2B4
:1030F000142812D1BDF8000050F0A000ADF8000077
:103100000420DFF8481508700120DFF84415087026
:103110000420DFF87C150870F6E62000C0B24128D4
:1031200012D1BDF8000050F06000ADF800000220A0
:10313000DFF8181508700120DFF814150870022058
:10314000DFF84C150870DFE6E4B2842C12D1BDF82C
:10315000000050F49070ADF800000820DFF8EC1487
:1031600008700220DFF8E81408700420DFF820154A
:103170000870C9E65FF0FF3000E000203EBD3EB5BC
:103180000C0000250100C9B200293DD101A906208B
:10319000FFF702FE0543BDF8040010F47C50ADF8C3
:1031A0000400BDF8040080B2C00950F00100ADF881
:1031B00004000DF10201012000F04EFA05436946BA
:1031C000022000F049FA0543DFF8E804BDF80210D8
:1031D000405CADF80200DFF8DC04BDF80010405C94
:1031E000ADF80000BDF80210BDF800004118ADF8C0
:1031F0000210BDF80400BDF8021090FBF1F0401C75
:103200002080280000B23EBD0100C9B2012910D1C2
:1032100001A90020FFF7C0FD0543BDF8040080B2FE
:10322000000ADFF894140870DFF88C04007820801E
:10323000E7E70100C9B202291ED10DF102011220F7
:10324000FFF7AAFD054369461520FFF7A5FD0543D5
:10325000BDF80000C0F30310ADF800000121BDF877
:1032600000008140ADF80010BDF80210BDF800006C
:103270004143C9102180C4E70100C9B2032903D129
:103280006B4800782080BCE70100C9B2042904D152
:10329000DFF8B80300782080B3E70100C9B2052940
:1032A00003D1614800782080ABE7C0B2062804D182
:1032B000DFF8080400782080A3E75FF0FF30A2E782
:1032C0007CB504000D00DFF8F0030078802804DBF3
:1032D00053480068401C524908605248008840F238
:1032E0001651884214DADFF8D0030078290080B242
:1032F00089B288420BD3012640F243315220FFF7B6
:103300002BFD40F64F715220FFF726FD00E000260E
:10331000DFF8A4030078290080B289B2884214D370
:10332000DFF81C038068401CDFF8141388606020FD
:103330008DF800002A0092B22100684600F0DDFB03
:10334000002802D05FF0FF300EE03648008840F2DF
:103350001651884207DAF6B2012E04D140F242211A
:103360005220FFF7F9FC002076BD7CB505000E0069
:103370000DF102014B20FFF70FFDBDF8021051F0D7
:10338000800189B24B20FFF7E7FC0A2000F024FC03
:1033900069465F20FFF700FDBDF8001051F0010104
:1033A00089B25F20FFF7D8FC03215720FFF7D4FC38
:1033B00001A96720FFF7F0FC01A96720FFF7ECFCEB
:1033C0000024BDF8040010F00700042811D10AE021
:1033D0002000C0B205EB40012000C0B2703080B2C6
:1033E000FFF7DAFC641C20003100C0B2C9B2884289
:1033F000EED300215720FFF7AFFCBDF802104B20A1
:10340000FFF7AAFCBDF800105F20FFF7A5FCE4B2AF
:10341000002C02D15FF0FF3000E0002076BD0000FC
:10342000B40A0420EE0A0420F50A0420F60A042057
:10343000F80A0420F8B5050008000024C0B20521F0
:1034400048432C300100C9B2312906D00100C9B26D
:10345000362902D05FF0FF3014E0FF2608276946C6
:10346000C0B280B2FFF798FC002802D05FF0FF30B6
:1034700008E0BDF80000B6B230EA06063E412E7004
:10348000200000B2F2BDF8B505000024C9B2480022
:1034900040300100C9B2422906D00100C9B2442916
:1034A00002D05FF0FF3015E04FF6FC76002769464A
:1034B000C0B280B2FFF770FC002802D05FF0FF308E
:1034C00008E0BDF80000B6B230EA06063E412E70B4
:1034D000200000B2F2BD10B501000024122089B214
:1034E000C0B280B2FFF738FC002802D05FF0FF3096
:1034F00001E0200000B210BD38B504000025122004
:103500006946C0B280B2FFF747FC002802D05FF0E6
:10351000FF3004E0BDF800002080280000B232BD7A
:103520002DE9FC410400002515270800C0B2012840
:103530000ED14FF68F765FF0040869463800C0B2AE
:1035400080B2FFF729FC00280DD05FF0FF301FE0AC
:10355000C9B2022904D14FF6FF065FF00808ECE774
:103560005FF0FF3014E0BDF800000640E4B214FA4A
:1035700008F43443210089B2FFB2380080B2FFF76B
:10358000EBFB002802D05FF0FF3001E0280000B222
:10359000BDE8F681F8B50400002515200A00D2B276
:1035A000012A0CD14FF68F7604276946C0B280B24B
:1035B000FFF7F2FB00280CD05FF0FF3012E0C9B239
:1035C000022903D14FF6FF060827EEE75FF0FF3030
:1035D00008E0BDF80000B6B230EA06063E412670AB
:1035E000280000B2F2BD80B501210F20FFF7B4FB27
:1035F000002002BD10B501211020FFF7ADFB040033
:103600002F48008840F21651884204DA01215F20D9
:10361000FFF7A2FB044300211020FFF79DFB0443AA
:103620002748008840F21651884204DA00215F20C2
:10363000FFF792FB0443200000B210BD0000000021
:103640004C0A0420FA0A0420FC0A0420F90A042087
:10365000FB0A0420F40A042038B504000D00694672
:103660001120FFF799FB002802D05FF0FF300EE039
:10367000E4B2012C05D1BDF80000C0F3820028801F
:1036800004E0BDF80000C0F382102880002032BDA5
:10369000FD0A042080B5C0F3820280B2801110F0D0
:1036A00007000849C0B2095C0648D2B2805CFFF747
:1036B000F2FB02BD5C6B0000F70A0420F60A04204E
:1036C000EE0A0420646B00000EB4C0B5024603A8E5
:1036D00000210190009101AB0121044878440C3095
:1036E000FDF78EF806BC5DF810FB00BFE13300006B
:1036F00000280AD0B0FA80F18840D1F19D01C905B7
:10370000020672F1004241EB10207047C0F3C7512E
:1037100081B1FF2906D0C110400721F0E04101F13D
:103720006051704741020CBF40F4E0016FF000416E
:103730000020704700F0004100020AD0B0FA80FC7F
:1037400000FA0CF001F16051A1EB0C5101EBD0211A
:103750004005704701F000428B1AA3F16051B1F5AA
:10376000801F0ADBB1F17F6F1FD242EAC102C100A4
:1037700071F1004142EB507070470B15C3F1090322
:10378000212B10D2890241EA90518002012849413F
:1037900041F0004121FA03F0C3F12003994071F197
:1037A000004150417047100070476FF0000013EB6C
:1037B000103F5CBF000E42EAC050704710B5FF23B7
:1037C00013EAD0541DBF13EAD1529C429A4239E009
:1037D000A41ADA0780EA0103134042EA012142EA0F
:1037E0000020421A3CBF641E01EB4202090AB2FBF0
:1037F000F1FE01FB1E221202B2FBF1F001FB1022CE
:103800006EF30F201202B2FBF1FE4EEA00207F346D
:1038100006DDFE2C24DA53EA500050EBC45010BDF4
:10382000D4F1020401FB1E2240F08071192C1DDC32
:1038300021FA04F0C4F12004A140114371F10042C7
:10384000584110BD9C421ABF03EAD1529A420FE080
:1038500080EA010E0EF00043400004D0490016D16A
:1038600043F0FF4010BD490008BFD343180010BD0E
:103870009C4205D1D21AF7D001F00041484010BD5A
:103880004A0212BF0846484000F0004010BD4AB945
:103890000902B1FA81F2914044B1A418C00140F08C
:1038A00000409EE7C90141F0004152420002B0FAD7
:1038B00080F4A040141B94E7C0F3C7517E390EDD9D
:1038C000C217D1F1200106DD000240F00040C840DF
:1038D000104450407047D04380F0004070470020B3
:1038E00070470000FF2212EAD05C1DBF12EAD153DC
:1038F000944593422BE09C44D30780EA01021A408E
:1039000043EA002043EA0121A1FB0030C04238BF56
:1039100040007CF17F010BDBFE294ADA5B0842EABA
:10392000C15153EA006373F1004C51EB1020704712
:10393000D1F1080CDCF120012FDB5B0810FA01F15A
:103940000B4320FA0CF073F100415041704794454D
:103950001CBF02EAD153934280EA010202F0004206
:103960001DD0400019D0490017D05BB9634514D071
:103970000902B1FA81F39940BCEB030CC00140F09D
:103980000040C1E70002B0FA80FC10FA0CF0B3EB83
:103990000C0CC90141F00041B6E71000704740002F
:1039A0000AD0490008D010F1807F94BF11F1807FC8
:1039B00002E042F0FF407047D043704790EA010FA9
:1039C00040F1148181F00041431A4FF000423EBFA4
:1039D0005340C01AC91800BFD3095FEAD05C13EB8B
:1039E000400F34BFB3EB410F40E07CEBD1530CD31D
:1039F00042EA012122D8D1EB402009D3400A28BF56
:103A00005FEA500140EBCC507047401A15D040029D
:103A1000B0FA80F2521C9040400A4FEA3C23B3EBCC
:103A2000026384BF00EB730007E040F400001A1645
:103A3000DB07C2F10102D04018437047182BFCDCB1
:103A400031FA03F202FA03F3591A38BF42F00102C5
:103A5000D2EB40203CBF4000ACF1010C5FEACC5CF3
:103A6000C20572F100414CEB5020704713EB400F40
:103A70000FD2C94209D0ACEBD153022B03DB490270
:103A8000172BDDDD70479143401AC042D5D100208D
:103A9000704713EB410FD0D36FF000007047000068
:103AA00080B53B4B30223B49002000F008F900284C
:103AB00001D007201AE03648006800F088F9002895
:103AC00001D0072012E064213148006800F08EF92F
:103AD000002801D0072009E064212D48006800F08B
:103AE000CFF9002801D0072000E0002002BD80B5FA
:103AF0000020FFF7D5FFC0B202BD00B585B000239E
:103B000000900120ADF804000291ADF80C200120D6
:103B10008DF80E0001208DF80F0064211C4800680C
:103B200000F0AEF904AA69461948006800F006F9E9
:103B30000100C9B2002901D0C0B200E0C0B205B096
:103B400000BD00B585B0002100900121ADF8041042
:103B5000401C02900220ADF80C0000208DF80E00F1
:103B600001208DF80F0064210948006800F088F9F1
:103B700004AA69460648006800F0E0F80100C9B2EE
:103B8000002901D0C0B200E0C0B205B000BD000005
:103B9000D00A0420E409042080B500F0B0FB012124
:103BA000012000F05BFC0121002000F057FC012106
:103BB000002000F0D3FC6946002000F01BFD03E06C
:103BC0006946002000F016FD9DF800000228F7D19C
:103BD0000A2000F0FBFB01BD002100E0491C64222B
:103BE00002FB00F29142F9D370470000421A3CBF39
:103BF000801A89184FF0004CC0F3C752FF2A24D016
:103C0000C1F3C75313B3D21AD2F1190327DD4CEA1B
:103C100001214CFA03F321EA0303D140C20D4CEA1F
:103C20000020401834BF20EA0C004CEA5000D205B6
:103C300053EA006373EB0C0C52EB1020420012F1BC
:103C4000807F38BF7047C00DC0057047490212BF62
:103C50009A4200EB5120F8E7D2F11703D9D570470B
:103C6000010049B2002909D4012210F01F018A4045
:103C7000DFF8541640B2400941F820207047010097
:103C800049B200290DD4012210F01F018A40DFF84B
:103C90003C1640B2400941F82020BFF34F8FBFF3DC
:103CA0006F8F7047DFF82816C968814205D04068D9
:103CB000C068002801D0012000E000207047F8B55E
:103CC00005000C0011001F002600002D01D003206C
:103CD00033E0DFF8FC052A011044C068002801D059
:103CE00005202AE0002C01D0302901D2092024E04F
:103CF00000203860DFF8D8052A011044C460002293
:103D0000200000F00FFEDFF8C805290108447060AC
:103D1000DFF8BC052901084440683060DFF8B415BD
:103D20000C20454301EB0500716888600020F062BB
:103D3000300000F091F93E600020F2BD70B5040043
:103D40000E0015002000FFF7ADFF002801D0022073
:103D50003CE0DFF8840500882168898811F48861D7
:103D6000884201D0052031E0B068002802D0B08937
:103D7000002801D10A2029E0002020743100200011
:103D800000F0A2F894F82A00002813D1002214F1C0
:103D90002C01002000F02AFDC0B2002801D00D2027
:103DA00014E0DFF8340500882168898811F48861FF
:103DB0008842F6D194F82B00286094F82B00002854
:103DC00002D0082084F82A0094F82A0070BD10B5AB
:103DD00004002000FFF766FF002801D0022004E065
:103DE0000020E062200000F037F910BD38B5040073
:103DF0000D002000FFF756FF002801D002203EE012
:103E0000DFF8D40400882168898811F48861884229
:103E100001D0052033E06946002000F0F1FA0028C7
:103E200001D004202BE0DFF8B404854201D3012047
:103E300025E00098B0FBF5F0400801000A0092B2BE
:103E4000904201D001201AE0C81F491E0002DFF88D
:103E50008824128803009BB203F0FF039A4208D122
:103E6000DFF8742412880B009BB213F47F439A424C
:103E700001D0012003E0084321688884002032BD7E
:103E800038B504000D002000FFF70CFF002801D01A
:103E9000022018E0DFF8400400882168898811F4C6
:103EA0008861884201D005200DE0DFF82C040188EC
:103EB0002A0092B24FF680700240914201D00B204E
:103EC00001E0A581002032BD80B5002280F82A20C3
:103ED000002280F82B20DFF80024128803689B88DA
:103EE00013F488639A42F6D10A6842618A88028391
:103EF000CA7B82728289520012F0FE02C2818A7BE2
:103F0000002A0ED08A684262898901850021C16138
:103F100000210184C18951F00101C18100F04EF8F6
:103F20000EE000224262002202858A68C26189890D
:103F30000184C2894FF6FE710A40C28100F001F887
:103F400001BD10B50400606890F90000FFF788FE1D
:103F50002068008850F0210021680880206881884E
:103F600011F00301D1F102010AE0606900782268D2
:103F700090816069401C6061208B401E2083491E37
:103F8000080080B2002802D0208B0028EDD1080064
:103F900080B200280ED0208C00280BD0E069007879
:103FA00022689081E069401CE061208C401E2084E2
:103FB000491EECE7E0892168088310BD10B50400B4
:103FC000606890F90000FFF74BFE2068008850F011
:103FD000110021680880208D40F20111884208DB21
:103FE0004FF4807021680882208DB0F580702085A4
:103FF00005E0208D401E2168088200202085208B4E
:10400000002825D02068008850F020002168088012
:104010002068818811F00301D1F102010AE0606992
:104020000078226890816069401C6061208B401E8E
:104030002083491E080080B2002802D0208B00286F
:10404000EDD1E1894FF6FE7001402068018302E066
:10405000E0892168088310BD1CB50400606890F9F0
:104060000000FFF70CFE20688088ADF80000BDF866
:1040700000002168888003E020688089ADF8000096
:10408000954800882168B1F84C1011F0C0018842B1
:10409000F2D100202168088001202168A1F8500099
:1040A000606880680088216808806068806840884F
:1040B000216888846068806880882168A1F8500041
:1040C00060688068C0882168A1F8540060688068D2
:1040D00000892168A1F85800606880684089A08143
:1040E000002016BD01000868B0F84C00C0F30112B2
:1040F000D2F102020AE0486900780B6898814869A9
:10410000401C4861088B401E0883521E100080B27C
:10411000002802D0088B0028EDD1088B002818D188
:10412000088D00280ED0C8890A68108311E0C8697C
:1041300000780B689881C869401CC861088C401ED3
:104140000884521E100080B2002802D0088C00287B
:10415000EDD1088C002802D10420096888807047BE
:1041600001000868B0F84C00C0F3811207E04FF47A
:1041700080700B681882088DB0F58070088510007B
:1041800080B200281AD0521E086800894B6A187045
:10419000486A401C48620868808A0028EFD1088D70
:1041A0000028ECD0088D40F201139842DFDA088D28
:1041B000401E0B68188200200885E0E7704710B5A4
:1041C0000400454800882168898811F48861884284
:1041D000F7D1606890F90000FFF751FD3D48008875
:1041E0002168088010BD3C490988027A12F010024B
:1041F000914205D090F82B1051F0010180F82B105E
:1042000035490988027A12F08002914205D090F86F
:104210002B1051F0020180F82B102F490988027AE7
:1042200012F02002914205D090F82B1051F00401B9
:1042300080F82B1090F82B10002902D1082180F86B
:104240002B10704738B500242148C568286880883D
:104250002881A87A002804D0E889296808830020EA
:10426000A8721D480088297A11F00401884202D002
:104270002800FFF737FF18480088297A11F0080155
:10428000884202D02800FFF76BFF13480088297A84
:1042900011F0B001884203D02800FFF7A4FF0124E9
:1042A0000D480088298911F48071884203D02800C4
:1042B000FFF785FF0124E4B2002C03D015F12C0098
:1042C00000F0FCFA31BD000000E100E080E100E018
:1042D0001400042024000420EC0A0420811A0600A3
:1042E000010049B2002909D4012210F01F018A40BF
:1042F000DFF8F41540B2400941F82020704780B53E
:104300004CF61430DFF8D81408600220DFF8DC1512
:1043100008600020DFF8CC1408604CF61430DFF899
:10432000C0140860DFF8C405006850F00200DFF830
:10433000BC150860DFF8B40500688005FAD5DFF821
:10434000A804006880088000DFF89C140860002042
:10435000DFF894140860DFF85005DFF850150860A6
:104360000020DFF84C15086046F61A00DFF8441507
:1043700008605F20DFF8401508600020DFF8701546
:1043800008600020DFF86C1508600020DFF8681571
:1043900008604CF61430DFF848140860DFF84C056C
:1043A000006830F00800DFF8441508600620FFF7C9
:1043B00097FF0720FFF794FF2920FFF791FF2B209D
:1043C000FFF78EFF00F0E2FA002002BD002101009D
:1043D000C9B20939032911D8EFF3108272B6DFF898
:1043E0000814096889088900C0B209380843DFF851
:1043F000F813086082F31088002000E00420704762
:1044000038B505000C00DFF8F8040068002804D077
:10441000DFF8F0040068002801D10A2015E000F060
:10442000B5FADFF8DC040168EDB2002D0ED0012DE5
:1044300012D1DFF87804006810F03F00002800D1A6
:104440000120B1FBF0F02060002032BDDFF85C04F9
:104450000068C0F30520F1E70420F6E780B50022EC
:10446000C0B2002833D0022853D075D2080080B2E1
:10447000212803D2080080B2002801D1032025E0C2
:10448000DFF828040068C0F30522080080B28242E9
:1044900001D207201AE0B2FBF0F300FB1320002842
:1044A00001D0052012E03F2089B2EFF3108372B6ED
:1044B000DFF8F823126832EA00000143DFF8EC036A
:1044C000016083F3108800F061FA002002BD08004B
:1044D00080B2212803D2080080B2002801D1032035
:1044E000F4E70A0092B2DFF8C403006810F03F005E
:1044F000824201D20720E9E7B2FBF0F300FB132070
:10450000002801D00520E1E74FF47C5089B2090270
:10451000CBE7080080B2B0F5007F03D2080080B27C
:10452000002801D10320D1E70A0092B2DFF87C0312
:10453000006810F03F00824201D20720C6E7B2FBBC
:10454000F0F300FB1320002801D00520BEE7DFF8C0
:10455000B80389B20904A8E70420B7E770B40022C1
:10456000002200220022C0B2002806D0012819D063
:1045700002281DD0042821D027E00822DFF86C3360
:104580004FF40060EFF3108472B64CF61435DFF888
:10459000506235600D00EDB2012D18D11D682A431F
:1045A0001A6018E00422DFF844334FF48060E9E732
:1045B0000222DFF838334FF40070E3E74FF4007263
:1045C000DFF8F0324FF40070DCE7092010E01D68DE
:1045D00035EA02021A6084F31088002807D0C9B2B5
:1045E000012904D1DFF8041309680142FAD0002040
:1045F00070BC7047DFF8F4221268002901D1022054
:1046000033E000230B70C0B200280FD0022803D083
:1046100016D303281ED025E0900706D5900502D5B5
:104620000220087001E0012008701DE0100706D587
:10463000100502D50220087001E00120087013E087
:10464000500706D5500502D50220087001E0012070
:10465000087009E0D00502D50220087001E00120B1
:10466000087001E0032008700020704710B5A748CB
:10467000046814F006045B480068002812D0600744
:1046800007D500220F219D480068564B1B689847AC
:1046900008E0A00706D500220E2198480068514B7B
:1046A0001B6898479948046010BD38B5974804685E
:1046B00014F4CC448D4805689548054000214948CC
:1046C0000068002844D0002C1BD0600402D551F0B3
:1046D0000B010DE0A00402D551F00A0108E0A0058D
:1046E00002D551F00C0103E0600501D551F00D0138
:1046F00000292DD00022814800683A4B1B6898475A
:1047000026E0002D24D0002D10D5002207217B4863
:104710000068344B1B689847A80419D5002206216D
:10472000764800682F4B1B68984711E068000FD54A
:1047300000220821714800682A4B1B6898476802CC
:1047400006D5002209216D480068264B1B68984752
:10475000002C02D06D4804600AE0002D08D04CF611
:1047600014301F4908606148006805435F480560D0
:1047700031BD80B567480168C8070FD51948006882
:10478000002805D000225D480068164B1B6898473A
:104790006048006850F001005E49086001BD10B536
:1047A0005C4804680F480068002811D0600706D5EF
:1047B00000220021514800680A4B1B689847A00757
:1047C00006D5002201214D480068064B1B6898471A
:1047D0005048006814F0060404434E48046010BDBD
:1047E0000CC10440A80A042000C30440F0B4002314
:1047F0000024002512F0F80F01D0092051E0002913
:1048000002D153F0020344490500EDB2002D07D058
:10481000022D23D002D3032D23D025E0002040E039
:1048200054F00604EFF3108572B644F659063B4F78
:104830003E60304E3668B608B600C0B230432D4EEA
:104840003060374800680343A34335480360EFF303
:104850001183D2B2520182F311880FE053F00403A6
:10486000E0E753F00603DDE706201AE0BFF34F8FC1
:1048700030BF85F31088EFF3108572B60868002802
:10488000F4D00868401E086083F31188244800684B
:1048900030F0020022490860BFF34F8F85F3108883
:1048A0000020F0BC704700000404100004C3044062
:1048B00008C304400CC3044014C304400021002872
:1048C0000DD11548EFF3108172B6154A126832F017
:1048D0000202134B1A60BFF34F8F81F310880168F7
:1048E000491C01600020704700E100E010C1044055
:1048F00000C0044008C0044044C00440AC0A042086
:10490000DC0A0420D80A04200000FF0118C3044078
:10491000002040C004C00440B00A04200CC0044081
:1049200010ED00E062F30F2262F31F42401810F016
:10493000030308D0C91A1FD3DB0748BF00F8012DB5
:1049400028BF20F8022D130030B414461546103944
:1049500028BF20E93C00FAD8490728BF20E90C000D
:1049600048BF40F8042D890028BF20F8022D48BF19
:1049700000F8012D30BC7047C91818BF00F8012D90
:10498000CB0728BF00F8012D7047000010B44FF48A
:1049900000405749086056480068002800D1FEE7EB
:1049A0005448006810F00300002805D0022810D0F9
:1049B0000BD303282DD031E04F48504908604F48B1
:1049C00000684F49086010BC70474B484B4908606D
:1049D000F5E74848006810F4C05F01D0464800E0A1
:1049E000454848490A6812F01F0246490968C1F360
:1049F000C321444B1B68C3F30044424B1B68C3F301
:104A00000023A0405043B0FBF1F0D8403B49086080
:104A1000D5E73D48006839490860D0E7D3E780B55D
:104A20000121FA2000F025F8002000F011F8EFF342
:104A3000108072B63549364A11605FF4E021354A7C
:104A40001160BFF36F8FBFF34F8F80F3108801BDEC
:104A5000C0B2012806D13048006850F000402E490D
:104A6000086005E02C48006820F000402A490860F2
:104A70007047002210F0050F01D0012037E010F040
:104A8000180F05D010F01803182B01D001202EE0CC
:104A900010F0C00F05D010F0C003C02B01D00120D2
:104AA00025E0830701D552F0010210F0180F01D064
:104AB00052F00202830601D552F4807210F0C00F4A
:104AC00001D052F4007244F65900144B1860C9B278
:104AD000002905D01248006802431148026005E031
:104AE0000F48006830EA02020D480260002070475B
:104AF000D80A042000C3044080BA8C01DC0A0420D8
:104B0000E40A04200CC30440E00A04200000000072
:104B100008ED00E024ED00E060C204400CC0044059
:104B200014C00440010049B2002909D4012210F048
:104B30001F018A40DFF8601440B2400941F820208C
:104B40007047010049B200290DD4012210F01F0165
:104B50008A40DFF8481440B2400941F82020BFF3F2
:104B60004F8FBFF36F8F7047010049B2002909D4FE
:104B7000012210F01F018A40DFF8241440B24009DE
:104B800041F82020704738B50400606AC06A0269A5
:104B90000025012902D0022903D005E055F48075D3
:104BA00004E055F4806501E055F480551068002854
:104BB0000CD0507B012809D1A0692843A0610020B6
:104BC00010730022616A200000F039FCA0690543DF
:104BD000A5610022616A200000F031FC31BD38B5CA
:104BE0000400206AC06A02690025012902D0022956
:104BF00003D005E055F4007504E055F4006501E0CC
:104C000055F40055106800280CD0507B012809D1BC
:104C1000A0692843A061002010730122216A2000AE
:104C200000F00DFCA0690543A5610122216A200066
:104C300000F005FC31BD2DE9F04105000C00160027
:104C40001F00022D01D30520C3E0DFF8EC04290189
:104C50000844C068002801D00420BAE02000C0B297
:104C6000022810D0702F01D20720B2E0702F1AD086
:104C70004FF4A872DFF8C414DFF8C40400F06EFC2F
:104C8000AFF300800FE0B02F01D20720A1E0B02FDA
:104C900009D04FF4AD72DFF8A414DFF8A40400F0DB
:104CA0005DFCAFF30080DDF818800020C8F800003C
:104CB000002239003000FFF735FEDFF87C042901BF
:104CC00008447060DFF87004290108448068B0600F
:104CD000347016F1300700F069FC2000C0B20128E2
:104CE0002AD037620020316A81F83400306A316A94
:104CF0008862306A316A0863306A316AC8620020AB
:104D0000316AC8630FF24910316A8863306A14301F
:104D1000316A0861306A316A48623200DFF824146F
:104D20007068007800F070FC002804D0300000F0BB
:104D300052F80F204DE04037E4B2002C29D07762C2
:104D40000020716A81F83400706A716A8862706A42
:104D5000716A0863706A716AC8620020716AC86308
:104D60000FF29110716A8863706A1430716A086179
:104D7000706A716A48623200DFF8CC13706840785C
:104D800000F042FC002804D0300000F024F80F208E
:104D90001FE02900300000F0ADFBC8F80060DFF82C
:104DA000980329010844C660706890F90400FFF771
:104DB000DBFE706890F90400FFF7B4FE706890F9AC
:104DC0000200FFF7AFFE706890F90300FFF7AAFE3C
:104DD0000020BDE8F08110B50400200000F0A4FB25
:104DE000002801D0032032E0A068808A400612D556
:104DF0002078002804D0606AC06A006800280AD1C0
:104E00002078012804D0206AC06A0068002802D1F6
:104E1000207D012801D1042019E00020A1688880AC
:104E2000606890F90300FFF78CFE606890F902005B
:104E3000FFF787FE606890F90400FFF782FE207894
:104E400001282078002800206168C860002010BD7B
:104E500010B44A7B002A44D0012342681278934060
:104E6000DFF8F42413600123426812789340DFF8DE
:104E7000EC2413600123426812789340DFF8E024A9
:104E800013600123426812789340DFF8D82413603E
:104E90000B684A68D3185B1EDFF8CC24126844689C
:104EA000247824011351DFF8C024126843681B786A
:104EB0001B011A4483685360DFF8AC24126843680E
:104EC0001B781B011A444968491EDFF8A03453EAD5
:104ED000011393608168898851F010018068818096
:104EE00005E08168898851F002018068818010BCEA
:104EF0007047000010B44A7B002A44D00123426866
:104F000052789340DFF844261360012342685278B8
:104F10009340DFF84824136001234268527893409D
:104F2000DFF83C2413600123426852789340DFF895
:104F300034241360DFF83024126843685B781B0167
:104F40008468D450DFF82024126843685B781B0122
:104F500013440C684A681419641E5C60DFF8082466
:104F6000126843685B781B011A444968491EDFF8E0
:104F7000E03553EA011393608168898851F020017C
:104F80008068818005E08168898851F0010180682E
:104F9000818010BC7047000000E100E080E100E08B
:104FA00080E200E070B504000D001600200000F063
:104FB000BBFA002801D0032017E02078002804D095
:104FC000606A006B006800280AD12078012804D0AC
:104FD000206A006B0068002802D1207D012801D1E1
:104FE000042002E0E5602661002070BDF8B50400F1
:104FF0000D0016001F00200000F096FA002801D0D6
:10500000032022E02078002804D0606A006B00684A
:1050100000280AD12078012804D0206A006B00689B
:10502000002802D1207D012801D104200DE0A068D4
:1050300081894FF6F0700140FFB2F6B23E43EDB207
:1050400035430D43A06885810020F2BDF8B504000A
:105050000D0016001F00200000F066FA002801D0A5
:10506000032032E02078002804D0606A006B0068DA
:10507000002807D12078012806D0206A006B00683C
:10508000002801D0042020E03000C0B200280DD05C
:105090003000C0B2042809D2380080B2B0F5006FE9
:1050A00004D206980100C9B2042901D30A200CE0F9
:1050B000A1680D85F6B257EAC62757F40047A168E4
:1050C0008F84C0B2A16888850020F2BD38B5040085
:1050D0000D00200000F028FA002801D003201DE078
:1050E000EDB2012D0FD1A068008C50F00100A16835
:1050F0000884A068808850F00100A16888800120A1
:1051000084F82D0009E0A068018C4FF6FE70014084
:10511000A0680184002084F82D00002032BD80B5F5
:105120000548C06800F012F801BD80B50248C069AA
:1051300000F00CF801BD0000940004208C68000011
:10514000546B0000DF4B0000874B0000FEB50400ED
:10515000A068008910F00E00C0B200283ED00228DE
:1051600006D004280CD006280ED00C2804D0D2E09B
:10517000200000F03CF9CEE0200000F0F9F8CAE091
:10518000200000F0F5F8C6E00021A068808A020047
:1051900092B2D20603D5A1680988802105E00200F9
:1051A00092B2120701D551F01001020092B25207DB
:1051B00001D551F0200180B2800701D551F04001A6
:1051C00000290AD0207D002807D1A0690143A161F0
:1051D0000422616A200000F032F99CE00025A068FA
:1051E000B0F8446016F00F06A068B0F8401011F057
:1051F0000101300080B2002800F0818089B20029CE
:105200007DD001A90020FFF7FBF8002801D0002085
:105210000190A068B0F848703F03A068B0F844005F
:1052200057EA1017300080B2C00746D5A068808CBE
:10523000000430D500204FF400630121402F03D239
:105240007A02D3EBD20318E0802F04D23802D3EBDA
:10525000D003012011E0B7F5807F04D2F801D3EB31
:10526000D003022009E03900090AB8010A0092B20D
:10527000D200B0FBF2F0C31A0320C0B200909BB280
:10528000012289B22000FFF7E1FE0198C000B0FBC7
:10529000F7F0A06204E00198C000B0FBF7F0A06254
:1052A000E068002829D094F82C00012825D1A26AB2
:1052B00003212069E36898471FE0300080B280072F
:1052C00001D555F40075300080B2400701D555F482
:1052D0008075B6B2300701D555F48065E0680028C6
:1052E0000AD0606A90F83400022805D12A0005210E
:1052F0002069E368984700E0E561A0680088A0683D
:10530000B0F840104FF6F8700140A068A0F84010C7
:1053100000202075FFE7F7BD80B58E48C0680122E8
:10532000016A00F08CF801BD80B58A48C06800228F
:10533000416A00F084F801BD80B58648C069012249
:10534000016A00F07CF801BD80B58248C069002286
:10535000416A00F074F801BD1408014028000140C2
:1053600024000140340001406C6B0000010000C0CB
:1053700010B50400606AC06A0068002822D0606A24
:10538000C06A007B01281DD1606AC06A0068616A3A
:10539000C96A8968A26812884254606AC06A8068D3
:1053A000401C616AC96A8860606AC06A8068616A14
:1053B000C96A4968884219D10022616A200000F058
:1053C0003EF813E0E068002804D0002202212069A2
:1053D000E3689847606AC06A0068002806D1606A7E
:1053E000C06A007B002801D1A068008810BD80B58C
:1053F000016AC96A0968002920D0016AC96A097B63
:1054000001291BD1016AC96A0968026AD26A9268D5
:10541000895C82681180016AC96A8968491C026ACC
:10542000D26A9160016AC96A8968026AD26A52685E
:10543000914203D30122016A00F001F801BD70B569
:1054400004000D0011000020EA6A1073E86A006988
:10545000E8620800C0B2012807D1A06882884FF630
:10546000ED700240A068828011E0A06882884FF64B
:10547000DF700240A068828094F82D00012806D0D9
:10548000A06882884FF6FE700240A0688280E068C3
:10549000002822D095F8340002281ED1A2690020ED
:1054A000A061286B036800202E6B3060286B0069B8
:1054B0002863286B0068002802D1002085F834009A
:1054C000002A04D004212069E368984709E01A0003
:1054D000C9B22069E368984703E015F13C00FFF783
:1054E000EDF9E86A007B012803D1E96A2000AA6B84
:1054F000904770BD184B0E22514319440A888368A7
:105500009A814A8883681A858A8883689A84CA88B7
:1055100083689A850A8983681A844A8983689A8786
:105520008989806881807047002100E0491C022938
:1055300009D2084A0B011A44D2689042F6D10028D9
:10554000F4D0002000E00320704700001C08014058
:105550000100000C94000420806A000080B503461E
:1055600003A0FEF7B1F8BDE80140FCF7FABD00006A
:1055700025733A2564202573202D2D2061737365D2
:105580007274696F6E206661696C65640A00000060
:10559000010049B2002908D4012210F01F018A40FD
:1055A000544940B2400941F82020704710B500200E
:1055B000EFF3108472B6504800680078002820D1BC
:1055C00001204D49096808704C48006850F00100FE
:1055D0004A4908604A4800684A4908601320FFF7B2
:1055E000D7FF7FF07840484908604849086048493B
:1055F00008604849086048490860484908604849C7
:10560000086084F3108810BD30B400233A4C24683D
:105610002478002C01D1012305E01B240500EDB204
:10562000A54200D302231C00E4B2002C21D1324C4D
:1056300024680500EDB204EBC504241D21606260FE
:10564000012212FA00F0002909D02B490968D1F88B
:10565000DC10084328490968C1F8DC0009E0264944
:105660000968D1F8DC1031EA000023490968C1F863
:10567000DC001800C0B230BC70472DE9F843274861
:10568000056825480668264807681B480068D0F862
:10569000DC4057EA06000440002C23D05FF02008CD
:1056A000B4FA84F01CE0022112E0B8EB0000401EC6
:1056B0005FF0010919FA00F90F49096801EBC00010
:1056C000031D1868002807D016EA090FEBD0012146
:1056D000002258681B68984734EA0904B4FA84F039
:1056E0004045E2D30C4806600D4807600B48056052
:1056F000BDE8F18300E100E0706B000004000140B0
:105700006C6B000008000140200001402C000140AB
:10571000340001403C000140480001404C00014081
:1057200050000140F8B500210020DFF894038468A0
:10573000206802884FF6040002402068858815F032
:105740007E05280080B2002825D0002A23D0D0066C
:1057500003D5680701D551F00201500703D5A8070A
:1057600001D551F00101D00403D5280701D551F02E
:105770000401100403D5680601D551F0200150043E
:1057800003D5A80601D551F01001900403D5E80611
:1057900001D551F008012068008D10F01F0022682B
:1057A000968D16F01F06320092B2002A21D00028F2
:1057B0001FD0C20603D5F20601D551F4806102075D
:1057C00003D5320701D551F40071420703D57207A2
:1057D00001D551F48071820703D5B20701D551F08C
:1057E000800110F0010016F00102104201D051F0CA
:1057F00040012068B0F8502041F6FE700240206859
:10580000B0F84870FF04FF0C380080B2002831D097
:10581000002A2FD0D00403D5F80401D551F48041DB
:10582000100503D5380501D551F40051500503D5B5
:10583000780501D551F48051900503D5B80501D5FF
:1058400051F40061D00503D5F80501D551F480115C
:10585000100603D5780601D551F40011500603D582
:10586000380601D551F48001900603D5B80601D55C
:1058700051F400012068B0F850204FF21C40024063
:10588000380080B2002819D0002A17D0500403D560
:10589000F80601D551F48021900403D5380701D5CD
:1058A00051F40031D00403D5780701D551F480318B
:1058B000500503D5F80701D551F400416068002870
:1058C00005D0002903D00022A068636898472068AB
:1058D00080880543206885802068808D0643206885
:1058E00086852068B0F8480007432068A0F8487013
:1058F000F1BDF8B500210020714844692068028894
:105900004FF6040002402068858815F07E052800C7
:1059100080B2002825D0002A23D0D00603D56807FE
:1059200001D551F00201500703D5A80701D551F068
:105930000101D00403D5280701D551F0040110045A
:1059400003D5680601D551F02001500403D5A806FF
:1059500001D551F01001900403D5E80601D551F0AE
:1059600008012068008D10F01F002268968D16F047
:105970001F06320092B2002A21D000281FD0C20692
:1059800003D5F20601D551F48061020703D5320731
:1059900001D551F40071420703D5720701D551F4C6
:1059A0008071820703D5B20701D551F0800110F054
:1059B000010016F00102104201D051F040012068B0
:1059C000B0F8502041F6FE7002402068B0F84870F0
:1059D000FF04FF0C380080B2002831D0002A2FD0FD
:1059E000D00403D5F80401D551F48041100503D546
:1059F000380501D551F40051500503D5780501D57E
:105A000051F48051900503D5B80501D551F40061DA
:105A1000D00503D5F80501D551F48011100603D542
:105A2000780601D551F40011500603D5380601D58A
:105A300051F48001900603D5B80601D551F4000158
:105A40002068B0F84C204FF21C400240380080B271
:105A5000002819D0002A17D0500403D5F80601D524
:105A600051F48021900403D5380701D551F4003159
:105A7000D00403D5780701D551F48031500503D502
:105A8000F80701D551F400416068002805D00029CD
:105A900003D00022A0686368984720688088054387
:105AA000206885802068808D064320688685206870
:105AB000B0F8480007432068A0F84870F1BD000026
:105AC00030000420020052B2002A04D44901A44A42
:105AD00040B2115407E04901A24A40B210F00F0051
:105AE000104400F8041C704780B5411EB1F1807F5E
:105AF00001D301200EE0401E9B49086007215FF0A2
:105B0000FF30FFF7DFFF0020984908600720984921
:105B10000860002002BD80B596480078002805D0B6
:105B200095480068401C944908600CE093490120A6
:105B3000FDF725FB9148008891490988884202D3E6
:105B400001209049087001BD2DE9F84F8EB05FF03B
:105B5000000800F0EAF80020FCF74BFCFCF7FEFC24
:105B60005FF07F5BDFF820A2DFF8209200F0EBF817
:105B700000F02DF90320FDF728F902A8FCF76DFFCE
:105B80000398FDF7C3FDCDE900010298FDF7BEFDC6
:105B900002000B007E48FDF797FD7E48FFF7A4FF4B
:105BA00022E07D48FDF790FD00216846FCF762FD8C
:105BB000009809A94246D2B241F82200019804A9EE
:105BC0004246D2B241F8220018F101084046C0B264
:105BD000052809D109A8FCF79FFE7049086004A8B0
:105BE000FCF79AFE6E490860664800780128FBD1F0
:105BF0000020644908704046C0B20528D1DB002768
:105C000061E05FF07E544BE000216846FCF732FD16
:105C10000098FDF76DFD05000198FDF769FD040092
:105C200028002100FDF7CAFD2800FDF745FE00F021
:105C3000F7F85C490968FDF755FE05002000FDF7FF
:105C40003BFE00F0EDF858490968FDF74BFE0100F6
:105C50002800FDF7B3FD009850490968401A00F08C
:105C6000DFF850490968FDF73DFE050001984C49F1
:105C70000968401A00F0D4F84B490968FDF732FE74
:105C800006002800494900F0DDF8BAD8300048493C
:105C900000F0D8F8B5D828003100FDF78FFD0400DA
:105CA0002000FDF733FDCDE902013000FDF72EFDA8
:105CB000CDE900012800FDF729FD02000B003D4859
:105CC000FDF702FD7F1C2D4800882D49098890FBB7
:105CD000F1F03900C9B2814296DB5046290000F04C
:105CE000C3F8BFF481AF4846310000F0BDF8BFF4FF
:105CF0007BAF5846210000F0B7F8BFF475AF00F055
:105D000066F871E72C48006850F4A0002A49086042
:105D10002948006850F4A0602749086026480068B8
:105D200050F4A02024490860704780B5FDF734FF87
:105D300000F0CBF8FFF7E6FF00F07DF9FDF7D7FEA6
:105D400000F03CF801BD80B50120FCF7D8FC1549F6
:105D500008600220FCF7D3FC1349086001BD000075
:105D600000E400E018ED00E014E000E018E000E0DE
:105D700010E000E0FF0A0420B80A0420F00A042022
:105D8000F20A0420FE0A04209A99D93F3333333FA4
:105D900088690000405DC600E46A0000C40A04206F
:105DA000C80A0420BC0A0420C00A04200100003FE5
:105DB0009A99993E0C6B00000000024080B5134B8D
:105DC00018221349002000F06CF9002002BD80B5B4
:105DD0001248018800200F4A107000200E4A1070EF
:105DE0000A48006800F0ACF90100C9B2002901D0EE
:105DF000C0B20AE00548006800F0CEF90100C9B25F
:105E0000002901D0C0B200E0C0B202BDCC0A04201B
:105E1000340A0420000B0420010B04202216000089
:105E2000C2175040801AB0FA80F10AD08840D1F1F0
:105E30009D01D20742EAC151020672F1004241EBD4
:105E4000102070474FF0807C1CEB400F94BF1CEB80
:105E5000410F05E040EA010C1CEB0C0F01D281421E
:105E6000704718BF884270474FF0807C1CEB400F92
:105E700094BF1CEB410F05E040EA010C1CEB0C0F3A
:105E800001D28842704718BF8142704780B5012215
:105E90004FF43071012000F051FA4FF400710120ED
:105EA00000F077FA8021012000F08DFA40210120D6
:105EB00000F089FA01222021012000F03FFA202180
:105EC000012000F066FA002002BD80B510210448D0
:105ED00000F009FA002801D1FFF7D8FF01BD00004A
:105EE000800A0420002902D0012900D1FFE7704771
:105EF00080B50021C0B200280ED0022821D016D3D0
:105F0000042832D027D3062844D038D3082857D0C5
:105F10004BD309285FD069E00320009040F2C763AB
:105F200003220B214A480068FFF790F85EE0032047
:105F300000901F230222072145480068FFF786F8DA
:105F400054E0022000901F230222072140480068ED
:105F5000FFF77CF84AE0012000901F23022207216E
:105F60003B480068FFF772F840E0002000901F23D4
:105F70000222072136480068FFF768F836E0012062
:105F8000009040F21B630122012131480068FFF7B5
:105F90005DF82BE0022000904FF4A0630122012164
:105FA0002B480068FFF752F820E00120009040F2F3
:105FB00055130222012126480068FFF747F815E033
:105FC000012000904FF4A0630122012120480068C5
:105FD000FFF73CF80AE00020009040F2551302223F
:105FE00001211B480068FFF731F8FFE701BD80B5CC
:105FF00017480090B023174A02210020FEF71BFE2D
:1060000003230022002112480068FEF7EFFF04205E
:10601000FFF76EFF01210E480068FFF757F80C48A4
:1060200002680D490A480068FEF7BCFF01BD80B553
:10603000FFF7DDFF01BD80B5FFF7F9FF01BDC0B27D
:1060400006490880064800888006FBD57047000096
:10605000D40A0420E0080420E55E0000005000405F
:106060001450004070B50C0015002E0003E020789D
:10607000FFF7E5FF641C3000461E0028F7D128001A
:1060800070BD0000010049B2002909D4012210F0BE
:106090001F018A40DFF8181240B2400941F8202061
:1060A0007047F8B506000C001D0000202860300085
:1060B000C0B2002801D0042041E0002C01D108200A
:1060C0003DE0082A08D2D222DFF8E811DFF8E80123
:1060D000FFF744FAAFF30080DFF8E0013100C9B206
:1060E00000EBC107DFF8D80138607C607C68DFF81E
:1060F000CC013100C9B200EBC10040680078002833
:1061000001D002201BE0002060600020A060002081
:1061100079684861DFF8AC01F6B200EBC600396877
:1061200002880A8042888A8082880A81C0888881A1
:106130002D20FFF7A7FF022020702F600020F2BD66
:1061400018B4002203685D4A824201D0032021E096
:1061500042681278002A01D105201BE00091EFF37C
