:020000040800F2
:10000000E8070020CD000008F3000008F500000814
:10001000F7000008F9000008FB00000800000000DD
:10002000000000000000000000000000FD000008CB
:10003000FF0000080000000001010008871400080C
:100040000501000805010008000000000501000886
:100050000501000805010008050100080501000868
:100060000000000000000000000000000000000090
:100070000501000805010008050100080000000056
:1000800005010008000000000000000091150008B4
:100090000000000000000000000000000501000852
:1000A000000000000501000800000000991700088A
:1000B000050100080448854600F0A0FC0048004700
:1000C000A9280008C046C046E80700200E4880F373
:1000D00008880E480168090E0D4A914205D10D4865
:1000E0000D4901600D480E4901600E4880470E48D9
:1000F0000047FEE7FEE7FEE7FEE7FEE7FEE7FEE776
:10010000FEE7FEE7FEE70000E8070020040000002D
:100110001F00000018100240010000000000014014
:100120000000000045150008B500000830B50B467A
:10013000014600202022012409E00D46D5409D42C1
:1001400005D31D469540491B254695404019154647
:10015000521E002DF1DC30BD70B50024254600286C
:1001600001DA01244042002901DA01254942FFF762
:10017000DDFFAC4200D04042002C00D0494270BDAF
:1001800003460B439B0703D009E008C9121F08C0B0
:10019000042AFAD203E00B780370401C491C521E5B
:1001A000F9D27047D2B201E00270401C491EFBD266
:1001B00070470022F6E710B513460A460446194672
:1001C000FFF7F0FF204610BDF8B502464A40D40FB5
:1001D00042004B0052085B089A4202D2024608468F
:1001E00011464A0023D0C30D4A00DDB2120EAD1AEB
:1001F000202D35DA49020126490AF6058A19002C14
:1002000000D0524220214F1B1146B9402A411018FC
:10021000C20D9A4221D0002C17D0012D08DCDA053E
:10022000801AD20F8019D207DBB200F011FBF8BDA3
:10023000DA05801A012340001B06C01880185A42B4
:100240008018CA0F1043490007E04908C20711434C
:10025000DA05801A80194008801800F0F1FAF8BD1C
:1002600061000122511A001BF7E70122D207514019
:10027000AAE70122D2075040A6E7024670B54A40DD
:10028000D30FDB0740002DD04A002AD0010E140EF8
:10029000000212020919400A520A8418E5010446B4
:1002A0005443000A120A2E045043A4194219200C88
:1002B000C543AA18120C0125AD03521C5219120491
:1002C0007F39240400D0521C104301D44000491E41
:1002D000C2B20C06C0092018401C4008802A02D077
:1002E00003E0002070BD40084000002900DA002033
:1002F000184370BD70B502464A40D50F40004A0011
:10030000ED0740085208002814D0002A12D0C40D6E
:10031000D30D41020120C0055202490A520AE41AD3
:10032000091812187D34914201D3641C00E0490081
:10033000002C01DA002070BD0023914201D3891AFC
:100340000343400849000028F7D100290AD0914210
:1003500002D10121C90705E0914201D2012101E04A
:100360000121C943E005C018401900F069FA70BDC9
:10037000F0B507460846584087B0C00F04904800C3
:100380000E46590040084908BC1A884105D2384633
:1003900031461E4617460B46024658004008104399
:1003A0004DD0300D039040055900400D490D05908A
:1003B000401A0290402873DA18030121000B090546
:1003C0000843019004980092002806D01146019A33
:1003D00049420020904100910190029840210A1A60
:1003E0000199009800F0F8F905460C466B4607CBDA
:1003F00000F013FAC0197141039A0E0D0023D717AC
:1004000056401A467A40164344D0049A002A2DD00A
:10041000029A012A039A15DC1205C01A914101269D
:100420003605001C7141D20F059ED2070093019240
:1004300002962A46234600F051FA07B0F0BD38462E
:100440003146FAE71605234A0F46B218C01AB741DB
:1004500001210905001C4F4100187F411146181861
:100460007941E20F10436D19644113E0E2076D0812
:1004700015436408C2071443039A01261205C01AE3
:1004800091413605001C7141CE07400830434908B0
:10049000C01851412A46234600F013FACDE7FFE782
:1004A000049801224000C117121A00238B410498BE
:1004B0003146C417381AA141EEE730B40124E407ED
:1004C000634030BC54E730B40124E407614030BCE1
:1004D0004EE700000000E0FFF0B51FB488B00B99B4
:1004E0000998002448400999C00F4900490809911A
:1004F000C0070B990090490049080B910999089889
:10050000A64608431CD00B990A98084318D00998AE
:1005100001244000420D4800410D099824050003C4
:10052000000B204309900B980003000B20430B9015
:1005300050181C494018002201901446104605E04E
:10054000002001460DB0F0BD032801DA034600E0AB
:1005500003239C46C11A0AAE0AE05F0008ADED5BBA
:100560004F00F75B7D430027AA187C41491C5B1EA6
:100570006145F2DD410004AB5A522104120C0A43DA
:10058000240C401C0828DFDB01980290009970467B
:1005900001910090059B049A0799069800F09EF936
:1005A000D0E700000DFCFFFFF0B50C465C4085B0C5
:1005B000E40FE40703944C000026640859009446B5
:1005C000490802460296224321D062460A431ED0C1
:1005D0006200570D4A000E032303550D0124024605
:1005E0002C492405781B1B0B360B4018234326434C
:1005F000614600901C46501AB44103D30098401C39
:10060000009002E0921800985B41002803DA002075
:10061000014605B0F0BD00200121090507468646C8
:1006200011E064461D46141BB54106D36546521BB6
:10063000B341744607430C43A646CD07400849081A
:10064000284392185B4105460D43EAD110461843F2
:1006500013D06046194650407140084306D06046AA
:10066000101AB34106D20122002306E00022012322
:10067000DB0702E00122D2435310009874460105C3
:10068000381C6141029C039D0019694100F019F971
:10069000BFE70000FD03000010B5002296231146BD
:1006A00000F0D6F810BD00000EB5054902910021FA
:1006B00000910A460B46019100F010F903B000BD0D
:1006C00033040000410040020122400AD205090E15
:1006D00080187F2901DA00207047962903DC9622D2
:1006E000511AC84070479639884070474A0009033C
:1006F0000123090B1B051943094B10B5520D9A42F2
:1007000001DA002010BD064B34339A4203DC9A1AFA
:1007100000F072F810BD03495118884010BD000068
:10072000FF030000CDFBFFFFC20FD20740004008CF
:100730000BD0C10D0723DB01C91840020905400A8F
:100740001143C2084007114370470020014670471B
:1007500010B5002904DB0124E40740428C41214606
:10076000002B04DB1C460123DB075242A3419942C4
:1007700000D1904210BD0000CB0FDB07490010B53F
:10078000490802460A4307D00A0D07240903E40179
:10079000090B121B002A01DC002010BDC900440F08
:1007A0000C43C100E018D205801800F049F810BDD4
:1007B0000122D207002800DB101A002900DB511AA1
:1007C000814270470122D207002800DB101A00295D
:1007D00000DB511A8842704710B5202A04DB01461D
:1007E000203A9140002010BD914020239C1A0346DE
:1007F000E3401943904010BD10B5202A04DB0846A1
:10080000203AD040002110BD0B46D340D0402024D8
:10081000A21A91400843194610BD10B5202A06DBE4
:10082000CB170846203A1041C1170B4306E00B4690
:100830001341D0402024A21A91400843194610BD0C
:10084000002904DA401C490001D1400840007047EB
:1008500070B40024050C05D11024000402D1002935
:1008600021D01124050E01D100020834050F01D159
:100870000001241D850F01D18000A41C002801DB8C
:100880004000641C002908D020252E1B0D46F54091
:10089000A14000D001212943084301061B1B000A87
:1008A000DB1D02D5002070BC7047DB0518188018CE
:1008B0000029F8DA401C4900F5D170BC400840001E
:1008C000704710B5002B08DA0024401C61419218D3
:1008D0005B411A4301D14008400010BDF0B51FB480
:1008E00082B005460C0003D0084601F055F802E03E
:1008F00001F052F820300246009021462846FFF7CA
:100900006BFF049B059A04460F46184311430843A6
:1009100014D0184610431BD0009840210A1A1846DC
:100920000599FFF769FF05460E46009A0599049858
:10093000FFF752FF084305D0012004E02046394666
:1009400007B0F0BD0020C11705430E432C433743C9
:1009500000990E986305401A7905E40A00220C43B9
:10096000FD0A0A3002D500200146E9E70105101909
:1009700069410C9C0D9D00196941FFF7A2FFDFE75B
:1009800070B54B005B0803430BD04B005C0D002699
:1009900033466542B341D417AD1AA34102DB0020B0
:1009A000014670BD12053018514170BD0EB5C21719
:1009B000C10F5040CA0740180021054B0293019215
:1009C00000910A460B46FFF789FF03B000BD000007
:1009D0003304000010B5002904DB0124E407404281
:1009E0008C412146002B04DB1C460123DB075242CD
:1009F000A3418B4200D1824210BD0000064C01256C
:100A0000064E05E0E36807CC2B430C3C98471034B6
:100A1000B442F7D3FFF752FBB0330008D0330008DD
:100A200030B50907090F08290CDAC36D8D000F24B2
:100A3000AC40A343C365C36D8D001446AC40234353
:100A4000C3650FE0036E0C46083CA5000F24AC40C4
:100A5000A3430366036E0C46083CA5001446AC4055
:100A60002343036630BD002904D0826E01231A435C
:100A7000826603E0826E52085200826670470F2938
:100A800000DD0F2141667047012904D1426901232D
:100A90001A43426103E0426902231A4342617047EC
:100AA000002904D0426801231A43426003E04268EF
:100AB00052085200426070470246012902D1506933
:100AC000084070475069022318404008F9E70000C9
:100AD00042680B4B1A4042600B684A681A434368ED
:100AE0001A4342608268074B1A4082600B694A6968
:100AF0001A438B681A4383681A4382607047000068
:100B00000FBCFFFF8FF1F9FF002905D08268FF239A
:100B100001331A43826004E08268FF2301339A4361
:100B20008260704700210160416081600173016152
:100B30004161704742680F239B029A4342604268BA
:100B40000A4342607047000000B587B001210320CE
:100B5000400400F033FB06A800F05FFA2B4968461A
:100B60000183012181760021C17606A90920C006F2
:100B700000F0EEF903216846018306A9244800F03D
:100B8000E7F90121480200F029FB01A8FFF7CAFF9D
:100B9000002001907020029001204002039000206C
:100BA0000690059001A91B48FFF792FF07218902D3
:100BB0001848FFF7BFFF01211648FFF771FF00211A
:100BC0001448FFF750FF04211248FFF758FF002296
:100BD00011461048FFF724FF012211460D48FFF788
:100BE0001FFF062202210B48FFF71AFF07220321ED
:100BF0000848FFF715FF052204210648FFF710FFFC
:100C000001210448FFF72FFF07B000BD84800000DA
:100C1000000400480024014010B564201249086017
:100C20007D21C90011480068FFF780FA0446601E64
:100C30000F49884201D901200CE0601E0D4948612E
:100C40000321081F00F0C0FE00200A498861072028
:100C500008610020002801D000BFFEE70021481EE7
:100C600000F0B2FE10BD00002000002000000020B7
:100C7000FFFFFF0000E000E001B5044900980860B4
:100C800000BF024800680028FBD108BD1C000020FE
:100C900070B506460C4621460A4800F0EAF80546BB
:100CA000002D01D1401E70BD0648854202D1064884
:100CB000051B00E02D1B224629463046FFF760FA4F
:100CC0002046F0E7003C00080044000870B50546E7
:100CD0000C4622460249284600F08CF8204670BD9A
:100CE000003C000810B5044608480069022108438A
:100CF00006490861084644610069402108430349E8
:100D00000861034800F0F4F810BD00000020024024
:100D1000FF0F00000C48C068C007C00F002801D0BA
:100D2000012070470848C06804210840002801D00D
:100D30000220F6E70448C06810210840002801D0CE
:100D40000320EEE70420ECE700200240034800699E
:100D500080210843014908617047000000200240DB
:100D600030B504460D460548006901210843034992
:100D7000086125800F2000F0BBF830BD0020024044
:100D800010B5044600F0A8F82046FFF7ABFFFFF7C8
:100D9000DDFF10BD70B503460125002208E05000BC
:100DA0001C5A0748844201D0002506E0501C82B23C
:100DB000CE0F761876109642F1DC00BF284670BD43
:100DC000FFFF0000F8B505460E46144600F084F813
:100DD000002707E029883046FFF7C2FFB61CAD1C8C
:100DE000781C87B2E10F09194910B942F2DCFFF70C
:100DF000ADFFF8BDF8B507460C4615462946204616
:100E000000F037F80646002E0DD12046FFF7B8FF58
:100E1000012080022018FFF7B3FF2A4621463846FA
:100E2000FFF7D0FF24E0012080022018401BB042D1
:100E30000AD1012080022018FFF7A2FF2A4631467E
:100E40003846FFF7BFFF13E00120C0022018401B07
:100E5000B04208D12046FFF793FF2A463146384674
:100E6000FFF7B0FF04E02A4631463846FFF7AAFFF5
:100E7000F8BDF8B505460E462F46E807C00F002816
:100E800001D000BFFEE731460120C002FFF764F940
:100E9000002901D000BFFEE700240BE0204670438C
:100EA000471931463846FFF775FF012800D108E0A1
:100EB000601C84B231460120C002FFF74DF9A04208
:100EC000ECDC00BF31460120C002FFF745F9A0422B
:100ED00000D100273846F8BD02480349486003485E
:100EE000486070472301674500200240AB89EFCD81
:100EF00010B5024600BFFFF70DFF0346521EFF2448
:100F000000E0641E002CFCD1012B01D1002AF2D19B
:100F10000020054908613420C860002A01D105205D
:100F200010BD1846FCE70000002002401CB5002060
:100F300000900190FF216846017041708170C1707E
:100F4000017141718171C1710821FFF7BFFE1CBDA4
:100F5000F8B50246CD782F073F0FCD7810263540E3
:100F6000002D01D08D782F431446002011E0850616
:100F70002B0E0D88012686403540002D07D02568B0
:100F80000F269E40B5433E469E4035432560451C96
:100F9000E8B20828EBDB141D0D882D120095002007
:100FA00011E085062B0E01258540009E3540002D61
:100FB00007D025680F269E40B5433E469E403543E8
:100FC0002560451CE8B20828EBDBCD78282D04D13C
:100FD00055690E883543556106E0CD78482D03D11B
:100FE00015690E8835431561F8BD70B54D07EB0ED8
:100FF000082902DA0546203501E0054624352C464D
:101000000F269E402568B54316469E403543256011
:1010100070BD41617047016170470021C943018083
:10102000022181700421C1707047000010B50121B8
:101030001148FFF769FD00BF01210F48FFF73CFD94
:101040000028F9D001210C48FFF71EFD0A488069ED
:101050000A4908800848C069094908800648406B69
:10106000084908800448006B074908800248C06AA4
:101070000649088010BD000000240140BC0000208B
:101080002C0100209C0100200C0200207C0200208A
:101090001CB5044600200090019008216846FFF727
:1010A000F7FD6846007855280FD101214B200155E6
:1010B0006846407801026846807808186063606B73
:1010C000A063606BFFF7E8FAA0621CBD014802490B
:1010D00008607047CCCC0000003000400146044856
:1010E000C0680840002801D0012070470020FCE7BC
:1010F000003000400148024908607047AAAA000079
:101100000030004000B502460248426000F04EF850
:1011100000BD00000030004000B502460248826079
:1011200000F0D0F800BD0000003000400149086028
:10113000704700000030004008B50121480400F06D
:101140003DF86846FFF769FF01216846018081701C
:101150001021C17069460920C006FFF7F9FE012180
:101160000920C006FFF755FF01200149087008BD9E
:101170001900002008B50121480400F01FF8684656
:10118000FFF74BFF0121C9026846018001218170F0
:101190001021C17069460920C006FFF7D9FE012160
:1011A000C9020920C006FFF736FF08BD00B500BF21
:1011B0000120FFF793FF0128FAD000BD002905D0D8
:1011C000054A52690243044B5A6104E0024A5269DB
:1011D0008243014B5A61704700100240002905D03C
:1011E000054AD2690243044BDA6104E0024AD2693B
:1011F0008243014BDA6170470010024001464811FA
:10120000012802D10A48006806E04811022801D1ED
:10121000002001E00648406ACB06DB0E01229A401E
:101220001040002801D0012070470020FCE700009A
:101230000010024000B500F01FF804494968F02290
:1012400011400909024A515CC84000BD001002402B
:10125000A500002000B5FFF7EDFF0549496807220A
:1012600012021140090A034A515CC84000BD000047
:1012700000100240A5000020094949680C221140D5
:10128000042905D0082905D00C2905D1054805E019
:10129000054803E0054801E0034800BF00BF704770
:1012A00000100240409C000000127A00006CDC023A
:1012B0000349496A490849000143014A516270479C
:1012C0000010024000B500BF0220FFF707FF012811
:1012D000FAD000BD00BF05498968C907C90F0029B8
:1012E000F9D0C1B2014A11607047000000380140D6
:1012F000FEB504461749E06B884201D10520E06342
:10130000E06BFFF7C9F90746A068FFF7C5F9394652
:101310000190FEF7EFFF0546E16B481EFFF7BCF9B1
:101320000190E06BFFF7B8F90090606C0099FEF750
:10133000E1FF07460199FEF7A0FF06462946FEF7A2
:1013400043FF6064606CFFF7BDF92064E06B401CF4
:10135000E063FEBD5902000010B500F001F810BDB9
:1013600000202349096801221143214A116000BF6E
:101370001F490968022211400029F9D01C49096857
:10138000D20491431A4A116011460968042291431C
:10139000174A11601121174A1160154949688908D7
:1013A0008900134A516014490968702211400029CC
:1013B00019D112490968124A914204D00F490968AB
:1013C000104A91420FD10A49496802221143084A42
:1013D000516005E0064949688905080E8007800FBD
:1013E0000228F7D102E00849084A1160704700005E
:1013F000001002400020024000ED00E000340140F7
:10140000D15043CCD150438C00127A000000002010
:101410007CB5044600200090019055254B20005DCE
:1014200001280AD168460570A08E0004010E6846A6
:101430004170A08EC1B2684681704C20005D0128C9
:101440000AD16846C570208F0004010E68460171FC
:10145000208FC1B26846417108216846FFF736FC0B
:101460007CBD10B5044680212046FEF7A2FE012077
:10147000E062E063632148200155012149200155C4
:1014800000F010FF10BD10B500F07AF910BD00009B
:1014900010B5FFF7C1FB6420FFF7EEFB00F030F959
:1014A000FFF768FE02202249087081020920C00669
:1014B000FFF7AFFD7D20C000FFF7DEFB0121C90271
:1014C0000920C006FFF7A7FD7D20C000FFF7D4FB71
:1014D0000121C9020920C006FFF79BFD7D20C00045
:1014E000FFF7CAFB0121C9020920C006FFF793FDDF
:1014F000FFF72AFBFFF720FE00200E490870E120CD
:10150000000200F0CBF90C480021016041608160CD
:1015100060210A48FEF74DFE01F002FB0848007802
:10152000012803D16421042000F012FA10BD00004C
:10153000140000201900002018040020B803002027
:101540002800002010B50F480068012108430D490C
:101550000860084640680C4908400A494860084647
:1015600000680A49084007490860084600680121E8
:1015700089048843034908609F2000048860FFF7BE
:10158000EBFE10BD001002400000FFF0FFFFF6FE72
:1015900010B50121234800F069F8002841D000BFB0
:1015A0000C2015E0411E89001F4A515800290DD01A
:1015B000411E89005158491C002907D0411E89004D
:1015C0005158491E421E9200174B9950411EC8B2F5
:1015D0000028E7DC00BF00BF1348006800280AD1DC
:1015E00001F0A8FB044601E00F4804600E480068C3
:1015F000A042F9D100BF00BF00BF0B48406A0028DD
:101600000AD101F0D1FA044601E0074844620648D5
:10161000406AA042F9D100BF00BF0121014800F09B
:1016200015F810BD0040014024040020002904D01A
:10163000026880231A43026003E0026880239A4311
:101640000260704702698A430261704702698A43F7
:1016500002617047002904D0026801231A43026026
:1016600003E00268520852000260704702461069A7
:101670000840002805D0D0680840002801D001208B
:1016800070470020FCE7002A03D0C3680B43C36007
:1016900002E0C3688B43C360704700000268032305
:1016A0001B029A430B891A4302600E4A904202D0F1
:1016B0000D4A904205D1026870239A438B781A43F1
:1016C0000260084A904205D1026B120A12028B7A1C
:1016D0001A4302634A68C2620A8882620122426136
:1016E00070470000002C0140000400400021C94365
:1016F000416000210180018181708172704700008A
:101700001FB501210820FFF769FD01A8FFF7EEFFD3
:1017100017480290174918480068FEF707FD401E59
:1017200081B268468180002181818173817101A924
:101730001248FFF7B3FF01211048FFF777FF01219F
:101740000E48FFF77FFF012211460C48FFF79BFF71
:10175000132168460170002141700321817001212D
:10176000C17000F005FC01210448FFF773FF1FBDA5
:10177000E703000040420F0000000020004001404D
:1017800004480068002804D002480068401E01494F
:10179000086070471C00002010B502210C4800F0C2
:1017A00025F8002812D00A4800F066F809490A4ACC
:1017B0001278885400200949087007480078632887
:1017C00004DA05480078401C0349087010BD000089
:1017D0000038014050030020240000202500002094
:1017E0008269520852000A43826170470246D068FB
:1017F0000840002801D0012070470020FCE7002AA3
:1018000003D003690B43036102E003698B43036167
:10181000704770B504460D460026E06930218843C4
:1018200029790843E061E06944218843A9790843A4
:10183000E061E06980088000297A0843E061A069DE
:101840001821884369890843A061A069042188435D
:10185000297B0843A061FFF7FDFC06463046296856
:10186000FEF764FC0009206230462968FEF75EFC42
:101870000007000F606270BD01464868C0B2704743
:101880004B21C90101603021017100218171017278
:1018900018214181002101737047000010B586B006
:1018A000044601210804FFF799FC01214804FFF7D1
:1018B00085FC012203210920C006FFF796FB0122C7
:1018C0000C210920C006FFF790FB01A8FFF7D8FF05
:1018D000019430216846018100214181818101828A
:1018E0001821C18101A91948FFF793FF0121174869
:1018F000FFF776FF05A8FFF790FB01210903684673
:101900008182012181751821C17505A90920C006B0
:10191000FFF71EFB0821684681820421C17505A9D5
:101920000920C006FFF714FB1B2168460170012146
:101930004170002181700121C17000F019FB01226A
:1019400002210248FFF75BFF06B010BD00380140DE
:1019500070B504460D460120FFF7AAFC00BF6120C8
:10196000FFF74CFC0028FAD0FFF720FC0948FFF7EE
:10197000DDFBE0B2FFF7C6FBFFF7A4FC0548FFF76D
:10198000D5FB2805000DFFF7C7FBFFF7B3FBFFF7FB
:101990009DFB70BD555500002021020C01D0102187
:1019A0001046020A01D010460839020901D010463B
:1019B000091F820801D01046891E420801D0881EE6
:1019C0007047081A7047000010B5002819DB1A4A42
:1019D00003231B02D21883089B00D2588307DC0E16
:1019E000FF23A3409A438B071B0E8407E40EA340FA
:1019F0001A43114B032424021B198408A4001A5112
:101A000018E00E4A03071B0F083B9B089B00D258A7
:101A10008307DC0EFF23A3409A438B071B0E84072A
:101A2000E40EA3401A43054B0407240F083CA40806
:101A3000A4001A5110BD000000E100E01CED00E020
:101A4000F8B504464F1EC8000838211815461E4632
:101A5000086849683A4606239A4310D02A46334616
:101A6000FEF73AFD3A46D200083AA3181A687F1EDC
:101A70005B68FEF77DFC06223B469343EED1022FC6
:101A800023D0042F11D0062F2FD12A463346FEF73C
:101A900023FDE36AA26AFEF76BFC2A463346FEF793
:101AA0001BFD636A226AFEF763FC2A463346FEF793
:101AB00013FDE369A269FEF75BFC2A463346FEF795
:101AC0000BFD63692269FEF753FC2A463346FEF795
:101AD00003FDE368A268FEF74BFC2A463346FEF797
:101AE000FBFC63682268FEF743FCF8BD002210B5DA
:101AF000134610460149FEF757FD10BD0000F03FA8
:101B000010B50122FEF73CFF10BD002210B51346B0
:101B100010461146FEF748FD10BD02E008C8121F2E
:101B200008C1002AFAD170477047002001E001C1C6
:101B3000121F002AFBD1704701490860704700005E
:101B4000B800002010B5B8480078BB287ED060E10E
:101B5000FFF76CFAB5480188B54800784200B348F1
:101B600008308152B3480188B14800784200B1483A
:101B700008308152B0480188AD4800784200AE4834
:101B800008308152AD480188A94800784200AB482E
:101B900008308152AA480188A54800784200A84828
:101BA000083081523221A2480078401CFEF7D4FA56
:101BB000C8B29F49087000209C49C8669D49C86604
:101BC0009D49C8669D49C8669D49C8669748008971
:101BD000964988804880974800899649888048803F
:101BE00095480089944988804880944800899349A1
:101BF00088804880924800899149888048800020E8
:101C0000BCE08A494300CA6E0831C95A5118874A54
:101C1000D16688494300CA6E0831C95A5118854AAD
:101C2000D16685494300CA6E0831C95A5118824AA3
:101C3000D16682494300CA6E0831C95A51187F4A99
:101C4000D1667F494300CA6E083100E0E0E0C95A1E
:101C500051187B4AD166420074490831895A734A47
:101C60005288914206DD420070490831895A6F4A14
:101C700051800DE042006D490831895A6B4A9288C3
:101C8000914205DA420069490831895A674A9180D0
:101C9000420068490831895A664A5288914206DDF5
:101CA000420064490831895A624A51800DE042007D
:101CB00060490831895A5F4A9288914205DA4200A8
:101CC0005C490831895A5B4A918042005A4908317F
:101CD000895A594A5288914206DD420056490831D4
:101CE000895A554A51800DE0420053490831895ABA
:101CF000514A9288914205DA42004F490831895A87
:101D00004D4A918042004D490831895A4B4A5288C8
:101D1000914206DD420049490831895A474A5180BB
:101D20000DE0420045490831895A444A928891425F
:101D300005DA420041490831895A404A91804200FF
:101D40003F490831895A3E4A5288914206DD420095
:101D50003B490831895A3A4A51800DE042003849DE
:101D60000831895A364A9288914205DA420034494C
:101D70000831895A324A9180411CC8B2322800DAAF
:101D80003FE72A49C96E294A5288891A274A928808
:101D9000881A3021FEF7CAF92449C8802549C96E3E
:101DA000244A5288891A234A9288881A3021FEF7D9
:101DB000BDF92049C8802049C96E1F4A5288891A36
:101DC0001D4A9288881A3021FEF7B0F91A49C88056
:101DD0001A49C96E194A5288891A184A9288881A6B
:101DE0003021FEF7A3F91549C8801549C96E144A78
:101DF0005288891A124A9288881A3021FEF796F979
:101E00000F49C88000BFBB20074908700A2010BDD9
:101E100000BF0C480068002800D099E600BF00BF52
:101E200001490870401EF2E718000020BC000020A5
:101E3000170000202C0100209C0100200C02002033
:101E40007C0200202C00002010B53B480078E828D8
:101E500066D066E000F0A2FF3848816DC06D0322B5
:101E60000023511A834148D23548006834494968F3
:101E7000884204D2632132484030417237E0304812
:101E80004030007B002820D12E480078401C2D498E
:101E900008700846007807280ADA2948806B284924
:101EA000896888421AD2264880682549886315E0E7
:101EB000082024490870224908692349FEF778FC64
:101EC0000CD21F4800F080FF08E01D4908691E4938
:101ED000FEF76EFC02D21A4800F076FF1848FFF7B2
:101EE00007FA174800F08AF8154800F0D9FE1448A0
:101EF00000F0B2FD124800F055FD11484030C07AA4
:101F0000002803D103201149087002E000200F4986
:101F1000087000BFE820084908707D20C00010BD8F
:101F200000BF0B480068002894D100BF00BF0249E1
:101F30000870401EF3E70000A3000020B803002053
:101F400054040020A200002000004C421400002095
:101F50002C00002010B502460B461078012103E04A
:101F6000545C60404C1CE1B29942F9DB10BD0000AA
:101F7000C178002925D01749032212028918027856
:101F800092109200895802789207D30EFF229A404D
:101F9000914382789207120E03789B07DB0E9A40DA
:101FA00011430C4A03231B02D21803789B109B0099
:101FB000D1500178CA06D20E01219140054A116024
:101FC00007E00178CA06D20E01219140014A803211
:101FD0001160704700E100E030B502460B46FF207B
:101FE000002105E0545C4440034D285D4C1CA1B227
:101FF0009942F7DB30BD000070320008F0B58FB0B9
:10200000044600200E9009900890A068FEF744FB5B
:102010000E90606C0D90A06BFEF73EFB0C900020C4
:102020000C99FEF7C5FB01D10FB0F0BD6068FEF75B
:102030003BFB03910290A068FEF736FB01910090F4
:10204000039B029AFEF7B0FA05910490FEF794FB09
:102050000990A26B2168881AFEF726FB0391029073
:10206000A06BFEF721FB01910090039B029AFEF703
:102070009BFA05910490FEF77FFB08906068FEF7DD
:1020800013FB03910290206CFEF70EFB0191009070
:10209000039B029AFEF788FA05910490FEF76CFB09
:1020A0000B90A26B2168881AFEF7FEFA039102904A
:1020B000A06BFEF7F9FA01910090039B029AFEF7DC
:1020C00073FA05910490FEF757FB0A900899099856
:1020D000FEF710F964490590FEF7CFF805460A9916
:1020E0000B98FEF707F960490590FEF7C6F807461A
:1020F0005E493846FEF766FB00D25C4F5C492846D5
:10210000FEF762F839460590FEF752FB17D24A20D7
:10211000005D002813D157480078401C55490870CD
:102120000846007802280FDD5348007800280BD1BC
:1021300001214A20015501204F49087004E0002088
:102140004C4908704C490870079706954A20005D75
:10215000012835D1494801880088401C474A108031
:10216000782912DD00214E2001552E46204600F030
:10217000CBFD00214A20015500203E4908703E4910
:1021800008703A483E4908601EE03D4806990068DC
:10219000FEF70EFB02D23A48066804E0384906987A
:1021A00008600846066837493046FEF70BFB00D248
:1021B000344E35490698086002214E20015503E04F
:1021C0003E4600202D49088029463846FEF7F0FAA1
:1021D00004D24A20005D002800D12E462349304613
:1021E000FEF7F0FA01D2214E21E028493046FEF7F1
:1021F000E9FA00D21BE026493046FEF7E3FA14D292
:102200003046FEF791FA234A234B01910090FEF7E6
:1022100063F9224A224B03910290FEF74EF9059191
:102220000490FEF7A9FA064601E07F26F60530463F
:10223000FEF748FAC1B248200155005D632802DD6F
:102240006321482001554820005D012802DA012160
:10225000482001554820005D6421081AC1B2492078
:10226000015500BFE0E600000000C8420000C64281
:102270000000A040A0000020A1000020920000204B
:102280009C0000200000B442980000200000AA42F8
:1022900000005C4219E25817B751064052B81E853B
:1022A000EBF96240A5200C49087048701220887034
:1022B000B420C87000200871A020487132208871B5
:1022C0000020C87108724872C87208738872487317
:1022D0008873C87308747047D404002010B516487A
:1022E0000078232811D028281BD01BE01348007841
:1022F00000280BD101210920C006FEF78CFE00BF8B
:1023000023200D490870642010BD0BE00121092035
:10231000C006FEF77EFE00BF282007490870642033
:10232000F2E700BF064800680028DFD100BF00BF09
:1023300001490870401EE7E71A000020190000203C
:102340002C00002010B53A48007833284BD006DC2A
:10235000272819D02C2827D0312804D135E0382857
:102360004ED03A2859D059E03248007800280CD194
:102370000121C9020920C006FEF74DFE00BF27203B
:102380002B490870642010BD48E02A4800780128D5
:102390000BD1C1020920C006FEF73BFE00BF2C2076
:1023A000234908706420EEE738E0224800780228CC
:1023B0001AD181020920C006FEF72BFE00BF312092
:1023C0001B490870FF20F530DDE700BF0121C9027D
:1023D0000920C006FEF71FFE00BF33201449087015
:1023E000FF20F530CFE719E00121C9020920C0061E
:1023F000FEF70FFE00BF38200D490870C820C2E765
:1024000000BF0121C9020920C006FEF704FE00BF7B
:102410003A2007490870C820B5E700BF06480068A1
:102420000028A1D100BF00BF01490870401EAAE7E3
:1024300015000020140000202C00002070B5044678
:102440002078A52802D16078A52801D0012070BD90
:102450000721A01CFFF7C0FD0546607934490870CC
:10246000607AA84261D108460078A02804D0A1284B
:102470004CD0B02857D128E0A0792E490870E079D7
:102480002D490870207A2D4908702B480078FA28C9
:1024900003D102202A49087006E027480078F02876
:1024A00002D1002026490870A0792649C873207AF5
:1024B00008740F212348801CFFF78EFD21494874C2
:1024C0001221204800F05CFC2EE0A0791E49087023
:1024D000A5201E49087048700A208870B420C87072
:1024E00000200871B02048711748007888710020DA
:1024F000C871087207211548801CFFF76DFD13494C
:1025000048720A21114800F03BFC0DE028211048D8
:10251000FFF762FD0E491E3188722B210C48801E88
:1025200000F02EFC00E000BF00BF00208FE700009D
:102530005100002089000020880000209000002029
:1025400014000020D4040020870000205200002046
:102550005E000020F0B5C54A00248FB091420ADA2F
:102560004B005B08934206D801254A006D05EA42FC
:1025700005D1002803D0FFF7C3FA0FB0F0BD012545
:102580002D05A94219DA034308D0002910DA0120E9
:10259000FFF7D2FAFFF7B9FA0FB0F0BD0220FFF74C
:1025A000CBFAFFF7A3FA0122D20751400FB0F0BDDA
:1025B0003524E4433622FEF7E3F90A15AC4B121931
:1025C000D4180A03120BAB49AB4B56182E403146B8
:1025D000594011430192321512190B920022FDF756
:1025E0006CFF019A0446921C1003A44E000B0D468A
:1025F0007E44032860D2204673683268FEF7EAF909
:102600001CD10B98002815D0FEF7D0F904460E46D1
:102610009B4A9C4BFDF760FF0D4607469A4A9B4B31
:1026200020463146FDF758FF3A462B46FDF7A0FEFF
:102630000FB0F0BD716830680FB0F0BD944A954B93
:1026400020462946FDF748FF0022934BFDF73BFF4C
:1026500006460F4622462B4610461946FDF73CFF1C
:1026600032463B46FDF738FF06460B980F460028DA
:102670001DD0FEF79BF9824A824B05910490FDF72D
:102680002BFF32463B46FDF71EFF22462B46FDF749
:1026900014FF04460D467C4A7C4B05990498FDF7CF
:1026A0001BFF22462B46FDF708FF0FB0F0BD0B467F
:1026B000324620462946C4E0012300229B072046DB
:1026C000FDF756FE02460B4620462946FDF76CFFF5
:1026D00006460F460B98FEF769F932463B460591D0
:1026E000049010461946FDF7F7FE09910C906B49CE
:1026F0000198099B421800920C9A19461046FDF762
:10270000EBFE024607910A90654901980B1A65484D
:10271000019303217844079BFFF792F9079B0A9ADC
:10272000FDF7DAFE0E905F480D9104217844079B77
:102730000A9AFFF785F9099B0C9AFDF7CDFE019BDC
:10274000009A1A4300920D9B0E9AFDF711FE009A13
:1027500001910C90002A4DDD0022D24320462946EB
:10276000FEF70EF922462B46FDF7B6FE00910A90C1
:102770000B9800282BD0424A424B05990498FDF74C
:10278000ABFE07910E90019B0C9A00990A98FDF7F9
:10279000EFFD32463B46FDF79FFE079B0E9AFDF785
:1027A000E7FD009B0A9AFDF78EFE22462B46FDF7B9
:1027B00084FE04460D46344A344B05990498FDF7CF
:1027C0008BFE22462B46FDF778FE0FB0F0BD019B35
:1027D0000C9A0A98FDF7CCFD32463B46FDF77CFE8D
:1027E000009B0A9AFDF76FFE22462B46FDF76BFE13
:1027F0000FB0F0BD0B98002827D0214A214B059936
:102800000498FDF769FE0791009020462946019B38
:102810000C9AFDF752FE32463B46FDF75DFE079BE4
:10282000009AFDF74AFE22462B46FDF746FE044677
:102830000D46154A154B05990498FDF74DFE2246A5
:102840002B46FDF73AFE0FB0F0BD0B462046294659
:102850000C9AFDF732FE32463B46FDF73DFE22461E
:102860002B46FDF730FE0FB0F0BD00000000F07FFA
:1028700001FCFFFF645F09000000F03FB40D0000A1
:10288000763C7935EF39EA3D0000E0FE422EE63F26
:10289000555555555555D53F0000E03F86EBF9FF9E
:1028A00051B80600580C0000FEF7F2FD76E000BFBC
:1028B0003B48406800280AD1FFF710FD044601E0BC
:1028C0003748446036484068A042F9D100BF00BF95
:1028D00000BF3348806800280AD1FFF733F9044667
:1028E00001E02F4884602E488068A042F9D100BFE3
:1028F00000BF00BF2A48C06800280AD100F08AFB48
:10290000044601E02648C4602548C068A042F9D1C9
:1029100000BF00BF00BF2248006900280AD1FFF7AE
:1029200093FA044601E01E4804611D480069A04274
:10293000F9D100BF00BF00BF1948406900280AD183
:10294000FFF700FD044601E0154844611448406962
:10295000A042F9D100BF00BF00BF11488069002824
:102960000AD100F06BF9044601E00D4884610C487F
:102970008069A042F9D100BF00BF00BF0848C0690C
:1029800000280AD100F050FC044601E00448C4616C
:102990000348C069A042F9D100BF00BF87E700002B
:1029A00024040020F0B585B00446FF2004907F2069
:1029B000C0050290A068FDF76FFE00900299FDF738
:1029C00099FC0746FDF77EFE0546A06BFDF764FE09
:1029D00000900299FDF78EFC0746FDF773FE064650
:1029E000206CFDF759FE00900299FDF783FC074625
:1029F000FDF768FE019016480078002801D005B068
:102A0000F0BD4921085DFDF747FE03900398FDF7EF
:102A100059FE104988712804000E08724D72300466
:102A2000000EC8720E734E20005D8872A08E0004E6
:102A3000000E4873A08E88730F210648801CFFF794
:102A4000CBFA049003490498487400BFD7E700000C
:102A500034000020D404002070B50446FF21552026
:102A600001554920065D5620065520890004010EB7
:102A700057200155217A58200155208F0004010E5E
:102A800059200155208FC1B25A200155A08E000453
:102A9000010E5B200155A08EC1B25C2001550021C2
:102AA0002069FDF78FFE01D2012100E000215D20A9
:102AB000015500212069FDF785FE01D2206903E060
:102AC00000202169FDF7D1FB0546FDF7FBFDC1B2F2
:102AD0005E200155A06AFDF7F5FD85B2E817000EEE
:102AE00040190004010E60200155A06AFDF7EAFDBF
:102AF00085B2E817000E401900120002281AC1B270
:102B0000612001556069FDF7DDFDC1B2632001550B
:102B10000F2120465530FFF71DFA6421085570BD7E
:102B200010B50348FEF79DFC0148FEF7B1FA10BD51
:102B30005404002019490978FA290DD101225321A2
:102B40000A541749174A11805421095C002923D1DE
:102B5000012254210A541FE010490978F0291BD1A1
:102B60005421095C012917D10E490988491E0D4AD3
:102B7000118011460988022904DA002253210A54DF
:102B800054210A54816B0A3182688A4204D200229D
:102B900053210A5454210A54704700009000002029
:102BA000AA0500009400002010B51E480078902867
:102BB0002CD02CE01C480078052805DA1A4800784B
:102BC000401C194908701BE017480078052817D1E8
:102BD000642216491648FDF7D3FA64211348FDF71D
:102BE000E8FA0020134908700F480078401C0E498D
:102BF00008700F48FFF722FC64210D48FDF7D9FA51
:102C000000BF902007490870012010BD00BF0A488E
:102C100000680028CED100BF00BF02490870401EE6
:102C2000F3E70000320000202500002050030020C0
:102C3000EC020020240000202C00002010B51448D5
:102C40000078F92819D019E01248826DC06D03216F
:102C50000023891A834109D2002405E00E49085D4A
:102C6000FEF738FB601CC4B2102CF7DB00BFF92064
:102C7000074908707D20C00010BD00BF07480068EC
:102C80000028E1D100BF00BF01490870401EF3E7F2
:102C9000A4000020B8030020A90400202C0000207C
:102CA00070B50446206AFDF73FFD0546144A154BF2
:102CB000FDF74EFD22D24920005D052802DB606849
:102CC000002814D18321C9052069FDF77DFA064645
:102CD0006169FDF7CAFA0546FDF7F4FCC1B2492067
:102CE0000155005D142802DD1421492001554920B9
:102CF000005D322802DD14214920015570BD00001D
:102D0000333333333333F73F10B50446A068FDF750
:102D1000C3FC60640120E063A068FDF7BDFC206790
:102D200001214F2001550621502001550120A066A8
:102D300010BD00000F480078862810D010E00E4823
:102D4000826DC06D0021521C48410B498A65C865DF
:102D500000BF8620074908707D20C000704700BF73
:102D6000064800680028EAD100BF00BF014908708A
:102D7000401EF3E716000020B80300202C000020BE
:102D800070B505460E46002404E0285DFEF7A2FA61
:102D9000601CC4B2B442F8DB70BD00000848C06AD1
:102DA000084908600648406A48600548806A8860AB
:102DB0000348806B08620248006B0861704700009E
:102DC000B803002054040020FEB504462046FFF757
:102DD000B1FE8A480078152812D100208749087072
:102DE00000214C2001554B200155FEF79FF820464D
:102DF000FEF737FB00214C2001554B20015538E0F0
:102E00007E48007851281FD100207C490870A06BB3
:102E1000002802D0606B002800D1FEBDA06AFDF73B
:102E200051FCA063616BA06B884202D9A06BA063C8
:102E300001E0606BA06301214C2001554B2001553E
:102E40002046FEF7E5FA14E06C480078552810D1CA
:102E500000206A4908706A49A06AFDF70EFA064622
:102E6000FDF730FC606301214B2001552046FEF741
:102E7000CFFA6449E06A884255D10120E06201211D
:102E80002420015520696061A06BFDF705FC064612
:102E9000A16AFDF78DFC17D2A06BFDF7FDFB07467D
:102EA000A16AFDF7E6F906465749FDF7E6F905463A
:102EB000A06BFDF7F1FB07462946FDF785F90646AD
:102EC000FDF700FCA0631EE0A06BFDF7E5FB0646E6
:102ED000A16AFDF777FC16D2A06BFDF7DDFB074674
:102EE000A16AFDF7C2F906464749FDF7C6F905464E
:102EF000A06BFDF7D1FB07462946FDF7B6F906465C
:102F0000FDF7E0FBA063616BA06B884201D2606BB0
:102F1000A0633E49206B884205D301214C20015516
:102F20002046FEF775FA5320005D002821D1E06AA3
:102F3000FDF7B2FB0746A068FDF7AEFB39460190EE
:102F4000FDF7D8F90646E16A481EFDF7A5FB01909A
:102F5000E06AFDF7A1FB0090A06A0099FDF7CAF9AD
:102F600007460199FDF789F931460290FDF72CF9E2
:102F7000A062E1214901E06A884214D22420005D68
:102F8000002810D1E06A88420DD24F20005D002851
:102F900009D1A06AFDF796FBA063616BA06B884224
:102FA00001D2606BA0631A49E06A884217D14B20B6
:102FB000005D002813D101214B2001551049A06A62
:102FC000FDF75BF90646FDF77DFB6063606BA06370
:102FD0002046FEF71DFAA06AFDF774FBA063216985
:102FE0006069FDF7E5FB01D220696061E06A401C81
:102FF000E062206B401C206300BF0EE787000020CA
:10300000CDCCCC3D211C0000CDCC4C3D803A0900FC
:10301000B80B0000F0B587B07248007860287DD00A
:10302000D4E0FF208005704908607049C888FDF72A
:1030300033FB04466C4908686D49FDF71EF90546E7
:103040002146FDF757F968494860FF208005C860B0
:1030500088600A465168D068FDF74CF906906448CC
:103060000699FDF70AF907466249C888FDF714FB7F
:1030700039460590FDF73EF9064631465E48FDF7B4
:1030800039F905465C49FDF7F0F80446FDF71AFBEF
:10309000554908615549C888FDF7FEFA0590FDF7C6
:1030A00043FB0646554A564BFDF716FA0446FDF714
:1030B0001DFB4D4908650A46126D524BDB88D11A3B
:1030C000504AD288504B5A431046FDF72FF84649D4
:1030D000C8610A46126D4D4BDB88D11A4B4AD28823
:1030E000494B5A431046FDF721F83F490862C86929
:1030F000FDF7D2FA07464649FDF7FCF80446FDF70E
:1031000013FB0546FFF726FA424A434B0191009014
:10311000FDF7E2F9414A424B039100E054E002908E
:10312000FDF726F905910490FDF726FB2E4908636B
:10313000086AFDF7B1FA36490090FDF7DBF8019017
:10314000FDF7F2FA0646FFF705FA0446314A324B1C
:10315000FDF7C2F9314A324B03910290FDF708F9AD
:1031600005910490FDF708FB1F4948631F48C0887C
:10317000C8622048C08848621C48C0881D49C98868
:10318000884206DD1948C0881A49C988401A16497C
:1031900088621549C86AFDF77FFA05461249886AB0
:1031A000FDF77AFA06462946FDF7A4F80446FF2102
:1031B0008905FDF762F80C49886300BF6020094962
:1031C0000870642007B0F0BD00BF00BF154800685C
:1031D000002800D025E700BF00BF02490870401E4C
:1031E000F0E7000030000020B80300207C0200203F
:1031F00000F07F45BC00002000409C4699999999B9
:10320000999901409C010020102700000C02002029
:1032100000007A441E3C0B29DC8E36C092EA1AB1BB
:10322000BFE352402C00002010B50E4800787128F2
:103230000CD00CE00C480078012801D1FDF75AFFB2
:1032400000BF712007490870282010BD00BF074843
:1032500000680028EED100BF00BF02490870401E80
:10326000F3E700001B000020280000202C000020B5
:103270000065CAAFF1943B5E87E24D287613BCD956
:103280006B0EA1C49AFF5035EC8926431D78D7B246
:10329000D6B31C792742ED8851349BFEA0C56A0F36
:1032A000BDD877124C2986E33A5FF095CBAE016426
:1032B000C9AC0366385DF2974E2B84E1BFDA751016
:1032C000A2C7680D533699FC2540EF8AD4B11E7B06
:1032D0001F7AD5B0EE8B244198FD5237690CA3C6F6
:1032E0007411BEDB85E04F2AF396395C0267C8ADE6
:1032F000F7923D580663CCA97015BADF81E44B2ED6
:103300009CF956336D08A7C21B7ED1B4EA8F2045C5
:103310002144EB8ED0B51A7FA6C36C0957329DF8B5
:103320004A2F80E5BBDE7114CDA807623C59F693A5
:103330003E5BF491CFAA0560B9DC7316482D82E795
:1033400055309FFAA4C16E0BD2B7187D2346E98C85
:10335000E88D2247197CD3B66F0AA5C09EFB543175
:1033600083E6492C7217B8DD0461CEABF5903F5A65
:1033700004FA97999999D93FAF788E1DC571CC3FC2
:103380009FC678D0099AC33F935555555555E53F8B
:10339000599322942449D23FDE03CB966446C73F1B
:1033A00044523EDF12F1C23F000000000000000066
:1033B000D033000800000020BC0000001A1B0008E9
:1033C0008C340008BC0000202C0700002A1B0008D9
:1033D000006CDC0200000000000000000102030499
:1033E00006070809000000000000000000000000BF
:1033F00000000000000000000100000001000000CB
:1034000000000000000000000000000000000000BC
:1034100000000000000000000000000000000000AC
:103420000000A5A50AB400B000000000A5A52BB4BB
:1034300000A13130303036343030323735305F41F2
:10344000424344454647484905060B1B00001414F7
:103450001415050B05040000F0000000000000003A
:10346000F0000000AA050000000000000000C642B5
:10347000000000000000000000010203040102033C
:0C3480000406070809000000000000001E
:04000005080000B53A
:00000001FF
