:020000040800F2
:10000000D8070020CD000008F3000008F500000824
:10001000F7000008F9000008FB00000800000000DD
:10002000000000000000000000000000FD000008CB
:10003000FF0000080000000001010008871300080D
:100040000501000805010008000000000501000886
:100050000501000805010008050100080501000868
:100060000000000000000000000000000000000090
:100070000501000805010008050100080000000056
:100080000501000800000000000000007D140008C9
:100090000000000000000000000000000501000852
:1000A000000000000501000800000000851600089F
:1000B000050100080448854600F08CFC0048004714
:1000C00021270008C046C046D80700200E4880F30C
:1000D00008880E480168090E0D4A914205D10D4865
:1000E0000D4901600D480E4901600E4880470E48D9
:1000F0000047FEE7FEE7FEE7FEE7FEE7FEE7FEE776
:10010000FEE7FEE7FEE70000D8070020040000003D
:100110001F00000018100240010000000000014014
:100120000000000031140008B500000830B50B468F
:10013000014600202022012409E00D46D5409D42C1
:1001400005D31D469540491B254695404019154647
:10015000521E002DF1DC30BD70B50024254600286C
:1001600001DA01244042002901DA01254942FFF762
:10017000DDFFAC4200D04042002C00D0494270BDAF
:1001800003460B439B0703D009E008C9121F08C0B0
:10019000042AFAD203E00B780370401C491C521E5B
:1001A000F9D27047D2B201E00270401C491EFBD266
:1001B00070470022F6E710B513460A460446194672
:1001C000FFF7F0FF204610BDF8B502464A40D40FB5
:1001D00042004B0052085B089A4202D2024608468F
:1001E00011464A0023D0C30D4A00DDB2120EAD1AEB
:1001F000202D35DA49020126490AF6058A19002C14
:1002000000D0524220214F1B1146B9402A411018FC
:10021000C20D9A4221D0002C17D0012D08DCDA053E
:10022000801AD20F8019D207DBB200F0FDFAF8BDB8
:10023000DA05801A012340001B06C01880185A42B4
:100240008018CA0F1043490007E04908C20711434C
:10025000DA05801A80194008801800F0DDFAF8BD30
:1002600061000122511A001BF7E70122D207514019
:10027000AAE70122D2075040A6E7024670B54A40DD
:10028000D30FDB0740002DD04A002AD0010E140EF8
:10029000000212020919400A520A8418E5010446B4
:1002A0005443000A120A2E045043A4194219200C88
:1002B000C543AA18120C0125AD03521C5219120491
:1002C0007F39240400D0521C104301D44000491E41
:1002D000C2B20C06C0092018401C4008802A02D077
:1002E00003E0002070BD40084000002900DA002033
:1002F000184370BD70B502464A40D50F40004A0011
:10030000ED0740085208002814D0002A12D0C40D6E
:10031000D30D41020120C0055202490A520AE41AD3
:10032000091812187D34914201D3641C00E0490081
:10033000002C01DA002070BD0023914201D3891AFC
:100340000343400849000028F7D100290AD0914210
:1003500002D10121C90705E0914201D2012101E04A
:100360000121C943E005C018401900F055FA70BDDD
:10037000F0B507460846584087B0C00F04904800C3
:100380000E46590040084908BC1A884105D2384633
:1003900031461E4617460B46024658004008104399
:1003A0004DD0300D039040055900400D490D05908A
:1003B000401A0290402873DA18030121000B090546
:1003C0000843019004980092002806D01146019A33
:1003D00049420020904100910190029840210A1A60
:1003E0000199009800F0E4F905460C466B4607CBEE
:1003F00000F0FFF9C0197141039A0E0D0023D717C1
:1004000056401A467A40164344D0049A002A2DD00A
:10041000029A012A039A15DC1205C01A914101269D
:100420003605001C7141D20F059ED2070093019240
:1004300002962A46234600F03DFA07B0F0BD384642
:100440003146FAE71605234A0F46B218C01AB741DB
:1004500001210905001C4F4100187F411146181861
:100460007941E20F10436D19644113E0E2076D0812
:1004700015436408C2071443039A01261205C01AE3
:1004800091413605001C7141CE07400830434908B0
:10049000C01851412A46234600F0FFF9CDE7FFE797
:1004A000049801224000C117121A00238B410498BE
:1004B0003146C417381AA141EEE730B40124E407ED
:1004C000634030BC54E730B40124E407614030BCE1
:1004D0004EE700000000E0FFF0B51FB488B00B99B4
:1004E0000998002448400999C00F4900490809911A
:1004F000C0070B990090490049080B910999089889
:10050000A64608431CD00B990A98084318D00998AE
:1005100001244000420D4800410D099824050003C4
:10052000000B204309900B980003000B20430B9015
:1005300050181C494018002201901446104605E04E
:10054000002001460DB0F0BD032801DA034600E0AB
:1005500003239C46C11A0AAE0AE05F0008ADED5BBA
:100560004F00F75B7D430027AA187C41491C5B1EA6
:100570006145F2DD410004AB5A522104120C0A43DA
:10058000240C401C0828DFDB01980290009970467B
:1005900001910090059B049A0799069800F08AF94A
:1005A000D0E700000DFCFFFFF0B50C465C4085B0C5
:1005B000E40FE40703944C000026640859009446B5
:1005C000490802460296224321D062460A431ED0C1
:1005D0006200570D4A000E032303550D0124024605
:1005E0002C492405781B1B0B360B4018234326434C
:1005F000614600901C46501AB44103D30098401C39
:10060000009002E0921800985B41002803DA002075
:10061000014605B0F0BD00200121090507468646C8
:1006200011E064461D46141BB54106D36546521BB6
:10063000B341744607430C43A646CD07400849081A
:10064000284392185B4105460D43EAD110461843F2
:1006500013D06046194650407140084306D06046AA
:10066000101AB34106D20122002306E00022012322
:10067000DB0702E00122D2435310009874460105C3
:10068000381C6141029C039D0019694100F005F985
:10069000BFE70000FD03000010B5002296231146BD
:1006A00000F0C2F810BD00000EB50549029100210E
:1006B00000910A460B46019100F0FCF803B000BD22
:1006C00033040000410040020122400AD205090E15
:1006D00080187F2901DA00207047962903DC9622D2
:1006E000511AC84070479639884070474A0009033C
:1006F0000123090B1B051943094B10B5520D9A42F2
:1007000001DA002010BD064B34339A4203DC9A1AFA
:1007100000F05EF810BD03495118884010BD00007C
:10072000FF030000CDFBFFFFC20FD20740004008CF
:100730000BD0C10D0723DB01C91840020905400A8F
:100740001143C2084007114370470020014670471B
:10075000CB0FDB07490010B5490802460A4307D012
:100760000A0D07240903E401090B121B002A01DC0E
:10077000002010BDC900440F0C43C100E018D20591
:10078000801800F049F810BD0122D207002800DBD4
:10079000101A002900DB511A814270470122D2074A
:1007A000002800DB101A002900DB511A884270472C
:1007B00010B5202A04DB0146203A9140002010BDEC
:1007C000914020239C1A0346E3401943904010BDFA
:1007D00010B5202A04DB0846203AD040002110BD85
:1007E0000B46D340D0402024A21A9140084319461A
:1007F00010BD10B5202A06DBCB170846203A104161
:10080000C1170B4306E00B461341D0402024A21A27
:1008100091400843194610BD002904DA401C4900E4
:1008200001D140084000704770B40024050C05D188
:100830001024000402D1002921D01124050E01D179
:1008400000020834050F01D10001241D850F01D1DC
:100850008000A41C002801DB4000641C002908D093
:1008600020252E1B0D46F540A14000D00121294333
:10087000084301061B1B000ADB1D02D5002070BCCB
:100880007047DB05181880180029F8DA401C490069
:10089000F5D170BC40084000704710B5002B08DA55
:1008A0000024401C614192185B411A4301D1400869
:1008B000400010BDF0B51FB482B005460C0003D057
:1008C000084600F0BBFF02E000F0B8FF203002460F
:1008D000009021462846FFF76BFF049B059A0446CB
:1008E0000F4618431143084314D0184610431BD039
:1008F000009840210A1A18460599FFF769FF054636
:100900000E46009A05990498FFF752FF084305D058
:10091000012004E02046394607B0F0BD0020C11791
:1009200005430E432C43374300990E986305401A44
:100930007905E40A00220C43FD0A0A3002D50020A2
:100940000146E9E70105101969410C9C0D9D00194C
:100950006941FFF7A2FFDFE770B54B005B08034377
:100960000BD04B005C0D002633466542B341D417D3
:10097000AD1AA34102DB0020014670BD12053018FC
:10098000514170BD0EB5C217C10F5040CA07401883
:100990000021054B0293019200910A460B46FFF796
:1009A00089FF03B000BD00003304000010B500292A
:1009B00004DB0124E40740428C412146002B04DB88
:1009C0001C460123DB075242A3418B4200D18242E5
:1009D00010BD0000064C0125064E05E0E36807CC7B
:1009E0002B430C3C98471034B442F7D3FFF766FB17
:1009F000A0310008C031000830B50907090F0829E7
:100A00000CDAC36D8D000F24AC40A343C365C36DE6
:100A10008D001446AC402343C3650FE0036E0C46C3
:100A2000083CA5000F24AC40A3430366036E0C46AC
:100A3000083CA5001446AC402343036630BD0029A2
:100A400004D0826E01231A43826603E0826E52084C
:100A50005200826670470F2900DD0F214166704702
:100A6000012904D1426901231A43426103E042692A
:100A700002231A4342617047002904D042680123CF
:100A80001A43426003E042685208520042607047D5
:100A90000246012902D1506908407047506902237B
:100AA00018404008F9E7000042680B4B1A404260CA
:100AB0000B684A681A4343681A4342608268074BCE
:100AC0001A4082600B694A691A438B681A4383682B
:100AD0001A438260704700000FBCFFFF8FF1F9FFDF
:100AE000002905D08268FF2301331A43826004E0A5
:100AF0008268FF2301339A438260704700210160BE
:100B000041608160017301614161704742680F2358
:100B10009B029A43426042680A4342607047000069
:100B200000B587B001210320400400F0F5FA06A8C3
:100B300000F05FFA2B49684601830121817600218C
:100B4000C17606A90920C00600F0EEF90321684627
:100B5000018306A9244800F0E7F90121480200F0CA
:100B6000EBFA01A8FFF7CAFF002001907020029065
:100B700001204002039000200690059001A91B4827
:100B8000FFF792FF072189021848FFF7BFFF0121F5
:100B90001648FFF771FF00211448FFF750FF0421AA
:100BA0001248FFF758FF002211461048FFF724FFB4
:100BB000012211460D48FFF71FFF062202210B48B4
:100BC000FFF71AFF072203210848FFF715FF052248
:100BD00004210648FFF710FF01210448FFF72FFF0B
:100BE00007B000BD848000000004004800240140DC
:100BF00010B56420124908607D21C90011480068C1
:100C0000FFF794FA0446601E0F49884201D901207B
:100C10000CE0601E0D4948610321081F00F026FE0C
:100C200000200A498861072008610020002801D0BF
:100C300000BFFEE70021481E00F018FE10BD0000B6
:100C40002000002000000020FFFFFF0000E000E087
:100C500001B504490098086000BF024800680028F8
:100C6000FBD108BD1C00002070B506460C4621468D
:100C70000A4800F0EAF80546002D01D1401E70BD7B
:100C80000648854202D10648051B00E02D1B22467E
:100C900029463046FFF774FA2046F0E7003C00088A
:100CA0000044000870B505460C4622460249284615
:100CB00000F08CF8204670BD003C000810B50446DA
:100CC0000848006902210843064908610846446152
:100CD00000694021084303490861034800F0F4F823
:100CE00010BD000000200240FF0F00000C48C0684B
:100CF000C007C00F002801D0012070470848C06815
:100D000004210840002801D00220F6E70448C0680A
:100D100010210840002801D00320EEE70420ECE772
:100D2000002002400348006980210843014908610E
:100D3000704700000020024030B504460D460548CB
:100D40000069012108430349086125800F2000F054
:100D5000BBF830BD0020024010B5044600F0A8F8F2
:100D60002046FFF7ABFFFFF7DDFF10BD70B5034670
:100D70000125002208E050001C5A0748844201D097
:100D8000002506E0501C82B2CE0F761876109642EF
:100D9000F1DC00BF284670BDFFFF0000F8B5054636
:100DA0000E46144600F084F8002707E029883046F4
:100DB000FFF7C2FFB61CAD1C781C87B2E10F091902
:100DC0004910B942F2DCFFF7ADFFF8BDF8B50746B0
:100DD0000C4615462946204600F037F80646002EF8
:100DE0000DD12046FFF7B8FF012080022018FFF741
:100DF000B3FF2A4621463846FFF7D0FF24E0012002
:100E000080022018401BB0420AD101208002201825
:100E1000FFF7A2FF2A4631463846FFF7BFFF13E02F
:100E20000120C0022018401BB04208D12046FFF725
:100E300093FF2A4631463846FFF7B0FF04E02A46C2
:100E400031463846FFF7AAFFF8BDF8B505460E460D
:100E50002F46E807C00F002801D000BFFEE731464B
:100E60000120C002FFF778F9002901D000BFFEE79A
:100E700000240BE020467043471931463846FFF7FF
:100E800075FF012800D108E0601C84B231460120C2
:100E9000C002FFF761F9A042ECDC00BF314601203F
:100EA000C002FFF759F9A04200D100273846F8BD2B
:100EB000024803494860034848607047230167457A
:100EC00000200240AB89EFCD10B5024600BFFFF70E
:100ED0000DFF0346521EFF2400E0641E002CFCD1CF
:100EE000012B01D1002AF2D10020054908613420EC
:100EF000C860002A01D1052010BD1846FCE700009B
:100F0000002002401CB5002000900190FF2168469F
:100F1000017041708170C170017141718171C17145
:100F20000821FFF7BFFE1CBDF8B50246CD782F079C
:100F30003F0FCD7810263540002D01D08D782F43FE
:100F40001446002011E085062B0E0D8801268640F0
:100F50003540002D07D025680F269E40B5433E46FC
:100F60009E4035432560451CE8B20828EBDB141D84
:100F70000D882D120095002011E085062B0E01250D
:100F80008540009E3540002D07D025680F269E40E5
:100F9000B5433E469E4035432560451CE8B20828CF
:100FA000EBDBCD78282D04D155690E88354355618A
:100FB00006E0CD78482D03D115690E8835431561BB
:100FC000F8BD70B54D07EB0E082902DA054620354D
:100FD00001E0054624352C460F269E402568B54382
:100FE00016469E403543256070BD416170470161E2
:100FF00070470021C9430180022181700421C17022
:101000007047000010B501211148FFF769FD00BFCE
:1010100001210F48FFF73CFD0028F9D001210C48C1
:10102000FFF71EFD0A4880690A4908800848C06920
:10103000094908800648406B084908800448006B4D
:10104000074908800248C06A0649088010BD0000B0
:1010500000240140B8000020280100209801002051
:1010600008020020780200201CB5044600200090F1
:10107000019008216846FFF7F7FD6846007855287B
:101080000FD101214720015568464078010268468A
:10109000807808182063206B6063206BFFF7FCFAF0
:1010A00060621CBD08B50121480400F035F86846AF
:1010B000FFF79FFF01216846018081701021C170F8
:1010C00069460920C006FFF72FFF01210920C0064D
:1010D000FFF78BFF01200149087008BD19000020AF
:1010E00008B50121480400F017F86846FFF781FFB2
:1010F0000121C90268460180012181701021C1705F
:1011000069460920C006FFF70FFF0121C902092027
:10111000C006FFF76CFF08BD002905D0054A5269DB
:101120000243044B5A6104E0024A52698243014B74
:101130005A61704700100240002905D0054AD26963
:101140000243044BDA6104E0024AD2698243014B54
:10115000DA6170470010024000B500F01FF8044942
:101160004968F02211400909024A515CC84000BD9B
:1011700000100240A100002000B5FFF7EDFF054977
:101180004968072212021140090A034A515CC8400B
:1011900000BD000000100240A1000020094949687C
:1011A0000C221140042905D0082905D00C2905D1AD
:1011B000054805E0054803E0054801E0034800BF95
:1011C00000BF704700100240409C000000127A00EF
:1011D000006CDC0200BF05498968C907C90F0029F6
:1011E000F9D0C1B2014A11607047000000380140D7
:1011F000FEB504461749A06B884201D10520A063C3
:10120000A06BFFF749FA0746A068FFF745FA394691
:101210000190FFF76FF80546A16B481EFFF73CFAF7
:101220000190A06BFFF738FA0090206C0099FFF74F
:1012300061F807460199FFF720F806462946FEF7B0
:10124000C3FF2064206CFFF73DFAE063A06B401CF5
:10125000A063FEBD5902000010B500F001F810BDFA
:1012600000202349096801221143214A116000BF6F
:101270001F490968022211400029F9D01C49096858
:10128000D20491431A4A116011460968042291431D
:10129000174A11601121174A1160154949688908D8
:1012A0008900134A516014490968702211400029CD
:1012B00019D112490968124A914204D00F490968AC
:1012C000104A91420FD10A49496802221143084A43
:1012D000516005E0064949688905080E8007800FBE
:1012E0000228F7D102E00849084A1160704700005F
:1012F000001002400020024000ED00E000340140F8
:10130000D15043CCD150438C00127A000000002011
:101310007CB5044600200090019055254720005DD3
:1013200001280AD168460570208E0004010E684627
:101330004170208EC1B2684681704820005D01284E
:101340000AD16846C570A08E0004010E684601717E
:10135000A08EC1B26846417108216846FFF7A2FC21
:101360007CBD10B504467C212046FEF722FF0120FB
:10137000A062A0636321442001550121452001554D
:1013800000F0CCFE10BD10B500F070F910BD0000EB
:1013900010B5FFF72DFC6420FFF75AFC00F026F98A
:1013A000FFF79EFE02201E49087081020920C00638
:1013B000FFF71BFE7D20C000FFF74AFC0121C90298
:1013C0000920C006FFF713FE7D20C000FFF740FC98
:1013D0000121C9020920C006FFF707FE7D20C000D9
:1013E000FFF736FC0121C9020920C006FFF7FFFD07
:1013F000FFF796FBFFF756FE00200A490870E12030
:10140000000200F0C1F908480021016041608160DC
:1014100058210648FEF7CDFE01F0BEFA10BD0000CF
:10142000140000201900002008040020B003002050
:1014300010B50F480068012108430D4908600846AF
:1014400040680C4908400A494860084600680A4953
:10145000084007490860084600680121890488435C
:10146000034908609F2000048860FFF7F5FE10BD67
:10147000001002400000FFF0FFFFF6FE10B5012152
:10148000234800F069F8002841D000BF0C2015E087
:10149000411E89001F4A515800290DD0411E890064
:1014A0005158491C002907D0411E89005158491E36
:1014B000421E9200174B9950411EC8B20028E7DC2B
:1014C00000BF00BF1348006800280AD101F066FB86
:1014D000044601E00F4804600E480068A042F9D1BC
:1014E00000BF00BF00BF0B48006A00280AD101F00E
:1014F00097FA044601E0074804620648006AA042E1
:10150000F9D100BF00BF0121014800F015F810BD5E
:101510000040014014040020002904D00268802308
:101520001A43026003E0026880239A430260704716
:1015300002698A430261704702698A430261704707
:10154000002904D0026801231A43026003E0026804
:101550005208520002607047024610690840002895
:1015600005D0D0680840002801D001207047002035
:10157000FCE7002A03D0C3680B43C36002E0C368E2
:101580008B43C36070470000026803231B029A4329
:101590000B891A4302600E4A904202D00D4A9042D3
:1015A00005D1026870239A438B781A430260084A77
:1015B000904205D1026B120A12028B7A1A4302631F
:1015C0004A68C2620A888262012242617047000052
:1015D000002C0140000400400021C943416000216B
:1015E0000180018181708172704700001FB5012167
:1015F0000820FFF7A1FD01A8FFF7EEFF17480290B2
:10160000174918480068FEF791FD401E81B26846F0
:101610008180002181818173817101A91248FFF7C6
:10162000B3FF01211048FFF777FF01210E48FFF7B4
:101630007FFF012211460C48FFF79BFF13216846EC
:10164000017000214170032181700121C17000F0FF
:10165000DBFB01210448FFF773FF1FBDE703000018
:1016600040420F0000000020004001400448006894
:10167000002804D002480068401E014908607047F5
:101680001C00002010B502210C4800F025F80028AD
:1016900012D00A4800F066F809490A4A12788854BC
:1016A00000200949087007480078632804DA0548D3
:1016B0000078401C0349087010BD0000003801404C
:1016C0004C030020240000202500002082695208DD
:1016D00052000A43826170470246D06808400028E1
:1016E00001D0012070470020FCE7002A03D00369E5
:1016F0000B43036102E003698B430361704770B5DC
:1017000004460D460026E0693021884329790843C4
:10171000E061E06944218843A9790843E061E06918
:1017200080088000297A0843E061A0691821884375
:1017300069890843A061A06904218843297B084383
:10174000A061FFF719FD064630462968FEF7EEFC5A
:101750000009206230462968FEF7E8FC0007000F08
:10176000606270BD01464868C0B270474B21C90134
:1017700001603021017100218171017218214181C4
:10178000002101737047000010B586B004460121A6
:101790000804FFF7D1FC01214804FFF7BDFC01223A
:1017A00003210920C006FFF70CFC01220C210920AF
:1017B000C006FFF706FC01A8FFF7D8FF019430210F
:1017C0006846018100214181818101821821C18106
:1017D00001A91948FFF793FF01211748FFF776FF8A
:1017E00005A8FFF706FC0121090368468182012153
:1017F00081751821C17505A90920C006FFF794FB62
:101800000821684681820421C17505A90920C00606
:10181000FFF78AFB1B2168460170012141700021FE
:1018200081700121C17000F0EFFA0122022102480B
:10183000FFF75BFF06B010BD003801402021020C0D
:1018400001D010211046020A01D0104608390209C1
:1018500001D01046091F820801D01046891E420897
:1018600001D0881E7047081A7047000010B5002884
:1018700019DB1A4A03231B02D21883089B00D25893
:101880008307DC0EFF23A3409A438B071B0E8407BC
:10189000E40EA3401A43114B032424021B198408AD
:1018A000A4001A5118E00E4A03071B0F083B9B08BF
:1018B0009B00D2588307DC0EFF23A3409A438B077B
:1018C0001B0E8407E40EA3401A43054B0407240FA4
:1018D000083CA408A4001A5110BD000000E100E07B
:1018E0001CED00E0F8B504464F1EC800083821186A
:1018F00015461E46086849683A4606239A4310D0A2
:101900002A463346FEF7E8FD3A46D200083AA318C5
:101910001A687F1E5B68FEF72BFD06223B46934349
:10192000EED1022F23D0042F11D0062F2FD12A461B
:101930003346FEF7D1FDE36AA26AFEF719FD2A4697
:101940003346FEF7C9FD636A226AFEF711FD2A4697
:101950003346FEF7C1FDE369A269FEF709FD2A4699
:101960003346FEF7B9FD63692269FEF701FD2A4699
:101970003346FEF7B1FDE368A268FEF7F9FC2A469C
:101980003346FEF7A9FD63682268FEF7F1FCF8BD57
:10199000002210B5134610460149FEF705FE10BDA2
:1019A0000000F03F10B50122FEF7D6FF10BD002267
:1019B00010B5134610461146FEF7F6FD10BD02E0C5
:1019C00008C8121F08C1002AFAD1704770470020CA
:1019D00001E001C1121F002AFBD1704701490860D4
:1019E00070470000B400002010B5B8480078BC284B
:1019F0007ED060E1FFF706FBB5480188B548007866
:101A00004200B34808308152B3480188B148007899
:101A10004200B14808308152B0480188AD48007892
:101A20004200AE4808308152AD480188A94800788C
:101A30004200AB4808308152AA480188A548007886
:101A40004200A848083081523221A2480078401C48
:101A5000FEF782FBC8B29F49087000209C49C86607
:101A60009D49C8669D49C8669D49C8669D49C86626
:101A70009748008996498880488097480089964908
:101A80008880488095480089944988804880944897
:101A900000899349888048809248008991498880CC
:101AA00048800020BCE08A494300CA6E0831C95A08
:101AB0005118874AD16688494300CA6E0831C95A0D
:101AC0005118854AD16685494300CA6E0831C95A02
:101AD0005118824AD16682494300CA6E0831C95AF8
:101AE00051187F4AD1667F494300CA6E083100E031
:101AF000E0E0C95A51187B4AD16642007449083166
:101B0000895A734A5288914206DD42007049083171
:101B1000895A6F4A51800DE042006D490831895A57
:101B20006B4A9288914205DA420069490831895A24
:101B3000674A9180420068490831895A664A52884A
:101B4000914206DD420064490831895A624A518057
:101B50000DE0420060490831895A5F4A92889142FB
:101B600005DA42005C490831895A5B4A918042009B
:101B70005A490831895A594A5288914206DD420031
:101B800056490831895A554A51800DE0420053495F
:101B90000831895A514A9288914205DA42004F49E8
:101BA0000831895A4D4A918042004D490831895A7D
:101BB0004B4A5288914206DD420049490831895A10
:101BC000474A51800DE0420045490831895A444A4C
:101BD0009288914205DA420041490831895A404AC7
:101BE000918042003F490831895A3E4A52889142C9
:101BF00006DD42003B490831895A3A4A51800DE0DE
:101C0000420038490831895A364A9288914205DAA9
:101C1000420034490831895A324A9180411CC8B285
:101C2000322800DA3FE72A49C96E294A5288891AC0
:101C3000274A9288881A3021FEF778FA2449C8800A
:101C40002549C96E244A5288891A234A9288881ADB
:101C50003021FEF76BFA2049C8802049C96E1F4A1F
:101C60005288891A1D4A9288881A3021FEF75EFA36
:101C70001A49C8801A49C96E194A5288891A184ADD
:101C80009288881A3021FEF751FA1549C880154903
:101C9000C96E144A5288891A124A9288881A3021C9
:101CA000FEF744FA0F49C88000BFBC2007490870FE
:101CB0000A2010BD00BF0C480068002800D099E63B
:101CC00000BF00BF01490870401EF2E71800002065
:101CD000B8000020170000202801002098010020F3
:101CE00008020020780200202800002010B53848A3
:101CF0000078F52860D060E000F084FF3549086D79
:101D0000496D03220023101A8B4142D232480068E9
:101D100031494968884204D263212F4840304171DB
:101D200031E02D484030007A00281AD12B48007845
:101D3000401C2A49087008460078072804DA26481B
:101D400080682549486315E0082024490870224925
:101D500008692349FEF718FD0CD21F4800F064FF04
:101D600008E01D4908691E49FEF70EFD02D21A4817
:101D700000F05AFF1848FFF73BFA174800F08AF8BE
:101D8000154800F0C9FE144800F0A2FD124800F00A
:101D900045FD11484030C079002803D10320114986
:101DA000087002E000200F49087000BFF5200849C4
:101DB00008707D20C00010BD00BF0B4800680028DF
:101DC0009AD100BF00BF02490870401EF3E700002F
:101DD0009F000020B0030020440400209E0000204B
:101DE00000004C42140000202800002010B50246DC
:101DF0000B461078012103E0545C60404C1CE1B2BA
:101E00009942F9DB10BD0000C178002925D017499F
:101E100003221202891802789210920089580278DF
:101E20009207D30EFF229A40914382789207120EB6
:101E300003789B07DB0E9A4011430C4A03231B02D5
:101E4000D21803789B109B00D1500178CA06D20E9D
:101E500001219140054A116007E00178CA06D20EBF
:101E600001219140014A80321160704700E100E099
:101E700030B502460B46FF20002105E0545C44408B
:101E8000034D285D4C1CA1B29942F7DB30BD000028
:101E900060300008F0B58FB0044600200E90099025
:101EA0000890A068FEF7F8FB0E90206C0D90606B18
:101EB000FEF7F2FB0C9000200C99FEF765FC01D1B7
:101EC0000FB0F0BD6068FEF7EFFB03910290A068D1
:101ED000FEF7EAFB01910090039B029AFEF764FB78
:101EE00005910490FEF734FC0990626B2168881A12
:101EF000FEF7DAFB03910290606BFEF7D5FB0191D0
:101F00000090039B029AFEF74FFB05910490FEF7A9
:101F10001FFC08906068FEF7C7FB03910290E06B1E
:101F2000FEF7C2FB01910090039B029AFEF73CFB77
:101F300005910490FEF70CFC0B90626B2168881AE7
:101F4000FEF7B2FB03910290606BFEF7ADFB0191CF
:101F50000090039B029AFEF727FB05910490FEF781
:101F6000F7FB0A9008990998FEF7C4F960490590B3
:101F7000FEF783F906460A990B98FEF7BBF95C4910
:101F80000590FEF77AF907465A493846FEF706FCEF
:101F900000D2584F58493046FEF716F93946059099
:101FA000FEF7F2FB17D24620005D002813D15348FC
:101FB0000078401C514908700846007802280FDD5F
:101FC0004F48007800280BD10121462001550120FF
:101FD0004B49087004E000204849087048490870DF
:101FE000079706964620005D012835D145480188AF
:101FF0000088401C434A1080782912DD00214A20C5
:1020000001553546204600F0B3FD0021462001551C
:1020100000203A4908703A49087036483A49086041
:102020001EE0394806990068FEF7AEFB02D236483A
:10203000056804E034490698086008460568334995
:102040002846FEF7ABFB00D2304D314906980860B8
:1020500002214A20015503E03D460020294908801D
:1020600031463846FEF790FB04D24620005D00283A
:1020700000D135461F492846FEF790FB01D21D4D81
:102080001AE022492846FEF789FB00D214E02149D4
:102090002846FEF783FB0DD229461C48FEF7E5F8DB
:1020A0001D490490FEF7E9F818490590FEF7E1F89C
:1020B000054601E07F25ED052846FEF703FBC1B28A
:1020C00044200155005D632802DD63214420015551
:1020D0004420005D012802DA0121442001554420FA
:1020E000005D6421081AC1B24520015500BFE7E632
:1020F0000000C8420000C6420000A0409C00002032
:102100009D0000208E000020980000200000B442B6
:102110009400002000004C4233331340A5200C49AA
:102120000870487012208870B420C87000200871B0
:10213000A0204871322088710020C871087248724E
:10214000C8720873887248738873C87308747047BC
:10215000C004002010B516480078232811D0282884
:102160001BD01BE01348007800280BD10121092067
:10217000C006FEF73CFF00BF23200D490870642015
:1021800010BD0BE001210920C006FEF72EFF00BFA5
:102190002820074908706420F2E700BF064800685D
:1021A0000028DFD100BF00BF01490870401EE7E7EB
:1021B0001A000020190000202800002010B53A481D
:1021C000007833284BD006DC272819D02C2827D0BC
:1021D000312804D135E038284ED03A2859D059E07A
:1021E0003248007800280CD10121C9020920C0061C
:1021F000FEF7FDFE00BF27202B490870642010BDAC
:1022000048E02A48007801280BD1C1020920C00605
:10221000FEF7EBFE00BF2C20234908706420EEE798
:1022200038E02248007802281AD181020920C0062D
:10223000FEF7DBFE00BF31201B490870FF20F530A0
:10224000DDE700BF0121C9020920C006FEF7CFFE6D
:1022500000BF332014490870FF20F530CFE719E0A4
:102260000121C9020920C006FEF7BFFE00BF3820C9
:102270000D490870C820C2E700BF0121C90209202A
:10228000C006FEF7B4FE00BF3A2007490870C82018
:10229000B5E700BF064800680028A1D100BF00BF15
:1022A00001490870401EAAE7150000201400002014
:1022B0002800002070B504462078A52802D1607857
:1022C000A52801D0012070BD0721A01CFFF7D0FD7B
:1022D0000546607934490870607AA84261D10846A1
:1022E0000078A02804D0A1284CD0B02857D128E0ED
:1022F000A0792E490870E0792D490870207A2D497F
:1023000008702B480078FA2803D102202A49087067
:1023100006E027480078F02802D1002026490870FE
:10232000A0792649C873207A08740F212348801C9D
:10233000FFF79EFD214948741221204800F054FC0B
:102340002EE0A0791E490870A5201E49087048702B
:102350000A208870B420C87000200871B02048712D
:102360001748007888710020C87108720721154845
:10237000801CFFF77DFD134948720A21114800F0C7
:1023800033FC0DE028211048FFF772FD0E491E3185
:1023900088722B210C48801E00F026FC00E000BF54
:1023A00000BF00208FE700004D00002085000020C6
:1023B000840000208C00002014000020C0040020B5
:1023C000830000204E0000205A000020F0B5C54ACE
:1023D00000248FB091420ADA4B005B08934206D882
:1023E00001254A006D05EA4205D1002803D0FFF718
:1023F000D9FA0FB0F0BD01252D05A94219DA034322
:1024000008D0002910DA0120FFF7E8FAFFF7CFFA29
:102410000FB0F0BD0220FFF7E1FAFFF7B9FA012291
:10242000D20751400FB0F0BD3524E4433622FEF709
:1024300093FA0A15AC4B1219D4180A03120BAB49C4
:10244000AB4B56182E40314659401143019232157C
:1024500012190B920022FEF730F8019A0446921CE2
:102460001003A44E000B0D467E44032860D2204684
:1024700073683268FEF79AFA1CD10B98002815D0C1
:10248000FEF780FA04460E469B4A9C4BFEF724F862
:102490000D4607469A4A9B4B20463146FEF71CF8EC
:1024A0003A462B46FDF764FF0FB0F0BD7168306807
:1024B0000FB0F0BD944A954B20462946FEF70CF824
:1024C0000022934BFDF7FFFF06460F4622462B46A0
:1024D00010461946FEF700F832463B46FDF7FCFF72
:1024E00006460B980F4600281DD0FEF74BFA824A8D
:1024F000824B05910490FDF7EFFF32463B46FDF716
:10250000E2FF22462B46FDF7D8FF04460D467C4AE3
:102510007C4B05990498FDF7DFFF22462B46FDF71B
:10252000CCFF0FB0F0BD0B46324620462946C4E032
:10253000012300229B072046FDF71AFF02460B46A7
:1025400020462946FEF730F806460F460B98FEF760
:1025500019FA32463B460591049010461946FDF79C
:10256000BBFF09910C906B490198099B421800929E
:102570000C9A19461046FDF7AFFF024607910A90E4
:10258000654901980B1A6548019303217844079B1C
:10259000FFF7A8F9079B0A9AFDF79EFF0E905F4888
:1025A0000D9104217844079B0A9AFFF79BF9099B38
:1025B0000C9AFDF791FF019B009A1A4300920D9B24
:1025C0000E9AFDF7D5FE009A01910C90002A4DDD80
:1025D0000022D24320462946FEF7BEF922462B466A
:1025E000FDF77AFF00910A900B9800282BD0424A01
:1025F000424B05990498FDF76FFF07910E90019BE0
:102600000C9A00990A98FDF7B3FE32463B46FDF757
:1026100063FF079B0E9AFDF7ABFE009B0A9AFDF73E
:1026200052FF22462B46FDF748FF04460D46344A2A
:10263000344B05990498FDF74FFF22462B46FDF7D2
:102640003CFF0FB0F0BD019B0C9A0A98FDF790FE7D
:1026500032463B46FDF740FF009B0A9AFDF733FFE9
:1026600022462B46FDF72FFF0FB0F0BD0B98002838
:1026700027D0214A214B05990498FDF72DFF07919A
:10268000009020462946019B0C9AFDF716FF324622
:102690003B46FDF721FF079B009AFDF70EFF224600
:1026A0002B46FDF70AFF04460D46154A154B0599C2
:1026B0000498FDF711FF22462B46FDF7FEFE0FB0F2
:1026C000F0BD0B46204629460C9AFDF7F6FE324631
:1026D0003B46FDF701FF22462B46FDF7F4FE0FB007
:1026E000F0BD00000000F07F01FCFFFF645F090007
:1026F0000000F03F2C0D0000763C7935EF39EA3DC3
:102700000000E0FE422EE63F555555555555D53F44
:102710000000E03F86EBF9FF51B80600D00B000047
:10272000FEF736FE76E000BF3B48406800280AD13D
:10273000FFF744FD044601E03748446036484068EE
:10274000A042F9D100BF00BF00BF33488068002815
:102750000AD1FFF7FFFC044601E02F4884602E48B1
:102760008068A042F9D100BF00BF00BF2A48C068FE
:1027700000280AD1FFF738F9044601E02648C46072
:102780002548C068A042F9D100BF00BF00BF224861
:10279000006900280AD100F06DFB044601E01E48E4
:1027A00004611D480069A042F9D100BF00BF00BF0D
:1027B0001948406900280AD100F0F0F9044601E008
:1027C0001548446114484069A042F9D100BF00BFD8
:1027D00000BF1148806900280AD1FFF787FA044634
:1027E00001E00D4884610C488069A042F9D100BF26
:1027F00000BF00BF0848C06900280AD100F05AF99C
:10280000044601E00448C4610348C069A042F9D10C
:1028100000BF00BF87E7000014040020F0B585B0BA
:102820000446FF2004907F20C0050290A068FDF7B9
:1028300033FF00900299FDF75DFD0746FDF742FF6B
:102840000546606BFDF728FF00900299FDF752FDE9
:102850000746FDF737FF0646E06BFDF71DFF0090CA
:102860000299FDF747FD0746FDF72CFF019016483A
:102870000078002801D005B0F0BD4521085DFDF7C6
:102880000BFF03900398FDF71DFF10498871280482
:10289000000E08724D723004000EC8720E734A208A
:1028A000005D8872208E0004000E4873208E8873AD
:1028B0000F210648801CFFF7DBFA049003490498B7
:1028C000487400BFD7E7000030000020C00400209B
:1028D00070B50446FF21512001554520065D522068
:1028E000065520890004010E53200155217A5420F9
:1028F0000155A08E0004010E55200155A08EC1B2D5
:1029000056200155208E0004010E57200155208EBF
:10291000C1B25820015500212069FDF73FFF01D2C7
:10292000012100E000215920015500212069FDF717
:1029300035FF01D2206903E000202169FDF795FCF5
:102940000546FDF7BFFEC1B25A200155606AFDF78A
:10295000B9FE85B2E817000E40190004010E5C2094
:102960000155606AFDF7AEFE85B2E817000E40190A
:1029700000120002281AC1B25D2001556069FDF7FE
:10298000A1FEC1B25F2001550F2120465130FFF753
:102990002DFA6021085570BD10B50348FEF7E1FC23
:1029A0000148FEF761FB10BD440400201949097875
:1029B000FA290DD101224F210A541749174A1180D3
:1029C0005021095C002923D1012250210A541FE023
:1029D00010490978F0291BD15021095C012917D130
:1029E0000E490988491E0D4A11801146098802299D
:1029F00004DA00224F210A5450210A54416B0A3153
:102A000082688A4204D200224F210A5450210A547B
:102A1000704700008C000020AA05000090000020F4
:102A200010B51E4800788F282CD02CE01C48007868
:102A3000052805DA1A480078401C194908701BE07F
:102A400017480078052817D1642216491648FDF763
:102A500097FB64211348FDF7ACFB00201349087075
:102A60000F480078401C0E4908700F48FFF722FC01
:102A700064210D48FDF79DFB00BF8F2007490870BA
:102A8000012010BD00BF0A4800680028CED100BF59
:102A900000BF02490870401EF3E700002E0000202E
:102AA000250000204C030020E80200202400002024
:102AB0002800002010B514480078072819D019E024
:102AC0001248026D406D03210023891A834109D207
:102AD000002405E00E49085DFEF77CFB601CC4B2D3
:102AE000102CF7DB00BF0720074908707D20C000CD
:102AF00010BD00BF074800680028E1D100BF00BF3B
:102B000001490870401EF3E7A0000020B003002038
:102B1000950400202800002070B504461349A068E1
:102B2000884222D94520005D052802DB6068002824
:102B300014D18321C9052069FDF746FB064661696A
:102B4000FDF793FB0546FDF7BDFDC1B245200155DC
:102B5000005D142802DD1421452001554520005D4B
:102B6000322802DD14214520015570BD47050000C3
:102B700010B50446A068FDF78FFD20640120A06316
:102B8000A068FDF789FDE06601214B200155062173
:102B90004C2001550120606610BD00000F480078F0
:102BA000872810D010E00E48026D406D0021521CA5
:102BB00048410B490A65486500BF872007490870EE
:102BC0007D20C000704700BF064800680028EAD199
:102BD00000BF00BF01490870401EF3E71600002047
:102BE000B00300202800002070B505460E460024E2
:102BF00004E0285DFEF7EEFA601CC4B2B442F8DBD4
:102C000070BD00000648C06A064908600448406A72
:102C100048600348806A88600148006B086170471B
:102C2000B003002044040020FEB504462046FFF710
:102C3000BDFE8A480078152812D100208749087007
:102C400000214820015547200155FEF75BF9204639
:102C5000FEF787FB0021482001554720015538E049
:102C60007E48007851281FD100207C490870606B95
:102C7000002802D0206B002800D1FEBD606AFDF75D
:102C800021FD6063216B606B884202D9606B6063D9
:102C900001E0206B60630121482001554720015568
:102CA0002046FEF735FB14E06C480078552810D11B
:102CB00000206A4908706A49606AFDF7DEFA064634
:102CC000FDF700FD20630121472001552046FEF756
:102CD0001FFB6449A06A884255D10120A0620121EE
:102CE0002020015520696061606BFDF7D5FC064628
:102CF000616AFDF749FD17D2606BFDF7CDFC074611
:102D0000616AFDF7B6FA06465749FDF7B6FA054679
:102D1000606BFDF7C1FC07462946FDF755FA0646EC
:102D2000FDF7D0FC60631EE0606BFDF7B5FC064666
:102D3000616AFDF733FD16D2606BFDF7ADFC074607
:102D4000616AFDF792FA06464749FDF796FA05468D
:102D5000606BFDF7A1FC07462946FDF786FA06469B
:102D6000FDF7B0FC6063216B606B884201D2206B81
:102D700060633E49E06A884205D30121482001553D
:102D80002046FEF7C5FA4F20005D002821D1A06A39
:102D9000FDF782FC0746A068FDF77EFC39460190EE
:102DA000FDF7A8FA0646A16A481EFDF775FC0190DA
:102DB000A06AFDF771FC0090606A0099FDF79AFA2D
:102DC00007460199FDF759FA31460290FDF7FCF9E3
:102DD0006062E1214901A06A884214D22020005D8E
:102DE000002810D1A06A88420DD24B20005D002837
:102DF00009D1606AFDF766FC6063216B606B8842F5
:102E000001D2206B60631A49A06A884217D147201B
:102E1000005D002813D10121472001551049606A47
:102E2000FDF72BFA0646FDF74DFC2063206B60632F
:102E30002046FEF76DFA606AFDF744FC6063216985
:102E40006069FDF7A1FC01D220696061A06A401CA5
:102E5000A062E06A401CE06200BF0EE78300002031
:102E6000CDCCCC3D211C0000CDCC4C3D803A09009E
:102E7000B80B0000F0B587B06848007860287DD0B6
:102E8000C0E0FF208005664908606649C888FDF7F4
:102E900003FC0446624908686349FDF7EEF90546FC
:102EA0002146FDF727FA5E494860FF208005C8608B
:102EB00088600A465168D068FDF71CFA06905A48A7
:102EC0000699FDF7DAF907465849C888FDF7E4FB8B
:102ED00039460590FDF70EFA064631465448FDF78F
:102EE00009FA05465249FDF7C0F90446FDF7EAFB29
:102EF0004B4908614B49C888FDF7CEFB0590FDF7AB
:102F000013FC06464B4A4C4BFDF7E6FA0446FDF728
:102F1000EDFB4349C8640A46D26C484BDB88D11AA2
:102F2000464AD288464B5A431046FDF7FFF83C49C3
:102F3000C8610A46D26C434BDB88D11A414AD28819
:102F40003F4B5A431046FDF7F1F835490862C8690E
:102F5000FDF7A2FB07463C49FDF7CCF90446FDF717
:102F6000E3FB0546FFF732FA384A394B01910090EE
:102F7000FDF7B2FA374A384B039100E040E0029087
:102F8000FDF7F6F905910490FDF7E2FB244908638B
:102F9000086AFDF781FB2C490090FDF7ABF9019021
:102FA000FDF7C2FB0646FFF711FA0446274A284BF5
:102FB000FDF792FA274A284B03910290FDF7D8F9C2
:102FC00005910490FDF7C4FB154948631548C08876
:102FD000C8621648C08848621248C0881349C98828
:102FE000884206DD0F48C0881049C988401A0C493C
:102FF000886200BF602009490870642007B0F0BDF6
:1030000000BF00BF15480068002800D039E700BFA6
:1030100000BF02490870401EF0E700002C000020AD
:10302000B00300207802002000F07F45B8000020A7
:1030300000409C46999999999999014098010020DE
:10304000102700000802002000007A441E3C0B29D3
:10305000DC8E36C092EA1AB1BFE35240280000204D
:103060000065CAAFF1943B5E87E24D287613BCD968
:103070006B0EA1C49AFF5035EC8926431D78D7B258
:10308000D6B31C792742ED8851349BFEA0C56A0F48
:10309000BDD877124C2986E33A5FF095CBAE016438
:1030A000C9AC0366385DF2974E2B84E1BFDA751028
:1030B000A2C7680D533699FC2540EF8AD4B11E7B18
:1030C0001F7AD5B0EE8B244198FD5237690CA3C608
:1030D0007411BEDB85E04F2AF396395C0267C8ADF8
:1030E000F7923D580663CCA97015BADF81E44B2EE8
:1030F0009CF956336D08A7C21B7ED1B4EA8F2045D8
:103100002144EB8ED0B51A7FA6C36C0957329DF8C7
:103110004A2F80E5BBDE7114CDA807623C59F693B7
:103120003E5BF491CFAA0560B9DC7316482D82E7A7
:1031300055309FFAA4C16E0BD2B7187D2346E98C97
:10314000E88D2247197CD3B66F0AA5C09EFB543187
:1031500083E6492C7217B8DD0461CEABF5903F5A77
:1031600004FA97999999D93FAF788E1DC571CC3FD4
:103170009FC678D0099AC33F935555555555E53F9D
:10318000599322942449D23FDE03CB966446C73F2D
:1031900044523EDF12F1C23F000000000000000078
:1031A000C031000800000020B8000000BE1900086F
:1031B00078320008B800002020070000CE1900086F
:1031C000006CDC02000000000000000001020304AB
:1031D00006070809000000000000000000000000D1
:1031E00000000000000000000100000000000000DE
:1031F00000000000000000000000000000000000CF
:103200000000000000000000000000000000A5A574
:103210000AB400B000000000A5A52BB400A1313015
:10322000303036343030323735305F4142434445F8
:103230004647484905060B1B000014141415050BDE
:1032400005010000F000000000000000F000000098
:10325000AA050000000000000000C64200000000B7
:103260000000000000010203040102030406070835
:0832700009000000000000004D
:04000005080000B53A
:00000001FF
