:020000040800F2
:10000000F0070020CD000008F3000008F50000080C
:10001000F7000008F9000008FB00000800000000DD
:10002000000000000000000000000000FD000008CB
:10003000FF0000080000000001010008771400081C
:100040000501000805010008000000000501000886
:100050000501000805010008050100080501000868
:100060000000000000000000000000000000000090
:100070000501000805010008050100080000000056
:1000800005010008000000000000000075150008D0
:100090000000000000000000000000000501000852
:1000A0000000000005010008000000007D170008A6
:1000B000050100080448854600F08CFC0048004714
:1000C00089280008C046C046F00700200E4880F38B
:1000D00008880E480168090E0D4A914205D10D4865
:1000E0000D4901600D480E4901600E4880470E48D9
:1000F0000047FEE7FEE7FEE7FEE7FEE7FEE7FEE776
:10010000FEE7FEE7FEE70000F00700200400000025
:100110001F00000018100240010000000000014014
:100120000000000029150008B500000830B50B4696
:10013000014600202022012409E00D46D5409D42C1
:1001400005D31D469540491B254695404019154647
:10015000521E002DF1DC30BD70B50024254600286C
:1001600001DA01244042002901DA01254942FFF762
:10017000DDFFAC4200D04042002C00D0494270BDAF
:1001800003460B439B0703D009E008C9121F08C0B0
:10019000042AFAD203E00B780370401C491C521E5B
:1001A000F9D27047D2B201E00270401C491EFBD266
:1001B00070470022F6E710B513460A460446194672
:1001C000FFF7F0FF204610BDF8B502464A40D40FB5
:1001D00042004B0052085B089A4202D2024608468F
:1001E00011464A0023D0C30D4A00DDB2120EAD1AEB
:1001F000202D35DA49020126490AF6058A19002C14
:1002000000D0524220214F1B1146B9402A411018FC
:10021000C20D9A4221D0002C17D0012D08DCDA053E
:10022000801AD20F8019D207DBB200F0FDFAF8BDB8
:10023000DA05801A012340001B06C01880185A42B4
:100240008018CA0F1043490007E04908C20711434C
:10025000DA05801A80194008801800F0DDFAF8BD30
:1002600061000122511A001BF7E70122D207514019
:10027000AAE70122D2075040A6E7024670B54A40DD
:10028000D30FDB0740002DD04A002AD0010E140EF8
:10029000000212020919400A520A8418E5010446B4
:1002A0005443000A120A2E045043A4194219200C88
:1002B000C543AA18120C0125AD03521C5219120491
:1002C0007F39240400D0521C104301D44000491E41
:1002D000C2B20C06C0092018401C4008802A02D077
:1002E00003E0002070BD40084000002900DA002033
:1002F000184370BD70B502464A40D50F40004A0011
:10030000ED0740085208002814D0002A12D0C40D6E
:10031000D30D41020120C0055202490A520AE41AD3
:10032000091812187D34914201D3641C00E0490081
:10033000002C01DA002070BD0023914201D3891AFC
:100340000343400849000028F7D100290AD0914210
:1003500002D10121C90705E0914201D2012101E04A
:100360000121C943E005C018401900F055FA70BDDD
:10037000F0B507460846584087B0C00F04904800C3
:100380000E46590040084908BC1A884105D2384633
:1003900031461E4617460B46024658004008104399
:1003A0004DD0300D039040055900400D490D05908A
:1003B000401A0290402873DA18030121000B090546
:1003C0000843019004980092002806D01146019A33
:1003D00049420020904100910190029840210A1A60
:1003E0000199009800F0E4F905460C466B4607CBEE
:1003F00000F0FFF9C0197141039A0E0D0023D717C1
:1004000056401A467A40164344D0049A002A2DD00A
:10041000029A012A039A15DC1205C01A914101269D
:100420003605001C7141D20F059ED2070093019240
:1004300002962A46234600F03DFA07B0F0BD384642
:100440003146FAE71605234A0F46B218C01AB741DB
:1004500001210905001C4F4100187F411146181861
:100460007941E20F10436D19644113E0E2076D0812
:1004700015436408C2071443039A01261205C01AE3
:1004800091413605001C7141CE07400830434908B0
:10049000C01851412A46234600F0FFF9CDE7FFE797
:1004A000049801224000C117121A00238B410498BE
:1004B0003146C417381AA141EEE730B40124E407ED
:1004C000634030BC54E730B40124E407614030BCE1
:1004D0004EE700000000E0FFF0B51FB488B00B99B4
:1004E0000998002448400999C00F4900490809911A
:1004F000C0070B990090490049080B910999089889
:10050000A64608431CD00B990A98084318D00998AE
:1005100001244000420D4800410D099824050003C4
:10052000000B204309900B980003000B20430B9015
:1005300050181C494018002201901446104605E04E
:10054000002001460DB0F0BD032801DA034600E0AB
:1005500003239C46C11A0AAE0AE05F0008ADED5BBA
:100560004F00F75B7D430027AA187C41491C5B1EA6
:100570006145F2DD410004AB5A522104120C0A43DA
:10058000240C401C0828DFDB01980290009970467B
:1005900001910090059B049A0799069800F08AF94A
:1005A000D0E700000DFCFFFFF0B50C465C4085B0C5
:1005B000E40FE40703944C000026640859009446B5
:1005C000490802460296224321D062460A431ED0C1
:1005D0006200570D4A000E032303550D0124024605
:1005E0002C492405781B1B0B360B4018234326434C
:1005F000614600901C46501AB44103D30098401C39
:10060000009002E0921800985B41002803DA002075
:10061000014605B0F0BD00200121090507468646C8
:1006200011E064461D46141BB54106D36546521BB6
:10063000B341744607430C43A646CD07400849081A
:10064000284392185B4105460D43EAD110461843F2
:1006500013D06046194650407140084306D06046AA
:10066000101AB34106D20122002306E00022012322
:10067000DB0702E00122D2435310009874460105C3
:10068000381C6141029C039D0019694100F005F985
:10069000BFE70000FD03000010B5002296231146BD
:1006A00000F0C2F810BD00000EB50549029100210E
:1006B00000910A460B46019100F0FCF803B000BD22
:1006C00033040000410040020122400AD205090E15
:1006D00080187F2901DA00207047962903DC9622D2
:1006E000511AC84070479639884070474A0009033C
:1006F0000123090B1B051943094B10B5520D9A42F2
:1007000001DA002010BD064B34339A4203DC9A1AFA
:1007100000F05EF810BD03495118884010BD00007C
:10072000FF030000CDFBFFFFC20FD20740004008CF
:100730000BD0C10D0723DB01C91840020905400A8F
:100740001143C2084007114370470020014670471B
:10075000CB0FDB07490010B5490802460A4307D012
:100760000A0D07240903E401090B121B002A01DC0E
:10077000002010BDC900440F0C43C100E018D20591
:10078000801800F049F810BD0122D207002800DBD4
:10079000101A002900DB511A814270470122D2074A
:1007A000002800DB101A002900DB511A884270472C
:1007B00010B5202A04DB0146203A9140002010BDEC
:1007C000914020239C1A0346E3401943904010BDFA
:1007D00010B5202A04DB0846203AD040002110BD85
:1007E0000B46D340D0402024A21A9140084319461A
:1007F00010BD10B5202A06DBCB170846203A104161
:10080000C1170B4306E00B461341D0402024A21A27
:1008100091400843194610BD002904DA401C4900E4
:1008200001D140084000704770B40024050C05D188
:100830001024000402D1002921D01124050E01D179
:1008400000020834050F01D10001241D850F01D1DC
:100850008000A41C002801DB4000641C002908D093
:1008600020252E1B0D46F540A14000D00121294333
:10087000084301061B1B000ADB1D02D5002070BCCB
:100880007047DB05181880180029F8DA401C490069
:10089000F5D170BC40084000704710B5002B08DA55
:1008A0000024401C614192185B411A4301D1400869
:1008B000400010BDF0B51FB482B005460C0003D057
:1008C000084601F05BF802E001F058F820300246DB
:1008D000009021462846FFF76BFF049B059A0446CB
:1008E0000F4618431143084314D0184610431BD039
:1008F000009840210A1A18460599FFF769FF054636
:100900000E46009A05990498FFF752FF084305D058
:10091000012004E02046394607B0F0BD0020C11791
:1009200005430E432C43374300990E986305401A44
:100930007905E40A00220C43FD0A0A3002D50020A2
:100940000146E9E70105101969410C9C0D9D00194C
:100950006941FFF7A2FFDFE770B54B005B08034377
:100960000BD04B005C0D002633466542B341D417D3
:10097000AD1AA34102DB0020014670BD12053018FC
:10098000514170BD0EB5C217C10F5040CA07401883
:100990000021054B0293019200910A460B46FFF796
:1009A00089FF03B000BD00003304000010B500292A
:1009B00004DB0124E40740428C412146002B04DB88
:1009C0001C460123DB075242A3418B4200D18242E5
:1009D00010BD0000064C0125064E05E0E36807CC7B
:1009E0002B430C3C98471034B442F7D3FFF766FB17
:1009F000E83300080834000830B50907090F082952
:100A00000CDAC36D8D000F24AC40A343C365C36DE6
:100A10008D001446AC402343C3650FE0036E0C46C3
:100A2000083CA5000F24AC40A3430366036E0C46AC
:100A3000083CA5001446AC402343036630BD0029A2
:100A400004D0826E01231A43826603E0826E52084C
:100A50005200826670470F2900DD0F214166704702
:100A6000012904D1426901231A43426103E042692A
:100A700002231A4342617047002904D042680123CF
:100A80001A43426003E042685208520042607047D5
:100A90000246012902D1506908407047506902237B
:100AA00018404008F9E7000042680B4B1A404260CA
:100AB0000B684A681A4343681A4342608268074BCE
:100AC0001A4082600B694A691A438B681A4383682B
:100AD0001A438260704700000FBCFFFF8FF1F9FFDF
:100AE000002905D08268FF2301331A43826004E0A5
:100AF0008268FF2301339A438260704700210160BE
:100B000041608160017301614161704742680F2358
:100B10009B029A43426042680A4342607047000069
:100B200000B587B001210320400400F03FFB06A878
:100B300000F06BFA3149684601830121817600217A
:100B4000C17606A90920C00600F0FAF9032168461B
:100B5000018306A92A4800F0F3F90121480200F0B8
:100B600035FB01A8FFF7CAFF00200190702002901A
:100B700001204002039000200690059001A9214821
:100B8000FFF792FF072189021E48FFF7BFFF0121EF
:100B90001C48FFF771FF00211A48FFF750FF05219D
:100BA0001848FFF758FF002211461648FFF724FFA8
:100BB000012211461348FFF71FFF062202211148A8
:100BC000FFF71AFF072203210E48FFF715FF052242
:100BD00004210C48FFF710FF082205210948FFF700
:100BE0000BFF01210748FFF72AFF0648406808214C
:100BF00008430449486007B000BD0000848000003D
:100C0000000400480024014010B564201249086027
:100C10007D21C90011480068FFF788FA0446601E6C
:100C20000F49884201D901200CE0601E0D4948613E
:100C30000321081F00F0BAFE00200A49886107203E
:100C400008610020002801D000BFFEE70021481EF7
:100C500000F0ACFE10BD00002000002000000020CD
:100C6000FFFFFF0000E000E001B5044900980860C4
:100C700000BF024800680028FBD108BD1C0000200E
:100C800070B506460C4621460A4800F0EAF80546CB
:100C9000002D01D1401E70BD0648854202D1064894
:100CA000051B00E02D1B224629463046FFF768FA57
:100CB0002046F0E7003C00080044000870B50546F7
:100CC0000C4622460249284600F08CF8204670BDAA
:100CD000003C000810B5044608480069022108439A
:100CE00006490861084644610069402108430349F8
:100CF0000861034800F0F4F810BD00000020024035
:100D0000FF0F00000C48C068C007C00F002801D0CA
:100D1000012070470848C06804210840002801D01D
:100D20000220F6E70448C06810210840002801D0DE
:100D30000320EEE70420ECE70020024003480069AE
:100D400080210843014908617047000000200240EB
:100D500030B504460D4605480069012108430349A2
:100D6000086125800F2000F0BBF830BD0020024054
:100D700010B5044600F0A8F82046FFF7ABFFFFF7D8
:100D8000DDFF10BD70B503460125002208E05000CC
:100D90001C5A0748844201D0002506E0501C82B24C
:100DA000CE0F761876109642F1DC00BF284670BD53
:100DB000FFFF0000F8B505460E46144600F084F823
:100DC000002707E029883046FFF7C2FFB61CAD1C9C
:100DD000781C87B2E10F09194910B942F2DCFFF71C
:100DE000ADFFF8BDF8B507460C4615462946204626
:100DF00000F037F80646002E0DD12046FFF7B8FF69
:100E0000012080022018FFF7B3FF2A46214638460A
:100E1000FFF7D0FF24E0012080022018401BB042E1
:100E20000AD1012080022018FFF7A2FF2A4631468E
:100E30003846FFF7BFFF13E00120C0022018401B17
:100E4000B04208D12046FFF793FF2A463146384684
:100E5000FFF7B0FF04E02A4631463846FFF7AAFF05
:100E6000F8BDF8B505460E462F46E807C00F002826
:100E700001D000BFFEE731460120C002FFF76CF948
:100E8000002901D000BFFEE700240BE0204670439C
:100E9000471931463846FFF775FF012800D108E0B1
:100EA000601C84B231460120C002FFF755F9A04210
:100EB000ECDC00BF31460120C002FFF74DF9A04233
:100EC00000D100273846F8BD02480349486003486E
:100ED000486070472301674500200240AB89EFCD91
:100EE00010B5024600BFFFF70DFF0346521EFF2458
:100EF00000E0641E002CFCD1012B01D1002AF2D1AC
:100F00000020054908613420C860002A01D105206D
:100F100010BD1846FCE70000002002401CB5002070
:100F200000900190FF216846017041708170C1708E
:100F3000017141718171C1710821FFF7BFFE1CBDB4
:100F4000F8B50246CD782F073F0FCD7810263540F3
:100F5000002D01D08D782F431446002011E0850626
:100F60002B0E0D88012686403540002D07D02568C0
:100F70000F269E40B5433E469E4035432560451CA6
:100F8000E8B20828EBDB141D0D882D120095002017
:100F900011E085062B0E01258540009E3540002D71
:100FA00007D025680F269E40B5433E469E403543F8
:100FB0002560451CE8B20828EBDBCD78282D04D14C
:100FC00055690E883543556106E0CD78482D03D12B
:100FD00015690E8835431561F8BD70B54D07EB0EE8
:100FE000082902DA0546203501E0054624352C465D
:100FF0000F269E402568B54316469E403543256022
:1010000070BD41617047016170470021C943018093
:10101000022181700421C1707047000010B50121C8
:101020001148FFF75DFD00BF01210F48FFF730FDBC
:101030000028F9D001210C48FFF712FD0A48806909
:101040000A4908800848C069094908800648406B79
:10105000084908800448006B074908800248C06AB4
:101060000649088010BD000000240140BC02002099
:101070002C0300209C0300200C0400207C04002092
:101080001CB5044600200090019008216846FFF737
:10109000F7FD6846007855280FD101214F200155F2
:1010A000684640780102684680780818A063A06B03
:1010B000E063A06BFFF7F0FAE0621CBD0148024953
:1010C00008607047CCCC0000003000400146044866
:1010D000C0680840002801D0012070470020FCE7CC
:1010E000003000400148024908607047AAAA000089
:1010F0000030004000B502460248426000F04EF861
:1011000000BD00000030004000B502460248826089
:1011100000F0D0F800BD0000003000400149086038
:10112000704700000030004008B50121480400F07D
:101130003DF86846FFF769FF01216846018081702C
:101140001021C17069460920C006FFF7F9FE012190
:101150000920C006FFF755FF01200149087008BDAE
:101160001700002008B50121480400F01FF8684668
:10117000FFF74BFF0121C902684601800121817000
:101180001021C17069460920C006FFF7D9FE012170
:10119000C9020920C006FFF736FF08BD00B500BF31
:1011A0000120FFF793FF0128FAD000BD002905D0E8
:1011B000054A52690243044B5A6104E0024A5269EB
:1011C0008243014B5A61704700100240002905D04C
:1011D000054AD2690243044BDA6104E0024AD2694B
:1011E0008243014BDA61704700100240014648110A
:1011F000012802D10A48006806E04811022801D1FE
:10120000002001E00648406ACB06DB0E01229A402E
:101210001040002801D0012070470020FCE70000AA
:101220000010024000B500F01FF804494968F022A0
:1012300011400909024A515CC84000BD001002403B
:101240009E00002000B5FFF7EDFF05494968072221
:1012500012021140090A034A515CC84000BD000057
:10126000001002409E000020094949680C221140EC
:10127000042905D0082905D00C2905D1054805E029
:10128000054803E0054801E0034800BF00BF704780
:1012900000100240409C000000127A00006CDC024A
:1012A0000349496A490849000143014A51627047AC
:1012B0000010024000B500BF0220FFF707FF012821
:1012C000FAD000BD00BF05498968C907C90F0029C8
:1012D000F9D0C1B2014A11607047000000380140E6
:1012E000FEB504461749206C884201D105202064D0
:1012F000206CFFF7D1F90746A068FFF7CDF9394612
:101300000190FEF7F7FF0546216C481EFFF7C4F970
:101310000190206CFFF7C0F90090A06C0099FEF7D7
:10132000E9FF07460199FEF7A8FF06462946FEF7A2
:101330004BFFA064A06CFFF7C5F96064206C401CF3
:101340002064FEBD5902000010B500F001F810BD88
:1013500000202349096801221143214A116000BF7E
:101360001F490968022211400029F9D01C49096867
:10137000D20491431A4A116011460968042291432C
:10138000174A11601121174A1160154949688908E7
:101390008900134A516014490968702211400029DC
:1013A00019D112490968124A914204D00F490968BB
:1013B000104A91420FD10A49496802221143084A52
:1013C000516005E0064949688905080E8007800FCD
:1013D0000228F7D102E00849084A1160704700006E
:1013E000001002400020024000ED00E00034014007
:1013F000D15043CCD150438C00127A000000002021
:101400007CB5044600200090019055254F20005DDA
:1014100001280AD168460570208F0004010E684635
:101420004170208FC1B2684681705020005D012854
:101430000AD16846C570A08F0004010E684601718C
:10144000A08FC1B26846417108216846FFF736FC9B
:101450007CBD10B504468C212046FEF7AAFE012073
:101460002063206463214C20015501214D2001554A
:1014700000F008FF10BD10B500F074F910BD0000B9
:1014800010B5FFF7C1FB6420FFF7EEFB00F02AF96F
:10149000FFF768FE02202049087081020920C0067B
:1014A000FFF7AFFD7D20C000FFF7DEFB0121C90281
:1014B0000920C006FFF7A7FD7D20C000FFF7D4FB81
:1014C0000121C9020920C006FFF79BFD7D20C00055
:1014D000FFF7CAFB0121C9020920C006FFF793FDEF
:1014E000FFF71EFBFFF720FE00200C490870E120EB
:1014F000000200F0C5F90A480021016041608160E6
:1015000060210848FEF755FE01F0EEFA6421042040
:1015100000F010FA10BD0000140000201700002099
:10152000E00100208001002010B50F480068012173
:1015300008430D490860084640680C4908400A49BC
:101540004860084600680A4908400749086008469C
:101550000068012189048843034908609F20000432
:101560008860FFF7F1FE10BD001002400000FFF0A0
:10157000FFFFF6FE10B50121234800F069F80028AE
:1015800041D000BF0C2015E0411E89001F4A515870
:1015900000290DD0411E89005158491C002907D04F
:1015A000411E89005158491E421E9200174B995006
:1015B000411EC8B20028E7DC00BF00BF1348006826
:1015C00000280AD101F0ACFB044601E00F4804609A
:1015D0000E480068A042F9D100BF00BF00BF0B4811
:1015E000406A00280AD101F0C3FA044601E0074826
:1015F00044620648406AA042F9D100BF00BF012101
:10160000014800F015F810BD00400140EC01002039
:10161000002904D0026880231A43026003E00268B4
:1016200080239A430260704702698A4302617047CF
:1016300002698A4302617047002904D002680123CD
:101640001A43026003E002685208520002607047C9
:10165000024610690840002805D0D06808400028DC
:1016600001D0012070470020FCE7002A03D0C368A6
:101670000B43C36002E0C3688B43C3607047000044
:10168000026803231B029A430B891A4302600E4A25
:10169000904202D00D4A904205D1026870239A43CD
:1016A0008B781A430260084A904205D1026B120AF5
:1016B00012028B7A1A4302634A68C2620A88826203
:1016C0000122426170470000002C014000040040EC
:1016D0000021C94341600021018001818170817234
:1016E000704700001FB501210820FFF76FFD01A81A
:1016F000FFF7EEFF17480290174918480068FEF7F9
:1017000015FD401E81B26846818000218181817370
:10171000817101A91248FFF7B3FF01211048FFF7BB
:1017200077FF01210E48FFF77FFF012211460C4889
:10173000FFF79BFF132168460170002141700321D0
:1017400081700121C17000F0E3FB01210448FFF723
:1017500073FF1FBDE703000040420F0000000020A0
:101760000040014004480068002804D00248006896
:10177000401E0149086070471C00002010B502217E
:101780000C4800F025F8002812D00A4800F066F84E
:1017900009490A4A12788854002009490870074804
:1017A0000078632804DA05480078401C0349087073
:1017B00010BD000000380140180100202400002066
:1017C000250000208269520852000A438261704756
:1017D0000246D0680840002801D001207047002050
:1017E000FCE7002A03D003690B43036102E00369AD
:1017F0008B430361704770B504460D460026E069CF
:101800003021884329790843E061E0694421884315
:10181000A9790843E061E06980088000297A0843DB
:10182000E061A0691821884369890843A061A06923
:1018300004218843297B0843A061FFF703FD064686
:1018400030462968FEF772FC00092062304629689C
:10185000FEF76CFC0007000F606270BD014648682F
:10186000C0B270474B21C9010160302101710021D4
:1018700081710172182141810021017370470000BC
:1018800010B586B0044601210804FFF79FFC012132
:101890004804FFF78BFC012203210920C006FFF753
:1018A0009CFB01220C210920C006FFF796FB01A832
:1018B000FFF7D8FF01943021684601810021418162
:1018C000818101821821C18101A91948FFF793FF85
:1018D00001211748FFF776FF05A8FFF796FB0121C6
:1018E000090368468182012181751821C17505A906
:1018F0000920C006FFF724FB0821684681820421E5
:10190000C17505A90920C006FFF71AFB1B2168460F
:10191000017001214170002181700121C17000F02E
:10192000F7FA012202210248FFF75BFF06B010BD63
:101930000038014070B504460D460120FFF7B0FCA9
:1019400000BF6120FFF752FC0028FAD0FFF726FC09
:101950000948FFF7E3FBE0B2FFF7CCFBFFF7AAFC77
:101960000548FFF7DBFB2805000DFFF7CDFBFFF770
:10197000B9FBFFF7A3FB70BD555500002021020CF9
:1019800001D010211046020A01D010460839020980
:1019900001D01046091F820801D01046891E420856
:1019A00001D0881E7047081A7047000010B5002843
:1019B00019DB1A4A03231B02D21883089B00D25852
:1019C0008307DC0EFF23A3409A438B071B0E84077B
:1019D000E40EA3401A43114B032424021B1984086C
:1019E000A4001A5118E00E4A03071B0F083B9B087E
:1019F0009B00D2588307DC0EFF23A3409A438B073A
:101A00001B0E8407E40EA3401A43054B0407240F62
:101A1000083CA408A4001A5110BD000000E100E039
:101A20001CED00E0F8B504464F1EC8000838211828
:101A300015461E46086849683A4606239A4310D060
:101A40002A463346FEF748FD3A46D200083AA31824
:101A50001A687F1E5B68FEF78BFC06223B469343A9
:101A6000EED1022F23D0042F11D0062F2FD12A46DA
:101A70003346FEF731FDE36AA26AFEF779FC2A4697
:101A80003346FEF729FD636A226AFEF771FC2A4697
:101A90003346FEF721FDE369A269FEF769FC2A4699
:101AA0003346FEF719FD63692269FEF761FC2A4699
:101AB0003346FEF711FDE368A268FEF759FC2A469B
:101AC0003346FEF709FD63682268FEF751FCF8BD56
:101AD000002210B5134610460149FEF765FD10BD02
:101AE0000000F03F10B50122FEF736FF10BD0022C6
:101AF00010B5134610461146FEF756FD10BD02E024
:101B000008C8121F08C1002AFAD170477047002088
:101B100001E001C1121F002AFBD170470149086092
:101B200070470000B000002010B5B8480078BC280D
:101B30007ED060E1FFF772FAB5480188B5480078B9
:101B40004200B34808308152B3480188B148007858
:101B50004200B14808308152B0480188AD48007851
:101B60004200AE4808308152AD480188A94800784B
:101B70004200AB4808308152AA480188A548007845
:101B80004200A848083081523221A2480078401C07
:101B9000FEF7E2FAC8B29F49087000209C49C86667
:101BA0009D49C8669D49C8669D49C8669D49C866E5
:101BB00097480089964988804880974800899649C7
:101BC0008880488095480089944988804880944856
:101BD000008993498880488092480089914988808B
:101BE00048800020BCE08A494300CA6E0831C95AC7
:101BF0005118874AD16688494300CA6E0831C95ACC
:101C00005118854AD16685494300CA6E0831C95AC0
:101C10005118824AD16682494300CA6E0831C95AB6
:101C200051187F4AD1667F494300CA6E083100E0EF
:101C3000E0E0C95A51187B4AD16642007449083124
:101C4000895A734A5288914206DD42007049083130
:101C5000895A6F4A51800DE042006D490831895A16
:101C60006B4A9288914205DA420069490831895AE3
:101C7000674A9180420068490831895A664A528809
:101C8000914206DD420064490831895A624A518016
:101C90000DE0420060490831895A5F4A92889142BA
:101CA00005DA42005C490831895A5B4A918042005A
:101CB0005A490831895A594A5288914206DD4200F0
:101CC00056490831895A554A51800DE0420053491E
:101CD0000831895A514A9288914205DA42004F49A7
:101CE0000831895A4D4A918042004D490831895A3C
:101CF0004B4A5288914206DD420049490831895ACF
:101D0000474A51800DE0420045490831895A444A0A
:101D10009288914205DA420041490831895A404A85
:101D2000918042003F490831895A3E4A5288914287
:101D300006DD42003B490831895A3A4A51800DE09C
:101D4000420038490831895A364A9288914205DA68
:101D5000420034490831895A324A9180411CC8B244
:101D6000322800DA3FE72A49C96E294A5288891A7F
:101D7000274A9288881A3021FEF7D8F92449C8806A
:101D80002549C96E244A5288891A234A9288881A9A
:101D90003021FEF7CBF92049C8802049C96E1F4A7F
:101DA0005288891A1D4A9288881A3021FEF7BEF996
:101DB0001A49C8801A49C96E194A5288891A184A9C
:101DC0009288881A3021FEF7B1F91549C880154963
:101DD000C96E144A5288891A124A9288881A302188
:101DE000FEF7A4F90F49C88000BFBC20074908705E
:101DF0000A2010BD00BF0C480068002800D099E6FA
:101E000000BF00BF01490870401EF2E79D0000209E
:101E1000BC0200209C0000202C0300209C0300201A
:101E20000C0400207C0400202800002010B52A4863
:101E30000078172844D044E000F0A6FF2749886DB9
:101E4000C96D03220023101A8B4122D22448006856
:101E500023494968884204D20F2121484030417308
:101E600011E01F4948691F49FEF78EFC02D21C4849
:101E700000F0A0FF1A48FFF733FA194800F08EF877
:101E8000174800F0F1FE164800F0CAFD144800F0B3
:101E900079FD15480078FA280BD011484030C07BF6
:101EA000002803D103201149087002E000200F49E7
:101EB000087000BF1720084908707D20C00010BDC1
:101EC00000BF0B4800680028B6D100BF00BF024920
:101ED0000870401EF3E700009A00002080010020F7
:101EE0001C02002000004C4284000020140000204E
:101EF0002800002010B502460B461078012103E0AF
:101F0000545C60404C1CE1B29942F9DB10BD00000A
:101F1000C178002925D017490322120289180278B6
:101F200092109200895802789207D30EFF229A40AD
:101F3000914382789207120E03789B07DB0E9A403A
:101F400011430C4A03231B02D21803789B109B00F9
:101F5000D1500178CA06D20E01219140054A116084
:101F600007E00178CA06D20E01219140014A803271
:101F70001160704700E100E030B502460B46FF20DB
:101F8000002105E0545C4440034D285D4C1CA1B287
:101F90009942F7DB30BD0000A4320008F0B58BB0E9
:101FA0000446002007900690E06BFEF775FB0A9050
:101FB00000200A99FEF7E8FB01D10BB0F0BD606884
:101FC000FEF772FB03910290A068FEF76DFB019192
:101FD0000090039B029AFEF7E7FA05910490FEF742
:101FE000B7FB0790E26B2168881AFEF75DFB03914F
:101FF0000290E06BFEF758FB01910090039B029A60
:10200000FEF7D2FA05910490FEF7A2FB06906068F5
:10201000FEF74AFB03910290606CFEF745FB0191CD
:102020000090039B029AFEF7BFFA05910490FEF719
:102030008FFB0990E26B2168881AFEF735FB03914C
:102040000290E06BFEF730FB01910090039B029A37
:10205000FEF7AAFA05910490FEF77AFB089006991C
:102060000798FEF747F978490590FEF706F9054607
:1020700008990998FEF73EF973490590FEF7FDF8B7
:10208000074672493846FEF789FB00D26F4F704908
:102090002846FEF799F839460590FEF775FB17D2EA
:1020A0004E20005D002813D16A480078401C694921
:1020B00008700846007802280FDD6748007800287D
:1020C0000BD101214E20015501206349087004E025
:1020D000002060490870604908704E20005D0128AA
:1020E00030D15E4801880088401C5C4A1080782905
:1020F00012DD0021522001552E46204600F0FAFD47
:1021000000214E20015500205249087052490870A4
:102110004E485349086019E0294651480068FEF7C7
:1021200033FB02D24E48066802E04D48056006685F
:102130004C493046FEF732FB00D24A4E0221522073
:10214000015503E03E4600204449088029463846B0
:10215000FEF71AFB04D24E20005D002800D12E4667
:102160003A493046FEF71AFB01D2384E21E03E498B
:102170003046FEF713FB00D21BE03C493046FEF729
:102180000DFB14D23046FEF7CFFA394A394B019194
:102190000090FEF7A1F9384A384B03910290FEF700
:1021A0008CF905910490FEF7D3FA064601E07F26EC
:1021B000F6053046FEF786FAC1B24C200155005DA7
:1021C0006421081AC1B24D200155005D46280DDD7D
:1021D0004D21085DFEF760FA29490490FEF74DF89D
:1021E0000590FEF76FFAC1B24D20015588200059C5
:1021F000401C88210851FF212D3188420FD24D21EA
:10220000085DFEF749FAFF2189050490FEF735F8CD
:102210000590FEF757FAC1B24D20015503E0FF21AA
:102220002D31882001514D20005D632802DD63219E
:102230004D2001554D20005D012802DA01214D207D
:10224000015500BFB9E600000000C8420000C642C8
:102250000000A04098000020990000208E0000207F
:10226000940000200000B4420000AA4200005C423A
:1022700019E25817B751064052B81E85EBF9624073
:102280006666A63FA5200C49087048701220887029
:10229000B420C87000200871A020487132208871D5
:1022A0000020C87108724872C87208738872487337
:1022B0008873C87308747047A802002010B51648C8
:1022C0000078232811D028281BD01BE01348007861
:1022D00000280BD101210920C006FEF794FE00BFA3
:1022E00023200D490870642010BD0BE00121092056
:1022F000C006FEF786FE00BF28200749087064204C
:10230000F2E700BF064800680028DFD100BF00BF29
:1023100001490870401EE7E7180000201700002060
:102320002800002010B53A48007835284BD006DC4C
:10233000292819D02E2827D0332804D135E03A286F
:102340004ED03C2859D059E03248007800280CD1B2
:102350000121C9020920C006FEF755FE00BF292051
:102360002B490870642010BD48E02A4800780128F5
:102370000BD1C1020920C006FEF743FE00BF2E208C
:10238000234908706420EEE738E0224800780228EC
:102390001AD181020920C006FEF733FE00BF3320A8
:1023A0001B490870FF20F530DDE700BF0121C9029D
:1023B0000920C006FEF727FE00BF3520144908702B
:1023C000FF20F530CFE719E00121C9020920C0063E
:1023D000FEF717FE00BF3A200D490870C820C2E77B
:1023E00000BF0121C9020920C006FEF70CFE00BF94
:1023F0003C2007490870C820B5E700BF06480068C0
:102400000028A1D100BF00BF01490870401EAAE703
:1024100015000020140000202800002070B504469C
:102420002078A52802D16078A52801D0012070BDB0
:102430000721A01CFFF7A0FD05466079344908700C
:10244000607AA84261D108460078A02804D0A1286B
:102450004CD0B02857D128E0A0792E490870E079F7
:102460002D490870207A2D4908702B480078FA28E9
:1024700003D102202A49087006E027480078F02896
:1024800002D1002026490870A0792649C873207A15
:1024900008740F212348801CFFF76EFD2149487402
:1024A0001221204800F062FC2EE0A0791E4908703D
:1024B000A5201E49087048700A208870B420C87092
:1024C00000200871B02048711748007888710020FA
:1024D000C871087207211548801CFFF74DFD13498C
:1024E00048720A21114800F041FC0DE028211048F3
:1024F000FFF742FD0E491E3188722B210C48801EC9
:1025000000F034FC00E000BF00BF00208FE70000B7
:102510004D00002085000020840000208C00002059
:1025200014000020A8020020830000204E0000209C
:102530005A000020F0B5C54A00248FB091420ADA53
:102540004B005B08934206D801254A006D05EA421C
:1025500005D1002803D0FFF7C5FA0FB0F0BD012563
:102560002D05A94219DA034308D0002910DA012009
:10257000FFF7D4FAFFF7BBFA0FB0F0BD0220FFF768
:10258000CDFAFFF7A5FA0122D20751400FB0F0BDF6
:102590003524E4433622FEF7DFF90A15AC4B121955
:1025A000D4180A03120BAB49AB4B56182E403146D8
:1025B000594011430192321512190B920022FDF776
:1025C0007CFF019A0446921C1003A44E000B0D469A
:1025D0007E44032860D2204673683268FEF7E6F92D
:1025E0001CD10B98002815D0FEF7CCF904460E46F6
:1025F0009B4A9C4BFDF770FF0D4607469A4A9B4B42
:1026000020463146FDF768FF3A462B46FDF7B0FEFF
:102610000FB0F0BD716830680FB0F0BD944A954BB3
:1026200020462946FDF758FF0022934BFDF74BFF4C
:1026300006460F4622462B4610461946FDF74CFF2C
:1026400032463B46FDF748FF06460B980F460028EA
:102650001DD0FEF797F9824A824B05910490FDF751
:102660003BFF32463B46FDF72EFF22462B46FDF749
:1026700024FF04460D467C4A7C4B05990498FDF7DF
:102680002BFF22462B46FDF718FF0FB0F0BD0B467F
:10269000324620462946C4E0012300229B072046FB
:1026A000FDF766FE02460B4620462946FDF77CFFF5
:1026B00006460F460B98FEF765F932463B460591F4
:1026C000049010461946FDF707FF09910C906B49DD
:1026D0000198099B421800920C9A19461046FDF782
:1026E000FBFE024607910A90654901980B1A65485E
:1026F000019303217844079BFFF794F9079B0A9AFB
:10270000FDF7EAFE0E905F480D9104217844079B87
:102710000A9AFFF787F9099B0C9AFDF7DDFE019BEA
:10272000009A1A4300920D9B0E9AFDF721FE009A23
:1027300001910C90002A4DDD0022D243204629460B
:10274000FEF70AF922462B46FDF7C6FE00910A90D5
:102750000B9800282BD0424A424B05990498FDF76C
:10276000BBFE07910E90019B0C9A00990A98FDF709
:10277000FFFD32463B46FDF7AFFE079B0E9AFDF785
:10278000F7FD009B0A9AFDF79EFE22462B46FDF7B9
:1027900094FE04460D46344A344B05990498FDF7DF
:1027A0009BFE22462B46FDF788FE0FB0F0BD019B35
:1027B0000C9A0A98FDF7DCFD32463B46FDF78CFE8D
:1027C000009B0A9AFDF77FFE22462B46FDF77BFE13
:1027D0000FB0F0BD0B98002827D0214A214B059956
:1027E0000498FDF779FE0791009020462946019B49
:1027F0000C9AFDF762FE32463B46FDF76DFE079BE5
:10280000009AFDF75AFE22462B46FDF756FE044677
:102810000D46154A154B05990498FDF75DFE2246B5
:102820002B46FDF74AFE0FB0F0BD0B462046294669
:102830000C9AFDF742FE32463B46FDF74DFE22461E
:102840002B46FDF740FE0FB0F0BD00000000F07F0A
:1028500001FCFFFF645F09000000F03F0C0E000068
:10286000763C7935EF39EA3D0000E0FE422EE63F46
:10287000555555555555D53F0000E03F86EBF9FFBE
:1028800051B80600B00C0000FEF7FAFD76E000BF7C
:102890003B48406800280AD1FFF710FD044601E0DC
:1028A0003748446036484068A042F9D100BF00BFB5
:1028B00000BF3348806800280AD1FFF735F9044685
:1028C00001E02F4884602E488068A042F9D100BF03
:1028D00000BF00BF2A48C06800280AD100F0A6FB4C
:1028E000044601E02648C4602548C068A042F9D1EA
:1028F00000BF00BF00BF2248006900280AD1FFF7CF
:1029000095FA044601E01E4804611D480069A04292
:10291000F9D100BF00BF00BF1948406900280AD1A3
:10292000FFF700FD044601E0154844611448406982
:10293000A042F9D100BF00BF00BF11488069002844
:102940000AD100F05FF9044601E00D4884610C48AB
:102950008069A042F9D100BF00BF00BF0848C0692C
:1029600000280AD100F080FC044601E00448C4615C
:102970000348C069A042F9D100BF00BF87E700004B
:10298000EC010020F0B585B00446FF2003907F20C5
:10299000C0050190A068FDF77FFE00900199FDF74A
:1029A000A9FC0746FDF78EFE0546E06BFDF774FEB9
:1029B00000900199FDF79EFC0746FDF783FE064651
:1029C00015480078002801D005B0F0BD4D21085D04
:1029D000FDF762FE02900298FDF774FE0F498871C0
:1029E0002804000E08724D723004000EC8720E7377
:1029F0005220005D8872208F0004000E4873208FE3
:102A000088730F210548801CFFF7B6FA039003492D
:102A10000398487400BFD7E730000020A8020020C8
:102A200070B50446FF21592001554D20065D5A20FE
:102A3000065520890004010E5B200155217A5C2097
:102A40000155A08F0004010E5D200155A08FC1B279
:102A50005E200155208F0004010E5F200155208F5C
:102A6000C1B26020015500216069FDF797FE01D2D7
:102A7000012100E000216120015500216069FDF77E
:102A80008DFE01D2606903E000206169FDF7EDFB76
:102A90000546FDF717FEC1B262200155E06AFDF759
:102AA00011FE85B2E817000E40190004010E6420E3
:102AB0000155E06AFDF706FE85B2E817000E4019E1
:102AC00000120002281AC1B265200155A069FDF765
:102AD000F9FDC1B2672001550F2120465930FFF79B
:102AE00009FA6821085570BD10B50348FEF7B1FC1E
:102AF0000148FEF7C5FA10BD1C02002019490978EB
:102B0000FA290DD1012257210A541749174A118079
:102B10005821095C002923D1012258210A541FE0C1
:102B200010490978F0291BD15821095C012917D1D6
:102B30000E490988491E0D4A11801146098802294B
:102B400004DA002257210A5458210A54C16B0A3171
:102B500082688A4204D2002257210A5458210A541A
:102B6000704700008C000020DC0500009000002071
:102B700010B51E4800789A282CD02CE01C4800780C
:102B8000042805DA1A480078401C194908701BE02F
:102B900017480078042817D1642216491648FDF713
:102BA000EFFA64211348FDF704FB00201349087075
:102BB0000F480078401C0E4908700F48FFF72EFCA4
:102BC00064210D48FDF7F5FA00BF9A200749087007
:102BD000012010BD00BF0A4800680028CED100BF08
:102BE00000BF02490870401EF3E700002E000020DD
:102BF0002500002018010020B4000020240000203F
:102C00002800002010B514480078282819D019E0B1
:102C10001248826DC06D03210023891A834109D2B5
:102C2000002405E00E49085DFEF74CFB601CC4B2B1
:102C3000102CF7DB00BF2820074908707D20C0005A
:102C400010BD00BF074800680028E1D100BF00BFE9
:102C500001490870401EF3E79B000020800100201E
:102C6000750200202800002070B504461C49486801
:102C70001C49FDF793FD0FD3194948681A49FDF720
:102C800083FD09D31949606AFDF788FD04D318490B
:102C9000606AFDF779FD22D24D20005D052802DB38
:102CA0006068022814D88321C9056069FDF78CFA91
:102CB0000646A169FDF7D9FA0546FDF703FDC1B245
:102CC0004D200155005D142802DD14214D200155D1
:102CD0004D20005D322802DD14214D20015570BDCC
:102CE000800100200000B040666686409A99B93F96
:102CF000A69B443C10B50446A068FDF7CDFCA0643B
:102D000001202064A068FDF7C7FC60670121532003
:102D100001550621542001550120E06610BD000038
:102D20000F480078862810D010E00E48826DC06DE4
:102D30000021521C48410B498A65C86500BF8620A6
:102D4000074908707D20C000704700BF0648006832
:102D50000028EAD100BF00BF01490870401EF3E718
:102D600016000020800100202800002070B50546D4
:102D70000E46002404E0285DFEF7A4FA601CC4B2ED
:102D8000B442F8DB70BD00000848C06A084908601A
:102D90000648406A48600548806A88600348806B3E
:102DA00048620248006B48617047000080010020C3
:102DB0001C020020FEB504462046FFF79FFE954802
:102DC0000078152812D10020924908700021502067
:102DD00001554F200155FEF7A1F82046FEF739FBBB
:102DE0000021502001554F20015538E089480078D6
:102DF00051281FD1002087490870E06B002802D0BD
:102E0000A06B002800D1FEBDE06AFDF75BFCE0632B
:102E1000A16BE06B884202D9E06BE06301E0A06B3C
:102E2000E0630121502001554F2001552046FEF757
:102E3000E7FA14E077480078552810D1002075494A
:102E400008707549E06AFDF718FA0646FDF73AFC86
:102E5000A06301214F2001552046FEF7D1FA6F49AA
:102E6000206B884255D10120206301212820015583
:102E70006069A061E06BFDF70FFC0646E16AFDF7B3
:102E800083FC17D2E06BFDF707FC0746E16AFDF70C
:102E9000F0F906466249FDF7F0F90546E06BFDF7EB
:102EA000FBFB07462946FDF78FF90646FDF70AFCAE
:102EB000E0631EE0E06BFDF7EFFB0646E16AFDF71D
:102EC0006DFC16D2E06BFDF7E7FB0746E16AFDF704
:102ED000CCF906465249FDF7D0F90546E06BFDF7FF
:102EE000DBFB07462946FDF7C0F90646FDF7EAFB7E
:102EF000E063A16BE06B884201D2A06BE0634949BB
:102F0000606B884205D30121502001552046FEF711
:102F100077FA5720005D002821D1206BFDF7BCFB1C
:102F20000746A068FDF7B8FB39460190FDF7E2F9C6
:102F30000646216B481EFDF7AFFB0190206BFDF7A5
:102F4000ABFB0090E06A0099FDF7D4F907460199C0
:102F5000FDF793F931460290FDF736F9E062E12181
:102F60004901206B884229D22820005D002825D104
:102F7000206B884222D25320005D00281ED184207D
:102F8000005D0F2810DAA168E06B884205D2A068C6
:102F9000E063E06BFDF780FBE0628420005D401C95
:102FA000C1B28420015509E0E06AFDF78BFBE063C4
:102FB000A16BE06B884201D2A06BE0631A49206BE1
:102FC000884217D14F20005D002813D101214F20E6
:102FD00001551149E06AFDF750F90646FDF772FB0D
:102FE000A063A06BE0632046FEF70AFAE06AFDF7F3
:102FF00069FBE0636169A069FDF7C6FB01D2606906
:10300000A061206B401C2063606B401C606300BFAC
:10301000F9E6000083000020CDCCCC3D211C00004F
:10302000CDCC4C3D803A0900B80B0000F0B587B01C
:103030007F20C00506907A4800786A287ED0E3E0B9
:10304000FF208005774908607748C088002810D0A5
:103050007549C888FDF720FB044672490868734922
:10306000FDF70BF905462146FDF744F96D49486027
:1030700002E000206B4948606A4948686C49FDF7E6
:1030800039F906906849C888FDF706FB0590FDF7F9
:103090004BFB0646674A684BFDF71EFA0446FDF7F0
:1030A00025FB604908656549C888FDF7F5FA0546BE
:1030B0000699FDF7E2F80446FDF704FB5F49C88076
:1030C0005949C888FDF7E8FA05460699FDF7D5F88D
:1030D0000446FDF7F7FA5449C8805848C188584853
:1030E000FDF73AF85649401A4E490861FF2080051D
:1030F000C86088600A46126D524BDB88D11A514A6B
:10310000D288514B5A431046FDF710F84549C86123
:103110000A46126D4D4BDB88D11A4C4AD2884A4B75
:103120005A431046FDF702F83E490862C869FDF7A8
:10313000B3FA07464649FDF7DDF800E063E00446D0
:10314000FDF7F2FA0546FFF7F5F9424A424B0191C5
:103150000090FDF7C1F9414A414B03910290FDF700
:1031600007F905910490FDF7F3FA2E490863086A00
:10317000FDF792FA36490090FDF7BCF80190FDF793
:10318000D3FA0646FFF7D6F90446324A324BFDF72A
:10319000A3F9324A324B03910290FDF7E9F8059109
:1031A0000490FDF7D5FA1F4948631F48C088C862DC
:1031B0002248C08848621C48C0882049C988884283
:1031C00006DD1948C0881D49C988401A154988621A
:1031D0001449886AFDF760FA06461248416830468D
:1031E000FDF74BF805461149FDF784F804460699AA
:1031F000FDF780F80B49886300BF6A200849087012
:10320000642007B0F0BD00BF16480068002800D059
:1032100016E700BF00BF02490870401EF1E700003A
:103220002C000020800100207C04002000F07F455D
:103230000000A0409999999999990140BC020020F9
:10324000204E00009C030020102700000C040020EA
:1032500000007A441E3C0B29DC8E36C092EA1AB17B
:10326000BFE352402800002010B50C4800787128B8
:1032700008D008E0FDF736FF00BF7120074908704D
:10328000282010BD00BF064800680028F2D100BF0A
:1032900000BF02490870401EF3E70000190000203B
:1032A000280000200065CAAFF1943B5E87E24D28FC
:1032B0007613BCD96B0EA1C49AFF5035EC89264316
:1032C0001D78D7B2D6B31C792742ED8851349BFEC6
:1032D000A0C56A0FBDD877124C2986E33A5FF095F6
:1032E000CBAE0164C9AC0366385DF2974E2B84E126
:1032F000BFDA7510A2C7680D533699FC2540EF8AD6
:10330000D4B11E7B1F7AD5B0EE8B244198FD523785
:10331000690CA3C67411BEDB85E04F2AF396395CB5
:103320000267C8ADF7923D580663CCA97015BADFA5
:1033300081E44B2E9CF956336D08A7C21B7ED1B495
:10334000EA8F20452144EB8ED0B51A7FA6C36C09C5
:1033500057329DF84A2F80E5BBDE7114CDA8076275
:103360003C59F6933E5BF491CFAA0560B9DC731625
:10337000482D82E755309FFAA4C16E0BD2B7187D55
:103380002346E98CE88D2247197CD3B66F0AA5C085
:103390009EFB543183E6492C7217B8DD0461CEAB35
:1033A000F5903F5A0000000004FA97999999D93F87
:1033B000AF788E1DC571CC3F9FC678D0099AC33FA8
:1033C000935555555555E53F599322942449D23F7D
:1033D000DE03CB966446C73F44523EDF12F1C23F44
:1033E0000000000000000000083400080000002079
:1033F000B4000000FE1A0008BC340008B40000202D
:103400003C0700000E1B0008006CDC0200000000FE
:103410000000000001020304060708090000000084
:10342000000000000000000000000000000000009C
:10343000010000000000000000000000000000008B
:10344000000000000000000000000000000000007C
:10345000000000000000A5A50AB400B000000000B4
:10346000A5A52BB400A1313030303634303032379E
:1034700035305F41424344454647484905060B1CE9
:103480000000141414160501050E0000F0000000E1
:1034900000000000F0000000DC0500000000C64253
:1034A000000000000000000000000102030401020F
:0C34B000030406070809000000000000EB
:04000005080000B53A
:00000001FF
