:020000040800F2
:10000000F8070020CD000008F3000008F500000804
:10001000F7000008F9000008FB00000800000000DD
:10002000000000000000000000000000FD000008CB
:10003000FF0000080000000001010008CD140008C6
:100040000501000805010008000000000501000886
:100050000501000805010008050100080501000868
:100060000000000000000000000000000000000090
:100070000501000805010008050100080000000056
:10008000050100080000000000000000C91500087C
:100090000000000000000000000000000501000852
:1000A000000000000501000800000000D117000852
:1000B000050100080448854600F08CFC0048004714
:1000C000DD280008C046C046F80700200E4880F32F
:1000D00008880E480168090E0D4A914205D10D4865
:1000E0000D4901600D480E4901600E4880470E48D9
:1000F0000047FEE7FEE7FEE7FEE7FEE7FEE7FEE776
:10010000FEE7FEE7FEE70000F8070020040000001D
:100110001F00000018100240010000000000014014
:10012000000000007D150008B500000830B50B4642
:10013000014600202022012409E00D46D5409D42C1
:1001400005D31D469540491B254695404019154647
:10015000521E002DF1DC30BD70B50024254600286C
:1001600001DA01244042002901DA01254942FFF762
:10017000DDFFAC4200D04042002C00D0494270BDAF
:1001800003460B439B0703D009E008C9121F08C0B0
:10019000042AFAD203E00B780370401C491C521E5B
:1001A000F9D27047D2B201E00270401C491EFBD266
:1001B00070470022F6E710B513460A460446194672
:1001C000FFF7F0FF204610BDF8B502464A40D40FB5
:1001D00042004B0052085B089A4202D2024608468F
:1001E00011464A0023D0C30D4A00DDB2120EAD1AEB
:1001F000202D35DA49020126490AF6058A19002C14
:1002000000D0524220214F1B1146B9402A411018FC
:10021000C20D9A4221D0002C17D0012D08DCDA053E
:10022000801AD20F8019D207DBB200F0FDFAF8BDB8
:10023000DA05801A012340001B06C01880185A42B4
:100240008018CA0F1043490007E04908C20711434C
:10025000DA05801A80194008801800F0DDFAF8BD30
:1002600061000122511A001BF7E70122D207514019
:10027000AAE70122D2075040A6E7024670B54A40DD
:10028000D30FDB0740002DD04A002AD0010E140EF8
:10029000000212020919400A520A8418E5010446B4
:1002A0005443000A120A2E045043A4194219200C88
:1002B000C543AA18120C0125AD03521C5219120491
:1002C0007F39240400D0521C104301D44000491E41
:1002D000C2B20C06C0092018401C4008802A02D077
:1002E00003E0002070BD40084000002900DA002033
:1002F000184370BD70B502464A40D50F40004A0011
:10030000ED0740085208002814D0002A12D0C40D6E
:10031000D30D41020120C0055202490A520AE41AD3
:10032000091812187D34914201D3641C00E0490081
:10033000002C01DA002070BD0023914201D3891AFC
:100340000343400849000028F7D100290AD0914210
:1003500002D10121C90705E0914201D2012101E04A
:100360000121C943E005C018401900F055FA70BDDD
:10037000F0B507460846584087B0C00F04904800C3
:100380000E46590040084908BC1A884105D2384633
:1003900031461E4617460B46024658004008104399
:1003A0004DD0300D039040055900400D490D05908A
:1003B000401A0290402873DA18030121000B090546
:1003C0000843019004980092002806D01146019A33
:1003D00049420020904100910190029840210A1A60
:1003E0000199009800F0E4F905460C466B4607CBEE
:1003F00000F0FFF9C0197141039A0E0D0023D717C1
:1004000056401A467A40164344D0049A002A2DD00A
:10041000029A012A039A15DC1205C01A914101269D
:100420003605001C7141D20F059ED2070093019240
:1004300002962A46234600F03DFA07B0F0BD384642
:100440003146FAE71605234A0F46B218C01AB741DB
:1004500001210905001C4F4100187F411146181861
:100460007941E20F10436D19644113E0E2076D0812
:1004700015436408C2071443039A01261205C01AE3
:1004800091413605001C7141CE07400830434908B0
:10049000C01851412A46234600F0FFF9CDE7FFE797
:1004A000049801224000C117121A00238B410498BE
:1004B0003146C417381AA141EEE730B40124E407ED
:1004C000634030BC54E730B40124E407614030BCE1
:1004D0004EE700000000E0FFF0B51FB488B00B99B4
:1004E0000998002448400999C00F4900490809911A
:1004F000C0070B990090490049080B910999089889
:10050000A64608431CD00B990A98084318D00998AE
:1005100001244000420D4800410D099824050003C4
:10052000000B204309900B980003000B20430B9015
:1005300050181C494018002201901446104605E04E
:10054000002001460DB0F0BD032801DA034600E0AB
:1005500003239C46C11A0AAE0AE05F0008ADED5BBA
:100560004F00F75B7D430027AA187C41491C5B1EA6
:100570006145F2DD410004AB5A522104120C0A43DA
:10058000240C401C0828DFDB01980290009970467B
:1005900001910090059B049A0799069800F08AF94A
:1005A000D0E700000DFCFFFFF0B50C465C4085B0C5
:1005B000E40FE40703944C000026640859009446B5
:1005C000490802460296224321D062460A431ED0C1
:1005D0006200570D4A000E032303550D0124024605
:1005E0002C492405781B1B0B360B4018234326434C
:1005F000614600901C46501AB44103D30098401C39
:10060000009002E0921800985B41002803DA002075
:10061000014605B0F0BD00200121090507468646C8
:1006200011E064461D46141BB54106D36546521BB6
:10063000B341744607430C43A646CD07400849081A
:10064000284392185B4105460D43EAD110461843F2
:1006500013D06046194650407140084306D06046AA
:10066000101AB34106D20122002306E00022012322
:10067000DB0702E00122D2435310009874460105C3
:10068000381C6141029C039D0019694100F005F985
:10069000BFE70000FD03000010B5002296231146BD
:1006A00000F0C2F810BD00000EB50549029100210E
:1006B00000910A460B46019100F0FCF803B000BD22
:1006C00033040000410040020122400AD205090E15
:1006D00080187F2901DA00207047962903DC9622D2
:1006E000511AC84070479639884070474A0009033C
:1006F0000123090B1B051943094B10B5520D9A42F2
:1007000001DA002010BD064B34339A4203DC9A1AFA
:1007100000F05EF810BD03495118884010BD00007C
:10072000FF030000CDFBFFFFC20FD20740004008CF
:100730000BD0C10D0723DB01C91840020905400A8F
:100740001143C2084007114370470020014670471B
:10075000CB0FDB07490010B5490802460A4307D012
:100760000A0D07240903E401090B121B002A01DC0E
:10077000002010BDC900440F0C43C100E018D20591
:10078000801800F049F810BD0122D207002800DBD4
:10079000101A002900DB511A814270470122D2074A
:1007A000002800DB101A002900DB511A884270472C
:1007B00010B5202A04DB0146203A9140002010BDEC
:1007C000914020239C1A0346E3401943904010BDFA
:1007D00010B5202A04DB0846203AD040002110BD85
:1007E0000B46D340D0402024A21A9140084319461A
:1007F00010BD10B5202A06DBCB170846203A104161
:10080000C1170B4306E00B461341D0402024A21A27
:1008100091400843194610BD002904DA401C4900E4
:1008200001D140084000704770B40024050C05D188
:100830001024000402D1002921D01124050E01D179
:1008400000020834050F01D10001241D850F01D1DC
:100850008000A41C002801DB4000641C002908D093
:1008600020252E1B0D46F540A14000D00121294333
:10087000084301061B1B000ADB1D02D5002070BCCB
:100880007047DB05181880180029F8DA401C490069
:10089000F5D170BC40084000704710B5002B08DA55
:1008A0000024401C614192185B411A4301D1400869
:1008B000400010BDF0B51FB482B005460C0003D057
:1008C000084601F085F802E001F082F82030024687
:1008D000009021462846FFF76BFF049B059A0446CB
:1008E0000F4618431143084314D0184610431BD039
:1008F000009840210A1A18460599FFF769FF054636
:100900000E46009A05990498FFF752FF084305D058
:10091000012004E02046394607B0F0BD0020C11791
:1009200005430E432C43374300990E986305401A44
:100930007905E40A00220C43FD0A0A3002D50020A2
:100940000146E9E70105101969410C9C0D9D00194C
:100950006941FFF7A2FFDFE770B54B005B08034377
:100960000BD04B005C0D002633466542B341D417D3
:10097000AD1AA34102DB0020014670BD12053018FC
:10098000514170BD0EB5C217C10F5040CA07401883
:100990000021054B0293019200910A460B46FFF796
:1009A00089FF03B000BD00003304000010B500292A
:1009B00004DB0124E40740428C412146002B04DB88
:1009C0001C460123DB075242A3418B4200D18242E5
:1009D00010BD0000064C0125064E05E0E36807CC7B
:1009E0002B430C3C98471034B442F7D3FFF766FB17
:1009F00090370008B037000830B50907090F0829FB
:100A00000CDAC36D8D000F24AC40A343C365C36DE6
:100A10008D001446AC402343C3650FE0036E0C46C3
:100A2000083CA5000F24AC40A3430366036E0C46AC
:100A3000083CA5001446AC402343036630BD0029A2
:100A400004D0826E01231A43826603E0826E52084C
:100A50005200826670470F2900DD0F214166704702
:100A6000012904D1426901231A43426103E042692A
:100A700002231A4342617047002904D042680123CF
:100A80001A43426003E042685208520042607047D5
:100A90000246012902D1506908407047506902237B
:100AA00018404008F9E7000042680B4B1A404260CA
:100AB0000B684A681A4343681A4342608268074BCE
:100AC0001A4082600B694A691A438B681A4383682B
:100AD0001A438260704700000FBCFFFF8FF1F9FFDF
:100AE000002905D08268FF2301331A43826004E0A5
:100AF0008268FF2301339A438260704700210160BE
:100B000041608160017301614161704742680F2358
:100B10009B029A43426042680A4342607047000069
:100B200000B587B001210320400400F059FB06A85E
:100B300000F06BFA3149684601830121817600217A
:100B4000C17606A90920C00600F0FAF9032168461B
:100B5000018306A92A4800F0F3F90121480200F0B8
:100B60004FFB01A8FFF7CAFF002001907020029000
:100B700001204002039000200690059001A9214821
:100B8000FFF792FF072189021E48FFF7BFFF0121EF
:100B90001C48FFF771FF00211A48FFF750FF05219D
:100BA0001848FFF758FF002211461648FFF724FFA8
:100BB000012211461348FFF71FFF062202211148A8
:100BC000FFF71AFF072203210E48FFF715FF052242
:100BD00004210C48FFF710FF082205210948FFF700
:100BE0000BFF01210748FFF72AFF0648406808214C
:100BF00008430449486007B000BD0000848000003D
:100C0000000400480024014010B564201249086027
:100C10007D21C90011480068FFF788FA0446601E6C
:100C20000F49884201D901200CE0601E0D4948613E
:100C30000321081F00F0E4FE00200A498861072014
:100C400008610020002801D000BFFEE70021481EF7
:100C500000F0D6FE10BD00002000002000000020A3
:100C6000FFFFFF0000E000E001B5044900980860C4
:100C700000BF024800680028FBD108BD1C0000200E
:100C800070B506460C4621460A4800F0EAF80546CB
:100C9000002D01D1401E70BD0648854202D1064894
:100CA000051B00E02D1B224629463046FFF768FA57
:100CB0002046F0E7003C00080044000870B50546F7
:100CC0000C4622460249284600F08CF8204670BDAA
:100CD000003C000810B5044608480069022108439A
:100CE00006490861084644610069402108430349F8
:100CF0000861034800F0F4F810BD00000020024035
:100D0000FF0F00000C48C068C007C00F002801D0CA
:100D1000012070470848C06804210840002801D01D
:100D20000220F6E70448C06810210840002801D0DE
:100D30000320EEE70420ECE70020024003480069AE
:100D400080210843014908617047000000200240EB
:100D500030B504460D4605480069012108430349A2
:100D6000086125800F2000F0BBF830BD0020024054
:100D700010B5044600F0A8F82046FFF7ABFFFFF7D8
:100D8000DDFF10BD70B503460125002208E05000CC
:100D90001C5A0748844201D0002506E0501C82B24C
:100DA000CE0F761876109642F1DC00BF284670BD53
:100DB000FFFF0000F8B505460E46144600F084F823
:100DC000002707E029883046FFF7C2FFB61CAD1C9C
:100DD000781C87B2E10F09194910B942F2DCFFF71C
:100DE000ADFFF8BDF8B507460C4615462946204626
:100DF00000F037F80646002E0DD12046FFF7B8FF69
:100E0000012080022018FFF7B3FF2A46214638460A
:100E1000FFF7D0FF24E0012080022018401BB042E1
:100E20000AD1012080022018FFF7A2FF2A4631468E
:100E30003846FFF7BFFF13E00120C0022018401B17
:100E4000B04208D12046FFF793FF2A463146384684
:100E5000FFF7B0FF04E02A4631463846FFF7AAFF05
:100E6000F8BDF8B505460E462F46E807C00F002826
:100E700001D000BFFEE731460120C002FFF76CF948
:100E8000002901D000BFFEE700240BE0204670439C
:100E9000471931463846FFF775FF012800D108E0B1
:100EA000601C84B231460120C002FFF755F9A04210
:100EB000ECDC00BF31460120C002FFF74DF9A04233
:100EC00000D100273846F8BD02480349486003486E
:100ED000486070472301674500200240AB89EFCD91
:100EE00010B5024600BFFFF70DFF0346521EFF2458
:100EF00000E0641E002CFCD1012B01D1002AF2D1AC
:100F00000020054908613420C860002A01D105206D
:100F100010BD1846FCE70000002002401CB5002070
:100F200000900190FF216846017041708170C1708E
:100F3000017141718171C1710821FFF7BFFE1CBDB4
:100F4000F8B50246CD782F073F0FCD7810263540F3
:100F5000002D01D08D782F431446002011E0850626
:100F60002B0E0D88012686403540002D07D02568C0
:100F70000F269E40B5433E469E4035432560451CA6
:100F8000E8B20828EBDB141D0D882D120095002017
:100F900011E085062B0E01258540009E3540002D71
:100FA00007D025680F269E40B5433E469E403543F8
:100FB0002560451CE8B20828EBDBCD78282D04D14C
:100FC00055690E883543556106E0CD78482D03D12B
:100FD00015690E8835431561F8BD70B54D07EB0EE8
:100FE000082902DA0546203501E0054624352C465D
:100FF0000F269E402568B54316469E403543256022
:1010000070BD41617047016170470021C943018093
:10101000022181700421C1707047000010B50121C8
:101020001148FFF75DFD00BF01210F48FFF730FDBC
:101030000028F9D001210C48FFF712FD0A48806909
:101040000A4908800848C069094908800648406B79
:10105000084908800448006B074908800248C06AB4
:101060000649088010BD000000240140C80200208D
:1010700038030020A8030020180400208804002062
:101080007FB5044600200090019002900390002557
:1010900010216846FFF7F4FD68460078552825D1F1
:1010A00001214F200155684640780102684680784A
:1010B0000818A063A06BE063A06BFFF7EDFAE06295
:1010C000A06BE06368468179C079000208436946F5
:1010D000097A090408436946497A0906084305461E
:1010E0008C200551A06BFFF7D7FAE0627FBD0000AE
:1010F0000148024908607047CCCC00000030004035
:1011000001460448C0680840002801D0012070470B
:101110000020FCE7003000400148024908607047A9
:10112000AAAA00000030004000B502460248426012
:1011300000F04EF800BD00000030004000B502464F
:101140000248826000F0D0F800BD0000003000408E
:1011500001490860704700000030004008B50121D7
:10116000480400F03DF86846FFF74FFF012168464C
:10117000018081701021C17069460920C006FFF707
:10118000DFFE01210920C006FFF73BFF01200149D6
:10119000087008BD1700002008B50121480400F0C0
:1011A0001FF86846FFF731FF0121C9026846018038
:1011B000012181701021C17069460920C006FFF726
:1011C000BFFE0121C9020920C006FFF71CFF08BDB0
:1011D00000B500BF0120FFF793FF0128FAD000BD42
:1011E000002905D0054A52690243044B5A6104E0C4
:1011F000024A52698243014B5A6170470010024013
:10120000002905D0054AD2690243044BDA6104E0A3
:10121000024AD2698243014BDA61704700100240F2
:1012200001464811012802D10A48006806E0481129
:10123000022801D1002001E00648406ACB06DB0EFF
:1012400001229A401040002801D001207047002060
:10125000FCE700000010024000B500F01FF8044950
:101260004968F02211400909024A515CC84000BD9A
:1012700000100240A600002000B5FFF7EDFF054971
:101280004968072212021140090A034A515CC8400A
:1012900000BD000000100240A60000200949496876
:1012A0000C221140042905D0082905D00C2905D1AC
:1012B000054805E0054803E0054801E0034800BF94
:1012C00000BF704700100240409C000000127A00EE
:1012D000006CDC020349496A490849000143014A9C
:1012E000516270470010024000B500BF0220FFF7B6
:1012F00007FF0128FAD000BD00BF05498968C9076A
:10130000C90F0029F9D0C1B2014A1160704700002D
:1013100000380140FEB504461749206C884201D1CF
:1013200005202064206CFFF7B7F90746A068FFF797
:10133000B3F939460190FEF7DDFF0546216C481EE2
:10134000FFF7AAF90190206CFFF7A6F90090A06CB6
:101350000099FEF7CFFF07460199FEF78EFF06467C
:101360002946FEF731FFA064A06CFFF7ABF960647B
:10137000206C401C2064FEBD5902000010B500F036
:1013800001F810BD00202349096801221143214AB8
:10139000116000BF1F490968022211400029F9D0DD
:1013A0001C490968D20491431A4A11601146096820
:1013B00004229143174A11601121174A11601549FF
:1013C000496889088900134A5160144909687022E4
:1013D0001140002919D112490968124A914204D0DA
:1013E0000F490968104A91420FD10A4949680222FF
:1013F0001143084A516005E0064949688905080E0D
:101400008007800F0228F7D102E00849084A1160DE
:1014100070470000001002400020024000ED00E094
:1014200000340140D15043CCD150438C00127A009B
:10143000000000207FB5044600200090019002903B
:101440000390002555264F20005D012818D16846DD
:101450000670208F0004010E68464170208FC1B2D3
:10146000684681708C200559684685712804010EF4
:101470006846C1712802010E68460172290E417248
:101480005020005D01280AD16846C670A08F000474
:10149000010E68460171A08FC1B2684641711021EA
:1014A0006846FFF70BFC7FBD10B50446902120462F
:1014B000FEF77FFE01202063206463214C2001554C
:1014C00001214D20015500F007FF10BD10B500F0BF
:1014D00073F910BD10B5FFF797FB6420FFF7C4FB4D
:1014E00000F02AF9FFF758FE022020490870810217
:1014F0000920C006FFF785FD7D20C000FFF7B4FB83
:101500000121C9020920C006FFF77DFD7D20C00032
:10151000FFF7AAFB0121C9020920C006FFF771FDF0
:101520007D20C000FFF7A0FB0121C9020920C006F1
:10153000FFF769FDFFF7F4FAFFF710FE00200C49F2
:101540000870E120000200F0C5F90A48002101609E
:101550004160816060210848FEF72BFE01F0F4FB3A
:101560006421042000F010FA10BD000014000020D7
:1015700017000020E80100208801002010B50F4866
:101580000068012108430D490860084640680C497D
:1015900008400A494860084600680A490840074967
:1015A00008600846006801218904884303490860EF
:1015B0009F2000048860FFF7E1FE10BD001002408C
:1015C0000000FFF0FFFFF6FE10B50121234800F0F8
:1015D00069F8002841D000BF0C2015E0411E8900A9
:1015E0001F4A515800290DD0411E89005158491CED
:1015F000002907D0411E89005158491E421E920001
:10160000174B9950411EC8B20028E7DC00BF00BF4D
:101610001348006800280AD101F0B2FC044601E03A
:101620000F4804600E480068A042F9D100BF00BF17
:1016300000BF0B48406A00280AD101F0C9FB0446EC
:1016400001E0074844620648406AA042F9D100BF61
:1016500000BF0121014800F015F810BD0040014015
:10166000F4010020002904D0026880231A4302609C
:1016700003E0026880239A430260704702698A434C
:101680000261704702698A4302617047002904D0F1
:10169000026801231A43026003E002685208520004
:1016A00002607047024610690840002805D0D068E3
:1016B0000840002801D0012070470020FCE7002AE4
:1016C00003D0C3680B43C36002E0C3688B43C360AD
:1016D00070470000026803231B029A430B891A43D8
:1016E00002600E4A904202D00D4A904205D1026833
:1016F00070239A438B781A430260084A904205D1BE
:10170000026B120A12028B7A1A4302634A68C2629F
:101710000A8882620122426170470000002C014069
:10172000000400400021C943416000210180018183
:1017300081708172704700001FB501210820FFF7FA
:101740005FFD01A8FFF7EEFF174802901749184800
:101750000068FEF7EBFC401E81B2684681800021E4
:1017600081818173817101A91248FFF7B3FF0121C3
:101770001048FFF777FF01210E48FFF77FFF012296
:1017800011460C48FFF79BFF1321684601700021AA
:101790004170032181700121C17000F0E3FB012140
:1017A0000448FFF773FF1FBDE703000040420F002E
:1017B000000000200040014004480068002804D0D8
:1017C00002480068401E0149086070471C00002064
:1017D00010B502210C4800F025F8002812D00A4864
:1017E00000F066F809490A4A12788854002009492D
:1017F000087007480078632804DA05480078401C20
:101800000349087010BD000000380140200100208D
:1018100024000020250000208269520852000A435B
:10182000826170470246D0680840002801D001203C
:1018300070470020FCE7002A03D003690B430361D3
:1018400002E003698B430361704770B504460D469F
:101850000026E0693021884329790843E061E06986
:1018600044218843A9790843E061E0698008800049
:10187000297A0843E061A0691821884369890843EF
:10188000A061A06904218843297B0843A061FFF778
:10189000F3FC064630462968FEF748FC0009206242
:1018A00030462968FEF742FC0007000F606270BDF9
:1018B00001464868C0B270474B21C9010160302120
:1018C0000171002181710172182141810021017390
:1018D0007047000010B586B0044601210804FFF7E8
:1018E0008FFC01214804FFF77BFC01220321092022
:1018F000C006FFF772FB01220C210920C006FFF78A
:101900006CFB01A8FFF7D8FF0194302168460181E4
:1019100000214181818101821821C18101A91948D9
:10192000FFF793FF01211748FFF776FF05A8FFF7A0
:101930006CFB012109036846818201218175182110
:10194000C17505A90920C006FFF7FAFA0821684603
:1019500081820421C17505A90920C006FFF7F0FAAC
:101960001B21684601700121417000218170012115
:10197000C17000F0F7FA012202210248FFF75BFF75
:1019800006B010BD0038014070B504460D46012078
:10199000FFF7A0FC00BF6120FFF742FC0028FAD04F
:1019A000FFF716FC0948FFF7D3FBE0B2FFF7BCFBDB
:1019B000FFF79AFC0548FFF7CBFB2805000DFFF762
:1019C000BDFBFFF7A9FBFFF793FB70BD555500006A
:1019D0002021020C01D010211046020A01D010462D
:1019E0000839020901D01046091F820801D01046AB
:1019F000891E420801D0881E7047081A70470000EF
:101A000010B5002819DB1A4A03231B02D2188308D9
:101A10009B00D2588307DC0EFF23A3409A438B0719
:101A20001B0E8407E40EA3401A43114B0324240227
:101A30001B198408A4001A5118E00E4A03071B0F53
:101A4000083B9B089B00D2588307DC0EFF23A34072
:101A50009A438B071B0E8407E40EA3401A43054BE1
:101A60000407240F083CA408A4001A5110BD00006C
:101A700000E100E01CED00E0F8B504464F1EC80090
:101A80000838211815461E46086849683A46062354
:101A90009A4310D02A463346FEF71EFD3A46D2003E
:101AA000083AA3181A687F1E5B68FEF761FC0622DD
:101AB0003B469343EED1022F23D0042F11D0062FA3
:101AC0002FD12A463346FEF707FDE36AA26AFEF7E6
:101AD0004FFC2A463346FEF7FFFC636A226AFEF794
:101AE00047FC2A463346FEF7F7FCE369A269FEF796
:101AF0003FFC2A463346FEF7EFFC63692269FEF796
:101B000037FC2A463346FEF7E7FCE368A268FEF797
:101B10002FFC2A463346FEF7DFFC63682268FEF797
:101B200027FCF8BD002210B5134610460149FEF708
:101B30003BFD10BD0000F03F10B50122FEF70CFF89
:101B400010BD002210B5134610461146FEF72CFDBD
:101B500010BD02E008C8121F08C1002AFAD1704760
:101B60007047002001E001C1121F002AFBD170471D
:101B70000149086070470000B800002010B5B8485F
:101B80000078BC287ED060E1FFF748FAB5480188AC
:101B9000B54800784200B34808308152B348018804
:101BA000B14800784200B14808308152B0480188FD
:101BB000AD4800784200AE4808308152AD480188F7
:101BC000A94800784200AB4808308152AA480188F1
:101BD000A54800784200A848083081523221A24826
:101BE0000078401CFEF7B8FAC8B29F490870002080
:101BF0009C49C8669D49C8669D49C8669D49C86696
:101C00009D49C866974800899649888048809748CA
:101C10000089964988804880954800899449888041
:101C20004880944800899349888048809248008978
:101C30009149888048800020BCE08A494300CA6EF0
:101C40000831C95A5118874AD16688494300CA6E7B
:101C50000831C95A5118854AD16685494300CA6E70
:101C60000831C95A5118824AD16682494300CA6E66
:101C70000831C95A51187F4AD1667F494300CA6E5C
:101C8000083100E0E0E0C95A51187B4AD1664200B1
:101C900074490831895A734A5288914206DD4200DC
:101CA00070490831895A6F4A51800DE042006D49F0
:101CB0000831895A6B4A9288914205DA4200694993
:101CC0000831895A674A9180420068490831895A27
:101CD000664A5288914206DD420064490831895AB9
:101CE000624A51800DE0420060490831895A5F4ADA
:101CF0009288914205DA42005C490831895A5B4A70
:101D0000918042005A490831895A594A5288914271
:101D100006DD420056490831895A554A51800DE086
:101D2000420053490831895A514A9288914205DA52
:101D300042004F490831895A4D4A918042004D492D
:101D40000831895A4B4A5288914206DD420049497E
:101D50000831895A474A51800DE04200454908310F
:101D6000895A444A9288914205DA42004149083131
:101D7000895A404A918042003F490831895A3E4A77
:101D80005288914206DD42003B490831895A3A4A5D
:101D900051800DE0420038490831895A364A92880C
:101DA000914205DA420034490831895A324A918019
:101DB000411CC8B2322800DA3FE72A49C96E294AD5
:101DC0005288891A274A9288881A3021FEF7AEF97C
:101DD0002449C8802549C96E244A5288891A234A51
:101DE0009288881A3021FEF7A1F92049C88020493D
:101DF000C96E1F4A5288891A1D4A9288881A302152
:101E0000FEF794F91A49C8801A49C96E194A5288CE
:101E1000891A184A9288881A3021FEF787F91549DD
:101E2000C8801549C96E144A5288891A124A928884
:101E3000881A3021FEF77AF90F49C88000BFBC200C
:101E4000074908700A2010BD00BF0C480068002830
:101E500000D099E600BF00BF01490870401EF2E7BC
:101E6000A5000020C8020020A400002038030020A4
:101E7000A803002018040020880400202800002067
:101E800010B52A480078842844D044E001F0ACF82A
:101E90002749886DC96D03220023101A8B4122D275
:101EA0002448006823494968884204D20F21214808
:101EB0004030417311E01F4948691F49FEF764FC37
:101EC00002D21C4801F0A6F81A48FFF723FA194875
:101ED00000F08EF8174800F0F7FF164800F042FEB9
:101EE000144800F079FD15480078FA280BD0114805
:101EF0004030C07B002803D103201149087002E064
:101F000000200F49087000BF8420084908707D2018
:101F1000C00010BD00BF0B4800680028B6D100BF4C
:101F200000BF02490870401EF3E70000A200002035
:101F3000880100202402002000004C428400002080
:101F4000140000202800002010B502460B4610782F
:101F5000012103E0545C60404C1CE1B29942F9DB82
:101F600010BD0000C178002925D0174903221202B4
:101F70008918027892109200895802789207D30E3D
:101F8000FF229A40914382789207120E03789B07B2
:101F9000DB0E9A4011430C4A03231B02D21803782C
:101FA0009B109B00D1500178CA06D20E01219140AE
:101FB000054A116007E00178CA06D20E012191405E
:101FC000014A80321160704700E100E030B50246FE
:101FD0000B46FF20002105E0545C4440034D285D82
:101FE0004C1CA1B29942F7DB30BD00004C36000812
:101FF000F0B58BB00446002007900690E06BFEF72A
:102000004BFB0A9000200A99FEF7BEFB01D10BB0F2
:10201000F0BD6068FEF748FB03910290A068FEF7F0
:1020200043FB01910090039B029AFEF7BDFA0591D4
:102030000490FEF78DFB0790E26B2168881AFEF78B
:1020400033FB03910290E06BFEF72EFB01910090B1
:10205000039B029AFEF7A8FA05910490FEF778FB1D
:1020600006906068FEF720FB03910290606CFEF71B
:102070001BFB01910090039B029AFEF795FA0591D4
:102080000490FEF765FB0990E26B2168881AFEF761
:102090000BFB03910290E06BFEF706FB01910090B1
:1020A000039B029AFEF780FA05910490FEF750FB1D
:1020B000089006990798FEF71DF978490590FEF7F4
:1020C000DCF8054608990998FEF714F9734905905C
:1020D000FEF7D3F8074672493846FEF75FFB00D299
:1020E0006F4F70492846FEF76FF839460590FEF7A6
:1020F0004BFB17D24E20005D002813D16A480078B0
:10210000401C694908700846007802280FDD6748BE
:10211000007800280BD101214E2001550120634990
:10212000087004E0002060490870604908704E2083
:10213000005D012830D15E4801880088401C5C4A5F
:102140001080782912DD0021522001552E462046AC
:1021500000F000FF00214E20015500205249087078
:10216000524908704E485349086019E029465148C1
:102170000068FEF709FB02D24E48066802E04D48AF
:10218000056006684C493046FEF708FB00D24A4E0F
:1021900002215220015503E03E46002044490880B8
:1021A00029463846FEF7F0FA04D24E20005D00289A
:1021B00000D12E463A493046FEF7F0FA01D2384EA9
:1021C00021E03E493046FEF7E9FA00D21BE03C49E7
:1021D0003046FEF7E3FA14D23046FEF7A5FA394A44
:1021E000394B01910090FEF777F9384A384B03914B
:1021F0000290FEF762F905910490FEF7A9FA0646EF
:1022000001E07F26F6053046FEF75CFAC1B24C20AD
:102210000155005D6421081AC1B24D200155005DD1
:1022200046280DDD4D21085DFEF736FA2949049058
:10223000FEF723F80590FEF745FAC1B24D2001558F
:1022400088200059401C88210851FF212D318842E7
:102250000FD24D21085DFEF71FFAFF21890504907A
:10226000FEF70BF80590FEF72DFAC1B24D2001558F
:1022700003E0FF212D31882001514D20005D6328AE
:1022800002DD63214D2001554D20005D012802DA59
:1022900001214D20015500BFB9E600000000C842F1
:1022A0000000C6420000A040A0000020A1000020C5
:1022B000980000209C0000200000B4420000AA42C8
:1022C00000005C4219E25817B751064052B81E850B
:1022D000EBF962406666A63FA5200C49087048707D
:1022E00012208870B420C87000200871A0204871A6
:1022F000322088710020C87108724872C872087351
:10230000887248738873C87308747047B4020020D9
:1023100010B516480078232811D028281BD01BE0C0
:102320001348007800280BD101210920C006FEF7D0
:102330006AFE00BF23200D490870642010BD0BE029
:1023400001210920C006FEF75CFE00BF28200749D6
:1023500008706420F2E700BF064800680028DFD15B
:1023600000BF00BF01490870401EE7E718000020C9
:10237000170000202800002010B53A4800783528C2
:102380004BD006DC292819D02E2827D0332804D199
:1023900035E03A284ED03C2859D059E032480078F0
:1023A00000280CD10121C9020920C006FEF72BFE2E
:1023B00000BF29202B490870642010BD48E02A483E
:1023C000007801280BD1C1020920C006FEF719FED2
:1023D00000BF2E20234908706420EEE738E0224831
:1023E000007802281AD181020920C006FEF709FEF2
:1023F00000BF33201B490870FF20F530DDE700BF28
:102400000121C9020920C006FEF7FDFD00BF3520ED
:1024100014490870FF20F530CFE719E00121C90207
:102420000920C006FEF7EDFD00BF3A200D490870F7
:10243000C820C2E700BF0121C9020920C006FEF77B
:10244000E2FD00BF3C2007490870C820B5E700BF87
:10245000064800680028A1D100BF00BF01490870EC
:10246000401EAAE7150000201400002028000020CC
:1024700070B504462078A52802D16078A52801D03F
:10248000012070BD0721A01CFFF7A0FD0546607963
:1024900034490870607AA84261D108460078A028C3
:1024A00004D0A1284CD0B02857D128E0A0792E49DB
:1024B0000870E0792D490870207A2D4908702B4862
:1024C0000078FA2803D102202A49087006E027483C
:1024D0000078F02802D1002026490870A07926490A
:1024E000C873207A08740F212348801CFFF76EFD03
:1024F000214948741221204800F068FD2EE0A0799F
:102500001E490870A5201E49087048700A2088706E
:10251000B420C87000200871B020487117480078B6
:1025200088710020C871087207211548801CFFF7C8
:102530004DFD134948720A21114800F047FD0DE096
:1025400028211048FFF742FD0E491E3188722B21C9
:102550000C48801E00F03AFD00E000BF00BF0020E4
:102560008FE700004D00002085000020840000203F
:102570008C00002014000020B40200208300002002
:102580004E0000205A000020F0B5C54A00248FB04C
:1025900091420ADA4B005B08934206D801254A00B3
:1025A0006D05EA4205D1002803D0FFF7C5FA0FB048
:1025B000F0BD01252D05A94219DA034308D00029F1
:1025C00010DA0120FFF7D4FAFFF7BBFA0FB0F0BD25
:1025D0000220FFF7CDFAFFF7A5FA0122D2075140FA
:1025E0000FB0F0BD3524E4433622FEF7B5F90A15E5
:1025F000AC4B1219D4180A03120BAB49AB4B56184B
:102600002E403146594011430192321512190B9256
:102610000022FDF752FF019A0446921C1003A44EBB
:10262000000B0D467E44032860D220467368326852
:10263000FEF7BCF91CD10B98002815D0FEF7A2F9C3
:1026400004460E469B4A9C4BFDF746FF0D46074647
:102650009A4A9B4B20463146FDF73EFF3A462B46B1
:10266000FDF786FE0FB0F0BD716830680FB0F0BDA9
:10267000944A954B20462946FDF72EFF0022934BA6
:10268000FDF721FF06460F4622462B461046194607
:10269000FDF722FF32463B46FDF71EFF06460B982C
:1026A0000F4600281DD0FEF76DF9824A824B059136
:1026B0000490FDF711FF32463B46FDF704FF22462A
:1026C0002B46FDF7FAFE04460D467C4A7C4B0599E5
:1026D0000498FDF701FF22462B46FDF7EEFE0FB0F2
:1026E000F0BD0B46324620462946C4E001230022B5
:1026F0009B072046FDF73CFE02460B462046294636
:10270000FDF752FF06460F460B98FEF73BF932469F
:102710003B460591049010461946FDF7DDFE0991F0
:102720000C906B490198099B421800920C9A19462B
:102730001046FDF7D1FE024607910A9065490198BF
:102740000B1A6548019303217844079BFFF794F91E
:10275000079B0A9AFDF7C0FE0E905F480D91042179
:102760007844079B0A9AFFF787F9099B0C9AFDF7B3
:10277000B3FE019B009A1A4300920D9B0E9AFDF73F
:10278000F7FD009A01910C90002A4DDD0022D24302
:1027900020462946FEF7E0F822462B46FDF79CFE30
:1027A00000910A900B9800282BD0424A424B059981
:1027B0000498FDF791FE07910E90019B0C9A0099E9
:1027C0000A98FDF7D5FD32463B46FDF785FE079B8F
:1027D0000E9AFDF7CDFD009B0A9AFDF774FE224686
:1027E0002B46FDF76AFE04460D46344A344B0599E4
:1027F0000498FDF771FE22462B46FDF75EFE0FB0F2
:10280000F0BD019B0C9A0A98FDF7B2FD32463B469B
:10281000FDF762FE009B0A9AFDF755FE22462B4605
:10282000FDF751FE0FB0F0BD0B98002827D0214ACC
:10283000214B05990498FDF74FFE07910090204623
:102840002946019B0C9AFDF738FE32463B46FDF7C0
:1028500043FE079B009AFDF730FE22462B46FDF70C
:102860002CFE04460D46154A154B05990498FDF7B4
:1028700033FE22462B46FDF720FE0FB0F0BD0B467F
:10288000204629460C9AFDF718FE32463B46FDF7D6
:1028900023FE22462B46FDF716FE0FB0F0BD0000CA
:1028A0000000F07F01FCFFFF645F09000000F03FC3
:1028B00060110000763C7935EF39EA3D0000E0FE1A
:1028C000422EE63F555555555555D53F0000E03F42
:1028D00086EBF9FF51B8060004100000FEF7FAFD80
:1028E00076E000BF3B48406800280AD1FFF710FDA2
:1028F000044601E03748446036484068A042F9D1B8
:1029000000BF00BF00BF3348806800280AD1FFF72E
:1029100035F9044601E02F4884602E488068A042C3
:10292000F9D100BF00BF00BF2A48C06800280AD103
:1029300000F050FD044601E02648C4602548C06808
:10294000A042F9D100BF00BF00BF224800690028A3
:102950000AD1FFF795FA044601E01E4804611D48BC
:102960000069A042F9D100BF00BF00BF194840690B
:1029700000280AD1FFF700FD044601E01548446134
:1029800014484069A042F9D100BF00BF00BF114800
:10299000806900280AD100F065FA044601E00D487C
:1029A00084610C488069A042F9D100BF00BF00BF1C
:1029B0000848C06900280AD100F02AFE044601E058
:1029C0000448C4610348C069A042F9D100BF00BFF8
:1029D00087E70000F4010020F0B585B00446FF2031
:1029E00003907F20C00501904F20005D00286FD02C
:1029F000A068FDF751FE04908C2001590498FDF762
:102A000079FC049054490498FDF7C8FE01D8524857
:102A100004900498FDF756FE87B2F817000EC0190F
:102A200006120498FDF74EFE87B2F817000EC01983
:102A3000001200023E1AE06BFDF72EFE04908C207F
:102A400001590498FDF756FC049043490498FDF79A
:102A5000A5FE01D8404804900498FDF733FE87B2E4
:102A6000F817000EC01905120498FDF72BFE87B267
:102A7000F817000EC019001200023D1AA06BFDF7F6
:102A80000BFE04908C2001590498FDF733FC049050
:102A900031490498FDF782FE01D82F48049004982C
:102AA000FDF710FE87B2F817000EC0190004000EE3
:102AB0002A4948730498FDF705FE87B2F817000EFF
:102AC000C01900120002381A244948731DE0FFE7BC
:102AD000A068FDF7E1FD00900199FDF70BFC0746AA
:102AE000FDF7F0FD0646E06BFDF7D6FD009001997D
:102AF000FDF700FC0746FDF7E5FD0546208F0004C5
:102B0000000E16494873208F8873154800780028F6
:102B100001D005B0F0BD4D21085DFDF7BDFD02906F
:102B20000298FDF7CFFD0D4988713004000E087240
:102B30004E722804000EC8720D735220005D887218
:102B40000F210648801CFFF741FA039003490398C0
:102B5000487400BFDDE70000E27A9444B40200202C
:102B600030000020F8B50446FF21592001554D20C2
:102B7000065D5A2006554F20005D002879D0A068D8
:102B8000FDF78AFD07468C2001593846FDF7B2FB58
:102B900007466B493846FDF701FE00D8684F3846B6
:102BA000FDF790FD85B2E817000E40190004010EF4
:102BB0005B2001553846FDF785FD85B2E817000E0C
:102BC000401900120002281AC1B25C200155E06BC6
:102BD000FDF762FD07468C2001593846FDF78AFB58
:102BE000074657493846FDF7D9FD00D8544F3846B7
:102BF000FDF768FD85B2E817000E40190004010ECC
:102C00005D2001553846FDF75DFD85B2E817000EE1
:102C1000401900120002281AC1B25E200155A06BB3
:102C2000FDF73AFD07468C2001593846FDF762FB57
:102C3000074643493846FDF7B1FD00D8404F3846B6
:102C4000FDF740FD85B2E817000E40190004010EA3
:102C50005F2001553846FDF735FD85B2E817000EB7
:102C6000401900120002281AC1B2602001551AE072
:102C7000FFE720890004010E5B200155217A5C20CA
:102C80000155A08F0004010E5D200155A08FC1B237
:102C90005E200155208F0004010E5F200155208F1A
:102CA000C1B26020015500216069FDF777FD01D2B6
:102CB000012100E000216120015500216069FDF73C
:102CC0006DFD01D2606903E000206169FDF7CDFA76
:102CD0000546FDF7F7FCC1B262200155E06AFDF739
:102CE000F1FC85B2E817000E40190004010E6420C3
:102CF0000155E06AFDF7E6FC85B2E817000E4019C1
:102D000000120002281AC1B2652001558C21085911
:102D10000C49FDF7B2FA0546FDF7D4FCC1B26620B6
:102D20000155A069FDF7CEFCC1B2672001550F2106
:102D300020465930FFF708F968210855F8BD000012
:102D4000E27A94440000C84210B50348FEF7ACFB99
:102D50000148FEF795F910BD2402002019490978B1
:102D6000FA290DD1012257210A541749174A118017
:102D70005821095C002923D1012258210A541FE05F
:102D800010490978F0291BD15821095C012917D174
:102D90000E490988491E0D4A1180114609880229E9
:102DA00004DA002257210A5458210A54C16B0A310F
:102DB00082688A4204D2002257210A5458210A54B8
:102DC000704700008C000020DC0500009A00002005
:102DD00010B51E4800789A282CD02CE01C480078AA
:102DE000042805DA1A480078401C194908701BE0CD
:102DF00017480078042817D1642216491648FDF7B1
:102E0000BFF964211348FDF7D4F900201349087075
:102E10000F480078401C0E4908700F48FFF728FB48
:102E200064210D48FDF7C5F900BF9A2007490870D5
:102E3000012010BD00BF0A4800680028CED100BFA5
:102E400000BF02490870401EF3E700002E0000207A
:102E50002500002020010020BC00002024000020CC
:102E60002800002010B514480078952819D019E0E2
:102E70001248826DC06D03210023891A834109D253
:102E8000002405E00E49085DFEF736FA601CC4B266
:102E9000102CF7DB00BF9520074908707D20C0008B
:102EA00010BD00BF074800680028E1D100BF00BF87
:102EB00001490870401EF3E7A300002088010020AC
:102EC0007D0200202800002070B504461C49486897
:102ED0001C49FDF763FC0FD3194948681A49FDF7EF
:102EE00053FC09D31949606AFDF758FC04D318490B
:102EF000606AFDF749FC22D24D20005D052802DB07
:102F00006068022814D88321C9056069FDF75CF95F
:102F10000646A169FDF7A9F90546FDF7D3FBC1B245
:102F20004D200155005D142802DD14214D2001556E
:102F30004D20005D322802DD14214D20015570BD69
:102F4000880100200000B040666686409A99B93F2B
:102F5000A69B443C10B50446A068FDF79DFBA06409
:102F600001202064A068FDF797FB606701215320D2
:102F700001550621542001550120E06610BD0000D6
:102F80000F480078862810D010E00E48826DC06D82
:102F90000021521C48410B498A65C86500BF862044
:102FA000074908707D20C000704700BF06480068D0
:102FB0000028EAD100BF00BF01490870401EF3E7B6
:102FC00016000020880100202800002070B505466A
:102FD0000E46002404E0285DFEF78EF9601CC4B2A2
:102FE000B442F8DB70BD00000848C06A08490860B8
:102FF0000648406A48600548806A88600348806BDC
:1030000048620248006B4861704700008801002058
:1030100024020020F0B585B004462046FFF79EFE4E
:10302000D9480078152812D10020D749087000210E
:10303000502001554F200155FDF770FF2046FEF747
:1030400033FA0021502001554F20015539E0CE4878
:103050000078512820D10020CB490870E06B00286F
:1030600002D0A06B002801D105B0F0BDE06AFDF7E9
:1030700029FBE063A16BE06B884202D9E06BE0635F
:1030800001E0A06BE0630121502001554F20015564
:103090002046FEF7CFF914E0BB480078552810D140
:1030A0000020B9490870B949E06AFDF7E6F805461D
:1030B000FDF708FBA06301214F2001552046FEF7D4
:1030C000B9F9B349206B884255D101202063012111
:1030D000282001556069A061E06BFDF7DDFA054627
:1030E000E16AFDF751FB17D2E06BFDF7D5FA064612
:1030F000E16AFDF7BEF80546A649FDF7BEF80746AA
:10310000E06BFDF7C9FA06463946FDF75DF805465E
:10311000FDF7D8FAE0631EE0E06BFDF7BDFA054667
:10312000E16AFDF73BFB16D2E06BFDF7B5FA064608
:10313000E16AFDF79AF805469649FDF79EF80746BD
:10314000E06BFDF7A9FA06463946FDF78EF805460D
:10315000FDF7B8FAE063A16BE06B884201D2A06B87
:10316000E0638D49606B884205D3012150200155F1
:103170002046FEF75FF95720005D002821D1206B23
:10318000FDF78AFA0490A068FDF786FA0390049987
:10319000FDF7B0F80546216B481EFDF77DFA049057
:1031A000206BFDF779FA0290E06A0299FDF7A2F828
:1031B00003900499FDF761F806462946FDF704F8E7
:1031C000E062E1214901206B884229D22820005D7C
:1031D000002825D1206B884222D25320005D002890
:1031E0001ED18420005D0F2810DAA168E06B8842B0
:1031F00005D2A068E063E06BFDF74EFAE062842040
:10320000005D401CC1B28420015509E0E06AFDF771
:1032100059FAE063A16BE06B884201D2A06BE063D6
:103220005E49206B88427FD14F20005D00287BD112
:103230008C2108590021FDF7A7FA5FD15848008872
:1032400000285BD05648018856480068FCF76EFF9E
:103250005549088000205349086051490880524868
:103260000088FDF719FA05465049FDF78DFA45D259
:103270004D480088FDF710FA05464D49FDF78EFAD6
:103280003CD249480088FDF707FA4A490190FCF70B
:10329000ECFF49490290FDF72DF848490390FCF7EF
:1032A000ECFF06464649FCF78FFF05463E4800887E
:1032B000FDF7F2F929460490FDF71CF88C2108511E
:1032C0000859FDF731FA05463E4A3F4BFDF750F8E5
:1032D00000223E4B01910090FDF7FEF80391029011
:1032E000FDF704FAC0B20490FDF7D6F98C2108511D
:1032F00008593749FCF7FEFF8C21085101214F2066
:1033000001552249E06AFCF7B8FF0546FDF7DAF9F6
:10331000A063A06BE0632046FEF78CF8E06AFDF73F
:10332000D1F900E000E0E0636169A069FDF72CFAE3
:1033300001D26069A0614F20005D00281CD12D21C1
:103340008901206B884212D31449206B88420ED227
:10335000A068002810D01349A068096840181149D6
:1033600008600F480088401C0D49088004E00020D8
:103370000C4908600A490880206B401C2063606B80
:10338000401C606300BF6FE683000020CDCCCC3DC5
:10339000211C0000CDCC4C3D803A0900B80B000048
:1033A00094000020900000208E000020713D8A448F
:1033B00090C275430AD7A342B81E854408D7234359
:1033C0009A9919447B14AE47E17A743F0000594042
:1033D0000000C842F0B587B07F20C00506907A484B
:1033E00000786A287ED0E3E0FF20800577490860F6
:1033F0007748C088002810D07549C888FDF74CF977
:103400000446724908687349FCF737FF05462146B0
:10341000FCF770FF6D49486002E000206B4948608E
:103420006A4948686C49FCF765FF06906849C88896
:10343000FDF732F90590FDF777F90646674A684BC4
:10344000FDF74AF80446FDF751F9604908656549FA
:10345000C888FDF721F905460699FCF70EFF0446DA
:10346000FDF730F95F49C8805949C888FDF714F95C
:1034700005460699FCF701FF0446FDF723F9544978
:10348000C8805848C1885848FCF766FE5649401A1B
:103490004E490861FF208005C86088600A46126DA9
:1034A000524BDB88D11A514AD288514B5A431046AD
:1034B000FCF73CFE4549C8610A46126D4D4BDB885E
:1034C000D11A4C4AD2884A4B5A431046FCF72EFE7A
:1034D0003E490862C869FDF7DFF807464649FCF730
:1034E00009FF00E063E00446FDF71EF90546FFF71B
:1034F0004BF8424A424B01910090FCF7EDFF414AE4
:10350000414B03910290FCF733FF05910490FDF7C6
:103510001FF92E490863086AFDF7BEF83649009086
:10352000FCF7E8FE0190FDF7FFF80646FFF72CF8E0
:103530000446324A324BFCF7CFFF324A324B0391FA
:103540000290FCF715FF05910490FDF701F91F4962
:1035500048631F48C088C8622248C08848621C4827
:10356000C0882049C988884206DD1948C0881D499D
:10357000C988401A154988621449886AFDF78CF891
:103580000646124841683046FCF777FE0546114969
:10359000FCF7B0FE04460699FCF7ACFE0B498863C5
:1035A00000BF6A2008490870642007B0F0BD00BF62
:1035B00016480068002800D016E700BF00BF024987
:1035C0000870401EF1E700002C0000208801002058
:1035D0008804002000F07F450000A0409999999947
:1035E00099990140C8020020204E0000A803002045
:1035F000102700001804002000007A441E3C0B290C
:10360000DC8E36C092EA1AB1BFE352402800002097
:1036100010B50C480078712808D008E0FDF77CFD53
:1036200000BF712007490870282010BD00BF064860
:1036300000680028F2D100BF00BF02490870401E98
:10364000F3E7000019000020280000200065CAAF41
:10365000F1943B5E87E24D287613BCD96B0EA1C472
:103660009AFF5035EC8926431D78D7B2D6B31C7922
:103670002742ED8851349BFEA0C56A0FBDD8771252
:103680004C2986E33A5FF095CBAE0164C9AC036682
:10369000385DF2974E2B84E1BFDA7510A2C7680D32
:1036A000533699FC2540EF8AD4B11E7B1F7AD5B0E2
:1036B000EE8B244198FD5237690CA3C67411BEDB12
:1036C00085E04F2AF396395C0267C8ADF7923D5802
:1036D0000663CCA97015BADF81E44B2E9CF95633F2
:1036E0006D08A7C21B7ED1B4EA8F20452144EB8E22
:1036F000D0B51A7FA6C36C0957329DF84A2F80E5D2
:10370000BBDE7114CDA807623C59F6933E5BF49181
:10371000CFAA0560B9DC7316482D82E755309FFAB1
:10372000A4C16E0BD2B7187D2346E98CE88D2247E1
:10373000197CD3B66F0AA5C09EFB543183E6492C91
:103740007217B8DD0461CEABF5903F5A000000005F
:1037500004FA97999999D93FAF788E1DC571CC3FDE
:103760009FC678D0099AC33F935555555555E53FA7
:10377000599322942449D23FDE03CB966446C73F37
:1037800044523EDF12F1C23F000000000000000082
:10379000B037000800000020BC000000521B0008E9
:1037A0006C380008BC0000203C070000621B0008C9
:1037B000006CDC02000000000000000001020304B5
:1037C00006070809000000000000000000000000DB
:1037D00000000000000000000100000000000000E8
:1037E00000000000000000000000000000000000D9
:1037F0000000000000000000000000000000A5A57F
:103800000AB400B000000000A5A52BB400A131301F
:10381000303036343030323735305F414243444502
:103820004647484905060B1C0000141414160505EC
:1038300005100000F000000000000000F000000093
:1038400000000000000000000000DC050000C6428F
:10385000000000000000000000000102030401025B
:0C38600003040607080900000000000037
:04000005080000B53A
:00000001FF
