:020000040800F2
:10000000E8070020CD000008F3000008F500000814
:10001000F7000008F9000008FB00000800000000DD
:10002000000000000000000000000000FD000008CB
:10003000FF0000080000000001010008AF130008E5
:100040000501000805010008000000000501000886
:100050000501000805010008050100080501000868
:100060000000000000000000000000000000000090
:100070000501000805010008050100080000000056
:10008000050100080000000000000000AD14000899
:100090000000000000000000000000000501000852
:1000A000000000000501000800000000B51600086F
:1000B000050100080448854600F0A0FC0048004700
:1000C00039280008C046C046E80700200E4880F3E3
:1000D00008880E480168090E0D4A914205D10D4865
:1000E0000D4901600D480E4901600E4880470E48D9
:1000F0000047FEE7FEE7FEE7FEE7FEE7FEE7FEE776
:10010000FEE7FEE7FEE70000E8070020040000002D
:100110001F00000018100240010000000000014014
:100120000000000061140008B500000830B50B465F
:10013000014600202022012409E00D46D5409D42C1
:1001400005D31D469540491B254695404019154647
:10015000521E002DF1DC30BD70B50024254600286C
:1001600001DA01244042002901DA01254942FFF762
:10017000DDFFAC4200D04042002C00D0494270BDAF
:1001800003460B439B0703D009E008C9121F08C0B0
:10019000042AFAD203E00B780370401C491C521E5B
:1001A000F9D27047D2B201E00270401C491EFBD266
:1001B00070470022F6E710B513460A460446194672
:1001C000FFF7F0FF204610BDF8B502464A40D40FB5
:1001D00042004B0052085B089A4202D2024608468F
:1001E00011464A0023D0C30D4A00DDB2120EAD1AEB
:1001F000202D35DA49020126490AF6058A19002C14
:1002000000D0524220214F1B1146B9402A411018FC
:10021000C20D9A4221D0002C17D0012D08DCDA053E
:10022000801AD20F8019D207DBB200F011FBF8BDA3
:10023000DA05801A012340001B06C01880185A42B4
:100240008018CA0F1043490007E04908C20711434C
:10025000DA05801A80194008801800F0F1FAF8BD1C
:1002600061000122511A001BF7E70122D207514019
:10027000AAE70122D2075040A6E7024670B54A40DD
:10028000D30FDB0740002DD04A002AD0010E140EF8
:10029000000212020919400A520A8418E5010446B4
:1002A0005443000A120A2E045043A4194219200C88
:1002B000C543AA18120C0125AD03521C5219120491
:1002C0007F39240400D0521C104301D44000491E41
:1002D000C2B20C06C0092018401C4008802A02D077
:1002E00003E0002070BD40084000002900DA002033
:1002F000184370BD70B502464A40D50F40004A0011
:10030000ED0740085208002814D0002A12D0C40D6E
:10031000D30D41020120C0055202490A520AE41AD3
:10032000091812187D34914201D3641C00E0490081
:10033000002C01DA002070BD0023914201D3891AFC
:100340000343400849000028F7D100290AD0914210
:1003500002D10121C90705E0914201D2012101E04A
:100360000121C943E005C018401900F069FA70BDC9
:10037000F0B507460846584087B0C00F04904800C3
:100380000E46590040084908BC1A884105D2384633
:1003900031461E4617460B46024658004008104399
:1003A0004DD0300D039040055900400D490D05908A
:1003B000401A0290402873DA18030121000B090546
:1003C0000843019004980092002806D01146019A33
:1003D00049420020904100910190029840210A1A60
:1003E0000199009800F0F8F905460C466B4607CBDA
:1003F00000F013FAC0197141039A0E0D0023D717AC
:1004000056401A467A40164344D0049A002A2DD00A
:10041000029A012A039A15DC1205C01A914101269D
:100420003605001C7141D20F059ED2070093019240
:1004300002962A46234600F051FA07B0F0BD38462E
:100440003146FAE71605234A0F46B218C01AB741DB
:1004500001210905001C4F4100187F411146181861
:100460007941E20F10436D19644113E0E2076D0812
:1004700015436408C2071443039A01261205C01AE3
:1004800091413605001C7141CE07400830434908B0
:10049000C01851412A46234600F013FACDE7FFE782
:1004A000049801224000C117121A00238B410498BE
:1004B0003146C417381AA141EEE730B40124E407ED
:1004C000634030BC54E730B40124E407614030BCE1
:1004D0004EE700000000E0FFF0B51FB488B00B99B4
:1004E0000998002448400999C00F4900490809911A
:1004F000C0070B990090490049080B910999089889
:10050000A64608431CD00B990A98084318D00998AE
:1005100001244000420D4800410D099824050003C4
:10052000000B204309900B980003000B20430B9015
:1005300050181C494018002201901446104605E04E
:10054000002001460DB0F0BD032801DA034600E0AB
:1005500003239C46C11A0AAE0AE05F0008ADED5BBA
:100560004F00F75B7D430027AA187C41491C5B1EA6
:100570006145F2DD410004AB5A522104120C0A43DA
:10058000240C401C0828DFDB01980290009970467B
:1005900001910090059B049A0799069800F09EF936
:1005A000D0E700000DFCFFFFF0B50C465C4085B0C5
:1005B000E40FE40703944C000026640859009446B5
:1005C000490802460296224321D062460A431ED0C1
:1005D0006200570D4A000E032303550D0124024605
:1005E0002C492405781B1B0B360B4018234326434C
:1005F000614600901C46501AB44103D30098401C39
:10060000009002E0921800985B41002803DA002075
:10061000014605B0F0BD00200121090507468646C8
:1006200011E064461D46141BB54106D36546521BB6
:10063000B341744607430C43A646CD07400849081A
:10064000284392185B4105460D43EAD110461843F2
:1006500013D06046194650407140084306D06046AA
:10066000101AB34106D20122002306E00022012322
:10067000DB0702E00122D2435310009874460105C3
:10068000381C6141029C039D0019694100F019F971
:10069000BFE70000FD03000010B5002296231146BD
:1006A00000F0D6F810BD00000EB5054902910021FA
:1006B00000910A460B46019100F010F903B000BD0D
:1006C00033040000410040020122400AD205090E15
:1006D00080187F2901DA00207047962903DC9622D2
:1006E000511AC84070479639884070474A0009033C
:1006F0000123090B1B051943094B10B5520D9A42F2
:1007000001DA002010BD064B34339A4203DC9A1AFA
:1007100000F072F810BD03495118884010BD000068
:10072000FF030000CDFBFFFFC20FD20740004008CF
:100730000BD0C10D0723DB01C91840020905400A8F
:100740001143C2084007114370470020014670471B
:1007500010B5002904DB0124E40740428C41214606
:10076000002B04DB1C460123DB075242A3419942C4
:1007700000D1904210BD0000CB0FDB07490010B53F
:10078000490802460A4307D00A0D07240903E40179
:10079000090B121B002A01DC002010BDC900440F08
:1007A0000C43C100E018D205801800F049F810BDD4
:1007B0000122D207002800DB101A002900DB511AA1
:1007C000814270470122D207002800DB101A00295D
:1007D00000DB511A8842704710B5202A04DB01461D
:1007E000203A9140002010BD914020239C1A0346DE
:1007F000E3401943904010BD10B5202A04DB0846A1
:10080000203AD040002110BD0B46D340D0402024D8
:10081000A21A91400843194610BD10B5202A06DBE4
:10082000CB170846203A1041C1170B4306E00B4690
:100830001341D0402024A21A91400843194610BD0C
:10084000002904DA401C490001D1400840007047EB
:1008500070B40024050C05D11024000402D1002935
:1008600021D01124050E01D100020834050F01D159
:100870000001241D850F01D18000A41C002801DB8C
:100880004000641C002908D020252E1B0D46F54091
:10089000A14000D001212943084301061B1B000A87
:1008A000DB1D02D5002070BC7047DB0518188018CE
:1008B0000029F8DA401C4900F5D170BC400840001E
:1008C000704710B5002B08DA0024401C61419218D3
:1008D0005B411A4301D14008400010BDF0B51FB480
:1008E00082B005460C0003D0084600F0F9FF02E094
:1008F00000F0F6FF20300246009021462846FFF720
:100900006BFF049B059A04460F46184311430843A6
:1009100014D0184610431BD0009840210A1A1846DC
:100920000599FFF769FF05460E46009A0599049858
:10093000FFF752FF084305D0012004E02046394666
:1009400007B0F0BD0020C11705430E432C433743C9
:1009500000990E986305401A7905E40A00220C43B9
:10096000FD0A0A3002D500200146E9E70105101909
:1009700069410C9C0D9D00196941FFF7A2FFDFE75B
:1009800070B54B005B0803430BD04B005C0D002699
:1009900033466542B341D417AD1AA34102DB0020B0
:1009A000014670BD12053018514170BD0EB5C21719
:1009B000C10F5040CA0740180021054B0293019215
:1009C00000910A460B46FFF789FF03B000BD000007
:1009D0003304000010B5002904DB0124E407404281
:1009E0008C412146002B04DB1C460123DB075242CD
:1009F000A3418B4200D1824210BD0000064C01256C
:100A0000064E05E0E36807CC2B430C3C98471034B6
:100A1000B442F7D3FFF752FB70330008903300085D
:100A200030B50907090F08290CDAC36D8D000F24B2
:100A3000AC40A343C365C36D8D001446AC40234353
:100A4000C3650FE0036E0C46083CA5000F24AC40C4
:100A5000A3430366036E0C46083CA5001446AC4055
:100A60002343036630BD002904D0826E01231A435C
:100A7000826603E0826E52085200826670470F2938
:100A800000DD0F2141667047012904D1426901232D
:100A90001A43426103E0426902231A4342617047EC
:100AA000002904D0426801231A43426003E04268EF
:100AB00052085200426070470246012902D1506933
:100AC000084070475069022318404008F9E70000C9
:100AD00042680B4B1A4042600B684A681A434368ED
:100AE0001A4342608268074B1A4082600B694A6968
:100AF0001A438B681A4383681A4382607047000068
:100B00000FBCFFFF8FF1F9FF002905D08268FF239A
:100B100001331A43826004E08268FF2301339A4361
:100B20008260704700210160416081600173016152
:100B30004161704742680F239B029A4342604268BA
:100B40000A4342607047000000B587B001210320CE
:100B5000400400F0F5FA06A800F05FFA2B49684659
:100B60000183012181760021C17606A90920C006F2
:100B700000F0EEF903216846018306A9244800F03D
:100B8000E7F90121480200F0EBFA01A8FFF7CAFFDC
:100B9000002001907020029001204002039000206C
:100BA0000690059001A91B48FFF792FF07218902D3
:100BB0001848FFF7BFFF01211648FFF771FF00211A
:100BC0001448FFF750FF04211248FFF758FF002296
:100BD00011461048FFF724FF012211460D48FFF788
:100BE0001FFF062202210B48FFF71AFF07220321ED
:100BF0000848FFF715FF052204210648FFF710FFFC
:100C000001210448FFF72FFF07B000BD84800000DA
:100C1000000400480024014010B564201249086017
:100C20007D21C90011480068FFF780FA0446601E64
:100C30000F49884201D901200CE0601E0D4948612E
:100C40000321081F00F064FE00200A498861072084
:100C500008610020002801D000BFFEE70021481EE7
:100C600000F056FE10BD0000200000200000002013
:100C7000FFFFFF0000E000E001B5044900980860B4
:100C800000BF024800680028FBD108BD1C000020FE
:100C900070B506460C4621460A4800F0EAF80546BB
:100CA000002D01D1401E70BD0648854202D1064884
:100CB000051B00E02D1B224629463046FFF760FA4F
:100CC0002046F0E7003C00080044000870B50546E7
:100CD0000C4622460249284600F08CF8204670BD9A
:100CE000003C000810B5044608480069022108438A
:100CF00006490861084644610069402108430349E8
:100D00000861034800F0F4F810BD00000020024024
:100D1000FF0F00000C48C068C007C00F002801D0BA
:100D2000012070470848C06804210840002801D00D
:100D30000220F6E70448C06810210840002801D0CE
:100D40000320EEE70420ECE700200240034800699E
:100D500080210843014908617047000000200240DB
:100D600030B504460D460548006901210843034992
:100D7000086125800F2000F0BBF830BD0020024044
:100D800010B5044600F0A8F82046FFF7ABFFFFF7C8
:100D9000DDFF10BD70B503460125002208E05000BC
:100DA0001C5A0748844201D0002506E0501C82B23C
:100DB000CE0F761876109642F1DC00BF284670BD43
:100DC000FFFF0000F8B505460E46144600F084F813
:100DD000002707E029883046FFF7C2FFB61CAD1C8C
:100DE000781C87B2E10F09194910B942F2DCFFF70C
:100DF000ADFFF8BDF8B507460C4615462946204616
:100E000000F037F80646002E0DD12046FFF7B8FF58
:100E1000012080022018FFF7B3FF2A4621463846FA
:100E2000FFF7D0FF24E0012080022018401BB042D1
:100E30000AD1012080022018FFF7A2FF2A4631467E
:100E40003846FFF7BFFF13E00120C0022018401B07
:100E5000B04208D12046FFF793FF2A463146384674
:100E6000FFF7B0FF04E02A4631463846FFF7AAFFF5
:100E7000F8BDF8B505460E462F46E807C00F002816
:100E800001D000BFFEE731460120C002FFF764F940
:100E9000002901D000BFFEE700240BE0204670438C
:100EA000471931463846FFF775FF012800D108E0A1
:100EB000601C84B231460120C002FFF74DF9A04208
:100EC000ECDC00BF31460120C002FFF745F9A0422B
:100ED00000D100273846F8BD02480349486003485E
:100EE000486070472301674500200240AB89EFCD81
:100EF00010B5024600BFFFF70DFF0346521EFF2448
:100F000000E0641E002CFCD1012B01D1002AF2D19B
:100F10000020054908613420C860002A01D105205D
:100F200010BD1846FCE70000002002401CB5002060
:100F300000900190FF216846017041708170C1707E
:100F4000017141718171C1710821FFF7BFFE1CBDA4
:100F5000F8B50246CD782F073F0FCD7810263540E3
:100F6000002D01D08D782F431446002011E0850616
:100F70002B0E0D88012686403540002D07D02568B0
:100F80000F269E40B5433E469E4035432560451C96
:100F9000E8B20828EBDB141D0D882D120095002007
:100FA00011E085062B0E01258540009E3540002D61
:100FB00007D025680F269E40B5433E469E403543E8
:100FC0002560451CE8B20828EBDBCD78282D04D13C
:100FD00055690E883543556106E0CD78482D03D11B
:100FE00015690E8835431561F8BD70B54D07EB0ED8
:100FF000082902DA0546203501E0054624352C464D
:101000000F269E402568B54316469E403543256011
:1010100070BD41617047016170470021C943018083
:10102000022181700421C1707047000010B50121B8
:101030001148FFF769FD00BF01210F48FFF73CFD94
:101040000028F9D001210C48FFF71EFD0A488069ED
:101050000A4908800848C069094908800648406B69
:10106000084908800448006B074908800248C06AA4
:101070000649088010BD000000240140BC0000208B
:101080002C0100209C0100200C0200207C0200208A
:101090001CB5044600200090019008216846FFF727
:1010A000F7FD6846007855280FD101214B200155E6
:1010B0006846407801026846807808186063606B73
:1010C000A063606BFFF7E8FAA0621CBD08B50121C0
:1010D000480400F035F86846FFF79FFF0121684695
:1010E000018081701021C17069460920C006FFF798
:1010F0002FFF01210920C006FFF78BFF01200149C6
:10110000087008BD1900002008B50121480400F04E
:1011100017F86846FFF781FF0121C9026846018080
:10112000012181701021C17069460920C006FFF7B6
:101130000FFF0121C9020920C006FFF76CFF08BD9F
:10114000002905D0054A52690243044B5A6104E064
:10115000024A52698243014B5A61704700100240B3
:10116000002905D0054AD2690243044BDA6104E044
:10117000024AD2698243014BDA6170470010024093
:1011800000B500F01FF804494968F0221140090930
:10119000024A515CC84000BD00100240A50000207A
:1011A00000B5FFF7EDFF054949680722120211401B
:1011B000090A034A515CC84000BD0000001002400B
:1011C000A5000020094949680C221140042905D0D6
:1011D000082905D00C2905D1054805E0054803E09C
:1011E000054801E0034800BF00BF704700100240FF
:1011F000409C000000127A00006CDC0200BF054930
:101200008968C907C90F0029F9D0C1B2014A116024
:101210007047000000380140FEB504461749E06BF6
:10122000884201D10520E063E06BFFF735FA0746FD
:10123000A068FFF731FA39460190FFF75BF80546E1
:10124000E16B481EFFF728FA0190E06BFFF724FAE4
:101250000090606C0099FFF74DF807460199FFF781
:101260000CF806462946FEF7AFFF6064606CFFF796
:1012700029FA2064E06B401CE063FEBD59020000C7
:1012800010B500F001F810BD0020234909680122C3
:101290001143214A116000BF1F4909680222114011
:1012A0000029F9D01C490968D20491431A4A1160F7
:1012B0001146096804229143174A11601121174A07
:1012C00011601549496889088900134A5160144919
:1012D000096870221140002919D112490968124A7F
:1012E000914204D00F490968104A91420FD10A492E
:1012F000496802221143084A516005E006494968DD
:101300008905080E8007800F0228F7D102E00849FE
:10131000084A11607047000000100240002002409F
:1013200000ED00E000340140D15043CCD150438C5B
:1013300000127A00000000207CB5044600200090D6
:10134000019055254B20005D01280AD168460570A3
:10135000A08E0004010E68464170A08EC1B268469E
:1013600081704C20005D01280AD16846C570208F2D
:101370000004010E68460171208FC1B268464171B8
:1013800008216846FFF7A2FC7CBD10B50446802109
:101390002046FEF70EFF0120E062E0636321482053
:1013A000015501214920015500F040FF10BD10B545
:1013B00000F074F910BD000010B5FFF72DFC64209B
:1013C000FFF75AFC00F02AF9FFF79EFE02202049A1
:1013D000087081020920C006FFF71BFE7D20C000B7
:1013E000FFF74AFC0121C9020920C006FFF713FEDE
:1013F0007D20C000FFF740FC0121C9020920C00682
:10140000FFF707FE7D20C000FFF736FC0121C9026F
:101410000920C006FFF7FFFDFFF796FBFFF756FE1A
:1014200000200C490870E120000200F0C5F90A48CC
:10143000002101604160816060210848FEF7B9FE2B
:1014400001F046FB7F217E2000F038FA10BD00003D
:10145000140000201900002018040020B803002008
:1014600010B50F480068012108430D49086008467F
:1014700040680C4908400A494860084600680A4923
:10148000084007490860084600680121890488432C
:10149000034908609F2000048860FFF7F1FE10BD3B
:1014A000001002400000FFF0FFFFF6FE10B5012122
:1014B000234800F069F8002841D000BF0C2015E057
:1014C000411E89001F4A515800290DD0411E890034
:1014D0005158491C002907D0411E89005158491E06
:1014E000421E9200174B9950411EC8B20028E7DCFB
:1014F00000BF00BF1348006800280AD101F0F8FBC4
:10150000044601E00F4804600E480068A042F9D18B
:1015100000BF00BF00BF0B48006A00280AD101F0DD
:101520001BFB044601E0074804620648006AA0422B
:10153000F9D100BF00BF0121014800F015F810BD2E
:101540000040014024040020002904D002688023C8
:101550001A43026003E0026880239A4302607047E6
:1015600002698A430261704702698A4302617047D7
:10157000002904D0026801231A43026003E00268D4
:101580005208520002607047024610690840002865
:1015900005D0D0680840002801D001207047002005
:1015A000FCE7002A03D0C3680B43C36002E0C368B2
:1015B0008B43C36070470000026803231B029A43F9
:1015C0000B891A4302600E4A904202D00D4A9042A3
:1015D00005D1026870239A438B781A430260084A47
:1015E000904205D1026B120A12028B7A1A430263EF
:1015F0004A68C2620A888262012242617047000022
:10160000002C0140000400400021C943416000213A
:101610000180018181708172704700001FB5012136
:101620000820FFF79DFD01A8FFF7EEFF1748029085
:10163000174918480068FEF779FD401E81B26846D8
:101640008180002181818173817101A91248FFF796
:10165000B3FF01211048FFF777FF01210E48FFF784
:101660007FFF012211460C48FFF79BFF13216846BC
:10167000017000214170032181700121C17000F0CF
:101680001FFC01210448FFF773FF1FBDE7030000A3
:1016900040420F0000000020004001400448006864
:1016A000002804D002480068401E014908607047C5
:1016B0001C00002010B502210C4800F025F800287D
:1016C00012D00A4800F066F809490A4A127888548C
:1016D00000200949087007480078632804DA0548A3
:1016E0000078401C0349087010BD0000003801401C
:1016F00050030020240000202500002082695208A9
:1017000052000A43826170470246D06808400028B0
:1017100001D0012070470020FCE7002A03D00369B4
:101720000B43036102E003698B430361704770B5AB
:1017300004460D460026E069302188432979084394
:10174000E061E06944218843A9790843E061E069E8
:1017500080088000297A0843E061A0691821884345
:1017600069890843A061A06904218843297B084353
:10177000A061FFF715FD064630462968FEF7D6FC46
:101780000009206230462968FEF7D0FC0007000FF0
:10179000606270BD01464868C0B270474B21C90104
:1017A0000160302101710021817101721821418194
:1017B000002101737047000010B586B00446012176
:1017C0000804FFF7CDFC01214804FFF7B9FC012212
:1017D00003210920C006FFF708FC01220C21092083
:1017E000C006FFF702FC01A8FFF7D8FF01943021E3
:1017F0006846018100214181818101821821C181D6
:1018000001A91948FFF793FF01211748FFF776FF59
:1018100005A8FFF702FC0121090368468182012126
:1018200081751821C17505A90920C006FFF790FB35
:101830000821684681820421C17505A90920C006D6
:10184000FFF786FB1B2168460170012141700021D2
:1018500081700121C17000F033FB01220221024896
:10186000FFF75BFF06B010BD003801408021014347
:10187000014A116070470000002C00404106490EEB
:10188000014A116070470000002C0040044949687B
:10189000FF22813291430143014A516070470000A9
:1018A000002C004004494968C909C9014206520E8A
:1018B0001143014A51607047002C004070B5054645
:1018C0000C460121C802FFF74BFCFF208130FFF7D7
:1018D000DDFF2046FFF7E6FF2846FFF7C7FF70BD94
:1018E0002021020C01D010211046020A01D010461E
:1018F0000839020901D01046091F820801D010469C
:10190000891E420801D0881E7047081A70470000DF
:1019100010B5002819DB1A4A03231B02D2188308CA
:101920009B00D2588307DC0EFF23A3409A438B070A
:101930001B0E8407E40EA3401A43114B0324240218
:101940001B198408A4001A5118E00E4A03071B0F44
:10195000083B9B089B00D2588307DC0EFF23A34063
:101960009A438B071B0E8407E40EA3401A43054BD2
:101970000407240F083CA408A4001A5110BD00005D
:1019800000E100E01CED00E0F8B504464F1EC80081
:101990000838211815461E46086849683A46062345
:1019A0009A4310D02A463346FEF796FD3A46D200B7
:1019B000083AA3181A687F1E5B68FEF7D9FC062256
:1019C0003B469343EED1022F23D0042F11D0062F94
:1019D0002FD12A463346FEF77FFDE36AA26AFEF75F
:1019E000C7FC2A463346FEF777FD636A226AFEF794
:1019F000BFFC2A463346FEF76FFDE369A269FEF796
:101A0000B7FC2A463346FEF767FD63692269FEF795
:101A1000AFFC2A463346FEF75FFDE368A268FEF797
:101A2000A7FC2A463346FEF757FD63682268FEF797
:101A30009FFCF8BD002210B5134610460149FEF781
:101A4000B3FD10BD0000F03F10B50122FEF798FF76
:101A500010BD002210B5134610461146FEF7A4FD36
:101A600010BD02E008C8121F08C1002AFAD1704751
:101A70007047002001E001C1121F002AFBD170470E
:101A80000149086070470000B800002010B5B9484F
:101A90000078BC287ED062E1FFF7C8FAB64801881A
:101AA000B64800784200B44808308152B4480188F2
:101AB000B24800784200B24808308152B1480188EB
:101AC000AE4800784200AF4808308152AE480188E5
:101AD000AA4800784200AC4808308152AB480188DF
:101AE000A64800784200A948083081523221A34814
:101AF0000078401CFEF730FBC8B2A04908700020F7
:101B00009D49C8669E49C8669E49C8669E49C86682
:101B10009E49C866984800899749888048809848B7
:101B2000008997498880488096480089954988802F
:101B30004880954800899449888048809348008966
:101B40009249888048800020BCE08B494300CA6EDF
:101B50000831C95A5118884AD16689494300CA6E6A
:101B60000831C95A5118864AD16686494300CA6E5F
:101B70000831C95A5118834AD16683494300CA6E55
:101B80000831C95A5118804AD16680494300CA6E4B
:101B9000083100E0E2E0C95A51187C4AD16642009F
:101BA00075490831895A744A5288914206DD4200CB
:101BB00071490831895A704A51800DE042006E49DE
:101BC0000831895A6C4A9288914205DA42006A4982
:101BD0000831895A684A9180420069490831895A16
:101BE000674A5288914206DD420065490831895AA8
:101BF000634A51800DE0420061490831895A604AC8
:101C00009288914205DA42005D490831895A5C4A5E
:101C1000918042005B490831895A5A4A5288914260
:101C200006DD420057490831895A564A51800DE075
:101C3000420054490831895A524A9288914205DA41
:101C4000420050490831895A4E4A918042004E491B
:101C50000831895A4C4A5288914206DD42004A496D
:101C60000831895A484A51800DE0420046490831FE
:101C7000895A454A9288914205DA42004249083120
:101C8000895A414A9180420040490831895A3F4A65
:101C90005288914206DD42003C490831895A3B4A4C
:101CA00051800DE0420039490831895A374A9288FB
:101CB000914205DA420035490831895A334A918008
:101CC000411CC8B2322800DA3FE72B49C96E2A4AC4
:101CD0005288891A284A9288881A3021FEF726FAF3
:101CE0002549C8802649C96E254A5288891A244A3E
:101CF0009288881A3021FEF719FA2149C8802149B3
:101D0000C96E204A5288891A1E4A9288881A302140
:101D1000FEF70CFA1B49C8801B49C96E1A4A528843
:101D2000891A194A9288881A3021FEF7FFF9164954
:101D3000C8801649C96E154A5288891A134A928872
:101D4000881A3021FEF7F2F91049C88000F0CBFF65
:101D500000BFBC20074908700A2010BD00BF0C4816
:101D60000068002800D097E600BF00BF0149087056
:101D7000401EF2E718000020BC00002017000020E1
:101D80002C0100209C0100200C0200207C0200207D
:101D90002800002010B53C480078EE2868D068E0A4
:101DA00000F0DEFF3948816DC06D03220023511A17
:101DB000834148D23648006835494968884204D290
:101DC000632133484030417237E031484030007B76
:101DD000002820D12F480078401C2E490870084662
:101DE000007807280ADA2A48806B294989688842DE
:101DF0001AD2274880682649886315E008202549BB
:101E00000870234908692449FEF7D2FC0CD2204807
:101E100000F0BCFF08E01E4908691F49FEF7C8FC36
:101E200002D21B4800F0B2FF1948FFF7F5F9184835
:101E300000F08CF8164800F00DFF154800F0E4FDA6
:101E4000134800F087FD12484030C07A002803D1C3
:101E500003201249087002E000201049087000F0C9
:101E600042FF00BFEE20084908707D20C00010BD71
:101E700000BF0B480068002892D100BF00BF024994
:101E80000870401EF3E70000A3000020B803002004
:101E900054040020A200002000004C421400002046
:101EA0002800002010B502460B461078012103E0FF
:101EB000545C60404C1CE1B29942F9DB10BD00005B
:101EC000C178002925D01749032212028918027807
:101ED00092109200895802789207D30EFF229A40FE
:101EE000914382789207120E03789B07DB0E9A408B
:101EF00011430C4A03231B02D21803789B109B004A
:101F0000D1500178CA06D20E01219140054A1160D4
:101F100007E00178CA06D20E01219140014A8032C1
:101F20001160704700E100E030B502460B46FF202B
:101F3000002105E0545C4440034D285D4C1CA1B2D7
:101F40009942F7DB30BD00002C320008F0B58FB0AD
:101F5000044600200E9009900890A068FEF79CFBB4
:101F60000E90606C0D90A06BFEF796FB0C9000201D
:101F70000C99FEF71DFC01D10FB0F0BD6068FEF7B3
:101F800093FB03910290A068FEF78EFB01910090F5
:101F9000039B029AFEF708FB05910490FEF7ECFB09
:101FA0000990A26B2168881AFEF77EFB03910290CC
:101FB000A06BFEF779FB01910090039B029AFEF75C
:101FC000F3FA05910490FEF7D7FB08906068FEF7DE
:101FD0006BFB03910290206CFEF766FB0191009071
:101FE000039B029AFEF7E0FA05910490FEF7C4FB0A
:101FF0000B90A26B2168881AFEF756FB03910290A2
:10200000A06BFEF751FB01910090039B029AFEF733
:10201000CBFA05910490FEF7AFFB0A900899099856
:10202000FEF768F972490590FEF727F906460A9906
:102030000B98FEF75FF96E490590FEF71EF907460B
:102040006C493846FEF7BEFB00D26A4F6A493046FB
:10205000FEF7BAF839460590FEF7AAFB17D24A20D8
:10206000005D002813D165480078401C6349087062
:102070000846007802280FDD6148007800280BD15F
:1020800001214A20015501205D49087004E000202B
:102090005A4908705A490870079706964A20005D09
:1020A000012835D1574801880088401C554A1080C6
:1020B000782912DD00214E2001553546204600F0DA
:1020C000FDFD00214A20015500204C4908704C4973
:1020D000087048484C4908601EE04B480699006863
:1020E000FEF766FB02D24848056804E046490698B8
:1020F00008600846056845492846FEF763FB00D29C
:10210000424D43490698086002214E20015503E0E4
:102110003D4600203B49088031463846FEF748FBE3
:1021200004D24A20005D002800D135467F21C90530
:1021300038480068FEF746FB08D236487F21C905BB
:1021400005680068FEF791F8324908602949284679
:10215000FEF738FB01D2274D2DE02F492846FEF728
:1021600031FB00D227E02D492846FEF72BFB0DD28C
:1021700029462948FEF779F829490490FEF77DF8A9
:1021800025490590FEF775F8054614E025492846CF
:10219000FEF718FB0DD229461F48FEF766F82249C4
:1021A0000490FEF76AF81C490590FEF762F80546B0
:1021B00001E07F25ED052846FEF784FAC1B24820EC
:1021C0000155005D632802DD632148200155482048
:1021D000005D012802DA0121482001554820005DF8
:1021E0006421081AC1B24920015500BFC4E60000AD
:1021F0000000C8420000C6420000A040A00000202D
:10220000A10000208E0000209C0000200000B442AD
:1022100098000020940000200000AA4200008C4298
:102220003333134000005C4266662640A5200C490B
:102230000870487012208870B420C870002008719F
:10224000A0204871322088710020C871087248723D
:10225000C8720873887248738873C87308747047AB
:10226000D404002010B517480078242813D029285A
:102270001DD01DE000F037FD1348007800280BD179
:1022800001210920C006FEF7C6FE00BF24200D492B
:102290000870642010BD0BE001210920C006FEF784
:1022A000B8FE00BF2920074908706420F2E700BF8C
:1022B000064800680028DDD100BF00BF0149087052
:1022C000401EE7E71A000020190000202800002027
:1022D00010B53B48007833284BD006DC272819D0AE
:1022E0002C2827D0312804D135E038284ED03A2880
:1022F00059D05BE03348007800280CD10121C90295
:102300000920C006FEF787FE00BF27202C49087071
:10231000642010BD48E02B48007801280BD1C10291
:102320000920C006FEF775FE00BF2C202449087066
:102330006420EEE738E02348007802281AD18102B1
:102340000920C006FEF765FE00BF31201C49087059
:10235000FF20F530DDE700BF0121C9020920C006DA
:10236000FEF759FE00BF332015490870FF20F530F5
:10237000CFE719E00121C9020920C006FEF749FE96
:1023800000BF38200E490870C820C2E700BF0121F5
:10239000C9020920C006FEF73EFE00BF3A200849E8
:1023A0000870C820B5E700BF00F09DFC0648006833
:1023B00000289FD100BF00BF01490870401EA8E758
:1023C00015000020140000202800002070B50446ED
:1023D0002078A52802D16078A52801D0012070BD01
:1023E0000721A01CFFF7A0FD05466079344908705D
:1023F000607AA84261D108460078A02804D0A128BC
:102400004CD0B02857D128E0A0792E490870E07947
:102410002D490870207A2D4908702B480078FA2839
:1024200003D102202A49087006E027480078F028E6
:1024300002D1002026490870A0792649C873207A65
:1024400008740F212348801CFFF76EFD2149487452
:102450001221204800F076FC2EE0A0791E49087079
:10246000A5201E49087048700A208870B420C870E2
:1024700000200871B020487117480078887100204A
:10248000C871087207211548801CFFF74DFD1349DC
:1024900048720A21114800F055FC0DE0282110482F
:1024A000FFF742FD0E491E3188722B210C48801E19
:1024B00000F048FC00E000BF00BF00208FE70000F4
:1024C0004D00002085000020840000208C000020AA
:1024D00014000020D4040020830000204E000020BF
:1024E0005A000020F0B5C54A00248FB091420ADAA4
:1024F0004B005B08934206D801254A006D05EA426D
:1025000005D1002803D0FFF79FFA0FB0F0BD0125D9
:102510002D05A94219DA034308D0002910DA012059
:10252000FFF7AEFAFFF795FA0FB0F0BD0220FFF704
:10253000A7FAFFF77FFA0122D20751400FB0F0BD92
:102540003524E4433622FEF71BFA0A15AC4B121968
:10255000D4180A03120BAB49AB4B56182E40314628
:10256000594011430192321512190B920022FDF7C6
:10257000A4FF019A0446921C1003A44E000B0D46C2
:102580007E44032860D2204673683268FEF722FA40
:102590001CD10B98002815D0FEF708FA04460E4609
:1025A0009B4A9C4BFDF798FF0D4607469A4A9B4B6A
:1025B00020463146FDF790FF3A462B46FDF7D8FE00
:1025C0000FB0F0BD716830680FB0F0BD944A954B04
:1025D00020462946FDF780FF0022934BFDF773FF4D
:1025E00006460F4622462B4610461946FDF774FF55
:1025F00032463B46FDF770FF06460B980F46002813
:102600001DD0FEF7D3F9824A824B05910490FDF765
:1026100063FF32463B46FDF756FF22462B46FDF749
:102620004CFF04460D467C4A7C4B05990498FDF707
:1026300053FF22462B46FDF740FF0FB0F0BD0B467F
:10264000324620462946C4E0012300229B0720464B
:10265000FDF78EFE02460B4620462946FDF7A4FFF5
:1026600006460F460B98FEF7A1F932463B46059108
:10267000049010461946FDF72FFF09910C906B4905
:102680000198099B421800920C9A19461046FDF7D2
:1026900023FF024607910A90654901980B1A654885
:1026A000019303217844079BFFF76EF9079B0A9A71
:1026B000FDF712FF0E905F480D9104217844079BAF
:1026C0000A9AFFF761F9099B0C9AFDF705FF019B38
:1026D000009A1A4300920D9B0E9AFDF749FE009A4C
:1026E00001910C90002A4DDD0022D243204629465C
:1026F000FEF746F922462B46FDF7EEFE00910A90C2
:102700000B9800282BD0424A424B05990498FDF7BC
:10271000E3FE07910E90019B0C9A00990A98FDF731
:1027200027FE32463B46FDF7D7FE079B0E9AFDF784
:102730001FFE009B0A9AFDF7C6FE22462B46FDF7B8
:10274000BCFE04460D46344A344B05990498FDF707
:10275000C3FE22462B46FDF7B0FE0FB0F0BD019B35
:102760000C9A0A98FDF704FE32463B46FDF7B4FE8C
:10277000009B0A9AFDF7A7FE22462B46FDF7A3FE13
:102780000FB0F0BD0B98002827D0214A214B0599A6
:102790000498FDF7A1FE0791009020462946019B71
:1027A0000C9AFDF78AFE32463B46FDF795FE079BE5
:1027B000009AFDF782FE22462B46FDF77EFE044678
:1027C0000D46154A154B05990498FDF785FE2246DE
:1027D0002B46FDF772FE0FB0F0BD0B462046294692
:1027E0000C9AFDF76AFE32463B46FDF775FE22461F
:1027F0002B46FDF768FE0FB0F0BD00000000F07F33
:1028000001FCFFFF645F09000000F03FE40D0000E1
:10281000763C7935EF39EA3D0000E0FE422EE63F96
:10282000555555555555D53F0000E03F86EBF9FF0E
:1028300051B80600880C0000FEF7BEFD87E000BF1F
:102840004348406800280AD1FFF742FD044601E0F2
:102850003F4844603E484068A042F9D100BF00BFF5
:1028600000BF3B48806800280AD1FFF7FBFC044604
:1028700001E03748846036488068A042F9D100BF43
:1028800000BF00BF3248C06800280AD1FFF7FEF839
:10289000044601E02E48C4602D48C068A042F9D12A
:1028A00000BF00BF00BF2A48006900280AD100F01D
:1028B00093FB044601E02648046125480069A042D4
:1028C000F9D100BF00BF00BF2148406900280AD1EC
:1028D00000F00EFA044601E01D4844611C484069BE
:1028E000A042F9D100BF00BF00BF1948806900288D
:1028F0000AD1FFF74FFA044601E0154884611448F5
:102900008069A042F9D100BF00BF00BF1048C06974
:1029100000280AD100F06AF9044601E00C48C461BD
:102920000B48C069A042F9D100BF00BF00BF0848F2
:10293000006A00280AD100F05BFC044601E004486C
:1029400004620348006AA042F9D100BF00BF76E7E5
:1029500024040020F0B585B00446FF2004907F20B9
:10296000C0050290A068FDF797FE00900299FDF760
:10297000C1FC0746FDF7A6FE0546A06BFDF78CFEE1
:1029800000900299FDF7B6FC0746FDF79BFE064650
:10299000206CFDF781FE00900299FDF7ABFC074625
:1029A000FDF790FE019016480078002801D005B090
:1029B000F0BD4921085DFDF76FFE03900398FDF718
:1029C00081FE104988712804000E08724D7230048F
:1029D000000EC8720E734E20005D8872A08E000437
:1029E000000E4873A08E88730F210648801CFFF7E5
:1029F0009BFA049003490498487400BFD7E700008D
:102A000030000020D404002070B50446FF2155207A
:102A100001554920065D5620065520890004010E07
:102A200057200155217A58200155208F0004010EAE
:102A300059200155208FC1B25A200155A08E0004A3
:102A4000010E5B200155A08EC1B25C200155002112
:102A50002069FDF7B7FE01D2012100E000215D20D1
:102A6000015500212069FDF7ADFE01D2206903E088
:102A700000202169FDF7F9FB0546FDF723FEC1B2F1
:102A80005E200155A06AFDF71DFE85B2E817000E15
:102A900040190004010E60200155A06AFDF712FEE6
:102AA00085B2E817000E401900120002281AC1B2C0
:102AB000612001556069FDF705FEC1B26320015533
:102AC0000F2120465530FFF7EDF96421085570BD00
:102AD00010B50348FEF759FC0148FEF7D9FA10BDBE
:102AE0005404002019490978FA290DD101225321F3
:102AF0000A541749174A11805421095C002923D12F
:102B0000012254210A541FE010490978F0291BD1F1
:102B10005421095C012917D10E490988491E0D4A23
:102B2000118011460988022904DA002253210A542F
:102B300054210A54816B0A3182688A4204D20022ED
:102B400053210A5454210A54704700008C0000207D
:102B5000AA0500009000002010B51E4800789228B9
:102B60002CD02CE01C480078052805DA1A4800789B
:102B7000401C194908701BE017480078052817D138
:102B8000642216491648FDF7FBFA64211348FDF745
:102B900010FB0020134908700F480078401C0E49B4
:102BA00008700F48FFF712FC64210D48FDF701FB88
:102BB00000BF922007490870012010BD00BF0A48DD
:102BC00000680028CED100BF00BF02490870401E37
:102BD000F3E700002E000020250000205003002015
:102BE000EC020020240000202800002010B5154829
:102BF000007801281BD01BE01348826DC06D0321B3
:102C00000023891A834109D2002405E00F49085D99
:102C1000FEF7F4FA601CC4B2102CF7DB00F063F886
:102C200000BF0120074908707D20C00010BD00BF13
:102C3000074800680028DFD100BF00BF01490870C5
:102C4000401EF3E7A4000020B8030020A9040020E0
:102C50002800002070B50446206AFDF765FD054692
:102C6000144A154BFDF774FD22D24920005D05285A
:102C700002DB6068002814D18321C9052069FDF7B3
:102C8000A3FA06466169FDF7F0FA0546FDF71AFD5D
:102C9000C1B249200155005D142802DD14214920EC
:102CA00001554920005D322802DD142149200155DB
:102CB00070BD0000333333333333F73F10B5044670
:102CC000A068FDF7E9FC60640120E063A068FDF7FF
:102CD000E3FC206701214F200155062150200155BA
:102CE0000120A06610BD10B57E20FEF7C7FD10BD07
:102CF00010B511480078872812D012E00F48826D75
:102D0000C06D0021521C48410C498A65C865FFF717
:102D1000EAFF00BF8720084908707D20C00010BD71
:102D200000BF074800680028E8D100BF00BF024983
:102D30000870401EF3E7000016000020B8030020D2
:102D40002800002070B505460E46002404E0285DEA
:102D5000FEF754FA601CC4B2B442F8DB70BD000048
:102D60000848C06A084908600648406A4860054843
:102D7000806A88600348806B08620248006B0861C3
:102D800070470000B803002054040020FEB504463C
:102D90002046FFF7A7FE8A480078152812D10020A8
:102DA0008749087000214C2001554B200155FEF742
:102DB000BDF82046FEF7E9FA00214C2001554B20D2
:102DC000015538E07E48007851281FD100207C4909
:102DD0000870A06B002802D0606B002800D1FEBDF7
:102DE000A06AFDF76FFCA063616BA06B884202D9FB
:102DF000A06BA06301E0606BA06301214C20015532
:102E00004B2001552046FEF797FA14E06C480078F5
:102E1000552810D100206A4908706A49A06AFDF758
:102E20002CFA0646FDF74EFC606301214B2001554C
:102E30002046FEF781FA6449E06A884255D10120B4
:102E4000E06201212420015520696061A06BFDF73B
:102E500023FC0646A16AFDF7ABFC17D2A06BFDF779
:102E60001BFC0746A16AFDF704FA06465749FDF721
:102E700004FA0546A06BFDF70FFC07462946FDF74F
:102E8000A3F90646FDF71EFCA0631EE0A06BFDF74C
:102E900003FC0646A16AFDF795FC16D2A06BFDF770
:102EA000FBFB0746A16AFDF7E0F906464749FDF737
:102EB000E4F90546A06BFDF7EFFB07462946FDF751
:102EC000D4F90646FDF7FEFBA063616BA06B884258
:102ED00001D2606BA0633E49206B884205D301217B
:102EE0004C2001552046FEF727FA5320005D0028AC
:102EF00021D1E06AFDF7D0FB0746A068FDF7CCFBC7
:102F000039460190FDF7F6F90646E16A481EFDF7DD
:102F1000C3FB0190E06AFDF7BFFB0090A06A009937
:102F2000FDF7E8F907460199FDF7A7F93146029048
:102F3000FDF74AF9A062E1214901E06A884214D212
:102F40002420005D002810D1E06A88420DD24F2075
:102F5000005D002809D1A06AFDF7B4FBA063616B96
:102F6000A06B884201D2606BA0631A49E06A884274
:102F700017D14B20005D002813D101214B200155B2
:102F80001049A06AFDF779F90646FDF79BFB6063DF
:102F9000606BA0632046FEF7CFF9A06AFDF792FBB5
:102FA000A06321696069FDF703FC01D220696061BB
:102FB000E06A401CE062206B401C206300BF0EE70B
:102FC00083000020CDCCCC3D211C0000CDCC4C3D5D
:102FD000803A0900B80B0000F0B587B0734800785C
:102FE00062287DD0D6E0FF208005714908607149D4
:102FF000C888FDF751FB04466D4908686E49FDF726
:103000003CF905462146FDF775F969494860FF20FE
:103010008005C86088600A465168D068FDF76AF983
:10302000069065480699FDF728F907466349C88860
:10303000FDF732FB39460590FDF75CF9064631464F
:103040005F48FDF757F905465D49FDF70EF904465F
:10305000FDF738FB564908615649C888FDF71CFB47
:103060000590FDF761FB0646564A574BFDF734FACB
:103070000446FDF73BFB4E4908650A46126D534B6B
:10308000DB88D11A514AD288514B5A431046FDF77A
:103090004DF84749C8610A46126D4E4BDB88D11A7C
:1030A0004C4AD2884A4B5A431046FDF73FF84049F4
:1030B0000862C869FDF7F0FA07464749FDF71AF9B3
:1030C0000446FDF731FB0546FFF70CFA434A444B33
:1030D00001910090FDF700FA424A434B039100E052
:1030E00056E00290FDF744F905910490FDF744FB8A
:1030F0002F490863086AFDF7CFFA37490090FDF7BA
:10310000F9F80190FDF710FB0646FFF7EBF90446CE
:10311000324A334BFDF7E0F9324A334B03910290C8
:10312000FDF726F905910490FDF726FB2049486339
:103130002048C088C8622148C08848621D48C088AD
:103140001E49C988884206DD1A48C0881B49C988BB
:10315000401A174988621649C86AFDF79DFA054664
:103160001349886AFDF798FA06462946FDF7C2F822
:103170000446FF218905FDF780F80D498863FFF7B4
:10318000B2FD00BF622009490870642007B0F0BD9D
:1031900000BF00BF15480068002800D023E700BF2B
:1031A00000BF02490870401EF0E700002C0000201C
:1031B000B80300207C02002000F07F45BC00002006
:1031C00000409C4699999999999901409C01002049
:1031D000102700000C02002000007A441E3C0B293E
:1031E000DC8E36C092EA1AB1BFE3524028000020BC
:1031F00010B50C4800785C2809D009E07E20FEF765
:103200003DFB00BF5C20074908700A2010BD00BFCD
:10321000054800680028F1D100BF00BF01490870CF
:10322000401EF3E71B000020280000200065CAAF05
:10323000F1943B5E87E24D287613BCD96B0EA1C496
:103240009AFF5035EC8926431D78D7B2D6B31C7946
:103250002742ED8851349BFEA0C56A0FBDD8771276
:103260004C2986E33A5FF095CBAE0164C9AC0366A6
:10327000385DF2974E2B84E1BFDA7510A2C7680D56
:10328000533699FC2540EF8AD4B11E7B1F7AD5B006
:10329000EE8B244198FD5237690CA3C67411BEDB36
:1032A00085E04F2AF396395C0267C8ADF7923D5826
:1032B0000663CCA97015BADF81E44B2E9CF9563316
:1032C0006D08A7C21B7ED1B4EA8F20452144EB8E46
:1032D000D0B51A7FA6C36C0957329DF84A2F80E5F6
:1032E000BBDE7114CDA807623C59F6933E5BF491A6
:1032F000CFAA0560B9DC7316482D82E755309FFAD6
:10330000A4C16E0BD2B7187D2346E98CE88D224705
:10331000197CD3B66F0AA5C09EFB543183E6492CB5
:103320007217B8DD0461CEABF5903F5A0000000083
:1033300004FA97999999D93FAF788E1DC571CC3F02
:103340009FC678D0099AC33F935555555555E53FCB
:10335000599322942449D23FDE03CB966446C73F5B
:1033600044523EDF12F1C23F0000000000000000A6
:103370009033000800000020BC000000621A000822
:103380004C340008BC0000202C070000721A000812
:10339000006CDC02000000000000000001020304D9
:1033A00006070809000000000000000000000000FF
:1033B000000000000000000001000000000000000C
:1033C00000000000000000000000000000000000FD
:1033D0000000000000000000000000000000A5A5A3
:1033E0000AB400B000000000A5A52BB400A1313044
:1033F000303036343030323735305F414243444527
:103400004647484905060B1B000014141415050B0C
:1034100005030000F000000000000000F0000000C4
:10342000AA0500000000C642000000000000C642DD
:10343000000000000000000000010203040102037C
:0C3440000406070809000000000000005E
:04000005080000B53A
:00000001FF
