:020000040800F2
:100000005011002005020008A54F000867420008B3
:10001000A14F00087D1A000881560008000000006A
:10002000000000000000000000000000D54F0008A4
:10003000CD1A000800000000A94F0008D74F0008A3
:10004000855600081F0200081F0200081F02000852
:100050001F0200081F0200081F0200081F020008FC
:100060001F0200081F0200081F020008811A000872
:100070001F0200081F0200081F0200081F020008DC
:10008000911A00081F0200081F0200081F02000842
:100090001F0200081F0200081F0200081F020008BC
:1000A0001F0200081F0200081F0200081F020008AC
:1000B0001F0200081F0200081F0200081F0200089C
:1000C0001F0200081F0200081F0200081F0200088C
:1000D0001F0200081F020008715600081F020008D6
:1000E0001F0200081F0200081F0200081F0200086C
:1000F0001F0200081F0200081F0200081F0200085C
:100100001F0200081F0200081F0200081F0200084B
:100110001F0200081F0200081F0200081F0200083B
:100120001F0200081F0200081F0200081F0200082B
:1001300000F002F800F056F80AA090E8000C8244A3
:100140008344AAF10107DA4501D100F04BF8AFF280
:10015000090EBAE80F0013F0010F18BFFB1A43F0A5
:10016000010318477873000098730000103A24BF09
:1001700078C878C1FAD8520724BF30C830C144BF0C
:1001800004680C607047000000230024002500264E
:10019000103A28BF78C1FBD8520728BF30C148BFEA
:1001A0000B607047662907F00781642900F00C8115
:1001B000782900F04581732900F0C186002070473E
:1001C0001FB59DE8030000F0E5FB00F0C1FE040050
:1001D0000020002106F022FFE06000F0ADFB1FBD13
:1001E00010B510BD00F0D2FF1146FFF7E9FF06F091
:1001F000FDFB00F0F0FF03B4FFF7F2FF03BC01F0DA
:1002000021F800000948804709480047FEE7FEE75B
:10021000FEE7FEE7FEE7FEE7FEE7FEE7FEE7FEE7B6
:1002200004480549054A064B704700005D50000828
:1002300031010008500B002050110020500D00200B
:10024000500D002070B5064600F088FB056806F1E9
:100250000B0020F00704B4429CBF002070BD2B4669
:100260006A68BAB11068A04210D304F1080188424C
:100270003CBF5068586007D351681019416011683D
:10028000091B016058601460101D70BD1346526850
:10029000002AE7D12146284600F068FB0028DED17D
:1002A00070BD70B50446051F00F058FB0068002CB7
:1002B00014BF446870BD002C18BFAC423CBF204640
:1002C0006468F8D301680A18AA4218BF456003D1D0
:1002D0002A6805461144016028684119A1421CBFE3
:1002E0006C6070BD6168696021680844286070BDF9
:1002F000B2F120030AD5C2F1200320FA02F001FA7C
:1003000003F321FA02F140EA0300704721FA03F0F7
:100310004FF00001704700000FB41CB5074B06AA50
:100320007B4469460090059800F0D7FD002069469F
:1003300000F0E6FD1CBC5DF814FB0000DD0B0000C6
:100340000FB41CB50C0007AA009001D02044401E39
:10035000074B7B4469460190069800F0BEFD002CD7
:1003600003D06946002000F0CBFD1CBC5DF814FBF7
:10037000B50B000070B50C460546012A05D028785B
:10038000800600D5EA69002302E0012305E05B1C3A
:10039000934202D2E05C0028F9D1A869E618C01A9D
:1003A000A861286A184428622846AFF3008004E058
:1003B000D5E9012114F8010B9047B442F8D328463F
:1003C000AFF3008070BD00002DE9F0410646002427
:1003D00010687529314616A510D0AFF300800028AB
:1003E00002DA404213A507E031688A0701D512A559
:1003F00002E0490704D511A5012401E0AFF3008014
:1004000000210A2206F1240709E0B0FBF2FCB0FB50
:10041000F2F302FB1C00303078541846491C0028C7
:10042000F3D123462A463046BDE8F04100F0E8BA51
:10043000000000002D0000002B0000002000000044
:1004400070B504460D4621461068AFF30080218840
:10045000090502D50F4A7A4402E00E4A7A440E3268
:10046000002104F1240305E000F00F060009965D69
:100470005E54491C0028F7D120780023000704D5DA
:10048000702D02D009B1022311322046BDE8704020
:1004900000F0B6BAC66F00002DE9F0474FF0000A31
:1004A00089460446C0F820A02046E1688847002815
:1004B00076D0252806D0D4E901219047206A401C37
:1004C0002062F1E7E168204600258847C4F81CA0B7
:1004D00006460027C4F818A02A2E09D0304605F099
:1004E0003EFF38B304EB8708303EC8F8186019E0C7
:1004F00059F8041B204604EB87029161E1688847A4
:10050000012F064618D1E069002820DA25F02005E1
:100510001DE0D8F8180000EB800006EB40003038F2
:10052000C8F818002046E1688847064605F017FF1E
:100530000028EED1012F0AD02E2E08D12046E168E6
:1005400088477F1C0646022F45F02005C4DBA069C2
:10055000002803DA404245F00105A061E80701D018
:1005600025F01005B6B1A6F14100192802D82036B1
:1005700045F400654A463146204625604D46FFF762
:1005800011FE58B1012806D0ED1D25F0070000F13D
:10059000080989E704E005F1040985E730468AE7A0
:1005A000206ABDE8F0872DE9F04F9B4616464FF0D4
:1005B0000109C1B020910090A9F1010920A85DF8BE
:1005C000295050F82900C5E04FEA6A0070432C1802
:1005D0005FEACA7100D1801B5A4621462718284677
:1005E000904700280EDD304646EA0501890765D0B0
:1005F00022782978401E05F8012B04F8011BF7D159
:10060000AD1BA41B5A46394620469047002823DDDF
:100610005A4639462846904700280EDD304646EABD
:100620000501890751D03A782978401E05F8012B39
:1006300007F8011BF7D1AD1BBF1B304646EA04018A
:10064000890749D03A782178401E04F8012B07F831
:10065000011BF7D1A41BBF1B314646EA0402B81B9D
:10066000920740D003782278491E04F8013B00F835
:10067000012BF7D12C46871BB84634445A464146D5
:10068000204690470028F8DB5A464146BF1B3846B3
:1006900090470028F8DC304646EA0401A7424FEABA
:1006A00081712ED931B33A782178401E04F8012B9C
:1006B00007F8011BF7D1A41BBF1BDEE722682968DE
:1006C000001F04C502C4F9D19AE73A682968001FDF
:1006D00004C502C7F9D1AEE73A682168001F04C417
:1006E00002C7F9D1B6E703682268091F08C404C02D
:1006F000F9D1BFE73A682168001F04C402C7F9D1E5
:10070000D9E7E1B198F800202178401E04F8012BC8
:1007100008F8011BF6D1A21B501BB0FBF6F0401EDF
:10072000AAEB0001491E884216DD0A2910DD20AB24
:100730004DF8295043F8290009F1010918E0D8F8CB
:1007400000202168001F04C448F8041BF7D1E2E729
:100750000A2810DD824637E70A2807DD4DF82920F0
:1007600020AA42F8291009F10109F3E70A2902DD5C
:1007700015468A4628E7B9F1000F7FF41DAF41B056
:10078000BDE8F08F2DE9F04799460F460646140064
:1007900039D0002F37D00A2F01D9FFF704FF7F1E71
:1007A000354607FB04582CE02F46254400E03F1B4C
:1007B000B74205D34A462946384690470028F6DC1A
:1007C00044EA05003B1980070CD0002117E02918E6
:1007D0000A1B0F6802E011681151121B9A42FAD2EB
:1007E000001D1751A0420CD2F1E76818027801E011
:1007F00007780755001B9842FAD2491C0255A142BE
:10080000F3D34545D0D3BDE8F08710B5431C02E0D3
:1008100010F8011B71B18107FAD14FF0013202C803
:100820008C1A8C4314EAC211F9D0C01A0A0603D0FC
:10083000C01E10BDC01A10BD0A0401D0801E10BD1C
:100840000902FCD0401E10BD421E12F8013F002BD1
:10085000FBD111F8013B002B02F8013BF9D17047A5
:100860004FF0000200B5134694469646203922BF49
:10087000A0E80C50A0E80C50B1F12001BFF4F7AF94
:10088000090728BFA0E80C5048BF0CC05DF804EB76
:10089000890028BF40F8042B08BF704748BF20F8E4
:1008A000022B11F0804F18BF00F8012B7047000099
:1008B0004FF0013C50F8042B51F8043B9A4221D1EF
:1008C000A2EB0C03934313EACC1317D150F8042B7B
:1008D00051F8043B9A4215D1A2EB0C03934313EA5F
:1008E000CC130BD150F8042B51F8043B9A4209D198
:1008F000A2EB0C03934313EACC13DBD04FF00000C0
:10090000704700BFD01A01BAB1FA81F101F01801A5
:1009100022FA01F0CB40C1F12001DBB2C0B2C01A13
:100920002CFA01F3D11A914311EAC311E6D17047B1
:10093000704770477047000070B5064C7C44064D08
:100940007D4403E0206820448047241DAC42F9D157
:1009500070BD0000D86B0000D86B000000487047E5
:10096000F80A0020704770477047704738B5044652
:100970000A4600206946AFF30080002808BF38BD52
:1009800002460099204600F0E7FA012038BD012018
:1009900000F0F4BBF8B5AFF30080054600200C462C
:1009A000102000BF0646A819A0420DD9324669465C
:1009B0000020AFF30080070008BF00F0DFFB0098C5
:1009C000A04218BF0546C419FFF7C8FF05600746D7
:1009D000F01D20F007004619284600F00AF8B4423E
:1009E00008BFF8BDA21B31463868BDE8F84000F0EA
:1009F000B3BA00210160C0E90110704710207047B0
:100A00002DE9F0470D4699469246044600F1240828
:100A10000168880604D5E06921F01001216000E03A
:100A20000120A84201DD471B00E00027A1697A19D7
:100A300002EB0900081AA0612078C00602D4204603
:100A4000AFF30080002608E0D4E901211AF806007F
:100A50009047206A401C761C20624E45F4DB2078CB
:100A6000C0060AD52046AFF3008006E0D4E9012194
:100A700030209047206A401C2062381EA7F10107F1
:100A8000F4DC07E0D4E9012118F805009047206A5A
:100A9000401C2062281EA5F10105F3DC2046AFF3BF
:100AA00000802078000602D50220BDE8F0870120F2
:100AB000FBE770472DE9FF4F0C461E464FF0FF370E
:100AC0008BB0D2E90001DDF860800A908A46C1F35C
:100AD0000A5505B93D46002108464FF00000BAF11D
:100AE000000F00F4400005DA00EB80004FF44001F5
:100AF00001EA50004FEA9059B9F1010F00DDB94603
:100B00000A9850EA4A000ED044F61050A5F2FF357C
:100B100045432F14B8F1000F1ED07542291E1EDD6B
:100B2000C9F100021CE0B8F1010F4FF0000001D044
:100B3000302103E0F24305E02154401CB042FBDBCE
:100B400030460022002121540B99C1F80880C1E9E8
:100B500000200FB0BDE8F08FBD1B6D1CDEE74A46DC
:100B600000DA694206A800F097FA06AB93E807009E
:100B700003AB83E8070050460A9900F089FB8DE833
:100B80000700A0F500501F3800900398002D0ADDE3
:100B900042F21F014A460844002303A90390684615
:100BA00000F0F2FD09E0A0F500504A461F3800238E
:100BB00003A90390684600F0FCFD8DE807000004DF
:100BC000000C03D04FF0FF30410800E01046B8F1B0
:100BD000000F03D00022009215461EE0751E05D4BA
:100BE00000F0D4F9303262556D1EF9D5B3460122BA
:100BF000084302D000227F1C04E02078302801D175
:100C000000227F1E002A099784D01DE0112D07DAEB
:100C100000F0BCF9303262556D1C50EA0102F5D18A
:100C2000084302D00098C8B10EE00021681E05E01C
:100C3000235C625C63542254401E491C8142F7DBF2
:100C4000AB46A81B401E0990002004F80B000B982F
:100C5000099AC0F80880C0E9002B7AE711264FF006
:100C6000000857E72DE9F04F88460446D21D22F0D0
:100C7000070191B0D1E90001CDE90A0104F00AFDB4
:100C800002460B98C00F01D02D2007E02068810795
:100C900001D52B2002E0202101EAC000032A09909F
:100CA00001D0072A05DB03464146204600F0B4F98F
:100CB0000BE12078800601D5E06900E00620B8F15C
:100CC000650F814606D0B8F1660F18D0B8F1670FEE
:100CD00070D131E00020B9F1110F009001DB112338
:100CE00001E009F101030AAA01A90CA8FFF7E2FE3D
:100CF000DDE90C70002609F10105834647E001207B
:100D00004B4600904FF000470AAA01A90CA8FFF734
:100D1000D1FEDDE90DB00C995D46002610B909F150
:100D200001000D18B9EB050003D4C0F1FF3609F13D
:100D30000105A5EB09002BE0B9F1010F01DA4FF035
:100D400001090020B9F1110F0090484601DD11237F
:100D500000E003460AAA01A90CA8FFF7ABFEDDE9F3
:100D60000C704D4600268346207800070AD4AB4518
:100D700000DA5D4601A8012D04DD411911F8011CBE
:100D8000302907D04F4502DA17F1040F04DA0120A9
:100D900082460FE06D1EEEE7002F02DCED1B3E44A5
:100DA00003E0781CA84200DD7D1CB81B00F1010A9D
:100DB0004FF000472078000703D4AA4501DB4FF02D
:100DC000FF3A0021B7F1004F0DF143088DF84310B1
:100DD00024D002202B23002F01DA7F422D230A2169
:100DE000021EA0F1010000DC5FB197FBF1FC97FB54
:100DF000F1F201FB1C7C17460CF1300C08F801CD18
:100E0000EEE7A8F1010003702188090501D545210D
:100E100000E06521A0F1010800F8011C09980FA964
:100E2000A1EB0807FF1D00B10120411901EBEA7099
:100E3000A1693844081A401EA0612078C00602D477
:100E40002046AFF30080099828B1D4E901219047EA
:100E5000206A401C20622078C00622D52046AFF3CD
:100E600000801EE0002E04DBB34502DD01A8805D9A
:100E700000E03020D4E901219047206A401C206224
:100E8000761CAAF101005FEA000A0AD100F060F8BE
:100E9000C0680168405CD4E901219047206A401C89
:100EA0002062281EA5F10105DCDC07E0D4E9012160
:100EB00018F8010B9047206A401C2062381EA7F1E9
:100EC0000107F3DC2046AFF30080032011B041E6B8
:100ED00001694A1C02610878704700B58FB0CDE9FE
:100EE00001310021059105497944CDE903101146EE
:100EF0006846FFF7D1FA0FB000BD0000E5FFFFFF25
:100F00000A6802F8010B0A607047D1E900239A428F
:100F100002D2531C0B601070704710B5436913B1B7
:100F2000AFF3008001E0FFF725FA012010BD127831
:100F300000F124010A7000224A700122EDE71168D5
:100F40004FF0FF32E9E7000000487047F00A002048
:100F500000487047100B0020034640688C4600286C
:100F600018BF88423CBF03464068F8D3186818444D
:100F7000884207D00CF1030020F00700001D411A41
:100F8000521A0146081D0A60FFF78BB930B5B0F15F
:100F90000A024FEA900E71F100034EEA817EB0EB37
:100FA0000E0061EB91014FEA101E4EEA017E10EB3C
:100FB0000E0041EB11114FEA102E4EEA016E10EBBC
:100FC0000E0041EB11214FEA104E4EEA014E10EB9C
:100FD0000E0041EB1141401841F100014FEAD000F1
:100FE00040EA41704FEAD10110EB80054FEA8104DD
:100FF00044EA907444EB01046D1944EB0404521B61
:10100000A3414FF0000348BF0A3200D530BD401C59
:1010100041F1000130BD00002DE9F0411F460446BA
:1010200003260168072A01F4006004DB08B116A555
:1010300005E016A503E008B115A500E015A521F00F
:1010400010002060A069C01EA0610FB1401EA06109
:101050002046AFF300804FB1D4E9012138469047D4
:10106000206A401C2062C01C206206E0206AFAE769
:10107000D4E9012115F8010B9047761EF8D22046DD
:10108000AFF30080BDE8F0814E414E006E616E000E
:10109000494E4600696E66002DE9F04781461646C6
:1010A0008AB0354878440DC88DE80D003248784440
:1010B000801C03AC0DC884E80D0041F69B30084449
:1010C000372190FBF1F290FBF1F5A5F1800501FBD2
:1010D00012041B3C02D56442012000E00020DFF82E
:1010E00098A080460027FA44AAF1BE0A0EE0E00765
:1010F0000AD03246684607EB470101230AEB81011B
:1011000000F057FB8DE8070064107F1C002CEED127
:10111000194F7F44AE3F19E0E80715D007EB0410E4
:101120000DF1180A90E80E008AE80E00C068F0423F
:1011300001D1981908903246012306A903A800F0AE
:1011400038FB03AB83E807006D10641C002DE3D16E
:101150004FF0010332466946B8F1000F03A802D0F0
:1011600000F012FB01E000F024FBC9E90001C9F81E
:1011700008200AB0BDE8F0871C64000010B500F03C
:1011800039F8BDE8104000F02FB870477546FFF7FA
:10119000DBFEAE4605006946534620F00700854653
:1011A00018B020B5FFF73CF8BDE820404FF000062E
:1011B0004FF000074FF000084FF0000B21F007013F
:1011C000AC46ACE8C009ACE8C009ACE8C009ACE882
:1011D000C0098D46704710B50446AFF30080204625
:1011E000BDE81040FFF707B8002801D000F02AB88A
:1011F0007047000010B5012805D0002103A000F0C1
:1012000027F8012010BD09A1F8E700005349475213
:10121000544D454D3A204F7574206F6620686561C6
:1012200070206D656D6F7279000000003A2048658E
:101230006170206D656D6F727920636F7272757069
:101240007465640001491820ABBEFEE72600020069
:1012500070B505460C460A2000E06D1C00F011F840
:1012600035B128780028F8D102E0641C00F009F8B4
:1012700014B120780028F8D1BDE870400A20AFF3FF
:10128000008008B569468DF800000320ABBE08BD9C
:101290005FEA400C08BF91F0000F4FEA8C234FEA41
:1012A000C12243EA51514FEA1C5018BF00F5F040EB
:1012B0004FEA300018BF41F000415FEA6C5C00F07B
:1012C0002980BCF1FF3F08BF40F080407047130CFD
:1012D00006BF12044FF0100C4FF0000C130E04BFA9
:1012E00012020CF1080C130F04BF12010CF1040CD4
:1012F000930F04BF92000CF1020CD30F04BF5200F5
:101300000CF1010C11464FF00002A0F11F00A0EB00
:101310000C00704711F0004F08BF704731F00041DA
:101320003FF4D5AF0B0C06BF09044FF0100C4FF083
:10133000000C0B0E04BF09020CF1080C0B0F04BFCC
:1013400009010CF1040C8B0F04BF89000CF1020C95
:10135000CB0F04BF49000CF1010CCCF12003A0EB32
:101360000C0022FA03F302FA0CF241EA030100F145
:101370000100704720F07F4C80EA030023F07F4794
:10138000ACEB070303F57C5300F0004003F1FF03CF
:101390002DE980494FEA154B09B44FEA144325EA79
:1013A0000B4E24EA03480FF2042606EB13274908E4
:1013B0003E785FEA320203FB0667C7F5000707FBCA
:1013C00006F64FEA54374FEAD64606F1020607FB07
:1013D000066CCCF1005C4FEA1C472CEA074C07FB7B
:1013E00006F40CFB06F504EB15464FEA961634BFDF
:1013F00000204FF000404FEAD13706FB07FC4FEAD0
:101400001C4C0CFB0BF7D21B03FB0CF761EB070129
:101410000CFB0EF7B0EB074072EB17420CFB08F722
:1014200034BFA2EB0742B2EB074261EB17414FEA30
:101430000C444FEA910706FB07FC4FEA1C4C0CFBDF
:101440000BF7B0EBC74072EB573203FB0CF734BF1E
:10145000A2EBC742B2EBC74261EB57310CFB0EF770
:10146000B0EBC70072EB57720CFB08F734BFA2EB6E
:10147000C702B2EBC70261EB5771039F4FEA81616C
:1014800041EA921104EBCC044FEAD1374FEA826271
:1014900006FB07FC42EA90124FEA80604FEA1C4CC0
:1014A0000CFB0BF7D21B03FB0CF761EB07010CFBEA
:1014B0000EF7B0EB074072EB17420CFB08F734BF96
:1014C000A2EB0742B2EB074261EB17414FEA8C55A2
:1014D0004FEA910704EB9C2406FB07FC4FEA1C4CE7
:1014E0000CFB0BF7B0EBC74072EB573203FB0CF76A
:1014F00034BFA2EBC742B2EBC74261EB57310CFBE2
:101500000EF7B0EBC70072EB57720CFB08F734BF55
:10151000A2EBC702B2EBC70261EB577115EB4C258A
:101520004FEA816141EA92114FEA82624FEAD13774
:1015300042EA901206FB07FC44F100044FEA806087
:101540004FEA1C4C0CFB0BF7D21B03FB0CF761EBB7
:1015500007010CFB0EF7B0EB074072EB17420CFBD8
:1015600008F734BFA2EB0742B2EB074261EB174129
:1015700015EB1C154FEA813141EA92414FEA823264
:1015800042EA90424FEA80304FEA0C7644F1000480
:1015900048EA03434EEA0B484FF0000EB2EB080C4A
:1015A00071EB030724BF624639464EEB0E0E4FF037
:1015B000000B0018524149414BEB0B0BB2EB080CEE
:1015C00071EB03077BF1000B24BF624639464EEBFB
:1015D0000E0E4FF0000B0018524149414BEB0B0B24
:1015E000B2EB080C71EB03077BF1000B24BF6246E2
:1015F00039464EEB0E0E51EA020718BF46F00106BF
:1016000016EB0E7655F1000254F1000103D5BDE84A
:101610008901BDE80088BDE88901BDE80048B61928
:10162000524141EB0101A3F10103704780807F7EAD
:101630007D7C7B7A79787776767574737271717048
:101640006F6E6E6D6C6C6B6A6A69686867666665FA
:101650006464636362616160605F5F5E5E5D5D5C88
:101660005C5B5B5A5A5959585857575656555555F9
:101670005454535352525251515050504F4F4F4E59
:101680004E4D4D4D4C4C4C4B4B4B4A4A4A494949A7
:1016900048484847474747464646454545444444E9
:1016A000444343434342424242414141002B9C4612
:1016B00030D477002BD01CB54FEA370703B44FF076
:1016C00010004FF01001BAF1000F06D0BCF1000F6E
:1016D000DCBF40F0080040F008014FF000000FBCF4
:1016E000BDE810400BF1010BBBF1010F08BF5FEA31
:1016F000170722BF12F1010211F101014FF0004161
:1017000043F1000300F0004043EA00007047F9D3C2
:101710005708D0E746EA064613F1400F4FEA16464F
:101720001FDD13F1200FDFBF16430A4600212033CF
:101730005B42BED0C3F1200746EA064602FA07F72D
:101740004FEA164646EA0706C3F1200722FA03F2DB
:1017500001FA07F721FA03F14FF0000342EA07020A
:10176000A7E746EA020646EA06464FEA164646EA72
:101770000106BCBF46EA0646360C4FF000034FF0A8
:1017800000024FF0000194E72DE9804C9A46934601
:1017900070B491E8380007C831EA400C48BF34EA19
:1017A000430C03D5FFF7E6FDFFF780FFF0BCBDE873
:1017B000008C2DE9804C9A46934670B491E838002D
:1017C00007C810F0804F08BF13F0804F03D100F01E
:1017D00005F8FFF76BFFF0BCBDE8008C20F07F47F9
:1017E00080EA030023F07F4C07EB0C03A3F57C5346
:1017F00000F00040A3F1FE0392F0000F00F0B38070
:1018000095F0000F00F077802DE901494FEA114073
:101810004FEA144621EA004800FB06FC24EA06478A
:1018200008FB06F607FB08F800FB07F718EB06486D
:101830004CEB164C4FEA124B18EB07484FEA154693
:101840004CEB174022EA0B4E0BFB06FC25EA064741
:101850000EFB06F607FB0EFE0BFB07F71EEB064E14
:101860004CEB164C4FF000061EEB074E4CEB174BA3
:1018700018EB0B0840F1000018EB0E0B58EB0008BA
:1018800040F100008F1A4FF000013CBFC943661BB6
:1018900014BFB5EB040C00213CBFC943F61B4FEA53
:1018A00017444EEA8E0E27EA04454FEA1C4704FB14
:1018B00007622CEA074C05FB07F70CFB05F604FB57
:1018C0000CFC16EB074642EB174216EB0C4642EBBC
:1018D0001C421BEB060658EB0202414146EA9E06FB
:1018E00001D5BDE80189B619524141EB0101A3F1CF
:1018F0000103BDE801894FEA14454FEA114724EA84
:10190000054621EA074C05FB07F406FB07F70CFB2D
:1019100006F105FB0CFC11EB074144EB17444FEAC1
:10192000124711EB0C4144EB1C4422EA074C05FB27
:1019300007F206FB07F70CFB06F605FB0CFC16EBA3
:10194000074642EB174216EB0C4642EB1C456A1861
:1019500054F1000148BF7047B619524141EB0101F3
:10196000A3F10103704795F0000F37D04FEA114201
:101970004FEA144721EA024624EA074C02FB07F12A
:1019800006FB07F70CFB06F402FB0CFC14EB074408
:1019900041EB17414FEA154714EB0C4441EB1C4156
:1019A00025EA074C02FB07F506FB07F70CFB06F6DA
:1019B00002FB0CFC16EB074645EB174516EB0C46F5
:1019C00045EB1C42121951F1000148BF7047B6198E
:1019D000524141EB0101A3F1010370474FEA144565
:1019E0004FEA114724EA054621EA074C05FB07F1B7
:1019F00006FB07F70CFB06F24FF0000605FB0CFC9C
:101A000012EB074241EB174112EB0C4251EB1C4128
:101A100048BF7047921841EB0101A3F101037047E1
:101A200070B5044600252068806800F0010018B3F6
:101A30002068806820F001002168886001F0A2F928
:101A4000054613E001F09EF9401B02280ED92068DC
:101A5000806800F0010048B1A06A40F01000A06268
:101A6000E06A40F00100E062012070BD20688068FB
:101A700000F001000028E5D10020F6E700BFFEE7F6
:101A800010B5024800F0D6FB10BD0000E8000020B1
:101A900010B5024800F0CEFB10BD0000740100201C
:101AA00030B590F840500124AC40C56B6C600468C0
:101AB00063604468102C04D10468A2600468E1608B
:101AC00003E00468A1600468E26030BD704772B64C
:101AD00000BFFEE70021074AD1610749096941F0CB
:101AE0000401054A11611146096941F04001116183
:101AF00070470000B8010020002002400021074A82
:101B0000D1610749096941F00201054A1161114695
:101B10004861096941F0400111617047B801002036
:101B2000002002400022054BDA61054A126942F0AA
:101B30000102034B1A61018070470000B8010020C8
:101B40000020024000201E49C96801F0100139B18F
:101B50001C49C96941F002011A4AD16140F01000E4
:101B60001749C96801F0040139B11649C96941F042
:101B70000101144AD16140F004001149C96901F022
:101B8000010169B10F49C96941F004010D4AD161F0
:101B900000BF0B49C96921F00101094AD16100BFA9
:101BA00000BF40F20111884206D10549C96921F000
:101BB0000101034AD16101E00149C86000BF7047DB
:101BC00000200240B801002070B5044601F0DAF8A8
:101BD000054609E0601C38B124B101F0D3F8401B80
:101BE000A04201D9032070BD1248C06800F0010076
:101BF0000028EFD10F48C06800F0200020B100BFDE
:101C000020200C49C86000BF0A48C06800F01000DE
:101C100048B90848C06900F0010020B90548C0680B
:101C200000F0040018B1FFF78DFF0120DBE7002072
:101C3000D9E700000020024038B50246002300200A
:101C4000009000BF92F82400012801D1022038BD85
:101C5000012082F8240000BF4868072812D21068CB
:101C6000406B0C79641E04EB84051F24AC40A04338
:101C70000D796D1E05EB85050C68AC40204314689A
:101C8000606327E048680D2812D21068006B0C7959
:101C9000E41F04EB84051F24AC40A0430D79ED1F25
:101CA00005EB85050C68AC4020431468206311E007
:101CB0001068C06A0C790D3C04EB84051F24AC400D
:101CC000A0430D790D3D05EB85050C68AC40204324
:101CD0001468E06208680A2812D31068C0680C789B
:101CE0000A3C04EB44050724AC40A0430D780A3DB0
:101CF00005EB45058C68AC4020431468E0600FE0BC
:101D0000106800690C7804EB44050724AC40A0433C
:101D10000D7805EB45058C68AC40204314682061C4
:101D20000868102802D00868112827D1174C1068BD
:101D3000A0421ED11068806800F40000F0B910685D
:101D4000806840F400001468A0600868102815D16D
:101D50000F4800680F4CB0FBF4F000EB800040002F
:101D6000009002E00098401E009000980028F9D1F1
:101D700004E0906A40F020009062012300BF002040
:101D800082F8240000BF184661E7000000240140EB
:101D90000C00002040420F002DE9F04104460027CE
:101DA00000250026A84614B90120BDE8F081A068EE
:101DB00010B1207D00B100BFA06A30B90020E06200
:101DC00084F82400204600F097F82046FFF728FE0C
:101DD0000746A06A00F01000002873D1002F7ED1C2
:101DE000A06A20F4885040F00200A0623F4AD4E983
:101DF0000001904208D1E069B0F5402F02D14FF4C4
:101E0000002002E0E06900E0E0690143207B41EA54
:101E100040000643A068B0F5807F02D0A06801288A
:101E200002D14FF4807000E000200543207D01289E
:101E300011D1207B38B9A069401E4FF4006141EAFE
:101E40004030054307E0A06A40F02000A062E06A4D
:101E500040F00100E0622068406820F469402843B7
:101E60002168486020688068214908403043216823
:101E70008860A068B0F5807F02D0A068012802D1F8
:101E80004FF4807000E00020B0F5807F03D1208AFD
:101E9000401E4FEA00582068C06A20F4700040EAF3
:101EA00008002168C8622068806812490840B04272
:101EB00009D10020E062A06A20F0020040F0010099
:101EC000A06211E00BE0A06A20F0020040F01000D8
:101ED000A062E06A40F00100E062012704E0A06A2D
:101EE00040F01000A062012738465EE7003C014048
:101EF000FDF7E1FFFE0E1FFF10B586B0044600207F
:101F000002900390049005902249206888423ED1B7
:101F100000BF2148806940F400701F49886108466D
:101F2000806900F40070019000BF00BF00BF084648
:101F3000806940F0100088610846806900F0100058
:101F4000019000BF00BF012002900320039002A96E
:101F5000124800F05FFD12481249086000204860F6
:101F60000021104881608021C160890001618900E1
:101F70004161202181610021C16100F027FB08B18E
:101F8000FFF7A5FD00BF07482062446200BF06B00E
:101F900010BD00000024014000100240001001406C
:101FA00008000240E80000200146002291F82100CC
:101FB000022808D00420886300BF002081F8200098
:101FC00000BF012070470868006820F00E000B6811
:101FD00018600868006820F001000B68186091F82C
:101FE000403001209840CB6B5860012081F82100DF
:101FF00000BF002081F8200000BF1046E2E700008B
:1020000070B50446002594F82100022803D004206E
:10201000A0630125C1E02068006820F00E0021685F
:1020200008602068006820F00100216808605C49B1
:102030002068884252D95A4978392068884201D1AB
:10204000012047E0564964392068884201D11020B8
:1020500040E0534950392068884201D1801539E069
:102060004F493C392068884201D1801432E04C4904
:1020700028392068884202D14FF480302AE048494C
:1020800014392068884202D14FF4801022E044497C
:102090002068884201D140041CE0424920688842FF
:1020A00001D1012016E03F4914312068884201D156
:1020B00010200FE03B4928312068884201D180156B
:1020C00008E038493C312068884201D1801401E0A1
:1020D0004FF480303349091F086051E030497839A6
:1020E0002068884201D1012047E02D4964392068E9
:1020F000884201D1102040E02949503920688842A7
:1021000001D1801539E026493C392068884201D147
:10211000801432E0224928392068884202D14FF4E5
:1021200080302AE01E4914392068884202D14FF4D9
:10213000801022E01A492068884201D140041CE046
:1021400018492068884201D1012016E01549143150
:102150002068884201D110200FE012492831206800
:10216000884201D1801508E00E493C312068884240
:1021700001D1801401E04FF4803009498039486072
:10218000012084F8210000BF002084F8200000BF57
:10219000606B10B12046616B8847284670BD000017
:1021A0008000024008040240014609B9012070473E
:1021B0000868006820F001000A68106000200A68C2
:1021C00010600A6850600A6890600A68D060174A18
:1021D000086890420BD2164A0868801A1422B0FB95
:1021E000F2F08000086412480838C8630AE00F4A19
:1021F0000868801A1422B0FBF2F0800008640B48D3
:102200000838C86391F8402001209040CA6B5060A4
:1022100000208862C86208634863886381F82100EF
:1022200000BF81F8200000BF00BFC0E708040240E3
:102230000800024070B50446E06B05682068066837
:1022400094F84010042088402840002875D006F0FB
:1022500004000028FAD02068006800F0200028B9A7
:102260002068006820F0040021680860D5492068D3
:10227000884254D9D34978392068884201D1042052
:1022800049E0D04964392068884201D1402042E0C9
:10229000CC4950392068884201D100153BE0C9493A
:1022A0003C392068884202D14FF4804033E0C54970
:1022B00028392068884202D14FF480202BE0C149A0
:1022C00014392068884202D14FF4800023E0BD49D0
:1022D0002068884201D1C0041DE0BB4920688842C3
:1022E00001D1042017E0B84914312068884201D197
:1022F000402010E0B44928312068884201D10015FF
:1023000009E0B1493C312068884202D14FF4804055
:1023100001E04FF48020AC49091F086054E0A9494E
:1023200078392068884201D104204AE0A5496439FF
:102330002068884202D1402043E04CE0A149503956
:102340002068884201D100153BE09E493C39206855
:10235000884202D14FF4804033E09A4928392068FE
:10236000884202D14FF480202BE09649143920682E
:10237000884202D14FF4800023E0924920688842CD
:1023800001D1C0041DE090492068884201D1042099
:1023900017E08D4914312068884201D1402010E0B7
:1023A000894928312068884201D1001509E0864911
:1023B0003C312068884202D14FF4804001E04FF464
:1023C0008020804980394860E06A002802D0204699
:1023D000E16A8847F4E094F84010022088402840E1
:1023E000002871D006F002000028FAD020680068AA
:1023F00000F0200040B92068006820F00A00216841
:102400000860012084F821006E492068884254D970
:102410006C4978392068884201D1022049E0694935
:1024200064392068884201D1202042E06549503952
:102430002068884201D140153BE062493C39206860
:10244000884202D14FF4005033E05E4928392068B9
:10245000884202D14FF400302BE05A4914392068E9
:10246000884202D14FF4001023E056492068884288
:1024700001D180041DE054492068884201D1022026
:1024800017E0514914312068884201D1202010E022
:102490004D4928312068884201D1401509E04A4958
:1024A0003C312068884202D14FF4005001E04FF4E3
:1024B00000304549091F086054E0424978392068D6
:1024C000884202D102204AE057E03E496439206840
:1024D000884201D1202042E03A49503920688842A0
:1024E00001D140153BE037493C392068884202D190
:1024F0004FF4005033E0334928392068884202D134
:102500004FF400302BE02F4914392068884202D163
:102510004FF4001023E02B492068884201D1800449
:102520001DE029492068884201D1022017E0264990
:1025300014312068884201D1202010E0224928313E
:102540002068884201D1401509E01F493C312068CC
:10255000884202D14FF4005001E04FF40030194995
:102560008039486000BF002084F8200000BFA06AC6
:1025700030B32046A16A884722E094F84010082032
:1025800088402840E0B106F00800C8B12068006823
:1025900020F00E002168086094F840100120884067
:1025A000E16B48600120A06384F8210000BF002097
:1025B00084F8200000BF206B10B12046216B8847B3
:1025C00070BD000080000240080402400146002265
:1025D00009B9012070471E4B086898420BD21D4B69
:1025E0000868C01A1423B0FBF3F08000086419488F
:1025F0000838C8630AE0164B0868C01A1423B0FBF9
:10260000F3F08000086412480838C863022081F89B
:1026100021000868026843F6F0708243D1E90103A3
:102620001843CB6818430B6918434B6918438B69EF
:102630001843CB691843024308680260002088638E
:10264000012081F82100002081F8200000BFC1E7AF
:1026500008040240080002402DE9F04104460D46FE
:1026600016461F464FF0000800BF94F820000128CE
:1026700002D10220BDE8F081012084F8200000BFD3
:1026800094F8210001282CD1022084F82100002098
:10269000A0632068006820F00100216808603B46C4
:1026A000324629462046FFF7FBF9E06A30B1206840
:1026B000006840F00E00216808600BE020680068A8
:1026C00020F00400216808602068006840F00A00DB
:1026D000216808602068006840F0010021680860F7
:1026E00006E000BF002084F8200000BF4FF0020881
:1026F0004046BFE770B5044600F044FB0646254659
:10270000681C10B104480078054400BF00F03AFB93
:10271000801BA842FAD370BD080000202DE9F041CB
:1027200004460E460127002500BF2648007E0128EA
:1027300002D10220BDE8F08101202249087600BFC5
:102740002068022813D14CF25030FFF73DFA90BBBD
:102750000120FFF7BFF94CF25030FFF735FA07467A
:102760001948006920F004001749086123E04CF281
:102770005030FFF729FAF0B94FF0FF303060A5680C
:1027800012E02846FFF7BAF94CF25030FFF71CFA76
:1027900007460D48006920F002000B4908610FB19F
:1027A000356007E005F50065D4E9021001EBC020B3
:1027B000A842E6D800BF00BF00200249087600BF4B
:1027C0003846B7E7B80100200020024003480069FE
:1027D00040F080000149086100207047002002405D
:1027E0002DE9FE4F05468B461746984601260024E4
:1027F0000020029000BF2448007E012802D1022060
:10280000BDE8FE8F01202049087600BF4CF2503011
:10281000FFF7DAF9064686BB012D02D101200290AE
:1028200006E0022D02D10220029001E00420029075
:1028300000241EE02201B946C24648465146FDF733
:1028400057FD80B20190022000FB04B00090019976
:10285000FFF768F94CF25030FFF7B6F906460B481F
:10286000006920F001000949086106B104E0601C1C
:10287000C4B202988442DDDB00BF00BF00200249E1
:10288000087600BF3046BBE7B801002000200240B8
:1028900000200849096901F0800151B10649054A43
:1028A0005160064951601146096901F0800101B18A
:1028B000012070470020024023016745AB89EFCD1E
:1028C0002DE9F04102460B4600208CE001278740AD
:1028D00007EA030100296FD0464F4FEA900C57F8E2
:1028E0002C4087074FEA177C0F2707FA0CF73C406C
:1028F000414FBA4201D1002719E0404FBA4201D1FD
:10290000012714E03E4FBA4201D102270FE03D4FAC
:10291000BA4201D103270AE03B4FBA4201D1042752
:1029200005E03A4FBA4201D1052700E006274FEAF9
:10293000807C4FEA1C7C07FA0CF7A74232D1344F57
:102940003F688F43DFF8C8C0CCF800700CF1040773
:102950003F688F430CF1040CCCF800702C4F0C37FF
:102960003F688F43DFF8A8C00CF10C0CCCF8007066
:10297000ACF104073F688F43ACF1040CCCF8007055
:1029800087074FEA177C0F2707FA0CF4194F4FEA15
:10299000900C57F82C70A743DFF858C04FEA900806
:1029A0004CF82870FF2901D8174600E0171D3D4656
:1029B000FF2902D8870003E014E0A0F10807BF0058
:1029C0003E462F684FF00F0C0CFA06FC27EA0C0766
:1029D0004FF0040C0CFA06FC47EA0C072F60D7688E
:1029E0008F43D760401C23FA00F7002F7FF46EAFAF
:1029F000BDE8F0810800014000080140000C0140E2
:102A0000001001400014014000180140001C01406A
:102A1000000401402DE9F847024600239C467BE173
:102A20004FF0010808FA03F4D1F8008008EA040026
:102A3000A0427DD1DFF8F4A2D1F80480A8EB0A0906
:102A4000D0453AD014DCB8F1030F50D009DCB8F10E
:102A5000000F31D0B8F1010F1CD0B8F1020F49D1ED
:102A600020E0B8F1110F18D0B8F1120F42D11EE0DA
:102A7000B9F5881F25D006DCB9F5803F20D0B9F51F
:102A8000801F37D11AE0B9F5001F18D0B9F5041F1F
:102A900030D117E0D1F80CC02DE0D1F80C8008F14E
:102AA000040C28E0D1F80C8008F1080C23E0D1F8E0
:102AB0000C8008F10C0C1EE000BF00BF00BF00BF7F
:102AC00000BF00BFD1F80880B8F1000F02D14FF06D
:102AD000040C0BE0D1F80880B8F1010F03D14FF0DE
:102AE000080C146102E04FF0080C546103E04FF051
:102AF000000C00E000BF00BFFF2801D8904601E0B5
:102B000002F104084646FF2802D84FEA830803E092
:102B1000A3F108084FEA88084746D6F800804FF02E
:102B20000F0909FA07F928EA09080CFA07F900E081
:102B30007AE048EA0908C6F80080D1F8048008F075
:102B40008058B8F1805F6FD100BFDFF8E481D8F81A
:102B5000188048F00108DFF8D891C9F81880C846F5
:102B6000D8F8188008F00108CDF8008000BF00BF39
:102B70004FEAB9384FEA930958F829504FEA837859
:102B80004FEA18794FF00F0808FA09F825EA080506
:102B9000DFF8A081424502D14FF0000824E0DFF8C1
:102BA0009881424502D14FF001081DE0DFF88C8189
:102BB000424502D14FF0020816E0DFF88481424519
:102BC00002D14FF003080FE0DFF87881424502D1CF
:102BD0004FF0040808E0DFF87081424502D14FF061
:102BE000050801E04FF006084FEA83794FEA1979AA
:102BF00008FA09F848EA0505DFF850814FEA930919
:102C000048F82950D1F8048008F48018B8F5801FDE
:102C10000BD1DFF83C81D8F8008048EA0008DFF8E3
:102C20003091C9F800800AE075E0DFF82481D8F817
:102C3000008028EA0008DFF81891C9F80080D1F870
:102C4000048008F40018B8F5001F0ED1DFF80081E9
:102C500008F10408D8F8008048EA0008DFF8F0908E
:102C600009F10409C9F800800DE0DFF8E48008F1FB
:102C70000408D8F8008028EA0008DFF8D49009F1A9
:102C80000409C9F80080D1F8048008F40038B8F5C8
:102C9000003F0ED1DFF8B880A8F10408D8F8008012
:102CA00048EA0008DFF8A890A9F10409C9F80080F3
:102CB0000DE0DFF89C80A8F10408D8F8008028EA2D
:102CC0000008DFF88C90A9F10409C9F80080D1F858
:102CD000048008F48038B8F5803F0ED1DFF87080AA
:102CE000A8F10808D8F8008048EA0008DFF86090EA
:102CF000A9F10809C9F800800DE0DFF85480A8F1B7
:102D00000808D8F8008028EA0008DFF84490A9F104
:102D10000809C9F800805B1CD1F8008028FA03F884
:102D2000B8F1000F7FF47CAEBDE8F8870000111009
:102D30000010024000080140000C0140001001405A
:102D40000014014000180140001C0140080001402F
:102D500008040140024693680B400BB1012000E0DB
:102D60000020704710B5C26821EA020302EA01049C
:102D700043EA0443036110BD0AB1016101E00B04A1
:102D800003617047014800687047000000000020A0
:102D90000148006870470000E8F7FF1F014800681D
:102DA00070470000ECF7FF1F014800687047000003
:102DB000F0F7FF1F034800680349097808440149F8
:102DC00008607047000000200800002010B5084887
:102DD000006840F0100006490860032000F0CAF8BF
:102DE0000F2000F007F800F02BF8002010BD0000C5
:102DF0000020024070B504460E4800784FF47A7106
:102E0000B1FBF0F00C490968B1FBF0F5284600F081
:102E1000C7FC08B1012070BD102C07D2002221464A
:102E2000501E00F069F80548046001E00120F2E757
:102E30000020F0E7080000200C0000200400002023
:102E400008B500BF1148806940F001000F49886152
:102E50000846806900F00100009000BF00BF00BF7D
:102E60000846C06940F08050C8610846C06900F05B
:102E70008050009000BF00BF00BF0549486820F0A7
:102E8000E06040F00070486000BF08BD00100240E4
:102E90000000014010B501460846002817DB00F08D
:102EA0001F0301229A400B4B440943F8242000BF22
:102EB00000BF00BFBFF34F8F00BF00BF00BF00BF08
:102EC00000BF00BFBFF36F8F00BF00BF00BF00BFD8
:102ED00010BD000080E100E001460846002809DB43
:102EE00000F01F0301229A4043099B0003F1E023F5
:102EF000C3F8002100BF70472DE9F05F80460D4602
:102F00001646002703F082F9074639462A4633461B
:102F100001F00700C0F1070ABAF1040F02D94FF01F
:102F2000040A01E0C0F1070AD14600F1040ABAF12F
:102F3000070F02D24FF0000A01E0A0F1030AD446C5
:102F40004FF0010A0AFA09FAAAF1010A0AEA020A8A
:102F50000AFA0CFA4FF0010B0BFA0CFBABF1010B68
:102F60000BEA030B4AEA0B042146404603F056F9EC
:102F7000BDE8F09F00BF00F00702064B19684FF64E
:102F8000FF031940044B0B4343EA0221014B196034
:102F900000BF70470CED00E00000FA05F8B50446EC
:102FA00000260025207800F0010000286BD00027C3
:102FB0004348C06900F0805070B900BF4048C06904
:102FC00040F080503E49C8610846C06900F080501A
:102FD000009000BF00BF01273A48006800F48070ED
:102FE000B0B93848006840F4807036490860FFF78F
:102FF000C9FE064606E0FFF7C5FE801B642801D91E
:103000000320F8BD2F48006800F480700028F2D03B
:103010002B48006A00F440752DB3A08800F440707E
:10302000A84220D02648006A20F440750120264995
:103030000860002008602248056205F0010090B198
:10304000FFF7A0FE064608E0FFF79CFE801B41F25A
:103050008831884201D90320D3E71948006A00F07B
:1030600002000028F0D01648006A20F44070616821
:10307000084313490862012F04D10846C06920F0B3
:103080008050C86100BF207800F00200022807D1FC
:103090000B48406820F44040A16808430849486054
:1030A000207800F01000102807D10548406820F46F
:1030B000800061690843024948600020A1E70000E0
:1030C00000100240007000404004424270B50446C7
:1030D0000D460CB9012070BD5A48006800F0070089
:1030E000A8420ED25748006820F0070028435549EF
:1030F00008600846006800F00700A84201D00120DF
:10310000E9E7207800F0020002281DD1207800F0C5
:103110000400042805D14C48406840F4E0604A4966
:103120004860207800F00800082805D1464840682B
:1031300040F46050444948604348406820F0F00043
:10314000A168084340494860207800F0010078B346
:103150006068012806D13C48006800F4003090B94E
:103160000120B8E76068022806D13748006800F0FF
:10317000007040B90120AEE73348006800F002005B
:1031800008B90120A7E73048406820F003006168D3
:1031900008432D494860FFF7F5FD064609E0FFF7B3
:1031A000F1FD801B41F28831884202D9032092E769
:1031B00007E02548406800F00C006168B0EB810F23
:1031C000EDD12048006800F00700A8420ED91D4844
:1031D000006820F0070028431A4908600846006884
:1031E00000F00700A84201D0012074E7207800F029
:1031F0000400042807D11448406820F4E060E16826
:10320000084311494860207800F00800082808D1D8
:103210000D48406820F46050216940EAC1000A4925
:10322000486000F03FF808494968C1F30311074AB4
:10323000515CC8400649086006480068FFF7DAFD9F
:10324000002048E70020024000100240CE73000832
:103250000C000020040000200148006870470000B6
:103260000C00002000B5FFF7F7FF04494968C1F3DF
:103270000221034A515CC84000BD0000001002401A
:10328000DE73000800B5FFF7E7FF04494968C1F3A2
:10329000C221034A515CC84000BD0000001002403A
:1032A000DE73000870B500210022002400230020F6
:1032B000134D696801F00C05F5B1042D02D0082DFD
:1032C00019D101E00F4819E00F4DC1F38346AB5D02
:1032D00001F4803555B10A4D6D68C5F340450B4E7C
:1032E000725D084D5D43B5FBF2F402E0084D03FB4F
:1032F00005F4204602E000BF024800BF00BF70BDD9
:103300000010024000127A00BC730008CC73000861
:1033100000093D00F8B504460CB90120F8BD20783D
:1033200000F00100002878D0F848406800F00C0058
:1033300004280CD0F548406800F00C00082811D192
:10334000F248406800F48030B0F5803F0AD1EF4881
:10335000006800F4003000285FD0606800285CD16D
:103360000120DBE700BF6068B0F5803F06D1E74889
:10337000006840F48030E549086028E0606858B98A
:10338000E248006820F48030E049086008460068A0
:1033900020F4802008601AE06068B0F5A02F0BD1FF
:1033A000DA48006840F48020D84908600846006880
:1033B00040F4803008600AE0D448006820F480308F
:1033C000D24908600846006820F48020086000BFE9
:1033D000606888B1FFF7D6FC054606E0FFF7D2FC2F
:1033E000401B642801D9032098E7C848006800F40E
:1033F00000300028F2D010E0FFF7C4FC054606E0DC
:10340000FFF7C0FC401B642801D9032086E7BF48B2
:10341000006800F400300028F2D1207800F00200AB
:10342000022857D1B948406800F00C0050B1B748A5
:10343000406800F00C00082818D1B448406800F437
:10344000803098B9B148006800F0020020B12069CE
:10345000012801D0012061E7AC48006820F0F800A5
:10346000616940EAC100A949086033E02069E8B118
:103470000120A7490860FFF785FC054606E0FFF735
:1034800081FC401B022801D9032047E79F480068C0
:1034900000F002000028F2D09C48006820F0F800FC
:1034A000616940EAC1009949086013E00020984929
:1034B0000860FFF767FC054606E0FFF763FC401B6A
:1034C000022801D9032029E79048006800F0020093
:1034D0000028F2D1207800F0080008282DD1A0693A
:1034E000B8B101208B490860FFF74CFC054606E0A7
:1034F000FFF748FC401B022801D903200EE7834850
:10350000406A00F002000028F2D0012001F04EFDD8
:1035100013E000207F490860FFF734FC054606E011
:10352000FFF730FC401B022801D90320F6E677485C
:10353000406A00F002000028F2D1207800F0040078
:10354000042873D100277148C06900F0805070B919
:1035500000BF6E48C06940F080506C49C8610846A1
:10356000C06900F08050009000BF00BF01276A488A
:10357000006800F48070B0B96748006840F480705B
:1035800065490860FFF7FEFB054606E0FFF7FAFB1A
:10359000401B642801D90320C0E65F48006800F49E
:1035A00080700028F2D000BFE068012806D157489B
:1035B000006A40F001005549086227E0E06858B908
:1035C0005248006A20F00100504908620846006A2B
:1035D00020F00400086219E0E06805280BD14B4890
:1035E000006A40F00400494908620846006A40F059
:1035F000010008620AE04548006A20F001004349E2
:1036000008620846006A20F00400086200BFE06813
:10361000A0B1FFF7B7FB054609E0FFF7B3FB401B7E
:1036200041F28831884202D9032077E622E0374808
:10363000006A00F002000028EFD012E0FFF7A2FBC2
:10364000054608E0FFF79EFB401B41F288318842A7
:1036500001D9032062E62D48006A00F0020000282C
:10366000F0D1012F05D12948C06920F080502749A9
:10367000C86100BFE069C8B32448406800F00C008E
:10368000082860D0E069022848D100202049086657
:10369000FFF778FB054606E0FFF774FB401B0228A6
:1036A00001D903203AE61948006800F000700028AC
:1036B000F2D1206AB0F5803F07D11448406820F469
:1036C0000030A168084311494860D4E90801084363
:1036D0000E49496821F4741108430C4948600120DF
:1036E0000B490866FFF74EFB054607E03DE0FFF794
:1036F00049FB401B022801D903200FE6034800685C
:1037000000F000700028F2D02FE00000001002400E
:1037100000004242800442420070004000201449F0
:103720000866FFF72FFB054606E0FFF72BFB401B63
:10373000022801D90320F1E50E48006800F000706E
:103740000028F2D111E0E069012800D1E6E509483E
:10375000466806F48031206A814204D106F4701173
:10376000606A814201D00120D8E50020D6E5000042
:103770000000424200100240042808D14FF0E0212E
:10378000096941F004014FF0E022116107E04FF0B8
:10379000E021096921F004014FF0E0221161704736
:1037A00070B504462546681EB0F1807F01D3012024
:1037B0000FE0681E4FF0E02148610F214FF0FF300D
:1037C00002F02CFD00204FF0E02188610720086105
:1037D000002070BDF8B504460E46174694F8420026
:1037E00020282ED106B10FB90120F8BD0120206399
:1037F000002060633A463146204601F05BFE0546F4
:10380000EDB9206B012819D100BF0020009020687D
:103810000068009020684068009000BF00BF00BFB3
:1038200000BF21680C3151E8001F41F010002168F1
:103830000C3141E80002002AF3D100E001252846BE
:10384000D3E70220D1E7000010B503460C46186804
:1038500002F0B2FB02460D4850F82200807C20F0B6
:1038600008010A4850F822008174084850F82200E4
:10387000807C20F00200801C044951F822108874DA
:10388000024850F82200848210BD0000B00A0020D7
:103890007047000070B50446012500BF00BF2168D5
:1038A0000C3151E8001F21F4F07021680C3141E81F
:1038B0000002002AF3D100BF00BF00BF216814310D
:1038C00051E8001F21F001002168143141E8000295
:1038D000002AF3D100BF206B01280ED100BF00BF2A
:1038E00021680C3151E8001F21F0100021680C31D3
:1038F00041E80002002AF3D100BFA06B58B1206854
:10390000406900F0800018B13248A16B486302E0C2
:103910000020A16B4863E06B58B12068406900F05B
:10392000400018B12C48E16B486302E00020E16BD5
:1039300048632068406900F08000C8B100BF00BF44
:103940002168143151E8001F21F0800021681431F2
:1039500041E80002002AF3D100BFA06B40B1A06B88
:10396000FEF74EFB18B10020A16B486300E0002574
:103970002068406900F04000D0B100BF00BF21685E
:10398000143151E8001F21F040002168143141E852
:103990000002002AF3D100BFE06B48B1E06BFEF7F4
:1039A0002FFB20B10020E16B4863012500E00025DA
:1039B000012D0DD10020E084E0856064202084F892
:1039C000410084F84200002020632046FFF760FF9A
:1039D000002070BDD35100087751000870B504462F
:1039E000002520684069C0F3C01594F841002128E3
:1039F00017D1B5B100BF00BF2168143151E8001FD5
:103A000021F080002168143141E80002002AF3D13E
:103A100000BFA06B10B1A06BFEF7C6FA204601F004
:103A20003AFC20684069C0F3801594F842002228CF
:103A300017D1B5B100BF00BF2168143151E8001F94
:103A400021F040002168143141E80002002AF3D13E
:103A500000BFE06B10B1E06BFEF7A6FA204601F064
:103A6000D4FB002070BD10B504460CB9012010BD78
:103A7000242084F841002068C06820F400502168A8
:103A8000C860204600F0BEF90020606484F8410060
:103A900084F842002063606300BF84F8400000BFE8
:103AA00000BFE4E7704700002DE9F84F04462068A6
:103AB00005682068C668206847694FF00009CA4653
:103AC00005F00F09B9F1000F0AD105F0200038B157
:103AD00006F0200020B1204601F0F0FBBDE8F88F91
:103AE000B9F1000F7BD007F0010018B906F490700F
:103AF000002874D005F0010030B106F4807018B1D0
:103B0000606C40F00100606405F0040030B107F023
:103B1000010018B1606C40F00200606405F0020022
:103B200030B107F0010018B1606C40F0040060642F
:103B300005F0080048B106F0200010B907F00100B8
:103B400018B1606C40F008006064606C002845D0DB
:103B500005F0200028B106F0200010B1204601F049
:103B6000ADFB20684069C0F3801A606C00F008006B
:103B700010B9BAF1000F2CD0204601F046FB2068A6
:103B8000406900F0400000B300BF00BF216814315D
:103B900051E8001F21F040002168143141E8000283
:103BA000002AF3D100BFE06B50B17748E16B486366
:103BB000E06BFEF725FA88B1E06B416B88470DE0BA
:103BC0002046FFF76FFF09E009E02046FFF76AFF94
:103BD00004E02046FFF766FF002060647EE7206B6C
:103BE000012877D105F01000002873D006F01000EE
:103BF0000028FAD000BF00200090206800680090E4
:103C000020684068009000BF00BF2068406900F055
:103C1000400000285FD0E06B006840681FFA80F821
:103C2000B8F1000F55D0A08D404552DDA4F82E808C
:103C3000E06B8069202843D000BF00BF21680C31B1
:103C400051E8001F21F4807021680C3141E8000226
:103C5000002AF3D100BF00BF00BF2168143151E832
:103C6000001F21F001002168143141E80002002A00
:103C7000F3D100BF00BF00BF2168143151E8001F1D
:103C800021F040002168143141E80002002AF3D1FC
:103C900000BF202084F842000020206300BF00BF46
:103CA00021680C3151E8001F21F0100021680C310F
:103CB00041E80002002AF3D100BFE06BFEF774F97F
:103CC00002206063A08DE28D801A81B22046FFF74A
:103CD000BBFD03E742E0A08DE18D401A1FFA80F89A
:103CE000E08DD0B3B8F1000F37D000BF00BF21681E
:103CF0000C3151E8001F21F4907021680C3141E82B
:103D00000002002AF3D100BF00BF00BF21681431B8
:103D100051E8001F21F001002168143141E8000240
:103D2000002AF3D100BF202084F842000020206345
:103D300000BF00BF21680C3151E8001F21F01000C6
:103D400021680C3141E80002002AF3D100BF0220B3
:103D5000606341462046FFF777FDBFE605F080002F
:103D600030B106F0800018B1204601F007FCB5E63E
:103D700005F0400030B106F0400018B1204601F0D7
:103D80007AFAABE600BFA9E65F50000810B504461A
:103D90000CB9012010BDA06900B100E000BF94F88B
:103DA000410028B9002084F84000204600F048F87F
:103DB000242084F841002068C06820F40050216865
:103DC000C860204601F0F8FA2068006920F49040AD
:103DD000216808612068406920F02A002168486154
:103DE0002068C06840F400502168C860002060640A
:103DF000202084F8410084F842000020606300BF66
:103E0000C8E7000010B504460A49206888420FD16F
:103E10000948C06920F400300749C8610C210748EF
:103E2000FEF74EFDE06BFEF7BFF92620FFF732F8F4
:103E300010BD000000440040001002400008014096
:103E400010B586B0044600200290039004900590BF
:103E50002A49206888424ED100BF2948C06940F4F1
:103E600000302749C8610846C06900F4003001905D
:103E700000BF00BF00BF0846806940F004008861B1
:103E80000846806900F00400019000BF00BF0420D4
:103E90000290022003900320059002A91948FEF722
:103EA000B9FD0820029000200390049002A9154853
:103EB000FEF7B0FD14481549086000204860002155
:103EC000124881608021C1600021016141618161EE
:103ED000C161FEF77BFB08B1FDF7F9FD00BF0B48A0
:103EE000E063446200BF002211462620FFF704F879
:103EF0002620FEF7F1FF06B010BD00000044004090
:103F000000100240000801406C00024074010020D3
:103F10002DE9F84F04460E46174699464FF0000A21
:103F200094F8420020284FD106B117B90120BDE80E
:103F3000F88F00206064222084F842000020206373
:103F4000FEF720FF8246A785E785A068B0F5805F71
:103F500004D1206910B90025B04602E035464FF083
:103F6000000829E05346002220212046CDF8009089
:103F700001F034FB08B10320D9E745B92068406857
:103F8000C0F30800A8F8000008F1020811E0A068DA
:103F9000B0F5805F03D0A06828B9206918B92068FF
:103FA0004068287004E02068406800F07F002870B6
:103FB0006D1CE08D401EE085E08D0028D2D12020D0
:103FC00084F842000020B2E70220B0E770B5054651
:103FD000286801F0F1FF0446204600F059FE00B9C0
:103FE00070BD624850F82400807B30B15F4850F8C3
:103FF0002400807CC0F3400000B35C4850F82400EB
:1040000081895A4850F824008182584850F8240089
:10401000807C20F00200801C544951F824108874E0
:10402000524850F82400807C20F008014F4850F896
:1040300024008174204601F04FFF95E04B4850F872
:104040002400007C01287CD1484850F82400807C62
:10405000C0F3800040B1454850F8240081894348AE
:1040600050F8240081823BE0404850F82400807CD6
:1040700000F00100E8B93D4850F82400817D3B483C
:1040800050F82400C07B81420FD1384850F82400FA
:10409000807C20F00100401C344951F824108874C1
:1040A0000021324850F824008182204601F040FF70
:1040B00016E02E4850F82400817D2C4850F824004A
:1040C000828A2A4850F82400808A401C83B22748FC
:1040D00050F824008382254850F8240080688154D9
:1040E000224850F82400818A204850F82400808912
:1040F000814227D11D4B53F824309A891B4B53F82A
:1041000024309968194B53F82430987B00F036F925
:10411000B8B1164850F82400807C20F00200801CC2
:10412000124951F824108874104850F82400807CFB
:1041300020F008010D4850F824008174204601F059
:10414000CBFE11E0094850F82400807C20F00101EA
:10415000064850F8240081740021044850F82400D7
:104160008182204601F0E4FE00BF39E7B00A00205A
:1041700070472DE9F84F04460E46174699464FF012
:10418000000A94F8410020284AD106B117B901204D
:10419000BDE8F88F00206064212084F84100FEF71C
:1041A000F1FD8246A784E784A068B0F5805F04D162
:1041B000206910B90025B04602E035464FF00008EE
:1041C0001BE05346002280212046CDF8009001F0EC
:1041D00005FA08B10320DBE745B9B8F80000C0F3E1
:1041E00008002168486008F1020803E02878216887
:1041F00048606D1CE08C401EE084E08C0028E0D11B
:104200005346002240212046CDF8009001F0E6F907
:1042100008B10320BCE7202084F841000020B7E764
:104220000220B5E7704710B50446204600F015F8A7
:1042300010BD10B5044620684068C0F3402058B156
:104240002068806800F0010030B16FF00100216843
:1042500088602046FFF7E7FF10BD01460A68C8687E
:1042600010600020704700F003F800BFFEE7000078
:104270000348006800F0010000B100BE00F044FCFB
:10428000F0ED00E010B50446E06902F00BFC002000
:1042900010BD10B504461C222146012000F000F993
:1042A00010BD70B590B005460E46144629460EA8BE
:1042B00001F036FF08B910B070BDBDF83800C0F38A
:1042C0000E00B04200D0F6E79DF83900C00960B199
:1042D000012231460CA801F081FE0CA90EA801F0C4
:1042E0006BFFC8B1204601F02DFA05A8FFF7D1FFFA
:1042F00000B9E0E70AA90EA801F05EFF58B18DF8F9
:1043000014400020039009A807C88DE8070005A8FD
:104310000FC801F029FA00BF00BFCCE70FB410B5F9
:104320001C2202A9012000F0E4F810BC5DF814FB87
:1043300070B504460D461646022C04D13146284677
:1043400001F084FB70BD012C04D13146284601F0F8
:104350003BFBF7E70020F5E770B504460D4616462F
:10436000022C04D13146284601F07EFB05E0012CE9
:1043700003D13146284601F043FB70BD70B50446B9
:104380000D461646022C04D13146284601F076FB34
:1043900070BD012C04D13146284601F040FBF7E7FF
:1043A0000120F5E730B50446002504E04FF47A70AB
:1043B00000F014F86D1CA542F8D330BD10B5FEF71F
:1043C00071FF0449B0FBF1F40420FFF7D5F902486E
:1043D000046010BD40420F00A400002070B50346E9
:1043E00000224FF0E02675690D4E366803FB06F497
:1043F0004FF0E026B16910E04FF0E026B069884246
:104400000BD0884202D20E1A324402E02E1A0E4419
:1044100032440146A24200D300E0EDE700BF70BD88
:10442000A400002072B6704762B670472DE9F041D3
:1044300004460D46FFF7F6FFFEF72AFA00BFC4F365
:1044400009000028FBD100BF1048008800F100607F
:10445000A842F9D30A2700BF264607E0304601F0FC
:104460001CFB00B900E000BF06F58066AE42F5D93E
:1044700000BF00BFFEF7AAF9FFF7D6FF002F02DD4D
:104480000120BDE8F0810020FBE70000E0F7FF1FFE
:104490000248008800F1006070470000E0F7FF1F4D
:1044A0002DE9F04307468846154600BF05F1080090
:1044B000B0F5806FFADCB8B201F00AFB0446D4F81C
:1044C000009008342A4621460120FFF731FF0646B6
:1044D000B1450CD1002005E014F8011B08F80010CC
:1044E000411C88B2A842F7DB0120BDE8F083002020
:1044F000FBE72DE9F8430646884615460A27FFF7ED
:1045000091FF00BF00BF05F10800B0F5806FFADC35
:10451000B0B201F0DDFA0446601900F1080120464E
:10452000FFF784FF00B91EE02A4641460120FFF74D
:10453000FFFE00906946204601F0E0FA00B912E063
:104540002A46414604F1080000F01BF800B90AE0D1
:104550002A4604F108010120FFF7EAFE009988428B
:1045600000D000E003E0781EC0B2071ECAD100BF31
:10457000FFF75AFF002F02DD0120BDE8F88300207D
:10458000FBE72DE9F04105460E4614462046E217AA
:1045900004EB5272D2102146E31704EB5373DB1085
:1045A000A4EBC3030BB1012300E000231A4494B22F
:1045B000FFF738FF00270BE03146284601F09EFA4E
:1045C00010B90020BDE8F08108360835781C87B2A4
:1045D000A742F1DBFFF728FF0120F3E72DE9FF41B8
:1045E00006460D461446002000900190029003906C
:1045F000284601F02FFC0090002002900320039039
:1046000014B90020019025E0012C02D11648019038
:1046100020E0022C02D1154801901BE0032C02D1AE
:104620001348019016E0042C02D10120019011E002
:10463000052C02D1112001900CE0062C04D10120A0
:1046400002901120019005E0072C03D11120019068
:1046500002200290304601F003FC07466946FEF74F
:10466000D9F9BDE8FF810000000021100000111001
:10467000000031102DE9F04105460C46204601F0BE
:10468000E9FB0646284601F0EBFB07463146FEF7FC
:1046900061FB10B10120BDE8F0810020FBE72DE9AE
:1046A000F04105460C46204601F0D4FB064628465C
:1046B00001F0D6FB07463146FEF754FBBDE8F0811A
:1046C0002DE9F04105460C461646204601F0C2FB96
:1046D0000746284601F0C4FB804632463946FEF7BD
:1046E0004BFBBDE8F0812DE9F04704460D469046AE
:1046F0001E46DDF82090FFF795FE204601F0BEFA39
:10470000A179204601F06CFA204601F0F5FA38B99B
:10471000204601F0D2FAFFF787FE0020BDE8F087BF
:10472000B8F1000F0ED02912204601F059FA2046A8
:1047300001F0E2FA30B9204601F0BFFAFFF774FE4B
:104740000020EBE7E9B2204601F04AFA204601F0EA
:10475000D3FA30B9204601F0B0FAFFF765FE002029
:10476000DCE7204601F08AFAA079401CC1B220465D
:1047700001F036FA204601F0BFFA30B9204601F0C8
:104780009CFAFFF751FE0020C8E7002706E0012150
:10479000204601F0C4F9F055781CC7B2A9F1010018
:1047A000B842F4DC0021204601F0B9F9A9F1010179
:1047B0007054204601F081FAFFF736FE0120ADE784
:1047C0002DE9F84F83460F46904699460A9D681C8E
:1047D000C5B2B8F1000F01D0681CC5B2AA46504658
:1047E000FBF730FD04460026B8F1000F09D03A125D
:1047F0003046711CCEB222543046711CCEB22754C2
:1048000003E03046711CCEB22754002007E019F8AF
:1048100000303146721CD6B26354411CC8B2A84263
:10482000F5DB2A462146584600F02BF8009020463A
:10483000FBF737FD0098BDE8F88F38B50446607A7D
:1048400000F0010050B1A17860780422FFF7C6FEA5
:104850002179E0780422FFF7C1FE09E02179E078B0
:104860000522FFF7BBFEA17860780522FFF7B6FEB0
:10487000204601F022FA002000900098FFF79EFDEC
:1048800038BD2DE9F04105460E461746FFF7CAFD33
:10489000284601F0F3F9A979284601F0A1F9284644
:1048A00001F02AFA20B9FFF7BFFD0020BDE8F08132
:1048B00000240DE0315D284601F092F9284601F010
:1048C0001BFA18B9FFF7B0FD0020EFE7601CC4B277
:1048D000BC42EFDB284601F0F0F9FFF7A5FD01200F
:1048E000E4E700002DE9FF4F91B00F4692461D46C8
:1048F000DDE91EB60D2108A802F09EF908AB3A4684
:1049000046A11198FBF708FD00244BE04AA111983D
:10491000FBF79AFF4FF0000834E04FF0000926E063
:1049200045A11198FBF790FF04FB068149445AF812
:10493000210002F0CBFCCDE9060140A2CDE9000147
:1049400014210CA8FBF7FCFC0CA91198FBF77CFFC9
:10495000681E484503DD3BA11198FBF775FF3AA19E
:104960001198FBF771FF09F1010000F0FF09A9455B
:10497000D6DB701E404503DD32A11198FBF764FFC2
:1049800008F10108B045C8DB2FA11198FBF75CFFC7
:10499000ABF10100A04203DD2AA11198FBF754FFFF
:1049A000601CC4B25C45B1DB28A11198FBF74CFF39
:1049B000002418E0209951F8240002F087FC1FA27F
:1049C000CDE90001142103A8FBF7BAFC03A9119853
:1049D000FBF73AFF2198401EA04203DD19A1119870
:1049E000FBF732FF641C21988442E3DB1AA1119883
:1049F000FBF72AFF22991198FBF726FF18A11198BF
:104A0000FBF722FF17A11198FBF71EFF1198FBF788
:104A1000FCFE80B215B0BDE8F08F00007B2270690B
:104A200064223A202564202C22756964223A2225CA
:104A300073222C226D64223A5B000000252E33661F
:104A4000000000002C0000005D0000005D2C2273BF
:104A500064223A5B000000005D2C226D7367223AED
:104A600022000000207D26686D6E73740000000037
:104A70000146002201E04910521C01F0010000280B
:104A8000F9D0D0B27047000001461248814201D1EE
:104A9000012070471048814201D10220F9E70F48F8
:104AA000814201D10320F4E70D48814201D1042065
:104AB000EFE70C48814201D10520EAE70A4881422C
:104AC00001D10620E5E70948814201D10720E0E74E
:104AD00000BFFEE700080140000C0140001001404B
:104AE0000014014000180140001C0140002001405A
:104AF00070B504460D46034B042229462046FBF7B9
:104B000041FE70BDCD5E000801F09CFB10B504466F
:104B1000207800F00700094951F82000807C20F03F
:104B20000801207800F00700044A52F82000817440
:104B3000217801F0070001F0CFF910BDB00A002084
:104B400010B50446207E00F0010078B12046FFF742
:104B5000DDFF217801F00701054A52F82110C869EC
:104B6000FEF781FF00202076012010BD0020FCE729
:104B7000B00A002010B50446207800F007001C4958
:104B800051F82000807C20F00101207800F007001F
:104B9000174A52F8200081740021207800F00700A5
:104BA00052F820008182207800F00700114651F869
:104BB0002000807C20F00201207800F0070052F8ED
:104BC00020008174207800F00700114651F8200081
:104BD000807C20F008000830217801F0070152F8AD
:104BE00021108874217801F0070001F0A1F910BDAF
:104BF000B00A002070B50446E569286801F0DCF9C8
:104C000006462670207800F00700144941F820403D
:104C1000207800F007001249085C48B9012020768E
:104C2000217801F007010E4A50542046FFF788FF13
:104C3000207E00F0010070B9606868602846FFF7C8
:104C4000A5F808B1FCF743FF2046FFF793FF0120CA
:104C50002076207670BD0020FCE70000B00A00201E
:104C6000A80000200146087800F00700074A52F823
:104C70002000807CC0F3400030B1087800F00700CD
:104C800052F82000808A70470020FCE7B00A00201C
:104C900001460120704700002DE9F047064689468D
:104CA00092461F46307800F00700254951F8200051
:104CB000807CC0F3C008B8F1000F02D03046FFF787
:104CC00025FF524649463846FFF746FB307800F04C
:104CD00007001B4951F82000C46900250BE0681C3F
:104CE00085B20120FDF706FD642D04DD00BF002024
:104CF00084F8400000BF94F841002028EFD100253F
:104D00000BE0681C85B20120FDF7F4FC642D04DD86
:104D100000BF002084F8400000BF4FF6FF735246EA
:104D200049462046FFF725FA0028EAD1B8F1000FDE
:104D300002D03046FFF71EFF0120BDE8F0870000DB
:104D4000B00A002010B5FEF72FF810BD10B5FEF721
:104D50001FF810BD10B5FEF721F810BD0EB50020EC
:104D60000090019002901D481D49086081151C4863
:104D700081600021017301754FF46021C161002041
:104D800017494860032116480161FDF705F808B18D
:104D9000FCF79DFE0A200090012001900720029060
:104DA00069460F48FCF748FF08B1FCF790FE102059
:104DB00000900220019069460948FCF73DFF08B1C8
:104DC000FCF785FE112000900320019069460448FD
:104DD000FCF732FF08B1FCF77AFE0EBD002401405B
:104DE000B800002008B500BF0E48406940F001003F
:104DF0000C4948610846406900F00100009000BF7E
:104E000000BF002211460B20FEF776F80B20FEF7BC
:104E100063F8002211461020FEF76EF81020FEF70E
:104E20005BF808BD0010024000B585B0002001907D
:104E300002900390049000BF4648806940F0100043
:104E4000444988610846806900F01000009000BF66
:104E500000BF00BF0846806940F004008861084632
:104E6000806900F00400009000BF00BF00BF08464A
:104E7000806940F0080088610846806900F00800F9
:104E8000009000BF00BF00BF0846806940F02000CE
:104E900088610846806900F02000009000BF00BFD4
:104EA000002248F2F0012C48FDF766FF002241F68F
:104EB000F0512A48FDF760FF002248F2FF612848C0
:104EC000FDF75AFF002204212648FDF755FF48F25E
:104ED000F000019001200290002003900320049034
:104EE00001A91D48FDF796FD41F6F0500190012003
:104EF0000290002003900320049001A91748FDF7B9
:104F000089FD48F2FF4001900120029000200390AB
:104F10000320049001A91248FDF77CFD04200190B4
:104F200001200290002003900320049001A90D4865
:104F3000FDF770FD4FF400700190012002900020F9
:104F400003900220049001A90548FDF763FD05B018
:104F500000BD0000001002400008014000100140A8
:104F6000000C01400014014010B50B480B490860CB
:104F70004FF4E1304860002108488160C160016160
:104F80000C21416100218161C161FEF7FFFE08B182
:104F9000FCF79DFD10BD0000004400402C010020E6
:104FA00000BFFEE700BFFEE77047000008B50849F4
:104FB0000968C9084FF47A72B1FBF2F141430091DC
:104FC00000BF00BF00994A1E00920029F9D108BD18
:104FD0000C000020704710B5FDF7ECFE10BD00B5C9
:104FE00095B028210BA8FBF73BFC142106A8FBF782
:104FF00037FC18216846FBF733FC02200B90012098
:105000000F901020109002201290002113914FF465
:10501000601114910BA8FEF77DF908B1FCF757FD5C
:105020000F20069002200790002008904FF4806027
:10503000099000200A90022106A8FEF747F808B15F
:10504000FCF745FD02200090800302906846FDF7C2
:10505000A5FF08B1FCF73BFD15B000BD704770B56A
:1050600005466C6A0020E085E0842046FEF71AFDC4
:1050700070BD70B506460025746A20684069C0F3AB
:10508000C01594F84100212805D125B10020E08405
:10509000204600F000F920684069C0F3801594F8BC
:1050A0004200222805D125B10020E085204600F0ED
:1050B000ACF8606C40F0100060642046FEF7F2FC33
:1050C00070BD70B505466C6A2868006800F0200065
:1050D000002842D1E08500BF00BF21680C3151E8B3
:1050E000001F21F4807021680C3141E80002002A81
:1050F000F3D100BF00BF00BF2168143151E8001F89
:1051000021F001002168143141E80002002AF3D1A6
:1051100000BF00BF00BF2168143151E8001F21F01B
:1051200040002168143141E80002002AF3D100BF99
:10513000202084F84200206B01280ED100BF00BF60
:1051400021680C3151E8001F21F0100021680C315A
:1051500041E80002002AF3D100BF00206063206B09
:10516000012804D1A18D2046FEF76EFB02E0204607
:10517000FEF72CFF70BD70B505466C6A0020E16B30
:105180004863A06B18B1A06B406B00B170BD0020EC
:10519000E084E0856064202084F8410084F84200C7
:1051A000002020632046FEF773FB00BFEEE770B5DA
:1051B00005466C6A01206063206B012805D1A08D33
:1051C00041082046FEF740FB02E02046FEF7D0FFF4
:1051D00070BD70B505466C6A0020A16B4863E06B3A
:1051E00018B1E06B406B00B170BD0020E084E08539
:1051F0006064202084F8410084F84200002020638D
:105200002046FEF745FB00BFEEE700BF00BF026887
:105210000C3252E8002F22F4907102680C3242E8FE
:105220000013002BF3D100BF00BF00BF026814328F
:1052300052E8002F22F001010268143242E8001304
:10524000002BF3D100BF016B01290ED100BF00BFBD
:1052500002680C3252E8002F22F0100102680C3272
:1052600042E80013002BF3D100BF202180F8421048
:1052700000210163704710B504462068C06820F023
:1052800040002168C860202084F841002046FEF7D5
:10529000C9FF002010BD00BF00BF02680C3252E8F9
:1052A000002F22F0C00102680C3242E80013002BEC
:1052B000F3D100BF202180F841107047F8B50446B3
:1052C00094F84200222875D1A068B0F5805F0CD117
:1052D000206950B90025A66A20684068C0F308001C
:1052E0003080A06A801CA06215E0A56A0026A06834
:1052F000B0F5805F03D0A06828B9206918B920688C
:105300004068287004E02068406800F07F00287042
:10531000A06A401CA062E08D401E80B2E08500289B
:1053200046D12068C06820F020002168C86020684D
:10533000C06820F480702168C8602068406920F04F
:10534000010021684861202084F842000020606349
:10535000206B012826D10020206300BF00BF2168F8
:105360000C3151E8001F21F0100021680C3141E898
:105370000002002AF3D100BF2068006800F010008E
:1053800010280AD100BF002000902068006800901B
:1053900020684068009000BF00BFA18D2046FEF746
:1053A00053FA02E02046FEF711FE0020F8BD01E0AE
:1053B0000020FBE70220F9E770B50446216809697F
:1053C00021F44051E2681143226811612269A16809
:1053D0001143626941EA02052168C96841F20C6221
:1053E000914329432268D1602168496921F44071C1
:1053F000A2691143226851612D4A2168914202D16C
:10540000FDF740FF01E0FDF72DFF00EBC00101EBD0
:10541000001162689200B1FBF2F100EBC00202EBF6
:10542000001263689B00B2FBF3F26423B2FBF3F259
:1054300002EBC20303EB0212A1EB8201322202EB68
:1054400001116422B1FBF2F101F0F00100EBC002A6
:1054500002EB001263689B00B2FBF3F26423B2FB21
:10546000F3F201EB021200EBC00101EB00116368E3
:105470009B00B1FBF3F100EBC00303EB0013666884
:10548000B600B3FBF6F36426B3FBF6F303EBC306F7
:1054900006EB0313A1EB8301322303EB0111642319
:1054A000B1FBF3F101F00F0111442268916070BD6E
:1054B0000038014077B581B0044615460298A062D5
:1054C000A58500206064222084F842002848E16B12
:1054D00088622848E16BC8622748E16B08630020B6
:1054E000E16B486302AE32682368191D2B46E06BFE
:1054F000FDF7B2F800BF002000902068006800901F
:1055000020684068009000BF00BF206970B100BFF4
:1055100000BF21680C3151E8001F41F48070216800
:105520000C3141E80002002AF3D100BF00BF00BFE8
:105530002168143151E8001F41F001002168143145
:1055400041E80002002AF3D100BF00BF00BF21687C
:10555000143151E8001F41F040002168143141E846
:105560000002002AF3D100BF002004B070BD00008B
:10557000C3500008AF51000873500008014691F86D
:105580004100212828D18868B0F5805F0BD10869D7
:1055900048B90A6A1088C0F308000B685860086AA6
:1055A000801C086205E00B6A581C086218780B68BA
:1055B0005860C88C401E80B2C88458B90868C0685A
:1055C00020F080000B68D8600868C06840F0400098
:1055D0000B68D860002070470220FCE72DE9F041FD
:1055E00004460D4617469846069E34E0701C88B364
:1055F0002EB1FDF7C7FBA0EB0800B0422BD900BFCE
:1056000000BF21680C3151E8001F21F4D0702168DF
:105610000C3141E80002002AF3D100BF00BF00BFF7
:105620002168143151E8001F21F001002168143174
:1056300041E80002002AF3D100BF202084F8410095
:1056400084F8420000BF002084F8400000BF03201F
:10565000BDE8F081FFE7206800682840A84201D13A
:10566000012000E00020B842C0D00020F0E7000098
:1056700010B50248FEF718FA10BD00002C010020FA
:1056800000BFFEE710B50248FEF7D3FD10BD0000D5
:10569000BC0A0020490050EAC12018BF04204A0D6E
:1056A00018BF40F0010040F2FF72B2EB515F08BF3B
:1056B00040F00200012808BF052070470FB47CB5F8
:1056C000DDE90D541D4903C9CDE900018DF80150F4
:1056D000032D0CD1200E8DF80200200C8DF8030054
:1056E000200A8DF80400E0B28DF8050013E0FFF702
:1056F0002DFB000E8DF80200FFF728FB000C8DF843
:105700000300FFF723FB000A8DF80400FFF71EFBE0
:10571000C0B28DF80500082269460120FEF71CFE84
:105720009DF81800022805D1012308226946044883
:10573000FFF7B2FA7CBC5DF814FB0000F4730008BC
:10574000D00A00208AB0044603A8FEF7A2FD8DF817
:105750000C4007A807C88DE8070003A80FC8FEF78C
:10576000DDFD00F06FFD00000FB42DE9F04F87B0B4
:10577000179D4FF000090024A246A04600270026EE
:105780009DF8400002281BD19DF84400C0F3C200E0
:10579000894908701498486002208DF80C0005A80B
:1057A0000190084601A991E80E100830A0E80E10FB
:1057B00015B18148FFF7C4F97F48FFF71BFA00BF16
:1057C00000200121CDE9031014A807C88DE80700C7
:1057D00010A80FC8FFF772FFEDE01FB97648FFF77A
:1057E00041FAC7B2B7B909F101008146734988424D
:1057F0000FD34FF000094FF0000800200121CDE940
:10580000031014A807C88DE8070010A80FC8FFF7F9
:1058100055FFD0E04FF00009B8F1000F03D0B8F108
:10582000010F44D17DE0082205A90120FEF7A6FD65
:10583000002869D09DF815009DF8141040EA012A4F
:105840009DF8160000069DF8171040EA01409DF8EB
:10585000181040EA01209DF8191040EA01044DB1EA
:1058600057480088A0F58060A04201D2012007E0DF
:10587000002005E0B4F5804F01D9012000E00020B0
:10588000B0B135B1FEF704FEA0F58060A0F1006074
:1058900001E04FF4804083460320CDE9030B14A8B8
:1058A00007C88DE8070010A80FC8FFF707FF80E0C2
:1058B00025B144482118FEF7B9FD05E004F1006167
:1058C0004FF00060FEF7B2FD88B100200421CDE961
:1058D000031014A807C88DE8070010A80FC8FFF729
:1058E000EDFE08F1010000F0FF08002618E000209E
:1058F0000621CDE9031014A807C88DE8070010A8F9
:105900000FC8FFF7DBFE0BE000200521CDE90310F7
:1059100014A807C88DE8070010A80FC8FFF7CEFE2F
:1059200047E015B12749314401E006F1006108461E
:105930003A4605A9FEF725FE3E44A6420ED94FF091
:10594000000800200721CDE9031014A807C88DE83E
:10595000070010A80FC8FFF7B1FE29E0A64227D123
:105960004FF00008A2B20DB1164801E04FF0006000
:1059700001460120FEF7DCFC50450DD100200390CC
:10598000049014A807C88DE8070010A80FC8FFF7F7
:1059900095FE0020FFF7D6FE00200821CDE9031078
:1059A00014A807C88DE8070010A80FC8FFF786FEE7
:1059B00000BF00BF00BF10E7D00A0020FFFF2F008C
:1059C000E0F7FF1F0040000830B502460B464FF6D7
:1059D000FF70002111E0555C684000240AE000F0EF
:1059E0000105002D04DD40104AF20105684000E089
:1059F0004010641C082CF2DB491C9942EBDB30BDE3
:105A000070B505460C46A01E81B22846FFF7DCFFA4
:105A100006463112A01E2954601E2E5470BD70B56A
:105A200005460C46A01E81B22846FFF7CDFF06466C
:105A3000A01E285CB0EB262F06D1601E285CF1B2B8
:105A4000884201D1012070BD0020FCE710B502465C
:105A50001378012003E0145C6340441CE0B24C1E48
:105A60008442F8DC184610BD30B504460D46294680
:105A70002046FFF7EBFF691E605430BD30B5044689
:105A80000D4629462046FFF7E1FF691E615C88420A
:105A900001D1012030BD0020FCE710B586B00446DE
:105AA000002002900494012005900020019001A99B
:105AB00002A8FCF733FE10B1002006B010BD4CF276
:105AC0005030FCF781F808B90120F6E70020F4E730
:105AD000014600BF084A1088C21700EB925292128A
